{
  "contractName": "Clients",
  "abi": [
    {
      "anonymous": false,
      "inputs": [
        {
          "indexed": true,
          "internalType": "address",
          "name": "previousOwner",
          "type": "address"
        },
        {
          "indexed": true,
          "internalType": "address",
          "name": "newOwner",
          "type": "address"
        }
      ],
      "name": "OwnershipTransferred",
      "type": "event"
    },
    {
      "anonymous": false,
      "inputs": [
        {
          "indexed": false,
          "internalType": "address",
          "name": "_userAddress",
          "type": "address"
        },
        {
          "indexed": false,
          "internalType": "address",
          "name": "_clientID",
          "type": "address"
        },
        {
          "indexed": false,
          "internalType": "string",
          "name": "_name",
          "type": "string"
        }
      ],
      "name": "addClientEvent",
      "type": "event"
    },
    {
      "anonymous": false,
      "inputs": [
        {
          "indexed": false,
          "internalType": "address payable",
          "name": "_address",
          "type": "address"
        },
        {
          "indexed": false,
          "internalType": "string",
          "name": "_name",
          "type": "string"
        },
        {
          "indexed": false,
          "internalType": "string",
          "name": "_pwd",
          "type": "string"
        }
      ],
      "name": "addUserEvent",
      "type": "event"
    },
    {
      "anonymous": false,
      "inputs": [
        {
          "indexed": false,
          "internalType": "address",
          "name": "_userAddress",
          "type": "address"
        },
        {
          "indexed": false,
          "internalType": "string",
          "name": "_clientID",
          "type": "string"
        }
      ],
      "name": "duplicateClientEvent",
      "type": "event"
    },
    {
      "inputs": [
        {
          "internalType": "address payable",
          "name": "_address",
          "type": "address"
        },
        {
          "internalType": "string",
          "name": "_name",
          "type": "string"
        },
        {
          "internalType": "string",
          "name": "_pwd",
          "type": "string"
        }
      ],
      "name": "addUser",
      "outputs": [],
      "stateMutability": "nonpayable",
      "type": "function"
    },
    {
      "inputs": [
        {
          "internalType": "string",
          "name": "_pwd",
          "type": "string"
        }
      ],
      "name": "calcPassword",
      "outputs": [
        {
          "internalType": "bytes32",
          "name": "ePwd",
          "type": "bytes32"
        }
      ],
      "stateMutability": "pure",
      "type": "function",
      "constant": true
    },
    {
      "inputs": [
        {
          "internalType": "string",
          "name": "",
          "type": "string"
        }
      ],
      "name": "clientMap",
      "outputs": [
        {
          "internalType": "address",
          "name": "clientID",
          "type": "address"
        },
        {
          "internalType": "string",
          "name": "name",
          "type": "string"
        },
        {
          "internalType": "bool",
          "name": "flag",
          "type": "bool"
        }
      ],
      "stateMutability": "view",
      "type": "function",
      "constant": true
    },
    {
      "inputs": [
        {
          "internalType": "string",
          "name": "",
          "type": "string"
        }
      ],
      "name": "clientNameAddressMap",
      "outputs": [
        {
          "internalType": "address",
          "name": "",
          "type": "address"
        }
      ],
      "stateMutability": "view",
      "type": "function",
      "constant": true
    },
    {
      "inputs": [
        {
          "internalType": "string",
          "name": "",
          "type": "string"
        }
      ],
      "name": "clientNameInvoiceCountMap",
      "outputs": [
        {
          "internalType": "uint256",
          "name": "",
          "type": "uint256"
        }
      ],
      "stateMutability": "view",
      "type": "function",
      "constant": true
    },
    {
      "inputs": [
        {
          "internalType": "string",
          "name": "",
          "type": "string"
        },
        {
          "internalType": "uint256",
          "name": "",
          "type": "uint256"
        }
      ],
      "name": "clientNameInvoiceNumMap",
      "outputs": [
        {
          "internalType": "uint256",
          "name": "",
          "type": "uint256"
        }
      ],
      "stateMutability": "view",
      "type": "function",
      "constant": true
    },
    {
      "inputs": [
        {
          "internalType": "string",
          "name": "",
          "type": "string"
        }
      ],
      "name": "clientNameInvoicesCountMap",
      "outputs": [
        {
          "internalType": "uint256",
          "name": "",
          "type": "uint256"
        }
      ],
      "stateMutability": "view",
      "type": "function",
      "constant": true
    },
    {
      "inputs": [
        {
          "internalType": "string",
          "name": "",
          "type": "string"
        },
        {
          "internalType": "uint256",
          "name": "",
          "type": "uint256"
        }
      ],
      "name": "clientNameInvoicesMap",
      "outputs": [
        {
          "internalType": "uint256",
          "name": "invoiceNumber",
          "type": "uint256"
        },
        {
          "internalType": "uint256",
          "name": "netTerms",
          "type": "uint256"
        },
        {
          "internalType": "uint256",
          "name": "numberHours",
          "type": "uint256"
        },
        {
          "internalType": "string",
          "name": "amount",
          "type": "string"
        },
        {
          "internalType": "uint256",
          "name": "timesheetEndDate",
          "type": "uint256"
        },
        {
          "internalType": "uint256",
          "name": "invoiceSentDate",
          "type": "uint256"
        },
        {
          "internalType": "uint256",
          "name": "due30DaysDate",
          "type": "uint256"
        },
        {
          "internalType": "uint256",
          "name": "due60DaysDate",
          "type": "uint256"
        },
        {
          "internalType": "uint256",
          "name": "due90DaysDate",
          "type": "uint256"
        },
        {
          "internalType": "uint256",
          "name": "due120DaysDate",
          "type": "uint256"
        },
        {
          "internalType": "uint256",
          "name": "datePmtReceived",
          "type": "uint256"
        }
      ],
      "stateMutability": "view",
      "type": "function",
      "constant": true
    },
    {
      "inputs": [
        {
          "internalType": "address",
          "name": "_userAddress",
          "type": "address"
        }
      ],
      "name": "getUser",
      "outputs": [
        {
          "internalType": "string",
          "name": "name",
          "type": "string"
        },
        {
          "internalType": "bytes32",
          "name": "ePwd",
          "type": "bytes32"
        }
      ],
      "stateMutability": "view",
      "type": "function",
      "constant": true
    },
    {
      "inputs": [
        {
          "internalType": "uint256",
          "name": "_index",
          "type": "uint256"
        }
      ],
      "name": "getUserAddressByIndex",
      "outputs": [
        {
          "internalType": "address",
          "name": "_userAddress",
          "type": "address"
        }
      ],
      "stateMutability": "view",
      "type": "function",
      "constant": true
    },
    {
      "inputs": [],
      "name": "getUserCount",
      "outputs": [
        {
          "internalType": "uint256",
          "name": "usercount",
          "type": "uint256"
        }
      ],
      "stateMutability": "view",
      "type": "function",
      "constant": true
    },
    {
      "inputs": [
        {
          "internalType": "address",
          "name": "_userAddress",
          "type": "address"
        }
      ],
      "name": "getUserName",
      "outputs": [
        {
          "internalType": "string",
          "name": "name",
          "type": "string"
        }
      ],
      "stateMutability": "view",
      "type": "function",
      "constant": true
    },
    {
      "inputs": [
        {
          "internalType": "address",
          "name": "_userAddress",
          "type": "address"
        },
        {
          "internalType": "string",
          "name": "_clientName",
          "type": "string"
        },
        {
          "internalType": "address",
          "name": "_clientID",
          "type": "address"
        }
      ],
      "name": "isNoClient",
      "outputs": [
        {
          "internalType": "bool",
          "name": "",
          "type": "bool"
        }
      ],
      "stateMutability": "payable",
      "type": "function",
      "payable": true
    },
    {
      "inputs": [
        {
          "internalType": "address",
          "name": "_userAddress",
          "type": "address"
        },
        {
          "internalType": "string",
          "name": "_pwd",
          "type": "string"
        }
      ],
      "name": "isPasswordValid",
      "outputs": [
        {
          "internalType": "bool",
          "name": "",
          "type": "bool"
        }
      ],
      "stateMutability": "view",
      "type": "function",
      "constant": true
    },
    {
      "inputs": [],
      "name": "owner",
      "outputs": [
        {
          "internalType": "address",
          "name": "",
          "type": "address"
        }
      ],
      "stateMutability": "view",
      "type": "function",
      "constant": true
    },
    {
      "inputs": [],
      "name": "renounceOwnership",
      "outputs": [],
      "stateMutability": "nonpayable",
      "type": "function"
    },
    {
      "inputs": [
        {
          "internalType": "address",
          "name": "newOwner",
          "type": "address"
        }
      ],
      "name": "transferOwnership",
      "outputs": [],
      "stateMutability": "nonpayable",
      "type": "function"
    },
    {
      "inputs": [
        {
          "internalType": "address",
          "name": "",
          "type": "address"
        }
      ],
      "name": "userClientIDMap",
      "outputs": [
        {
          "internalType": "address",
          "name": "",
          "type": "address"
        }
      ],
      "stateMutability": "view",
      "type": "function",
      "constant": true
    },
    {
      "inputs": [
        {
          "internalType": "address",
          "name": "",
          "type": "address"
        }
      ],
      "name": "userToNumClientsMap",
      "outputs": [
        {
          "internalType": "int256",
          "name": "",
          "type": "int256"
        }
      ],
      "stateMutability": "view",
      "type": "function",
      "constant": true
    },
    {
      "inputs": [
        {
          "internalType": "address",
          "name": "",
          "type": "address"
        }
      ],
      "name": "usersMap",
      "outputs": [
        {
          "internalType": "string",
          "name": "name",
          "type": "string"
        },
        {
          "internalType": "bytes32",
          "name": "ePwd",
          "type": "bytes32"
        },
        {
          "internalType": "bool",
          "name": "flag",
          "type": "bool"
        }
      ],
      "stateMutability": "view",
      "type": "function",
      "constant": true
    },
    {
      "inputs": [
        {
          "internalType": "address",
          "name": "",
          "type": "address"
        },
        {
          "internalType": "uint256",
          "name": "",
          "type": "uint256"
        }
      ],
      "name": "usersToClientsMap",
      "outputs": [
        {
          "internalType": "address",
          "name": "clientID",
          "type": "address"
        },
        {
          "internalType": "string",
          "name": "name",
          "type": "string"
        },
        {
          "internalType": "bool",
          "name": "flag",
          "type": "bool"
        }
      ],
      "stateMutability": "view",
      "type": "function",
      "constant": true
    },
    {
      "inputs": [
        {
          "internalType": "string",
          "name": "name",
          "type": "string"
        }
      ],
      "name": "getClientNameFromMap",
      "outputs": [
        {
          "internalType": "address",
          "name": "clientAddress",
          "type": "address"
        }
      ],
      "stateMutability": "view",
      "type": "function",
      "constant": true
    },
    {
      "inputs": [
        {
          "internalType": "address",
          "name": "userAddress",
          "type": "address"
        }
      ],
      "name": "getClientIDFromIDMap",
      "outputs": [
        {
          "internalType": "address",
          "name": "clientID",
          "type": "address"
        }
      ],
      "stateMutability": "view",
      "type": "function",
      "constant": true
    },
    {
      "inputs": [
        {
          "internalType": "address",
          "name": "_userAddress",
          "type": "address"
        },
        {
          "internalType": "string",
          "name": "_pwd",
          "type": "string"
        },
        {
          "internalType": "address",
          "name": "_clientID",
          "type": "address"
        },
        {
          "internalType": "string",
          "name": "_name",
          "type": "string"
        }
      ],
      "name": "addClient",
      "outputs": [],
      "stateMutability": "nonpayable",
      "type": "function"
    },
    {
      "inputs": [
        {
          "internalType": "address",
          "name": "_userAddress",
          "type": "address"
        },
        {
          "internalType": "string",
          "name": "_pwd",
          "type": "string"
        },
        {
          "internalType": "string",
          "name": "_name",
          "type": "string"
        }
      ],
      "name": "getClientByName",
      "outputs": [
        {
          "internalType": "string",
          "name": "name",
          "type": "string"
        },
        {
          "internalType": "address",
          "name": "clientID",
          "type": "address"
        }
      ],
      "stateMutability": "view",
      "type": "function",
      "constant": true
    },
    {
      "inputs": [
        {
          "internalType": "address",
          "name": "_userAddress",
          "type": "address"
        },
        {
          "internalType": "uint256",
          "name": "_index",
          "type": "uint256"
        }
      ],
      "name": "getClientByIndex",
      "outputs": [
        {
          "internalType": "string",
          "name": "name",
          "type": "string"
        },
        {
          "internalType": "address",
          "name": "clientID",
          "type": "address"
        }
      ],
      "stateMutability": "view",
      "type": "function",
      "constant": true
    },
    {
      "inputs": [
        {
          "internalType": "address",
          "name": "_userAddress",
          "type": "address"
        }
      ],
      "name": "getClientCount",
      "outputs": [
        {
          "internalType": "int256",
          "name": "count",
          "type": "int256"
        }
      ],
      "stateMutability": "view",
      "type": "function",
      "constant": true
    }
  ],
  "bytecode": "0x6080604052600060025560006200001b620000bf60201b60201c565b9050806000806101000a81548173ffffffffffffffffffffffffffffffffffffffff021916908373ffffffffffffffffffffffffffffffffffffffff1602179055508073ffffffffffffffffffffffffffffffffffffffff16600073ffffffffffffffffffffffffffffffffffffffff167f8be0079c531659141344cd1fd0a4f28419497f9722a3daafe3b4186f6b6457e060405160405180910390a350620000c7565b600033905090565b61409080620000d76000396000f3fe60806040526004361061019c5760003560e01c8063a69fd727116100ec578063d7554a681161008a578063e281447c11610064578063e281447c146116a8578063e331435414611784578063f2fde38b14611815578063f53642de146118665761019c565b8063d7554a68146112c0578063d79fca3d1461143f578063d84f55ee146115de5761019c565b8063c77e7a8b116100c6578063c77e7a8b14610ea3578063c93b840614610f34578063cca76c5d1461101a578063d41ba10f146110955761019c565b8063a69fd72714610c94578063b5cb15f714610d70578063c29ca72614610d9b5761019c565b806336b5132411610159578063715018a611610133578063715018a614610a425780638353a4ba14610a595780638da5cb5b14610bd8578063a426e2d914610c2f5761019c565b806336b51324146108305780634be7a6971461090c5780636f77926b146109715761019c565b8063098ef9a5146101a15780630f3aef011461027d57806313f0df4d146103855780631b3b36b5146104985780631e099b4c146105985780632e7f45141461069f575b600080fd5b3480156101ad57600080fd5b50610267600480360360208110156101c457600080fd5b81019080803590602001906401000000008111156101e157600080fd5b8201836020820111156101f357600080fd5b8035906020019184600183028401116401000000008311171561021557600080fd5b91908080601f016020809104026020016040519081016040528093929190818152602001838380828437600081840152601f19601f820116905080830192505050505050509192919290505050611978565b6040518082815260200191505060405180910390f35b34801561028957600080fd5b50610343600480360360208110156102a057600080fd5b81019080803590602001906401000000008111156102bd57600080fd5b8201836020820111156102cf57600080fd5b803590602001918460018302840111640100000000831117156102f157600080fd5b91908080601f016020809104026020016040519081016040528093929190818152602001838380828437600081840152601f19601f8201169050808301925050505050505091929192905050506119a6565b604051808273ffffffffffffffffffffffffffffffffffffffff1673ffffffffffffffffffffffffffffffffffffffff16815260200191505060405180910390f35b61047e6004803603606081101561039b57600080fd5b81019080803573ffffffffffffffffffffffffffffffffffffffff169060200190929190803590602001906401000000008111156103d857600080fd5b8201836020820111156103ea57600080fd5b8035906020019184600183028401116401000000008311171561040c57600080fd5b91908080601f016020809104026020016040519081016040528093929190818152602001838380828437600081840152601f19601f820116905080830192505050505050509192919290803573ffffffffffffffffffffffffffffffffffffffff169060200190929190505050611a3c565b604051808215151515815260200191505060405180910390f35b3480156104a457600080fd5b5061057e600480360360408110156104bb57600080fd5b81019080803573ffffffffffffffffffffffffffffffffffffffff169060200190929190803590602001906401000000008111156104f857600080fd5b82018360208201111561050a57600080fd5b8035906020019184600183028401116401000000008311171561052c57600080fd5b91908080601f016020809104026020016040519081016040528093929190818152602001838380828437600081840152601f19601f820116905080830192505050505050509192919290505050611bb6565b604051808215151515815260200191505060405180910390f35b3480156105a457600080fd5b506105f1600480360360408110156105bb57600080fd5b81019080803573ffffffffffffffffffffffffffffffffffffffff16906020019092919080359060200190929190505050611c7b565b60405180806020018373ffffffffffffffffffffffffffffffffffffffff1673ffffffffffffffffffffffffffffffffffffffff168152602001828103825284818151815260200191508051906020019080838360005b83811015610663578082015181840152602081019050610648565b50505050905090810190601f1680156106905780820380516001836020036101000a031916815260200191505b50935050505060405180910390f35b3480156106ab57600080fd5b5061076f600480360360408110156106c257600080fd5b81019080803590602001906401000000008111156106df57600080fd5b8201836020820111156106f157600080fd5b8035906020019184600183028401116401000000008311171561071357600080fd5b91908080601f016020809104026020016040519081016040528093929190818152602001838380828437600081840152601f19601f82011690508083019250505050505050919291929080359060200190929190505050611eea565b604051808c81526020018b81526020018a81526020018060200189815260200188815260200187815260200186815260200185815260200184815260200183815260200182810382528a818151815260200191508051906020019080838360005b838110156107eb5780820151818401526020810190506107d0565b50505050905090810190601f1680156108185780820380516001836020036101000a031916815260200191505b509c5050505050505050505050505060405180910390f35b34801561083c57600080fd5b506108f66004803603602081101561085357600080fd5b810190808035906020019064010000000081111561087057600080fd5b82018360208201111561088257600080fd5b803590602001918460018302840111640100000000831117156108a457600080fd5b91908080601f016020809104026020016040519081016040528093929190818152602001838380828437600081840152601f19601f82011690508083019250505050505050919291929050505061200c565b6040518082815260200191505060405180910390f35b34801561091857600080fd5b5061095b6004803603602081101561092f57600080fd5b81019080803573ffffffffffffffffffffffffffffffffffffffff16906020019092919050505061203a565b6040518082815260200191505060405180910390f35b34801561097d57600080fd5b506109c06004803603602081101561099457600080fd5b81019080803573ffffffffffffffffffffffffffffffffffffffff169060200190929190505050612052565b6040518080602001838152602001828103825284818151815260200191508051906020019080838360005b83811015610a065780820151818401526020810190506109eb565b50505050905090810190601f168015610a335780820380516001836020036101000a031916815260200191505b50935050505060405180910390f35b348015610a4e57600080fd5b50610a57612180565b005b348015610a6557600080fd5b50610b1f60048036036020811015610a7c57600080fd5b8101908080359060200190640100000000811115610a9957600080fd5b820183602082011115610aab57600080fd5b80359060200191846001830284011164010000000083111715610acd57600080fd5b91908080601f016020809104026020016040519081016040528093929190818152602001838380828437600081840152601f19601f820116905080830192505050505050509192919290505050612308565b604051808473ffffffffffffffffffffffffffffffffffffffff1673ffffffffffffffffffffffffffffffffffffffff1681526020018060200183151515158152602001828103825284818151815260200191508051906020019080838360005b83811015610b9b578082015181840152602081019050610b80565b50505050905090810190601f168015610bc85780820380516001836020036101000a031916815260200191505b5094505050505060405180910390f35b348015610be457600080fd5b50610bed61240d565b604051808273ffffffffffffffffffffffffffffffffffffffff1673ffffffffffffffffffffffffffffffffffffffff16815260200191505060405180910390f35b348015610c3b57600080fd5b50610c7e60048036036020811015610c5257600080fd5b81019080803573ffffffffffffffffffffffffffffffffffffffff169060200190929190505050612436565b6040518082815260200191505060405180910390f35b348015610ca057600080fd5b50610d5a60048036036020811015610cb757600080fd5b8101908080359060200190640100000000811115610cd457600080fd5b820183602082011115610ce657600080fd5b80359060200191846001830284011164010000000083111715610d0857600080fd5b91908080601f016020809104026020016040519081016040528093929190818152602001838380828437600081840152601f19601f82011690508083019250505050505050919291929050505061247f565b6040518082815260200191505060405180910390f35b348015610d7c57600080fd5b50610d856124fa565b6040518082815260200191505060405180910390f35b348015610da757600080fd5b50610e6160048036036020811015610dbe57600080fd5b8101908080359060200190640100000000811115610ddb57600080fd5b820183602082011115610ded57600080fd5b80359060200191846001830284011164010000000083111715610e0f57600080fd5b91908080601f016020809104026020016040519081016040528093929190818152602001838380828437600081840152601f19601f8201169050808301925050505050505091929192905050506125cd565b604051808273ffffffffffffffffffffffffffffffffffffffff1673ffffffffffffffffffffffffffffffffffffffff16815260200191505060405180910390f35b348015610eaf57600080fd5b50610ef260048036036020811015610ec657600080fd5b81019080803573ffffffffffffffffffffffffffffffffffffffff169060200190929190505050612616565b604051808273ffffffffffffffffffffffffffffffffffffffff1673ffffffffffffffffffffffffffffffffffffffff16815260200191505060405180910390f35b348015610f4057600080fd5b5061100460048036036040811015610f5757600080fd5b8101908080359060200190640100000000811115610f7457600080fd5b820183602082011115610f8657600080fd5b80359060200191846001830284011164010000000083111715610fa857600080fd5b91908080601f016020809104026020016040519081016040528093929190818152602001838380828437600081840152601f19601f82011690508083019250505050505050919291929080359060200190929190505050612649565b6040518082815260200191505060405180910390f35b34801561102657600080fd5b506110536004803603602081101561103d57600080fd5b810190808035906020019092919050505061268d565b604051808273ffffffffffffffffffffffffffffffffffffffff1673ffffffffffffffffffffffffffffffffffffffff16815260200191505060405180910390f35b3480156110a157600080fd5b50611212600480360360608110156110b857600080fd5b81019080803573ffffffffffffffffffffffffffffffffffffffff169060200190929190803590602001906401000000008111156110f557600080fd5b82018360208201111561110757600080fd5b8035906020019184600183028401116401000000008311171561112957600080fd5b91908080601f016020809104026020016040519081016040528093929190818152602001838380828437600081840152601f19601f8201169050808301925050505050505091929192908035906020019064010000000081111561118c57600080fd5b82018360208201111561119e57600080fd5b803590602001918460018302840111640100000000831117156111c057600080fd5b91908080601f016020809104026020016040519081016040528093929190818152602001838380828437600081840152601f19601f820116905080830192505050505050509192919290505050612793565b60405180806020018373ffffffffffffffffffffffffffffffffffffffff1673ffffffffffffffffffffffffffffffffffffffff168152602001828103825284818151815260200191508051906020019080838360005b83811015611284578082015181840152602081019050611269565b50505050905090810190601f1680156112b15780820380516001836020036101000a031916815260200191505b50935050505060405180910390f35b3480156112cc57600080fd5b5061143d600480360360608110156112e357600080fd5b81019080803573ffffffffffffffffffffffffffffffffffffffff1690602001909291908035906020019064010000000081111561132057600080fd5b82018360208201111561133257600080fd5b8035906020019184600183028401116401000000008311171561135457600080fd5b91908080601f016020809104026020016040519081016040528093929190818152602001838380828437600081840152601f19601f820116905080830192505050505050509192919290803590602001906401000000008111156113b757600080fd5b8201836020820111156113c957600080fd5b803590602001918460018302840111640100000000831117156113eb57600080fd5b91908080601f016020809104026020016040519081016040528093929190818152602001838380828437600081840152601f19601f820116905080830192505050505050509192919290505050612c09565b005b34801561144b57600080fd5b506115dc6004803603608081101561146257600080fd5b81019080803573ffffffffffffffffffffffffffffffffffffffff1690602001909291908035906020019064010000000081111561149f57600080fd5b8201836020820111156114b157600080fd5b803590602001918460018302840111640100000000831117156114d357600080fd5b91908080601f016020809104026020016040519081016040528093929190818152602001838380828437600081840152601f19601f820116905080830192505050505050509192919290803573ffffffffffffffffffffffffffffffffffffffff1690602001909291908035906020019064010000000081111561155657600080fd5b82018360208201111561156857600080fd5b8035906020019184600183028401116401000000008311171561158a57600080fd5b91908080601f016020809104026020016040519081016040528093929190818152602001838380828437600081840152601f19601f820116905080830192505050505050509192919290505050612f99565b005b3480156115ea57600080fd5b5061162d6004803603602081101561160157600080fd5b81019080803573ffffffffffffffffffffffffffffffffffffffff16906020019092919050505061392b565b6040518080602001828103825283818151815260200191508051906020019080838360005b8381101561166d578082015181840152602081019050611652565b50505050905090810190601f16801561169a5780820380516001836020036101000a031916815260200191505b509250505060405180910390f35b3480156116b457600080fd5b506116f7600480360360208110156116cb57600080fd5b81019080803573ffffffffffffffffffffffffffffffffffffffff169060200190929190505050613a0f565b604051808060200184815260200183151515158152602001828103825285818151815260200191508051906020019080838360005b8381101561174757808201518184015260208101905061172c565b50505050905090810190601f1680156117745780820380516001836020036101000a031916815260200191505b5094505050505060405180910390f35b34801561179057600080fd5b506117d3600480360360208110156117a757600080fd5b81019080803573ffffffffffffffffffffffffffffffffffffffff169060200190929190505050613ade565b604051808273ffffffffffffffffffffffffffffffffffffffff1673ffffffffffffffffffffffffffffffffffffffff16815260200191505060405180910390f35b34801561182157600080fd5b506118646004803603602081101561183857600080fd5b81019080803573ffffffffffffffffffffffffffffffffffffffff169060200190929190505050613c10565b005b34801561187257600080fd5b506118bf6004803603604081101561188957600080fd5b81019080803573ffffffffffffffffffffffffffffffffffffffff16906020019092919080359060200190929190505050613e1d565b604051808473ffffffffffffffffffffffffffffffffffffffff1673ffffffffffffffffffffffffffffffffffffffff1681526020018060200183151515158152602001828103825284818151815260200191508051906020019080838360005b8381101561193b578082015181840152602081019050611920565b50505050905090810190601f1680156119685780820380516001836020036101000a031916815260200191505b5094505050505060405180910390f35b600c818051602081018201805184825260208301602085012081835280955050505050506000915090505481565b60006008826040518082805190602001908083835b602083106119de57805182526020820191506020810190506020830392506119bb565b6001836020036101000a038019825116818451168082178552505050505050905001915050908152602001604051809103902060000160009054906101000a900473ffffffffffffffffffffffffffffffffffffffff169050919050565b60008173ffffffffffffffffffffffffffffffffffffffff16600760008673ffffffffffffffffffffffffffffffffffffffff1673ffffffffffffffffffffffffffffffffffffffff16815260200190815260200160002060009054906101000a900473ffffffffffffffffffffffffffffffffffffffff1673ffffffffffffffffffffffffffffffffffffffff161415611baa577f3266e9973cd88d0b427a9f781262c2810cb85378bdc9e4965a3c7aa22977708e8484604051808373ffffffffffffffffffffffffffffffffffffffff1673ffffffffffffffffffffffffffffffffffffffff16815260200180602001828103825283818151815260200191508051906020019080838360005b83811015611b66578082015181840152602081019050611b4b565b50505050905090810190601f168015611b935780820380516001836020036101000a031916815260200191505b50935050505060405180910390a160009050611baf565b600190505b9392505050565b600080826040516020018082805190602001908083835b60208310611bf05780518252602082019150602081019050602083039250611bcd565b6001836020036101000a03801982511681845116808217855250505050505090500191505060405160208183030381529060405280519060200120905080600160008673ffffffffffffffffffffffffffffffffffffffff1673ffffffffffffffffffffffffffffffffffffffff168152602001908152602001600020600101541491505092915050565b60606000611c87613f26565b73ffffffffffffffffffffffffffffffffffffffff166000809054906101000a900473ffffffffffffffffffffffffffffffffffffffff1673ffffffffffffffffffffffffffffffffffffffff1614611d48576040517f08c379a00000000000000000000000000000000000000000000000000000000081526004018080602001828103825260208152602001807f4f776e61626c653a2063616c6c6572206973206e6f7420746865206f776e657281525060200191505060405180910390fd5b611d50613f2e565b600a60008673ffffffffffffffffffffffffffffffffffffffff1673ffffffffffffffffffffffffffffffffffffffff1681526020019081526020016000208481548110611d9a57fe5b90600052602060002090600302016040518060600160405290816000820160009054906101000a900473ffffffffffffffffffffffffffffffffffffffff1673ffffffffffffffffffffffffffffffffffffffff1673ffffffffffffffffffffffffffffffffffffffff168152602001600182018054600181600116156101000203166002900480601f016020809104026020016040519081016040528092919081815260200182805460018160011615610100020316600290048015611ea25780601f10611e7757610100808354040283529160200191611ea2565b820191906000526020600020905b815481529060010190602001808311611e8557829003601f168201915b505050505081526020016002820160009054906101000a900460ff16151515158152505090506060816020015190506000826000015190508181945094505050509250929050565b6004828051602081018201805184825260208301602085012081835280955050505050508181548110611f1957fe5b90600052602060002090600b020160009150915050806000015490806001015490806002015490806003018054600181600116156101000203166002900480601f016020809104026020016040519081016040528092919081815260200182805460018160011615610100020316600290048015611fd85780601f10611fad57610100808354040283529160200191611fd8565b820191906000526020600020905b815481529060010190602001808311611fbb57829003601f168201915b50505050509080600401549080600501549080600601549080600701549080600801549080600901549080600a015490508b565b6006818051602081018201805184825260208301602085012081835280955050505050506000915090505481565b600b6020528060005260406000206000915090505481565b60606000600160008473ffffffffffffffffffffffffffffffffffffffff1673ffffffffffffffffffffffffffffffffffffffff168152602001908152602001600020600001600160008573ffffffffffffffffffffffffffffffffffffffff1673ffffffffffffffffffffffffffffffffffffffff16815260200190815260200160002060010154818054600181600116156101000203166002900480601f0160208091040260200160405190810160405280929190818152602001828054600181600116156101000203166002900480156121705780601f1061214557610100808354040283529160200191612170565b820191906000526020600020905b81548152906001019060200180831161215357829003601f168201915b5050505050915091509150915091565b612188613f26565b73ffffffffffffffffffffffffffffffffffffffff166000809054906101000a900473ffffffffffffffffffffffffffffffffffffffff1673ffffffffffffffffffffffffffffffffffffffff1614612249576040517f08c379a00000000000000000000000000000000000000000000000000000000081526004018080602001828103825260208152602001807f4f776e61626c653a2063616c6c6572206973206e6f7420746865206f776e657281525060200191505060405180910390fd5b600073ffffffffffffffffffffffffffffffffffffffff166000809054906101000a900473ffffffffffffffffffffffffffffffffffffffff1673ffffffffffffffffffffffffffffffffffffffff167f8be0079c531659141344cd1fd0a4f28419497f9722a3daafe3b4186f6b6457e060405160405180910390a360008060006101000a81548173ffffffffffffffffffffffffffffffffffffffff021916908373ffffffffffffffffffffffffffffffffffffffff160217905550565b6008818051602081018201805184825260208301602085012081835280955050505050506000915090508060000160009054906101000a900473ffffffffffffffffffffffffffffffffffffffff1690806001018054600181600116156101000203166002900480601f0160208091040260200160405190810160405280929190818152602001828054600181600116156101000203166002900480156123f05780601f106123c5576101008083540402835291602001916123f0565b820191906000526020600020905b8154815290600101906020018083116123d357829003601f168201915b5050505050908060020160009054906101000a900460ff16905083565b60008060009054906101000a900473ffffffffffffffffffffffffffffffffffffffff16905090565b6000600b60008373ffffffffffffffffffffffffffffffffffffffff1673ffffffffffffffffffffffffffffffffffffffff168152602001908152602001600020549050919050565b6000816040516020018082805190602001908083835b602083106124b85780518252602082019150602081019050602083039250612495565b6001836020036101000a038019825116818451168082178552505050505050905001915050604051602081830303815290604052805190602001209050919050565b6000612504613f26565b73ffffffffffffffffffffffffffffffffffffffff166000809054906101000a900473ffffffffffffffffffffffffffffffffffffffff1673ffffffffffffffffffffffffffffffffffffffff16146125c5576040517f08c379a00000000000000000000000000000000000000000000000000000000081526004018080602001828103825260208152602001807f4f776e61626c653a2063616c6c6572206973206e6f7420746865206f776e657281525060200191505060405180910390fd5b600254905090565b6009818051602081018201805184825260208301602085012081835280955050505050506000915054906101000a900473ffffffffffffffffffffffffffffffffffffffff1681565b60076020528060005260406000206000915054906101000a900473ffffffffffffffffffffffffffffffffffffffff1681565b600582805160208101820180518482526020830160208501208183528095505050505050818154811061267857fe5b90600052602060002001600091509150505481565b6000612697613f26565b73ffffffffffffffffffffffffffffffffffffffff166000809054906101000a900473ffffffffffffffffffffffffffffffffffffffff1673ffffffffffffffffffffffffffffffffffffffff1614612758576040517f08c379a00000000000000000000000000000000000000000000000000000000081526004018080602001828103825260208152602001807f4f776e61626c653a2063616c6c6572206973206e6f7420746865206f776e657281525060200191505060405180910390fd5b6003600083815260200190815260200160002060009054906101000a900473ffffffffffffffffffffffffffffffffffffffff169050919050565b60606000848360006008826040518082805190602001908083835b602083106127d157805182526020820191506020810190506020830392506127ae565b6001836020036101000a038019825116818451168082178552505050505050905001915050908152602001604051809103902060000160009054906101000a900473ffffffffffffffffffffffffffffffffffffffff1690508073ffffffffffffffffffffffffffffffffffffffff16600760008573ffffffffffffffffffffffffffffffffffffffff1673ffffffffffffffffffffffffffffffffffffffff16815260200190815260200160002060009054906101000a900473ffffffffffffffffffffffffffffffffffffffff1673ffffffffffffffffffffffffffffffffffffffff161461292a576040517f08c379a000000000000000000000000000000000000000000000000000000000815260040180806020018281038252601f8152602001807f5573657220616e6420636c69656e7420617265206e6f742072656c617465640081525060200191505060405180910390fd5b87876000816040516020018082805190602001908083835b602083106129655780518252602082019150602081019050602083039250612942565b6001836020036101000a03801982511681845116808217855250505050505090500191505060405160208183030381529060405280519060200120905080600160008573ffffffffffffffffffffffffffffffffffffffff1673ffffffffffffffffffffffffffffffffffffffff1681526020019081526020016000206001015414612a59576040517f08c379a00000000000000000000000000000000000000000000000000000000081526004018080602001828103825260168152602001807f496e76616c69642070617373776f726420676976656e0000000000000000000081525060200191505060405180910390fd5b606060088a6040518082805190602001908083835b60208310612a915780518252602082019150602081019050602083039250612a6e565b6001836020036101000a03801982511681845116808217855250505050505090500191505090815260200160405180910390206001018054600181600116156101000203166002900480601f016020809104026020016040519081016040528092919081815260200182805460018160011615610100020316600290048015612b5b5780601f10612b3057610100808354040283529160200191612b5b565b820191906000526020600020905b815481529060010190602001808311612b3e57829003601f168201915b50505050509050600060088b6040518082805190602001908083835b60208310612b9a5780518252602082019150602081019050602083039250612b77565b6001836020036101000a038019825116818451168082178552505050505050905001915050908152602001604051809103902060000160009054906101000a900473ffffffffffffffffffffffffffffffffffffffff1690508181995099505050505050505050935093915050565b8260001515600160008373ffffffffffffffffffffffffffffffffffffffff1673ffffffffffffffffffffffffffffffffffffffff16815260200190815260200160002060020160009054906101000a900460ff16151514612cd3576040517f08c379a00000000000000000000000000000000000000000000000000000000081526004018080602001828103825260138152602001807f5573657220616c7265616479206578697374730000000000000000000000000081525060200191505060405180910390fd5b6000826040516020018082805190602001908083835b60208310612d0c5780518252602082019150602081019050602083039250612ce9565b6001836020036101000a038019825116818451168082178552505050505050905001915050604051602081830303815290604052805190602001209050604051806060016040528085815260200182815260200160011515815250600160008773ffffffffffffffffffffffffffffffffffffffff1673ffffffffffffffffffffffffffffffffffffffff1681526020019081526020016000206000820151816000019080519060200190612dc2929190613f67565b506020820151816001015560408201518160020160006101000a81548160ff0219169083151502179055509050508460036000600254815260200190815260200160002060006101000a81548173ffffffffffffffffffffffffffffffffffffffff021916908373ffffffffffffffffffffffffffffffffffffffff16021790555060016002600082825401925050819055507f5ae6671f20b51a868ae522f9841ff46bb92cc988a8f2f502deba9d90b8cd8693858585604051808473ffffffffffffffffffffffffffffffffffffffff1673ffffffffffffffffffffffffffffffffffffffff1681526020018060200180602001838103835285818151815260200191508051906020019080838360005b83811015612eef578082015181840152602081019050612ed4565b50505050905090810190601f168015612f1c5780820380516001836020036101000a031916815260200191505b50838103825284818151815260200191508051906020019080838360005b83811015612f55578082015181840152602081019050612f3a565b50505050905090810190601f168015612f825780820380516001836020036101000a031916815260200191505b509550505050505060405180910390a15050505050565b838160006008826040518082805190602001908083835b60208310612fd35780518252602082019150602081019050602083039250612fb0565b6001836020036101000a038019825116818451168082178552505050505050905001915050908152602001604051809103902060000160009054906101000a900473ffffffffffffffffffffffffffffffffffffffff1690508073ffffffffffffffffffffffffffffffffffffffff16600760008573ffffffffffffffffffffffffffffffffffffffff1673ffffffffffffffffffffffffffffffffffffffff16815260200190815260200160002060009054906101000a900473ffffffffffffffffffffffffffffffffffffffff1673ffffffffffffffffffffffffffffffffffffffff161461312c576040517f08c379a000000000000000000000000000000000000000000000000000000000815260040180806020018281038252601f8152602001807f5573657220616e6420636c69656e7420617265206e6f742072656c617465640081525060200191505060405180910390fd5b86866000816040516020018082805190602001908083835b602083106131675780518252602082019150602081019050602083039250613144565b6001836020036101000a03801982511681845116808217855250505050505090500191505060405160208183030381529060405280519060200120905080600160008573ffffffffffffffffffffffffffffffffffffffff1673ffffffffffffffffffffffffffffffffffffffff168152602001908152602001600020600101541461325b576040517f08c379a00000000000000000000000000000000000000000000000000000000081526004018080602001828103825260168152602001807f496e76616c69642070617373776f726420676976656e0000000000000000000081525060200191505060405180910390fd5b898888613269838284611a3c565b6132be576040517f08c379a00000000000000000000000000000000000000000000000000000000081526004018080602001828103825260288152602001806140336028913960400191505060405180910390fd5b8a60088b6040518082805190602001908083835b602083106132f557805182526020820191506020810190506020830392506132d2565b6001836020036101000a038019825116818451168082178552505050505050905001915050908152602001604051809103902060000160006101000a81548173ffffffffffffffffffffffffffffffffffffffff021916908373ffffffffffffffffffffffffffffffffffffffff1602179055508960088b6040518082805190602001908083835b602083106133a0578051825260208201915060208101905060208303925061337d565b6001836020036101000a038019825116818451168082178552505050505050905001915050908152602001604051809103902060010190805190602001906133e9929190613f67565b50600160088b6040518082805190602001908083835b6020831061342257805182526020820191506020810190506020830392506133ff565b6001836020036101000a038019825116818451168082178552505050505050905001915050908152602001604051809103902060020160006101000a81548160ff021916908315150217905550600073ffffffffffffffffffffffffffffffffffffffff16600760008f73ffffffffffffffffffffffffffffffffffffffff1673ffffffffffffffffffffffffffffffffffffffff16815260200190815260200160002060009054906101000a900473ffffffffffffffffffffffffffffffffffffffff1673ffffffffffffffffffffffffffffffffffffffff161415613582578a600760008f73ffffffffffffffffffffffffffffffffffffffff1673ffffffffffffffffffffffffffffffffffffffff16815260200190815260200160002060006101000a81548173ffffffffffffffffffffffffffffffffffffffff021916908373ffffffffffffffffffffffffffffffffffffffff1602179055505b8a60098b6040518082805190602001908083835b602083106135b95780518252602082019150602081019050602083039250613596565b6001836020036101000a038019825116818451168082178552505050505050905001915050908152602001604051809103902060006101000a81548173ffffffffffffffffffffffffffffffffffffffff021916908373ffffffffffffffffffffffffffffffffffffffff1602179055508a600760008f73ffffffffffffffffffffffffffffffffffffffff1673ffffffffffffffffffffffffffffffffffffffff16815260200190815260200160002060006101000a81548173ffffffffffffffffffffffffffffffffffffffff021916908373ffffffffffffffffffffffffffffffffffffffff160217905550600a60008e73ffffffffffffffffffffffffffffffffffffffff1673ffffffffffffffffffffffffffffffffffffffff16815260200190815260200160002060405180606001604052808d73ffffffffffffffffffffffffffffffffffffffff1681526020018c815260200160011515815250908060018154018082558091505060019003906000526020600020906003020160009091909190915060008201518160000160006101000a81548173ffffffffffffffffffffffffffffffffffffffff021916908373ffffffffffffffffffffffffffffffffffffffff16021790555060208201518160010190805190602001906137a7929190613f67565b5060408201518160020160006101000a81548160ff02191690831515021790555050506001600b60008f73ffffffffffffffffffffffffffffffffffffffff1673ffffffffffffffffffffffffffffffffffffffff168152602001908152602001600020600082825401925050819055507f94b9610dbc7bb1121768f2201c6a4b486d3979ecc0c3e84d475a3ace0381903c8d8c8c604051808473ffffffffffffffffffffffffffffffffffffffff1673ffffffffffffffffffffffffffffffffffffffff1681526020018373ffffffffffffffffffffffffffffffffffffffff1673ffffffffffffffffffffffffffffffffffffffff16815260200180602001828103825283818151815260200191508051906020019080838360005b838110156138e05780820151818401526020810190506138c5565b50505050905090810190601f16801561390d5780820380516001836020036101000a031916815260200191505b5094505050505060405180910390a150505050505050505050505050565b6060600160008373ffffffffffffffffffffffffffffffffffffffff1673ffffffffffffffffffffffffffffffffffffffff1681526020019081526020016000206000018054600181600116156101000203166002900480601f016020809104026020016040519081016040528092919081815260200182805460018160011615610100020316600290048015613a035780601f106139d857610100808354040283529160200191613a03565b820191906000526020600020905b8154815290600101906020018083116139e657829003601f168201915b50505050509050919050565b6001602052806000526040600020600091509050806000018054600181600116156101000203166002900480601f016020809104026020016040519081016040528092919081815260200182805460018160011615610100020316600290048015613abb5780601f10613a9057610100808354040283529160200191613abb565b820191906000526020600020905b815481529060010190602001808311613a9e57829003601f168201915b5050505050908060010154908060020160009054906101000a900460ff16905083565b6000613ae8613f26565b73ffffffffffffffffffffffffffffffffffffffff166000809054906101000a900473ffffffffffffffffffffffffffffffffffffffff1673ffffffffffffffffffffffffffffffffffffffff1614613ba9576040517f08c379a00000000000000000000000000000000000000000000000000000000081526004018080602001828103825260208152602001807f4f776e61626c653a2063616c6c6572206973206e6f7420746865206f776e657281525060200191505060405180910390fd5b600760008373ffffffffffffffffffffffffffffffffffffffff1673ffffffffffffffffffffffffffffffffffffffff16815260200190815260200160002060009054906101000a900473ffffffffffffffffffffffffffffffffffffffff169050919050565b613c18613f26565b73ffffffffffffffffffffffffffffffffffffffff166000809054906101000a900473ffffffffffffffffffffffffffffffffffffffff1673ffffffffffffffffffffffffffffffffffffffff1614613cd9576040517f08c379a00000000000000000000000000000000000000000000000000000000081526004018080602001828103825260208152602001807f4f776e61626c653a2063616c6c6572206973206e6f7420746865206f776e657281525060200191505060405180910390fd5b600073ffffffffffffffffffffffffffffffffffffffff168173ffffffffffffffffffffffffffffffffffffffff161415613d5f576040517f08c379a000000000000000000000000000000000000000000000000000000000815260040180806020018281038252602681526020018061400d6026913960400191505060405180910390fd5b8073ffffffffffffffffffffffffffffffffffffffff166000809054906101000a900473ffffffffffffffffffffffffffffffffffffffff1673ffffffffffffffffffffffffffffffffffffffff167f8be0079c531659141344cd1fd0a4f28419497f9722a3daafe3b4186f6b6457e060405160405180910390a3806000806101000a81548173ffffffffffffffffffffffffffffffffffffffff021916908373ffffffffffffffffffffffffffffffffffffffff16021790555050565b600a6020528160005260406000208181548110613e3657fe5b9060005260206000209060030201600091509150508060000160009054906101000a900473ffffffffffffffffffffffffffffffffffffffff1690806001018054600181600116156101000203166002900480601f016020809104026020016040519081016040528092919081815260200182805460018160011615610100020316600290048015613f095780601f10613ede57610100808354040283529160200191613f09565b820191906000526020600020905b815481529060010190602001808311613eec57829003601f168201915b5050505050908060020160009054906101000a900460ff16905083565b600033905090565b6040518060600160405280600073ffffffffffffffffffffffffffffffffffffffff168152602001606081526020016000151581525090565b828054600181600116156101000203166002900490600052602060002090601f016020900481019282601f10613fa857805160ff1916838001178555613fd6565b82800160010185558215613fd6579182015b82811115613fd5578251825591602001919060010190613fba565b5b509050613fe39190613fe7565b5090565b61400991905b80821115614005576000816000905550600101613fed565b5090565b9056fe4f776e61626c653a206e6577206f776e657220697320746865207a65726f2061646472657373436c69656e7420616c72656164792065786973747320666f722074686520676976656e2075736572a264697066735822122081cb91938ccd55d5f9d7dccf413e04e71ccd68d097990e31a083a86a7b78dac064736f6c63430006060033",
  "immutableReferences": {},
  "source": "// SPDX-License-Identifier: GPL-3.0\npragma solidity ^0.6.6;\n\nimport \"./Users.sol\";\n\ncontract Clients is Users {\n    // /// @dev Client struct\n    // struct Client {\n    //     address clientID;\n    //     string name;\n    //     bool flag;\n    // }\n\n    /**\n     * Clients has a Invoices\n     */\n    // /// @dev map the name of the client to the Client struct\n    // mapping(string => Client) public clientMap;\n    // /// @dev map the name of the client to the client address\n    // mapping(string => address) public clientNameAddressMap;\n    // /// @dev map the user address to the client ID\n    // mapping(address => address) public userClientIDMap;\n    // /// @dev map the user name to his Clients.\n    // mapping(address => Client[]) public usersToClientsMap;\n    // /// @dev map the user address to the number of his Clients.\n    // mapping(address => int256) public userToNumClientsMap;\n    // /// @dev map the client name to the invoice numbers.\n    // mapping(string => uint256[]) public clientNameInvoiceNumMap;\n\n    // /// @dev map the clientID address to his invoices\n    //mapping(address => Invoice.Invoice[]) public clientIDInvoiceMap;\n\n    event addClientEvent(address _userAddress, address _clientID, string _name);\n    // event duplicateClientEvent(address _userAddress, string _clientID);\n\n    // /// @author Denis M. Putnam\n    // /// @notice Check for no client.\n    // /// @param _clientName name of the client.\n    // /// @param _clientID clients wallet address.\n    // /// @dev no other details.\n    // function isNoClient(\n    //     address _userAddress,\n    //     string memory _clientName,\n    //     address _clientID\n    // ) public payable returns (bool) {\n    //     if (userClientIDMap[_userAddress] == _clientID) {\n    //         emit duplicateClientEvent(_userAddress, _clientName);\n    //         return false;\n    //     }\n    //     return true;\n    // }\n\n    // modifier noDupClient(\n    //     address _userAddress,\n    //     address _clientID,\n    //     string memory _clientName\n    // ) {\n    //     require(\n    //         isNoClient(_userAddress, _clientName, _clientID),\n    //         \"Client already exists for the given user\"\n    //     );\n    //     _;\n    // }\n\n    // modifier userOnly(address _userAddress, string memory _clientName) {\n    //     address _clientID = clientMap[_clientName].clientID;\n    //     require(\n    //         userClientIDMap[_userAddress] == _clientID,\n    //         \"User and client are not related\"\n    //     );\n    //     _;\n    // }\n\n    function getClientNameFromMap(string memory name)\n        public\n        view\n        returns (address clientAddress)\n    {\n        return clientMap[name].clientID;\n    }\n\n    function getClientIDFromIDMap(address userAddress)\n        public\n        view\n        onlyOwner()\n        returns (address clientID)\n    {\n        return userClientIDMap[userAddress];\n    }\n\n    /// @author Denis M. Putnam\n    /// @notice Add a client to this contract.\n    /// @param _userAddress user address\n    /// @param _pwd plain text user password\n    /// @param _clientID address of the wallet of the client.\n    /// @param _name string with the client's name.  This needs to be unique\n    /// @dev Add's a client to the clientMap and the clientNameAddressMap\n    function addClient(\n        address _userAddress,\n        string memory _pwd,\n        address _clientID,\n        string memory _name\n    )\n        public\n        userOnly(_userAddress, _name)\n        isValidPassword(_userAddress, _pwd)\n        noDupClient(_userAddress, _clientID, _name)\n    {\n        clientMap[_name].clientID = _clientID;\n        clientMap[_name].name = _name;\n        clientMap[_name].flag = true;\n\n        // clientNameArray.push(_name);\n        if (userClientIDMap[_userAddress] == address(0x0)) {\n          userClientIDMap[_userAddress] = _clientID;\n        }\n\n        clientNameAddressMap[_name] = _clientID;\n        //clientNameInvoiceCountMap[_name] = 0;\n        userClientIDMap[_userAddress] = _clientID;\n        usersToClientsMap[_userAddress].push(Client(_clientID, _name, true));\n        userToNumClientsMap[_userAddress] += 1;\n        emit addClientEvent(_userAddress, _clientID, _name);\n    }\n\n    /// @author Denis M. Putnam\n    /// @notice Get the requested client\n    /// @param _userAddress user address\n    /// @param _pwd plain text password\n    /// @param _name client's name\n    /// @dev Get the client for the given name.\n    /// @return name\n    /// @return clientID\n    function getClientByName(\n        address _userAddress,\n        string memory _pwd,\n        string memory _name\n    )\n        public\n        view\n        userOnly(_userAddress, _name)\n        isValidPassword(_userAddress, _pwd)\n        returns (\n            string memory name,\n            address clientID\n        )\n    {\n        string memory lname = clientMap[_name].name;\n        address lclientID = clientMap[_name].clientID;\n        return (lname, lclientID);\n    }\n\n    /// @author Denis M. Putnam\n    /// @notice get the client by index number.\n    /// @param _userAddress user account address.\n    /// @param _index index of client name\n    /// @dev no further info\n    /// @return name\n    /// @return clientID\n    function getClientByIndex(\n        address _userAddress,\n        //string memory _pwd,\n        uint256 _index\n    )\n        public\n        view\n        onlyOwner()\n        returns (\n            string memory name,\n            address clientID\n        )\n    {\n        Client memory _client = usersToClientsMap[_userAddress][_index];\n        string memory lname = _client.name;\n        address lclientID = _client.clientID;\n        return (lname, lclientID);\n    }\n\n    function getClientCount(address _userAddress)\n        public\n        view\n        returns (int256 count)\n    {\n        //return clientNameArray.length;\n        return userToNumClientsMap[_userAddress];\n    }\n}\n",
  "sourcePath": "/Users/denisputnam/git/invoice-tracker-dapp/contracts/Clients.sol",
  "compiler": {
    "name": "solc",
    "version": "0.6.6+commit.6c089d02.Emscripten.clang"
  },
  "schemaVersion": "3.2.3",
  "updatedAt": "2020-08-06T18:53:04.408Z",
  "networkType": "ethereum",
  "devdoc": {
    "methods": {
      "addClient(address,string,address,string)": {
        "author": "Denis M. Putnam",
        "details": "Add's a client to the clientMap and the clientNameAddressMap",
        "params": {
          "_clientID": "address of the wallet of the client.",
          "_name": "string with the client's name.  This needs to be unique",
          "_pwd": "plain text user password",
          "_userAddress": "user address"
        }
      },
      "addUser(address,string,string)": {
        "author": "Denis M. Putnam",
        "details": "no other details.",
        "params": {
          "_address": "wallet account address for the user",
          "_name": "user name",
          "_pwd": "unencrypted password"
        }
      },
      "calcPassword(string)": {
        "author": "Denis M. Putnam",
        "details": "no other details.",
        "params": {
          "_pwd": "plain text password"
        },
        "returns": {
          "ePwd": "ePwd"
        }
      },
      "getClientByIndex(address,uint256)": {
        "author": "Denis M. Putnam",
        "details": "no further info",
        "params": {
          "_index": "index of client name",
          "_userAddress": "user account address."
        },
        "returns": {
          "clientID": "clientID",
          "name": "name"
        }
      },
      "getClientByName(address,string,string)": {
        "author": "Denis M. Putnam",
        "details": "Get the client for the given name.",
        "params": {
          "_name": "client's name",
          "_pwd": "plain text password",
          "_userAddress": "user address"
        },
        "returns": {
          "clientID": "clientID",
          "name": "name"
        }
      },
      "getUser(address)": {
        "author": "Denis M. Putnam",
        "details": "Get the client for the given name.",
        "params": {
          "_userAddress": "user address"
        },
        "returns": {
          "ePwd": "ePwd",
          "name": "name"
        }
      },
      "getUserAddressByIndex(uint256)": {
        "author": "Denis M. Putnam",
        "details": "no other details.",
        "params": {
          "_index": "index of the user"
        },
        "returns": {
          "_userAddress": "_userAddress"
        }
      },
      "getUserCount()": {
        "author": "Denis M. Putnam",
        "details": "no other details.",
        "returns": {
          "usercount": "usercount"
        }
      },
      "getUserName(address)": {
        "author": "Denis M. Putnam",
        "details": "Get the client for the given name.",
        "params": {
          "_userAddress": "user address"
        },
        "returns": {
          "name": "name"
        }
      },
      "isNoClient(address,string,address)": {
        "author": "Denis M. Putnam",
        "details": "no other details.",
        "params": {
          "_clientID": "clients wallet address.",
          "_clientName": "name of the client."
        }
      },
      "owner()": {
        "details": "Returns the address of the current owner."
      },
      "renounceOwnership()": {
        "details": "Leaves the contract without owner. It will not be possible to call `onlyOwner` functions anymore. Can only be called by the current owner.     * NOTE: Renouncing ownership will leave the contract without an owner, thereby removing any functionality that is only available to the owner."
      },
      "transferOwnership(address)": {
        "details": "Transfers ownership of the contract to a new account (`newOwner`). Can only be called by the current owner."
      }
    }
  },
  "userdoc": {
    "methods": {
      "addClient(address,string,address,string)": {
        "notice": "Add a client to this contract."
      },
      "addUser(address,string,string)": {
        "notice": "Add a user"
      },
      "calcPassword(string)": {
        "notice": "calculate the encrypted password from the given one"
      },
      "getClientByIndex(address,uint256)": {
        "notice": "get the client by index number."
      },
      "getClientByName(address,string,string)": {
        "notice": "Get the requested client"
      },
      "getUser(address)": {
        "notice": "Get the user name and epassword"
      },
      "getUserAddressByIndex(uint256)": {
        "notice": "Get the user address"
      },
      "getUserCount()": {
        "notice": "Get the count of users."
      },
      "getUserName(address)": {
        "notice": "Get the user name"
      },
      "isNoClient(address,string,address)": {
        "notice": "Check for no client."
      }
    }
  }
}