{
  "contractName": "Clients",
  "abi": [
    {
      "anonymous": false,
      "inputs": [
        {
          "indexed": true,
          "internalType": "address",
          "name": "previousOwner",
          "type": "address"
        },
        {
          "indexed": true,
          "internalType": "address",
          "name": "newOwner",
          "type": "address"
        }
      ],
      "name": "OwnershipTransferred",
      "type": "event"
    },
    {
      "anonymous": false,
      "inputs": [
        {
          "indexed": false,
          "internalType": "address",
          "name": "_userAddress",
          "type": "address"
        },
        {
          "indexed": false,
          "internalType": "address",
          "name": "_clientID",
          "type": "address"
        },
        {
          "indexed": false,
          "internalType": "string",
          "name": "_name",
          "type": "string"
        }
      ],
      "name": "addClientEvent",
      "type": "event"
    },
    {
      "anonymous": false,
      "inputs": [
        {
          "indexed": false,
          "internalType": "address payable",
          "name": "_address",
          "type": "address"
        },
        {
          "indexed": false,
          "internalType": "string",
          "name": "_name",
          "type": "string"
        },
        {
          "indexed": false,
          "internalType": "string",
          "name": "_pwd",
          "type": "string"
        }
      ],
      "name": "addUserEvent",
      "type": "event"
    },
    {
      "anonymous": false,
      "inputs": [
        {
          "indexed": false,
          "internalType": "address",
          "name": "_userAddress",
          "type": "address"
        },
        {
          "indexed": false,
          "internalType": "string",
          "name": "_clientID",
          "type": "string"
        }
      ],
      "name": "duplicateClientEvent",
      "type": "event"
    },
    {
      "inputs": [
        {
          "internalType": "address payable",
          "name": "_address",
          "type": "address"
        },
        {
          "internalType": "string",
          "name": "_name",
          "type": "string"
        },
        {
          "internalType": "string",
          "name": "_pwd",
          "type": "string"
        }
      ],
      "name": "addUser",
      "outputs": [],
      "stateMutability": "nonpayable",
      "type": "function"
    },
    {
      "inputs": [
        {
          "internalType": "string",
          "name": "_pwd",
          "type": "string"
        }
      ],
      "name": "calcPassword",
      "outputs": [
        {
          "internalType": "bytes32",
          "name": "ePwd",
          "type": "bytes32"
        }
      ],
      "stateMutability": "pure",
      "type": "function"
    },
    {
      "inputs": [
        {
          "internalType": "string",
          "name": "",
          "type": "string"
        }
      ],
      "name": "clientMap",
      "outputs": [
        {
          "internalType": "address",
          "name": "clientID",
          "type": "address"
        },
        {
          "internalType": "string",
          "name": "name",
          "type": "string"
        },
        {
          "internalType": "bool",
          "name": "flag",
          "type": "bool"
        }
      ],
      "stateMutability": "view",
      "type": "function"
    },
    {
      "inputs": [
        {
          "internalType": "string",
          "name": "",
          "type": "string"
        }
      ],
      "name": "clientNameAddressMap",
      "outputs": [
        {
          "internalType": "address",
          "name": "",
          "type": "address"
        }
      ],
      "stateMutability": "view",
      "type": "function"
    },
    {
      "inputs": [
        {
          "internalType": "string",
          "name": "",
          "type": "string"
        },
        {
          "internalType": "uint256",
          "name": "",
          "type": "uint256"
        }
      ],
      "name": "clientNameInvoiceNumMap",
      "outputs": [
        {
          "internalType": "uint256",
          "name": "",
          "type": "uint256"
        }
      ],
      "stateMutability": "view",
      "type": "function"
    },
    {
      "inputs": [
        {
          "internalType": "address",
          "name": "_userAddress",
          "type": "address"
        }
      ],
      "name": "getUser",
      "outputs": [
        {
          "internalType": "string",
          "name": "name",
          "type": "string"
        },
        {
          "internalType": "bytes32",
          "name": "ePwd",
          "type": "bytes32"
        }
      ],
      "stateMutability": "view",
      "type": "function"
    },
    {
      "inputs": [
        {
          "internalType": "uint256",
          "name": "_index",
          "type": "uint256"
        }
      ],
      "name": "getUserAddressByIndex",
      "outputs": [
        {
          "internalType": "address",
          "name": "_userAddress",
          "type": "address"
        }
      ],
      "stateMutability": "view",
      "type": "function"
    },
    {
      "inputs": [],
      "name": "getUserCount",
      "outputs": [
        {
          "internalType": "uint256",
          "name": "usercount",
          "type": "uint256"
        }
      ],
      "stateMutability": "view",
      "type": "function"
    },
    {
      "inputs": [
        {
          "internalType": "address",
          "name": "_userAddress",
          "type": "address"
        }
      ],
      "name": "getUserName",
      "outputs": [
        {
          "internalType": "string",
          "name": "name",
          "type": "string"
        }
      ],
      "stateMutability": "view",
      "type": "function"
    },
    {
      "inputs": [
        {
          "internalType": "address",
          "name": "_userAddress",
          "type": "address"
        },
        {
          "internalType": "string",
          "name": "_pwd",
          "type": "string"
        }
      ],
      "name": "isPasswordValid",
      "outputs": [
        {
          "internalType": "bool",
          "name": "",
          "type": "bool"
        }
      ],
      "stateMutability": "view",
      "type": "function"
    },
    {
      "inputs": [],
      "name": "owner",
      "outputs": [
        {
          "internalType": "address",
          "name": "",
          "type": "address"
        }
      ],
      "stateMutability": "view",
      "type": "function"
    },
    {
      "inputs": [],
      "name": "renounceOwnership",
      "outputs": [],
      "stateMutability": "nonpayable",
      "type": "function"
    },
    {
      "inputs": [
        {
          "internalType": "address",
          "name": "newOwner",
          "type": "address"
        }
      ],
      "name": "transferOwnership",
      "outputs": [],
      "stateMutability": "nonpayable",
      "type": "function"
    },
    {
      "inputs": [
        {
          "internalType": "address",
          "name": "",
          "type": "address"
        }
      ],
      "name": "userClientIDMap",
      "outputs": [
        {
          "internalType": "address",
          "name": "",
          "type": "address"
        }
      ],
      "stateMutability": "view",
      "type": "function"
    },
    {
      "inputs": [
        {
          "internalType": "address",
          "name": "",
          "type": "address"
        }
      ],
      "name": "userToNumClientsMap",
      "outputs": [
        {
          "internalType": "int256",
          "name": "",
          "type": "int256"
        }
      ],
      "stateMutability": "view",
      "type": "function"
    },
    {
      "inputs": [
        {
          "internalType": "address",
          "name": "",
          "type": "address"
        }
      ],
      "name": "usersMap",
      "outputs": [
        {
          "internalType": "string",
          "name": "name",
          "type": "string"
        },
        {
          "internalType": "bytes32",
          "name": "ePwd",
          "type": "bytes32"
        },
        {
          "internalType": "bool",
          "name": "flag",
          "type": "bool"
        }
      ],
      "stateMutability": "view",
      "type": "function"
    },
    {
      "inputs": [
        {
          "internalType": "address",
          "name": "",
          "type": "address"
        },
        {
          "internalType": "uint256",
          "name": "",
          "type": "uint256"
        }
      ],
      "name": "usersToClientsMap",
      "outputs": [
        {
          "internalType": "address",
          "name": "clientID",
          "type": "address"
        },
        {
          "internalType": "string",
          "name": "name",
          "type": "string"
        },
        {
          "internalType": "bool",
          "name": "flag",
          "type": "bool"
        }
      ],
      "stateMutability": "view",
      "type": "function"
    },
    {
      "inputs": [
        {
          "internalType": "address",
          "name": "_userAddress",
          "type": "address"
        },
        {
          "internalType": "string",
          "name": "_clientName",
          "type": "string"
        },
        {
          "internalType": "address",
          "name": "_clientID",
          "type": "address"
        }
      ],
      "name": "isNoClient",
      "outputs": [
        {
          "internalType": "bool",
          "name": "",
          "type": "bool"
        }
      ],
      "stateMutability": "payable",
      "type": "function"
    },
    {
      "inputs": [
        {
          "internalType": "string",
          "name": "name",
          "type": "string"
        }
      ],
      "name": "getClientNameFromMap",
      "outputs": [
        {
          "internalType": "address",
          "name": "clientAddress",
          "type": "address"
        }
      ],
      "stateMutability": "view",
      "type": "function"
    },
    {
      "inputs": [
        {
          "internalType": "address",
          "name": "userAddress",
          "type": "address"
        }
      ],
      "name": "getClientIDFromIDMap",
      "outputs": [
        {
          "internalType": "address",
          "name": "clientID",
          "type": "address"
        }
      ],
      "stateMutability": "view",
      "type": "function"
    },
    {
      "inputs": [
        {
          "internalType": "address",
          "name": "_userAddress",
          "type": "address"
        },
        {
          "internalType": "string",
          "name": "_pwd",
          "type": "string"
        },
        {
          "internalType": "address",
          "name": "_clientID",
          "type": "address"
        },
        {
          "internalType": "string",
          "name": "_name",
          "type": "string"
        }
      ],
      "name": "addClient",
      "outputs": [],
      "stateMutability": "nonpayable",
      "type": "function"
    },
    {
      "inputs": [
        {
          "internalType": "address",
          "name": "_userAddress",
          "type": "address"
        },
        {
          "internalType": "string",
          "name": "_pwd",
          "type": "string"
        },
        {
          "internalType": "string",
          "name": "_name",
          "type": "string"
        }
      ],
      "name": "getClientByName",
      "outputs": [
        {
          "internalType": "string",
          "name": "name",
          "type": "string"
        },
        {
          "internalType": "address",
          "name": "clientID",
          "type": "address"
        }
      ],
      "stateMutability": "view",
      "type": "function"
    },
    {
      "inputs": [
        {
          "internalType": "address",
          "name": "_userAddress",
          "type": "address"
        },
        {
          "internalType": "string",
          "name": "_pwd",
          "type": "string"
        },
        {
          "internalType": "uint256",
          "name": "_index",
          "type": "uint256"
        }
      ],
      "name": "getClientByIndex",
      "outputs": [
        {
          "internalType": "string",
          "name": "name",
          "type": "string"
        },
        {
          "internalType": "address",
          "name": "clientID",
          "type": "address"
        }
      ],
      "stateMutability": "view",
      "type": "function"
    },
    {
      "inputs": [
        {
          "internalType": "address",
          "name": "_userAddress",
          "type": "address"
        }
      ],
      "name": "getClientCount",
      "outputs": [
        {
          "internalType": "int256",
          "name": "count",
          "type": "int256"
        }
      ],
      "stateMutability": "view",
      "type": "function"
    }
  ],
  "bytecode": "0x6080604052600060025560006100196100bc60201b60201c565b9050806000806101000a81548173ffffffffffffffffffffffffffffffffffffffff021916908373ffffffffffffffffffffffffffffffffffffffff1602179055508073ffffffffffffffffffffffffffffffffffffffff16600073ffffffffffffffffffffffffffffffffffffffff167f8be0079c531659141344cd1fd0a4f28419497f9722a3daafe3b4186f6b6457e060405160405180910390a3506100c4565b600033905090565b613a9d80620000d46000396000f3fe60806040526004361061014b5760003560e01c8063c29ca726116100b6578063d79fca3d1161006f578063d79fca3d1461113c578063d84f55ee146112db578063e281447c146113a5578063e331435414611481578063f2fde38b14611512578063f53642de146115635761014b565b8063c29ca72614610a98578063c77e7a8b14610ba0578063c93b840614610c31578063cca76c5d14610d17578063d41ba10f14610d92578063d7554a6814610fbd5761014b565b80638353a4ba116101085780638353a4ba146105b85780638da5cb5b14610737578063a426e2d91461078e578063a69fd727146107f3578063b5b73acb146108cf578063b5cb15f714610a6d5761014b565b80630f3aef011461015057806313f0df4d146102585780631b3b36b51461036b5780634be7a6971461046b5780636f77926b146104d0578063715018a6146105a1575b600080fd5b34801561015c57600080fd5b506102166004803603602081101561017357600080fd5b810190808035906020019064010000000081111561019057600080fd5b8201836020820111156101a257600080fd5b803590602001918460018302840111640100000000831117156101c457600080fd5b91908080601f016020809104026020016040519081016040528093929190818152602001838380828437600081840152601f19601f820116905080830192505050505050509192919290505050611675565b604051808273ffffffffffffffffffffffffffffffffffffffff1673ffffffffffffffffffffffffffffffffffffffff16815260200191505060405180910390f35b6103516004803603606081101561026e57600080fd5b81019080803573ffffffffffffffffffffffffffffffffffffffff169060200190929190803590602001906401000000008111156102ab57600080fd5b8201836020820111156102bd57600080fd5b803590602001918460018302840111640100000000831117156102df57600080fd5b91908080601f016020809104026020016040519081016040528093929190818152602001838380828437600081840152601f19601f820116905080830192505050505050509192919290803573ffffffffffffffffffffffffffffffffffffffff16906020019092919050505061170b565b604051808215151515815260200191505060405180910390f35b34801561037757600080fd5b506104516004803603604081101561038e57600080fd5b81019080803573ffffffffffffffffffffffffffffffffffffffff169060200190929190803590602001906401000000008111156103cb57600080fd5b8201836020820111156103dd57600080fd5b803590602001918460018302840111640100000000831117156103ff57600080fd5b91908080601f016020809104026020016040519081016040528093929190818152602001838380828437600081840152601f19601f820116905080830192505050505050509192919290505050611885565b604051808215151515815260200191505060405180910390f35b34801561047757600080fd5b506104ba6004803603602081101561048e57600080fd5b81019080803573ffffffffffffffffffffffffffffffffffffffff16906020019092919050505061194a565b6040518082815260200191505060405180910390f35b3480156104dc57600080fd5b5061051f600480360360208110156104f357600080fd5b81019080803573ffffffffffffffffffffffffffffffffffffffff169060200190929190505050611962565b6040518080602001838152602001828103825284818151815260200191508051906020019080838360005b8381101561056557808201518184015260208101905061054a565b50505050905090810190601f1680156105925780820380516001836020036101000a031916815260200191505b50935050505060405180910390f35b3480156105ad57600080fd5b506105b6611a90565b005b3480156105c457600080fd5b5061067e600480360360208110156105db57600080fd5b81019080803590602001906401000000008111156105f857600080fd5b82018360208201111561060a57600080fd5b8035906020019184600183028401116401000000008311171561062c57600080fd5b91908080601f016020809104026020016040519081016040528093929190818152602001838380828437600081840152601f19601f820116905080830192505050505050509192919290505050611c18565b604051808473ffffffffffffffffffffffffffffffffffffffff1673ffffffffffffffffffffffffffffffffffffffff1681526020018060200183151515158152602001828103825284818151815260200191508051906020019080838360005b838110156106fa5780820151818401526020810190506106df565b50505050905090810190601f1680156107275780820380516001836020036101000a031916815260200191505b5094505050505060405180910390f35b34801561074357600080fd5b5061074c611d1d565b604051808273ffffffffffffffffffffffffffffffffffffffff1673ffffffffffffffffffffffffffffffffffffffff16815260200191505060405180910390f35b34801561079a57600080fd5b506107dd600480360360208110156107b157600080fd5b81019080803573ffffffffffffffffffffffffffffffffffffffff169060200190929190505050611d46565b6040518082815260200191505060405180910390f35b3480156107ff57600080fd5b506108b96004803603602081101561081657600080fd5b810190808035906020019064010000000081111561083357600080fd5b82018360208201111561084557600080fd5b8035906020019184600183028401116401000000008311171561086757600080fd5b91908080601f016020809104026020016040519081016040528093929190818152602001838380828437600081840152601f19601f820116905080830192505050505050509192919290505050611d8f565b6040518082815260200191505060405180910390f35b3480156108db57600080fd5b506109bf600480360360608110156108f257600080fd5b81019080803573ffffffffffffffffffffffffffffffffffffffff1690602001909291908035906020019064010000000081111561092f57600080fd5b82018360208201111561094157600080fd5b8035906020019184600183028401116401000000008311171561096357600080fd5b91908080601f016020809104026020016040519081016040528093929190818152602001838380828437600081840152601f19601f82011690508083019250505050505050919291929080359060200190929190505050611e0a565b60405180806020018373ffffffffffffffffffffffffffffffffffffffff1673ffffffffffffffffffffffffffffffffffffffff168152602001828103825284818151815260200191508051906020019080838360005b83811015610a31578082015181840152602081019050610a16565b50505050905090810190601f168015610a5e5780820380516001836020036101000a031916815260200191505b50935050505060405180910390f35b348015610a7957600080fd5b50610a826120e3565b6040518082815260200191505060405180910390f35b348015610aa457600080fd5b50610b5e60048036036020811015610abb57600080fd5b8101908080359060200190640100000000811115610ad857600080fd5b820183602082011115610aea57600080fd5b80359060200191846001830284011164010000000083111715610b0c57600080fd5b91908080601f016020809104026020016040519081016040528093929190818152602001838380828437600081840152601f19601f8201169050808301925050505050505091929192905050506121b6565b604051808273ffffffffffffffffffffffffffffffffffffffff1673ffffffffffffffffffffffffffffffffffffffff16815260200191505060405180910390f35b348015610bac57600080fd5b50610bef60048036036020811015610bc357600080fd5b81019080803573ffffffffffffffffffffffffffffffffffffffff1690602001909291905050506121ff565b604051808273ffffffffffffffffffffffffffffffffffffffff1673ffffffffffffffffffffffffffffffffffffffff16815260200191505060405180910390f35b348015610c3d57600080fd5b50610d0160048036036040811015610c5457600080fd5b8101908080359060200190640100000000811115610c7157600080fd5b820183602082011115610c8357600080fd5b80359060200191846001830284011164010000000083111715610ca557600080fd5b91908080601f016020809104026020016040519081016040528093929190818152602001838380828437600081840152601f19601f82011690508083019250505050505050919291929080359060200190929190505050612232565b6040518082815260200191505060405180910390f35b348015610d2357600080fd5b50610d5060048036036020811015610d3a57600080fd5b8101908080359060200190929190505050612276565b604051808273ffffffffffffffffffffffffffffffffffffffff1673ffffffffffffffffffffffffffffffffffffffff16815260200191505060405180910390f35b348015610d9e57600080fd5b50610f0f60048036036060811015610db557600080fd5b81019080803573ffffffffffffffffffffffffffffffffffffffff16906020019092919080359060200190640100000000811115610df257600080fd5b820183602082011115610e0457600080fd5b80359060200191846001830284011164010000000083111715610e2657600080fd5b91908080601f016020809104026020016040519081016040528093929190818152602001838380828437600081840152601f19601f82011690508083019250505050505050919291929080359060200190640100000000811115610e8957600080fd5b820183602082011115610e9b57600080fd5b80359060200191846001830284011164010000000083111715610ebd57600080fd5b91908080601f016020809104026020016040519081016040528093929190818152602001838380828437600081840152601f19601f82011690508083019250505050505050919291929050505061237c565b60405180806020018373ffffffffffffffffffffffffffffffffffffffff1673ffffffffffffffffffffffffffffffffffffffff168152602001828103825284818151815260200191508051906020019080838360005b83811015610f81578082015181840152602081019050610f66565b50505050905090810190601f168015610fae5780820380516001836020036101000a031916815260200191505b50935050505060405180910390f35b348015610fc957600080fd5b5061113a60048036036060811015610fe057600080fd5b81019080803573ffffffffffffffffffffffffffffffffffffffff1690602001909291908035906020019064010000000081111561101d57600080fd5b82018360208201111561102f57600080fd5b8035906020019184600183028401116401000000008311171561105157600080fd5b91908080601f016020809104026020016040519081016040528093929190818152602001838380828437600081840152601f19601f820116905080830192505050505050509192919290803590602001906401000000008111156110b457600080fd5b8201836020820111156110c657600080fd5b803590602001918460018302840111640100000000831117156110e857600080fd5b91908080601f016020809104026020016040519081016040528093929190818152602001838380828437600081840152601f19601f8201169050808301925050505050505091929192905050506127f2565b005b34801561114857600080fd5b506112d96004803603608081101561115f57600080fd5b81019080803573ffffffffffffffffffffffffffffffffffffffff1690602001909291908035906020019064010000000081111561119c57600080fd5b8201836020820111156111ae57600080fd5b803590602001918460018302840111640100000000831117156111d057600080fd5b91908080601f016020809104026020016040519081016040528093929190818152602001838380828437600081840152601f19601f820116905080830192505050505050509192919290803573ffffffffffffffffffffffffffffffffffffffff1690602001909291908035906020019064010000000081111561125357600080fd5b82018360208201111561126557600080fd5b8035906020019184600183028401116401000000008311171561128757600080fd5b91908080601f016020809104026020016040519081016040528093929190818152602001838380828437600081840152601f19601f820116905080830192505050505050509192919290505050612b82565b005b3480156112e757600080fd5b5061132a600480360360208110156112fe57600080fd5b81019080803573ffffffffffffffffffffffffffffffffffffffff169060200190929190505050613401565b6040518080602001828103825283818151815260200191508051906020019080838360005b8381101561136a57808201518184015260208101905061134f565b50505050905090810190601f1680156113975780820380516001836020036101000a031916815260200191505b509250505060405180910390f35b3480156113b157600080fd5b506113f4600480360360208110156113c857600080fd5b81019080803573ffffffffffffffffffffffffffffffffffffffff1690602001909291905050506134e5565b604051808060200184815260200183151515158152602001828103825285818151815260200191508051906020019080838360005b83811015611444578082015181840152602081019050611429565b50505050905090810190601f1680156114715780820380516001836020036101000a031916815260200191505b5094505050505060405180910390f35b34801561148d57600080fd5b506114d0600480360360208110156114a457600080fd5b81019080803573ffffffffffffffffffffffffffffffffffffffff1690602001909291905050506135b4565b604051808273ffffffffffffffffffffffffffffffffffffffff1673ffffffffffffffffffffffffffffffffffffffff16815260200191505060405180910390f35b34801561151e57600080fd5b506115616004803603602081101561153557600080fd5b81019080803573ffffffffffffffffffffffffffffffffffffffff16906020019092919050505061361d565b005b34801561156f57600080fd5b506115bc6004803603604081101561158657600080fd5b81019080803573ffffffffffffffffffffffffffffffffffffffff1690602001909291908035906020019092919050505061382a565b604051808473ffffffffffffffffffffffffffffffffffffffff1673ffffffffffffffffffffffffffffffffffffffff1681526020018060200183151515158152602001828103825284818151815260200191508051906020019080838360005b8381101561163857808201518184015260208101905061161d565b50505050905090810190601f1680156116655780820380516001836020036101000a031916815260200191505b5094505050505060405180910390f35b60006004826040518082805190602001908083835b602083106116ad578051825260208201915060208101905060208303925061168a565b6001836020036101000a038019825116818451168082178552505050505050905001915050908152602001604051809103902060000160009054906101000a900473ffffffffffffffffffffffffffffffffffffffff169050919050565b60008173ffffffffffffffffffffffffffffffffffffffff16600660008673ffffffffffffffffffffffffffffffffffffffff1673ffffffffffffffffffffffffffffffffffffffff16815260200190815260200160002060009054906101000a900473ffffffffffffffffffffffffffffffffffffffff1673ffffffffffffffffffffffffffffffffffffffff161415611879577f3266e9973cd88d0b427a9f781262c2810cb85378bdc9e4965a3c7aa22977708e8484604051808373ffffffffffffffffffffffffffffffffffffffff1673ffffffffffffffffffffffffffffffffffffffff16815260200180602001828103825283818151815260200191508051906020019080838360005b8381101561183557808201518184015260208101905061181a565b50505050905090810190601f1680156118625780820380516001836020036101000a031916815260200191505b50935050505060405180910390a16000905061187e565b600190505b9392505050565b600080826040516020018082805190602001908083835b602083106118bf578051825260208201915060208101905060208303925061189c565b6001836020036101000a03801982511681845116808217855250505050505090500191505060405160208183030381529060405280519060200120905080600160008673ffffffffffffffffffffffffffffffffffffffff1673ffffffffffffffffffffffffffffffffffffffff168152602001908152602001600020600101541491505092915050565b60086020528060005260406000206000915090505481565b60606000600160008473ffffffffffffffffffffffffffffffffffffffff1673ffffffffffffffffffffffffffffffffffffffff168152602001908152602001600020600001600160008573ffffffffffffffffffffffffffffffffffffffff1673ffffffffffffffffffffffffffffffffffffffff16815260200190815260200160002060010154818054600181600116156101000203166002900480601f016020809104026020016040519081016040528092919081815260200182805460018160011615610100020316600290048015611a805780601f10611a5557610100808354040283529160200191611a80565b820191906000526020600020905b815481529060010190602001808311611a6357829003601f168201915b5050505050915091509150915091565b611a98613933565b73ffffffffffffffffffffffffffffffffffffffff166000809054906101000a900473ffffffffffffffffffffffffffffffffffffffff1673ffffffffffffffffffffffffffffffffffffffff1614611b59576040517f08c379a00000000000000000000000000000000000000000000000000000000081526004018080602001828103825260208152602001807f4f776e61626c653a2063616c6c6572206973206e6f7420746865206f776e657281525060200191505060405180910390fd5b600073ffffffffffffffffffffffffffffffffffffffff166000809054906101000a900473ffffffffffffffffffffffffffffffffffffffff1673ffffffffffffffffffffffffffffffffffffffff167f8be0079c531659141344cd1fd0a4f28419497f9722a3daafe3b4186f6b6457e060405160405180910390a360008060006101000a81548173ffffffffffffffffffffffffffffffffffffffff021916908373ffffffffffffffffffffffffffffffffffffffff160217905550565b6004818051602081018201805184825260208301602085012081835280955050505050506000915090508060000160009054906101000a900473ffffffffffffffffffffffffffffffffffffffff1690806001018054600181600116156101000203166002900480601f016020809104026020016040519081016040528092919081815260200182805460018160011615610100020316600290048015611d005780601f10611cd557610100808354040283529160200191611d00565b820191906000526020600020905b815481529060010190602001808311611ce357829003601f168201915b5050505050908060020160009054906101000a900460ff16905083565b60008060009054906101000a900473ffffffffffffffffffffffffffffffffffffffff16905090565b6000600860008373ffffffffffffffffffffffffffffffffffffffff1673ffffffffffffffffffffffffffffffffffffffff168152602001908152602001600020549050919050565b6000816040516020018082805190602001908083835b60208310611dc85780518252602082019150602081019050602083039250611da5565b6001836020036101000a038019825116818451168082178552505050505050905001915050604051602081830303815290604052805190602001209050919050565b6060600084846000816040516020018082805190602001908083835b60208310611e495780518252602082019150602081019050602083039250611e26565b6001836020036101000a03801982511681845116808217855250505050505090500191505060405160208183030381529060405280519060200120905080600160008573ffffffffffffffffffffffffffffffffffffffff1673ffffffffffffffffffffffffffffffffffffffff1681526020019081526020016000206001015414611f3d576040517f08c379a00000000000000000000000000000000000000000000000000000000081526004018080602001828103825260168152602001807f496e76616c69642070617373776f726420676976656e0000000000000000000081525060200191505060405180910390fd5b611f4561393b565b600760008a73ffffffffffffffffffffffffffffffffffffffff1673ffffffffffffffffffffffffffffffffffffffff1681526020019081526020016000208781548110611f8f57fe5b90600052602060002090600302016040518060600160405290816000820160009054906101000a900473ffffffffffffffffffffffffffffffffffffffff1673ffffffffffffffffffffffffffffffffffffffff1673ffffffffffffffffffffffffffffffffffffffff168152602001600182018054600181600116156101000203166002900480601f0160208091040260200160405190810160405280929190818152602001828054600181600116156101000203166002900480156120975780601f1061206c57610100808354040283529160200191612097565b820191906000526020600020905b81548152906001019060200180831161207a57829003601f168201915b505050505081526020016002820160009054906101000a900460ff1615151515815250509050606081602001519050600082600001519050818197509750505050505050935093915050565b60006120ed613933565b73ffffffffffffffffffffffffffffffffffffffff166000809054906101000a900473ffffffffffffffffffffffffffffffffffffffff1673ffffffffffffffffffffffffffffffffffffffff16146121ae576040517f08c379a00000000000000000000000000000000000000000000000000000000081526004018080602001828103825260208152602001807f4f776e61626c653a2063616c6c6572206973206e6f7420746865206f776e657281525060200191505060405180910390fd5b600254905090565b6005818051602081018201805184825260208301602085012081835280955050505050506000915054906101000a900473ffffffffffffffffffffffffffffffffffffffff1681565b60066020528060005260406000206000915054906101000a900473ffffffffffffffffffffffffffffffffffffffff1681565b600982805160208101820180518482526020830160208501208183528095505050505050818154811061226157fe5b90600052602060002001600091509150505481565b6000612280613933565b73ffffffffffffffffffffffffffffffffffffffff166000809054906101000a900473ffffffffffffffffffffffffffffffffffffffff1673ffffffffffffffffffffffffffffffffffffffff1614612341576040517f08c379a00000000000000000000000000000000000000000000000000000000081526004018080602001828103825260208152602001807f4f776e61626c653a2063616c6c6572206973206e6f7420746865206f776e657281525060200191505060405180910390fd5b6003600083815260200190815260200160002060009054906101000a900473ffffffffffffffffffffffffffffffffffffffff169050919050565b60606000848360006004826040518082805190602001908083835b602083106123ba5780518252602082019150602081019050602083039250612397565b6001836020036101000a038019825116818451168082178552505050505050905001915050908152602001604051809103902060000160009054906101000a900473ffffffffffffffffffffffffffffffffffffffff1690508073ffffffffffffffffffffffffffffffffffffffff16600660008573ffffffffffffffffffffffffffffffffffffffff1673ffffffffffffffffffffffffffffffffffffffff16815260200190815260200160002060009054906101000a900473ffffffffffffffffffffffffffffffffffffffff1673ffffffffffffffffffffffffffffffffffffffff1614612513576040517f08c379a000000000000000000000000000000000000000000000000000000000815260040180806020018281038252601f8152602001807f5573657220616e6420636c69656e7420617265206e6f742072656c617465640081525060200191505060405180910390fd5b87876000816040516020018082805190602001908083835b6020831061254e578051825260208201915060208101905060208303925061252b565b6001836020036101000a03801982511681845116808217855250505050505090500191505060405160208183030381529060405280519060200120905080600160008573ffffffffffffffffffffffffffffffffffffffff1673ffffffffffffffffffffffffffffffffffffffff1681526020019081526020016000206001015414612642576040517f08c379a00000000000000000000000000000000000000000000000000000000081526004018080602001828103825260168152602001807f496e76616c69642070617373776f726420676976656e0000000000000000000081525060200191505060405180910390fd5b606060048a6040518082805190602001908083835b6020831061267a5780518252602082019150602081019050602083039250612657565b6001836020036101000a03801982511681845116808217855250505050505090500191505090815260200160405180910390206001018054600181600116156101000203166002900480601f0160208091040260200160405190810160405280929190818152602001828054600181600116156101000203166002900480156127445780601f1061271957610100808354040283529160200191612744565b820191906000526020600020905b81548152906001019060200180831161272757829003601f168201915b50505050509050600060048b6040518082805190602001908083835b602083106127835780518252602082019150602081019050602083039250612760565b6001836020036101000a038019825116818451168082178552505050505050905001915050908152602001604051809103902060000160009054906101000a900473ffffffffffffffffffffffffffffffffffffffff1690508181995099505050505050505050935093915050565b8260001515600160008373ffffffffffffffffffffffffffffffffffffffff1673ffffffffffffffffffffffffffffffffffffffff16815260200190815260200160002060020160009054906101000a900460ff161515146128bc576040517f08c379a00000000000000000000000000000000000000000000000000000000081526004018080602001828103825260138152602001807f5573657220616c7265616479206578697374730000000000000000000000000081525060200191505060405180910390fd5b6000826040516020018082805190602001908083835b602083106128f557805182526020820191506020810190506020830392506128d2565b6001836020036101000a038019825116818451168082178552505050505050905001915050604051602081830303815290604052805190602001209050604051806060016040528085815260200182815260200160011515815250600160008773ffffffffffffffffffffffffffffffffffffffff1673ffffffffffffffffffffffffffffffffffffffff16815260200190815260200160002060008201518160000190805190602001906129ab929190613974565b506020820151816001015560408201518160020160006101000a81548160ff0219169083151502179055509050508460036000600254815260200190815260200160002060006101000a81548173ffffffffffffffffffffffffffffffffffffffff021916908373ffffffffffffffffffffffffffffffffffffffff16021790555060016002600082825401925050819055507f5ae6671f20b51a868ae522f9841ff46bb92cc988a8f2f502deba9d90b8cd8693858585604051808473ffffffffffffffffffffffffffffffffffffffff1673ffffffffffffffffffffffffffffffffffffffff1681526020018060200180602001838103835285818151815260200191508051906020019080838360005b83811015612ad8578082015181840152602081019050612abd565b50505050905090810190601f168015612b055780820380516001836020036101000a031916815260200191505b50838103825284818151815260200191508051906020019080838360005b83811015612b3e578082015181840152602081019050612b23565b50505050905090810190601f168015612b6b5780820380516001836020036101000a031916815260200191505b509550505050505060405180910390a15050505050565b838160006004826040518082805190602001908083835b60208310612bbc5780518252602082019150602081019050602083039250612b99565b6001836020036101000a038019825116818451168082178552505050505050905001915050908152602001604051809103902060000160009054906101000a900473ffffffffffffffffffffffffffffffffffffffff1690508073ffffffffffffffffffffffffffffffffffffffff16600660008573ffffffffffffffffffffffffffffffffffffffff1673ffffffffffffffffffffffffffffffffffffffff16815260200190815260200160002060009054906101000a900473ffffffffffffffffffffffffffffffffffffffff1673ffffffffffffffffffffffffffffffffffffffff1614612d15576040517f08c379a000000000000000000000000000000000000000000000000000000000815260040180806020018281038252601f8152602001807f5573657220616e6420636c69656e7420617265206e6f742072656c617465640081525060200191505060405180910390fd5b86866000816040516020018082805190602001908083835b60208310612d505780518252602082019150602081019050602083039250612d2d565b6001836020036101000a03801982511681845116808217855250505050505090500191505060405160208183030381529060405280519060200120905080600160008573ffffffffffffffffffffffffffffffffffffffff1673ffffffffffffffffffffffffffffffffffffffff1681526020019081526020016000206001015414612e44576040517f08c379a00000000000000000000000000000000000000000000000000000000081526004018080602001828103825260168152602001807f496e76616c69642070617373776f726420676976656e0000000000000000000081525060200191505060405180910390fd5b898888612e5283828461170b565b612ea7576040517f08c379a0000000000000000000000000000000000000000000000000000000008152600401808060200182810382526028815260200180613a406028913960400191505060405180910390fd5b8a60048b6040518082805190602001908083835b60208310612ede5780518252602082019150602081019050602083039250612ebb565b6001836020036101000a038019825116818451168082178552505050505050905001915050908152602001604051809103902060000160006101000a81548173ffffffffffffffffffffffffffffffffffffffff021916908373ffffffffffffffffffffffffffffffffffffffff1602179055508960048b6040518082805190602001908083835b60208310612f895780518252602082019150602081019050602083039250612f66565b6001836020036101000a03801982511681845116808217855250505050505090500191505090815260200160405180910390206001019080519060200190612fd2929190613974565b50600160048b6040518082805190602001908083835b6020831061300b5780518252602082019150602081019050602083039250612fe8565b6001836020036101000a038019825116818451168082178552505050505050905001915050908152602001604051809103902060020160006101000a81548160ff0219169083151502179055508a60058b6040518082805190602001908083835b6020831061308f578051825260208201915060208101905060208303925061306c565b6001836020036101000a038019825116818451168082178552505050505050905001915050908152602001604051809103902060006101000a81548173ffffffffffffffffffffffffffffffffffffffff021916908373ffffffffffffffffffffffffffffffffffffffff1602179055508a600660008f73ffffffffffffffffffffffffffffffffffffffff1673ffffffffffffffffffffffffffffffffffffffff16815260200190815260200160002060006101000a81548173ffffffffffffffffffffffffffffffffffffffff021916908373ffffffffffffffffffffffffffffffffffffffff160217905550600760008e73ffffffffffffffffffffffffffffffffffffffff1673ffffffffffffffffffffffffffffffffffffffff16815260200190815260200160002060405180606001604052808d73ffffffffffffffffffffffffffffffffffffffff1681526020018c815260200160011515815250908060018154018082558091505060019003906000526020600020906003020160009091909190915060008201518160000160006101000a81548173ffffffffffffffffffffffffffffffffffffffff021916908373ffffffffffffffffffffffffffffffffffffffff160217905550602082015181600101908051906020019061327d929190613974565b5060408201518160020160006101000a81548160ff02191690831515021790555050506001600860008f73ffffffffffffffffffffffffffffffffffffffff1673ffffffffffffffffffffffffffffffffffffffff168152602001908152602001600020600082825401925050819055507f94b9610dbc7bb1121768f2201c6a4b486d3979ecc0c3e84d475a3ace0381903c8d8c8c604051808473ffffffffffffffffffffffffffffffffffffffff1673ffffffffffffffffffffffffffffffffffffffff1681526020018373ffffffffffffffffffffffffffffffffffffffff1673ffffffffffffffffffffffffffffffffffffffff16815260200180602001828103825283818151815260200191508051906020019080838360005b838110156133b657808201518184015260208101905061339b565b50505050905090810190601f1680156133e35780820380516001836020036101000a031916815260200191505b5094505050505060405180910390a150505050505050505050505050565b6060600160008373ffffffffffffffffffffffffffffffffffffffff1673ffffffffffffffffffffffffffffffffffffffff1681526020019081526020016000206000018054600181600116156101000203166002900480601f0160208091040260200160405190810160405280929190818152602001828054600181600116156101000203166002900480156134d95780601f106134ae576101008083540402835291602001916134d9565b820191906000526020600020905b8154815290600101906020018083116134bc57829003601f168201915b50505050509050919050565b6001602052806000526040600020600091509050806000018054600181600116156101000203166002900480601f0160208091040260200160405190810160405280929190818152602001828054600181600116156101000203166002900480156135915780601f1061356657610100808354040283529160200191613591565b820191906000526020600020905b81548152906001019060200180831161357457829003601f168201915b5050505050908060010154908060020160009054906101000a900460ff16905083565b6000600660008373ffffffffffffffffffffffffffffffffffffffff1673ffffffffffffffffffffffffffffffffffffffff16815260200190815260200160002060009054906101000a900473ffffffffffffffffffffffffffffffffffffffff169050919050565b613625613933565b73ffffffffffffffffffffffffffffffffffffffff166000809054906101000a900473ffffffffffffffffffffffffffffffffffffffff1673ffffffffffffffffffffffffffffffffffffffff16146136e6576040517f08c379a00000000000000000000000000000000000000000000000000000000081526004018080602001828103825260208152602001807f4f776e61626c653a2063616c6c6572206973206e6f7420746865206f776e657281525060200191505060405180910390fd5b600073ffffffffffffffffffffffffffffffffffffffff168173ffffffffffffffffffffffffffffffffffffffff16141561376c576040517f08c379a0000000000000000000000000000000000000000000000000000000008152600401808060200182810382526026815260200180613a1a6026913960400191505060405180910390fd5b8073ffffffffffffffffffffffffffffffffffffffff166000809054906101000a900473ffffffffffffffffffffffffffffffffffffffff1673ffffffffffffffffffffffffffffffffffffffff167f8be0079c531659141344cd1fd0a4f28419497f9722a3daafe3b4186f6b6457e060405160405180910390a3806000806101000a81548173ffffffffffffffffffffffffffffffffffffffff021916908373ffffffffffffffffffffffffffffffffffffffff16021790555050565b6007602052816000526040600020818154811061384357fe5b9060005260206000209060030201600091509150508060000160009054906101000a900473ffffffffffffffffffffffffffffffffffffffff1690806001018054600181600116156101000203166002900480601f0160208091040260200160405190810160405280929190818152602001828054600181600116156101000203166002900480156139165780601f106138eb57610100808354040283529160200191613916565b820191906000526020600020905b8154815290600101906020018083116138f957829003601f168201915b5050505050908060020160009054906101000a900460ff16905083565b600033905090565b6040518060600160405280600073ffffffffffffffffffffffffffffffffffffffff168152602001606081526020016000151581525090565b828054600181600116156101000203166002900490600052602060002090601f016020900481019282601f106139b557805160ff19168380011785556139e3565b828001600101855582156139e3579182015b828111156139e25782518255916020019190600101906139c7565b5b5090506139f091906139f4565b5090565b613a1691905b80821115613a125760008160009055506001016139fa565b5090565b9056fe4f776e61626c653a206e6577206f776e657220697320746865207a65726f2061646472657373436c69656e7420616c72656164792065786973747320666f722074686520676976656e2075736572a26469706673582212206041b69c826d1a6e37bd3f6e173395aca5bee10341982c10a2f1a3e39f3a188a64736f6c63430006060033",
  "immutableReferences": {},
  "source": "// SPDX-License-Identifier: GPL-3.0\npragma solidity ^0.6.6;\n\nimport \"./Users.sol\";\n\ncontract Clients is Users {\n    /// @dev Client struct\n    struct Client {\n        address clientID;\n        string name;\n        bool flag;\n    }\n\n    /// @dev map the name of the client to the Client struct\n    mapping(string => Client) public clientMap;\n    /// @dev map the name of the client to the client address\n    mapping(string => address) public clientNameAddressMap;\n    /// @dev map the user address to the client ID\n    mapping(address => address) public userClientIDMap;\n    /// @dev map the user name to his Clients.\n    mapping(address => Client[]) public usersToClientsMap;\n    /// @dev map the user address to the number of his Clients.\n    mapping(address => int256) public userToNumClientsMap;\n    /// @dev map the client name to the invoice numbers.\n    mapping(string => uint256[]) public clientNameInvoiceNumMap;\n\n    event addClientEvent(address _userAddress, address _clientID, string _name);\n    event duplicateClientEvent(address _userAddress, string _clientID);\n\n    /// @author Denis M. Putnam\n    /// @notice Check for no client.\n    /// @param _clientName name of the client.\n    /// @param _clientID clients wallet address.\n    /// @dev no other details.\n    function isNoClient(\n        address _userAddress,\n        string memory _clientName,\n        address _clientID\n    ) public payable returns (bool) {\n        if (userClientIDMap[_userAddress] == _clientID) {\n            emit duplicateClientEvent(_userAddress, _clientName);\n            return false;\n        }\n        return true;\n    }\n\n    modifier noDupClient(\n        address _userAddress,\n        address _clientID,\n        string memory _clientName\n    ) {\n        require(\n            isNoClient(_userAddress, _clientName, _clientID),\n            \"Client already exists for the given user\"\n        );\n        _;\n    }\n\n    modifier userOnly(address _userAddress, string memory _clientName) {\n        address _clientID = clientMap[_clientName].clientID;\n        require(\n            userClientIDMap[_userAddress] == _clientID,\n            \"User and client are not related\"\n        );\n        _;\n    }\n\n    function getClientNameFromMap(string memory name)\n        public view returns (address clientAddress)\n    {\n        return clientMap[name].clientID;\n    }\n\n    function getClientIDFromIDMap(address userAddress) public view returns (address clientID) {\n        return userClientIDMap[userAddress];\n    }\n\n    /// @author Denis M. Putnam\n    /// @notice Add a client to this contract.\n    /// @param _userAddress user address\n    /// @param _pwd plain text user password\n    /// @param _clientID address of the wallet of the client.\n    /// @param _name string with the client's name.  This needs to be unique\n    /// @dev Add's a client to the clientMap and the clientNameAddressMap\n    function addClient(\n        address _userAddress,\n        string memory _pwd,\n        address _clientID,\n        string memory _name\n    )\n        public\n        userOnly(_userAddress, _name)\n        isValidPassword(_userAddress, _pwd)\n        noDupClient(_userAddress, _clientID, _name)\n    {\n        clientMap[_name].clientID = _clientID;\n        clientMap[_name].name = _name;\n        clientMap[_name].flag = true;\n\n        // clientNameArray.push(_name);\n\n        clientNameAddressMap[_name] = _clientID;\n        //clientNameInvoiceCountMap[_name] = 0;\n        userClientIDMap[_userAddress] = _clientID;\n        usersToClientsMap[_userAddress].push(Client(_clientID, _name, true));\n        userToNumClientsMap[_userAddress] += 1;\n        emit addClientEvent(_userAddress, _clientID, _name);\n    }\n\n    /// @author Denis M. Putnam\n    /// @notice Get the requested client\n    /// @param _userAddress user address\n    /// @param _pwd plain text password\n    /// @param _name client's name\n    /// @dev Get the client for the given name.\n    /// @return name\n    /// @return clientID\n    function getClientByName(\n        address _userAddress,\n        string memory _pwd,\n        string memory _name\n    )\n        public\n        view\n        userOnly(_userAddress, _name)\n        isValidPassword(_userAddress, _pwd)\n        returns (string memory name, address clientID)\n    {\n        string memory lname = clientMap[_name].name;\n        address lclientID = clientMap[_name].clientID;\n        return (lname, lclientID);\n    }\n\n    /// @author Denis M. Putnam\n    /// @notice get the client by index number.\n    /// @param _index index of client name\n    /// @dev no further info\n    /// @return name\n    /// @return clientID\n    function getClientByIndex(\n        address _userAddress,\n        string memory _pwd,\n        uint256 _index\n    )\n        public\n        view\n        isValidPassword(_userAddress, _pwd)\n        returns (string memory name, address clientID)\n    {\n        Client memory _client = usersToClientsMap[_userAddress][_index];\n        string memory lname = _client.name;\n        address lclientID = _client.clientID;\n        return (lname, lclientID);\n    }\n\n    function getClientCount(address _userAddress)\n        public\n        view\n        returns (int256 count)\n    {\n        //return clientNameArray.length;\n        return userToNumClientsMap[_userAddress];\n    }\n}\n",
  "sourcePath": "/Users/denisputnam/git/invoice-tracker-dapp/contracts/Clients.sol",
  "compiler": {
    "name": "solc",
    "version": "0.6.6+commit.6c089d02.Emscripten.clang"
  },
  "schemaVersion": "3.2.3",
  "updatedAt": "2020-08-04T00:24:28.404Z",
  "devdoc": {
    "methods": {
      "addClient(address,string,address,string)": {
        "author": "Denis M. Putnam",
        "details": "Add's a client to the clientMap and the clientNameAddressMap",
        "params": {
          "_clientID": "address of the wallet of the client.",
          "_name": "string with the client's name.  This needs to be unique",
          "_pwd": "plain text user password",
          "_userAddress": "user address"
        }
      },
      "addUser(address,string,string)": {
        "author": "Denis M. Putnam",
        "details": "no other details.",
        "params": {
          "_address": "wallet account address for the user",
          "_name": "user name",
          "_pwd": "unencrypted password"
        }
      },
      "getClientByIndex(address,string,uint256)": {
        "author": "Denis M. Putnam",
        "details": "no further info",
        "params": {
          "_index": "index of client name"
        },
        "returns": {
          "clientID": "clientID",
          "name": "name"
        }
      },
      "getClientByName(address,string,string)": {
        "author": "Denis M. Putnam",
        "details": "Get the client for the given name.",
        "params": {
          "_name": "client's name",
          "_pwd": "plain text password",
          "_userAddress": "user address"
        },
        "returns": {
          "clientID": "clientID",
          "name": "name"
        }
      },
      "getUser(address)": {
        "author": "Denis M. Putnam",
        "details": "Get the client for the given name.",
        "params": {
          "_userAddress": "user address"
        },
        "returns": {
          "ePwd": "ePwd",
          "name": "name"
        }
      },
      "getUserAddressByIndex(uint256)": {
        "author": "Denis M. Putnam",
        "details": "no other details.",
        "params": {
          "_index": "index of the user"
        },
        "returns": {
          "_userAddress": "_userAddress"
        }
      },
      "getUserCount()": {
        "author": "Denis M. Putnam",
        "details": "no other details.",
        "returns": {
          "usercount": "usercount"
        }
      },
      "getUserName(address)": {
        "author": "Denis M. Putnam",
        "details": "Get the client for the given name.",
        "params": {
          "_userAddress": "user address"
        },
        "returns": {
          "name": "name"
        }
      },
      "isNoClient(address,string,address)": {
        "author": "Denis M. Putnam",
        "details": "no other details.",
        "params": {
          "_clientID": "clients wallet address.",
          "_clientName": "name of the client."
        }
      },
      "owner()": {
        "details": "Returns the address of the current owner."
      },
      "renounceOwnership()": {
        "details": "Leaves the contract without owner. It will not be possible to call `onlyOwner` functions anymore. Can only be called by the current owner.     * NOTE: Renouncing ownership will leave the contract without an owner, thereby removing any functionality that is only available to the owner."
      },
      "transferOwnership(address)": {
        "details": "Transfers ownership of the contract to a new account (`newOwner`). Can only be called by the current owner."
      }
    }
  },
  "userdoc": {
    "methods": {
      "addClient(address,string,address,string)": {
        "notice": "Add a client to this contract."
      },
      "addUser(address,string,string)": {
        "notice": "Add a user"
      },
      "getClientByIndex(address,string,uint256)": {
        "notice": "get the client by index number."
      },
      "getClientByName(address,string,string)": {
        "notice": "Get the requested client"
      },
      "getUser(address)": {
        "notice": "Get the user name and epassword"
      },
      "getUserAddressByIndex(uint256)": {
        "notice": "Get the user address"
      },
      "getUserCount()": {
        "notice": "Get the count of users."
      },
      "getUserName(address)": {
        "notice": "Get the user name"
      },
      "isNoClient(address,string,address)": {
        "notice": "Check for no client."
      }
    }
  }
}