{
  "contractName": "Invoices",
  "abi": [
    {
      "anonymous": false,
      "inputs": [
        {
          "indexed": true,
          "internalType": "address",
          "name": "previousOwner",
          "type": "address"
        },
        {
          "indexed": true,
          "internalType": "address",
          "name": "newOwner",
          "type": "address"
        }
      ],
      "name": "OwnershipTransferred",
      "type": "event"
    },
    {
      "anonymous": false,
      "inputs": [
        {
          "indexed": false,
          "internalType": "string",
          "name": "_clientName",
          "type": "string"
        },
        {
          "indexed": false,
          "internalType": "uint256",
          "name": "_invoiceNumber",
          "type": "uint256"
        },
        {
          "indexed": false,
          "internalType": "uint256",
          "name": "_netTerms",
          "type": "uint256"
        },
        {
          "indexed": false,
          "internalType": "uint256",
          "name": "_numberHours",
          "type": "uint256"
        },
        {
          "indexed": false,
          "internalType": "string",
          "name": "_amount",
          "type": "string"
        },
        {
          "indexed": false,
          "internalType": "uint256",
          "name": "_timesheetEndDate",
          "type": "uint256"
        },
        {
          "indexed": false,
          "internalType": "uint256",
          "name": "_invoiceSentDate",
          "type": "uint256"
        },
        {
          "indexed": false,
          "internalType": "uint256",
          "name": "_due30DaysDate",
          "type": "uint256"
        },
        {
          "indexed": false,
          "internalType": "uint256",
          "name": "_due60DaysDate",
          "type": "uint256"
        },
        {
          "indexed": false,
          "internalType": "uint256",
          "name": "_due90DaysDate",
          "type": "uint256"
        },
        {
          "indexed": false,
          "internalType": "uint256",
          "name": "_due120DaysDate",
          "type": "uint256"
        },
        {
          "indexed": false,
          "internalType": "uint256",
          "name": "_datePmtReceived",
          "type": "uint256"
        }
      ],
      "name": "addInvoiceEvent",
      "type": "event"
    },
    {
      "anonymous": false,
      "inputs": [
        {
          "indexed": false,
          "internalType": "address payable",
          "name": "_address",
          "type": "address"
        },
        {
          "indexed": false,
          "internalType": "string",
          "name": "_name",
          "type": "string"
        },
        {
          "indexed": false,
          "internalType": "string",
          "name": "_pwd",
          "type": "string"
        }
      ],
      "name": "addUserEvent",
      "type": "event"
    },
    {
      "anonymous": false,
      "inputs": [
        {
          "indexed": false,
          "internalType": "string",
          "name": "_clientName",
          "type": "string"
        },
        {
          "indexed": false,
          "internalType": "uint256",
          "name": "_invoiceNumber",
          "type": "uint256"
        }
      ],
      "name": "duplicateInvoiceEvent",
      "type": "event"
    },
    {
      "anonymous": false,
      "inputs": [
        {
          "indexed": false,
          "internalType": "string",
          "name": "_clientName",
          "type": "string"
        },
        {
          "indexed": false,
          "internalType": "uint256",
          "name": "_invoiceNumber",
          "type": "uint256"
        },
        {
          "indexed": false,
          "internalType": "uint256",
          "name": "_datePmtReceived",
          "type": "uint256"
        }
      ],
      "name": "updateInvoiceEvent",
      "type": "event"
    },
    {
      "inputs": [
        {
          "internalType": "string",
          "name": "",
          "type": "string"
        }
      ],
      "name": "clientMap",
      "outputs": [
        {
          "internalType": "address",
          "name": "clientID",
          "type": "address"
        },
        {
          "internalType": "string",
          "name": "name",
          "type": "string"
        },
        {
          "internalType": "bool",
          "name": "flag",
          "type": "bool"
        }
      ],
      "stateMutability": "view",
      "type": "function",
      "constant": true
    },
    {
      "inputs": [],
      "name": "owner",
      "outputs": [
        {
          "internalType": "address",
          "name": "",
          "type": "address"
        }
      ],
      "stateMutability": "view",
      "type": "function",
      "constant": true
    },
    {
      "inputs": [],
      "name": "renounceOwnership",
      "outputs": [],
      "stateMutability": "nonpayable",
      "type": "function"
    },
    {
      "inputs": [
        {
          "internalType": "address",
          "name": "newOwner",
          "type": "address"
        }
      ],
      "name": "transferOwnership",
      "outputs": [],
      "stateMutability": "nonpayable",
      "type": "function"
    },
    {
      "inputs": [
        {
          "internalType": "address",
          "name": "",
          "type": "address"
        }
      ],
      "name": "userClientIDMap",
      "outputs": [
        {
          "internalType": "address",
          "name": "",
          "type": "address"
        }
      ],
      "stateMutability": "view",
      "type": "function",
      "constant": true
    },
    {
      "inputs": [
        {
          "internalType": "address",
          "name": "",
          "type": "address"
        }
      ],
      "name": "usersMap",
      "outputs": [
        {
          "internalType": "string",
          "name": "name",
          "type": "string"
        },
        {
          "internalType": "bytes32",
          "name": "ePwd",
          "type": "bytes32"
        },
        {
          "internalType": "bool",
          "name": "flag",
          "type": "bool"
        }
      ],
      "stateMutability": "view",
      "type": "function",
      "constant": true
    },
    {
      "inputs": [
        {
          "internalType": "string",
          "name": "_clientName",
          "type": "string"
        },
        {
          "internalType": "uint256",
          "name": "_invoiceNumber",
          "type": "uint256"
        }
      ],
      "name": "isNoDuplicateInvoice",
      "outputs": [
        {
          "internalType": "bool",
          "name": "",
          "type": "bool"
        }
      ],
      "stateMutability": "payable",
      "type": "function",
      "payable": true
    },
    {
      "inputs": [
        {
          "internalType": "address payable",
          "name": "_address",
          "type": "address"
        },
        {
          "internalType": "string",
          "name": "_name",
          "type": "string"
        },
        {
          "internalType": "string",
          "name": "_pwd",
          "type": "string"
        }
      ],
      "name": "addUser",
      "outputs": [],
      "stateMutability": "nonpayable",
      "type": "function"
    },
    {
      "inputs": [
        {
          "internalType": "address",
          "name": "_userAddress",
          "type": "address"
        },
        {
          "internalType": "string",
          "name": "_pwd",
          "type": "string"
        },
        {
          "internalType": "string",
          "name": "_clientName",
          "type": "string"
        },
        {
          "internalType": "uint256",
          "name": "_invoiceNumber",
          "type": "uint256"
        },
        {
          "internalType": "uint256",
          "name": "_netTerms",
          "type": "uint256"
        },
        {
          "internalType": "uint256",
          "name": "_numberHours",
          "type": "uint256"
        },
        {
          "internalType": "string",
          "name": "_amount",
          "type": "string"
        },
        {
          "internalType": "uint256[]",
          "name": "_dates",
          "type": "uint256[]"
        }
      ],
      "name": "addInvoice",
      "outputs": [],
      "stateMutability": "nonpayable",
      "type": "function"
    },
    {
      "inputs": [
        {
          "internalType": "address",
          "name": "_userAddress",
          "type": "address"
        },
        {
          "internalType": "string",
          "name": "_pwd",
          "type": "string"
        },
        {
          "internalType": "string",
          "name": "_clientName",
          "type": "string"
        }
      ],
      "name": "getInvoiceCount",
      "outputs": [
        {
          "internalType": "uint256",
          "name": "count",
          "type": "uint256"
        }
      ],
      "stateMutability": "view",
      "type": "function",
      "constant": true
    },
    {
      "inputs": [
        {
          "internalType": "address",
          "name": "_userAddress",
          "type": "address"
        },
        {
          "internalType": "string",
          "name": "_pwd",
          "type": "string"
        },
        {
          "internalType": "string",
          "name": "_clientName",
          "type": "string"
        }
      ],
      "name": "getInvoiceNumbers",
      "outputs": [
        {
          "internalType": "uint256[]",
          "name": "",
          "type": "uint256[]"
        }
      ],
      "stateMutability": "view",
      "type": "function",
      "constant": true
    },
    {
      "inputs": [
        {
          "internalType": "address",
          "name": "_userAddress",
          "type": "address"
        },
        {
          "internalType": "string",
          "name": "_pwd",
          "type": "string"
        },
        {
          "internalType": "string",
          "name": "_clientName",
          "type": "string"
        },
        {
          "internalType": "uint256",
          "name": "_invoiceNumber",
          "type": "uint256"
        },
        {
          "internalType": "uint256",
          "name": "_invoicePmtDate",
          "type": "uint256"
        }
      ],
      "name": "updateInvoice",
      "outputs": [],
      "stateMutability": "nonpayable",
      "type": "function"
    },
    {
      "inputs": [
        {
          "internalType": "address",
          "name": "_userAddress",
          "type": "address"
        },
        {
          "internalType": "string",
          "name": "_pwd",
          "type": "string"
        },
        {
          "internalType": "string",
          "name": "_clientName",
          "type": "string"
        },
        {
          "internalType": "uint256",
          "name": "_invoiceNumber",
          "type": "uint256"
        }
      ],
      "name": "getInvoice",
      "outputs": [
        {
          "internalType": "uint256",
          "name": "invoiceNumber",
          "type": "uint256"
        },
        {
          "internalType": "uint256",
          "name": "netTerms",
          "type": "uint256"
        },
        {
          "internalType": "uint256",
          "name": "numberHours",
          "type": "uint256"
        },
        {
          "internalType": "string",
          "name": "amount",
          "type": "string"
        }
      ],
      "stateMutability": "view",
      "type": "function",
      "constant": true
    },
    {
      "inputs": [
        {
          "internalType": "address",
          "name": "_userAddress",
          "type": "address"
        },
        {
          "internalType": "string",
          "name": "_pwd",
          "type": "string"
        },
        {
          "internalType": "string",
          "name": "_clientName",
          "type": "string"
        },
        {
          "internalType": "uint256",
          "name": "_invoiceNumber",
          "type": "uint256"
        }
      ],
      "name": "getInvoiceDates",
      "outputs": [
        {
          "internalType": "uint256",
          "name": "invoiceNumber",
          "type": "uint256"
        },
        {
          "internalType": "uint256",
          "name": "timesheetEndDate",
          "type": "uint256"
        },
        {
          "internalType": "uint256",
          "name": "invoiceSentDate",
          "type": "uint256"
        },
        {
          "internalType": "uint256",
          "name": "datePmtReceived",
          "type": "uint256"
        }
      ],
      "stateMutability": "view",
      "type": "function",
      "constant": true
    },
    {
      "inputs": [
        {
          "internalType": "address",
          "name": "_userAddress",
          "type": "address"
        },
        {
          "internalType": "string",
          "name": "_pwd",
          "type": "string"
        },
        {
          "internalType": "string",
          "name": "_clientName",
          "type": "string"
        },
        {
          "internalType": "uint256",
          "name": "_invoiceNumber",
          "type": "uint256"
        }
      ],
      "name": "getInvoiceDueDates",
      "outputs": [
        {
          "internalType": "uint256",
          "name": "invoiceNumber",
          "type": "uint256"
        },
        {
          "internalType": "uint256",
          "name": "due30DaysDate",
          "type": "uint256"
        },
        {
          "internalType": "uint256",
          "name": "due60DaysDate",
          "type": "uint256"
        },
        {
          "internalType": "uint256",
          "name": "due90DaysDate",
          "type": "uint256"
        },
        {
          "internalType": "uint256",
          "name": "due120DaysDate",
          "type": "uint256"
        }
      ],
      "stateMutability": "view",
      "type": "function",
      "constant": true
    }
  ],
  "bytecode": "0x6080604052600060125560006200001b620000bf60201b60201c565b9050806000806101000a81548173ffffffffffffffffffffffffffffffffffffffff021916908373ffffffffffffffffffffffffffffffffffffffff1602179055508073ffffffffffffffffffffffffffffffffffffffff16600073ffffffffffffffffffffffffffffffffffffffff167f8be0079c531659141344cd1fd0a4f28419497f9722a3daafe3b4186f6b6457e060405160405180910390a350620000c7565b600033905090565b6146f280620000d76000396000f3fe6080604052600436106100e85760003560e01c806391a6322c1161008a578063d7202b3011610059578063d7202b3014610f76578063d7554a681461118d578063e281447c1461130c578063f2fde38b146113e8576100e8565b806391a6322c146109e757806394ab73fd14610ba05780639ed1466f14610d52578063c77e7a8b14610ee5576100e8565b8063491c7397116100c6578063491c739714610626578063715018a6146107fa5780638353a4ba146108115780638da5cb5b14610990576100e8565b806305e26134146100ed578063162203e71461028057806328b5516c14610549575b600080fd5b3480156100f957600080fd5b5061027e600480360360a081101561011057600080fd5b81019080803573ffffffffffffffffffffffffffffffffffffffff1690602001909291908035906020019064010000000081111561014d57600080fd5b82018360208201111561015f57600080fd5b8035906020019184600183028401116401000000008311171561018157600080fd5b91908080601f016020809104026020016040519081016040528093929190818152602001838380828437600081840152601f19601f820116905080830192505050505050509192919290803590602001906401000000008111156101e457600080fd5b8201836020820111156101f657600080fd5b8035906020019184600183028401116401000000008311171561021857600080fd5b91908080601f016020809104026020016040519081016040528093929190818152602001838380828437600081840152601f19601f8201169050808301925050505050505091929192908035906020019092919080359060200190929190505050611439565b005b34801561028c57600080fd5b5061054760048036036101008110156102a457600080fd5b81019080803573ffffffffffffffffffffffffffffffffffffffff169060200190929190803590602001906401000000008111156102e157600080fd5b8201836020820111156102f357600080fd5b8035906020019184600183028401116401000000008311171561031557600080fd5b91908080601f016020809104026020016040519081016040528093929190818152602001838380828437600081840152601f19601f8201169050808301925050505050505091929192908035906020019064010000000081111561037857600080fd5b82018360208201111561038a57600080fd5b803590602001918460018302840111640100000000831117156103ac57600080fd5b91908080601f016020809104026020016040519081016040528093929190818152602001838380828437600081840152601f19601f8201169050808301925050505050505091929192908035906020019092919080359060200190929190803590602001909291908035906020019064010000000081111561042d57600080fd5b82018360208201111561043f57600080fd5b8035906020019184600183028401116401000000008311171561046157600080fd5b91908080601f016020809104026020016040519081016040528093929190818152602001838380828437600081840152601f19601f820116905080830192505050505050509192919290803590602001906401000000008111156104c457600080fd5b8201836020820111156104d657600080fd5b803590602001918460208302840111640100000000831117156104f857600080fd5b919080806020026020016040519081016040528093929190818152602001838360200280828437600081840152601f19601f820116905080830192505050505050509192919290505050611a9f565b005b61060c6004803603604081101561055f57600080fd5b810190808035906020019064010000000081111561057c57600080fd5b82018360208201111561058e57600080fd5b803590602001918460018302840111640100000000831117156105b057600080fd5b91908080601f016020809104026020016040519081016040528093929190818152602001838380828437600081840152601f19601f820116905080830192505050505050509192919290803590602001909291905050506122fb565b604051808215151515815260200191505060405180910390f35b34801561063257600080fd5b506107a36004803603606081101561064957600080fd5b81019080803573ffffffffffffffffffffffffffffffffffffffff1690602001909291908035906020019064010000000081111561068657600080fd5b82018360208201111561069857600080fd5b803590602001918460018302840111640100000000831117156106ba57600080fd5b91908080601f016020809104026020016040519081016040528093929190818152602001838380828437600081840152601f19601f8201169050808301925050505050505091929192908035906020019064010000000081111561071d57600080fd5b82018360208201111561072f57600080fd5b8035906020019184600183028401116401000000008311171561075157600080fd5b91908080601f016020809104026020016040519081016040528093929190818152602001838380828437600081840152601f19601f820116905080830192505050505050509192919290505050612424565b6040518080602001828103825283818151815260200191508051906020019060200280838360005b838110156107e65780820151818401526020810190506107cb565b505050509050019250505060405180910390f35b34801561080657600080fd5b5061080f6127af565b005b34801561081d57600080fd5b506108d76004803603602081101561083457600080fd5b810190808035906020019064010000000081111561085157600080fd5b82018360208201111561086357600080fd5b8035906020019184600183028401116401000000008311171561088557600080fd5b91908080601f016020809104026020016040519081016040528093929190818152602001838380828437600081840152601f19601f820116905080830192505050505050509192919290505050612937565b604051808473ffffffffffffffffffffffffffffffffffffffff1673ffffffffffffffffffffffffffffffffffffffff1681526020018060200183151515158152602001828103825284818151815260200191508051906020019080838360005b83811015610953578082015181840152602081019050610938565b50505050905090810190601f1680156109805780820380516001836020036101000a031916815260200191505b5094505050505060405180910390f35b34801561099c57600080fd5b506109a5612a3c565b604051808273ffffffffffffffffffffffffffffffffffffffff1673ffffffffffffffffffffffffffffffffffffffff16815260200191505060405180910390f35b3480156109f357600080fd5b50610b6e60048036036080811015610a0a57600080fd5b81019080803573ffffffffffffffffffffffffffffffffffffffff16906020019092919080359060200190640100000000811115610a4757600080fd5b820183602082011115610a5957600080fd5b80359060200191846001830284011164010000000083111715610a7b57600080fd5b91908080601f016020809104026020016040519081016040528093929190818152602001838380828437600081840152601f19601f82011690508083019250505050505050919291929080359060200190640100000000811115610ade57600080fd5b820183602082011115610af057600080fd5b80359060200191846001830284011164010000000083111715610b1257600080fd5b91908080601f016020809104026020016040519081016040528093929190818152602001838380828437600081840152601f19601f82011690508083019250505050505050919291929080359060200190929190505050612a65565b604051808681526020018581526020018481526020018381526020018281526020019550505050505060405180910390f35b348015610bac57600080fd5b50610d2760048036036080811015610bc357600080fd5b81019080803573ffffffffffffffffffffffffffffffffffffffff16906020019092919080359060200190640100000000811115610c0057600080fd5b820183602082011115610c1257600080fd5b80359060200191846001830284011164010000000083111715610c3457600080fd5b91908080601f016020809104026020016040519081016040528093929190818152602001838380828437600081840152601f19601f82011690508083019250505050505050919291929080359060200190640100000000811115610c9757600080fd5b820183602082011115610ca957600080fd5b80359060200191846001830284011164010000000083111715610ccb57600080fd5b91908080601f016020809104026020016040519081016040528093929190818152602001838380828437600081840152601f19601f82011690508083019250505050505050919291929080359060200190929190505050612f41565b6040518085815260200184815260200183815260200182815260200194505050505060405180910390f35b348015610d5e57600080fd5b50610ecf60048036036060811015610d7557600080fd5b81019080803573ffffffffffffffffffffffffffffffffffffffff16906020019092919080359060200190640100000000811115610db257600080fd5b820183602082011115610dc457600080fd5b80359060200191846001830284011164010000000083111715610de657600080fd5b91908080601f016020809104026020016040519081016040528093929190818152602001838380828437600081840152601f19601f82011690508083019250505050505050919291929080359060200190640100000000811115610e4957600080fd5b820183602082011115610e5b57600080fd5b80359060200191846001830284011164010000000083111715610e7d57600080fd5b91908080601f016020809104026020016040519081016040528093929190818152602001838380828437600081840152601f19601f820116905080830192505050505050509192919290505050613413565b6040518082815260200191505060405180910390f35b348015610ef157600080fd5b50610f3460048036036020811015610f0857600080fd5b81019080803573ffffffffffffffffffffffffffffffffffffffff169060200190929190505050613750565b604051808273ffffffffffffffffffffffffffffffffffffffff1673ffffffffffffffffffffffffffffffffffffffff16815260200191505060405180910390f35b348015610f8257600080fd5b506110fd60048036036080811015610f9957600080fd5b81019080803573ffffffffffffffffffffffffffffffffffffffff16906020019092919080359060200190640100000000811115610fd657600080fd5b820183602082011115610fe857600080fd5b8035906020019184600183028401116401000000008311171561100a57600080fd5b91908080601f016020809104026020016040519081016040528093929190818152602001838380828437600081840152601f19601f8201169050808301925050505050505091929192908035906020019064010000000081111561106d57600080fd5b82018360208201111561107f57600080fd5b803590602001918460018302840111640100000000831117156110a157600080fd5b91908080601f016020809104026020016040519081016040528093929190818152602001838380828437600081840152601f19601f82011690508083019250505050505050919291929080359060200190929190505050613783565b6040518085815260200184815260200183815260200180602001828103825283818151815260200191508051906020019080838360005b8381101561114f578082015181840152602081019050611134565b50505050905090810190601f16801561117c5780820380516001836020036101000a031916815260200191505b509550505050505060405180910390f35b34801561119957600080fd5b5061130a600480360360608110156111b057600080fd5b81019080803573ffffffffffffffffffffffffffffffffffffffff169060200190929190803590602001906401000000008111156111ed57600080fd5b8201836020820111156111ff57600080fd5b8035906020019184600183028401116401000000008311171561122157600080fd5b91908080601f016020809104026020016040519081016040528093929190818152602001838380828437600081840152601f19601f8201169050808301925050505050505091929192908035906020019064010000000081111561128457600080fd5b82018360208201111561129657600080fd5b803590602001918460018302840111640100000000831117156112b857600080fd5b91908080601f016020809104026020016040519081016040528093929190818152602001838380828437600081840152601f19601f820116905080830192505050505050509192919290505050613c55565b005b34801561131857600080fd5b5061135b6004803603602081101561132f57600080fd5b81019080803573ffffffffffffffffffffffffffffffffffffffff169060200190929190505050613fe5565b604051808060200184815260200183151515158152602001828103825285818151815260200191508051906020019080838360005b838110156113ab578082015181840152602081019050611390565b50505050905090810190601f1680156113d85780820380516001836020036101000a031916815260200191505b5094505050505060405180910390f35b3480156113f457600080fd5b506114376004803603602081101561140b57600080fd5b81019080803573ffffffffffffffffffffffffffffffffffffffff1690602001909291905050506140b4565b005b848360006010826040518082805190602001908083835b602083106114735780518252602082019150602081019050602083039250611450565b6001836020036101000a038019825116818451168082178552505050505050905001915050908152602001604051809103902060000160009054906101000a900473ffffffffffffffffffffffffffffffffffffffff1690508073ffffffffffffffffffffffffffffffffffffffff16600f60008573ffffffffffffffffffffffffffffffffffffffff1673ffffffffffffffffffffffffffffffffffffffff16815260200190815260200160002060009054906101000a900473ffffffffffffffffffffffffffffffffffffffff1673ffffffffffffffffffffffffffffffffffffffff16146115cc576040517f08c379a000000000000000000000000000000000000000000000000000000000815260040180806020018281038252601f8152602001807f5573657220616e6420636c69656e7420617265206e6f742072656c617465640081525060200191505060405180910390fd5b87876000816040516020018082805190602001908083835b6020831061160757805182526020820191506020810190506020830392506115e4565b6001836020036101000a03801982511681845116808217855250505050505090500191505060405160208183030381529060405280519060200120905080601160008573ffffffffffffffffffffffffffffffffffffffff1673ffffffffffffffffffffffffffffffffffffffff16815260200190815260200160002060010154146116fb576040517f08c379a00000000000000000000000000000000000000000000000000000000081526004018080602001828103825260168152602001807f496e76616c69642070617373776f726420676976656e0000000000000000000081525060200191505060405180910390fd5b60006117078a8a6142c1565b90507fffffffffffffffffffffffffffffffffffffffffffffffffffffffffffffffff8114611a91576117386144eb565b600c8b6040518082805190602001908083835b6020831061176e578051825260208201915060208101905060208303925061174b565b6001836020036101000a038019825116818451168082178552505050505050905001915050908152602001604051809103902082815481106117ac57fe5b90600052602060002090600b020160405180610160016040529081600082015481526020016001820154815260200160028201548152602001600382018054600181600116156101000203166002900480601f01602080910402602001604051908101604052809291908181526020018280546001816001161561010002031660029004801561187d5780601f106118525761010080835404028352916020019161187d565b820191906000526020600020905b81548152906001019060200180831161186057829003601f168201915b50505050508152602001600482015481526020016005820154815260200160068201548152602001600782015481526020016008820154815260200160098201548152602001600a820154815250509050888161014001818152505080600c8c6040518082805190602001908083835b6020831061191057805182526020820191506020810190506020830392506118ed565b6001836020036101000a0380198251168184511680821785525050505050509050019150509081526020016040518091039020838154811061194e57fe5b90600052602060002090600b02016000820151816000015560208201518160010155604082015181600201556060820151816003019080519060200190611996929190614545565b506080820151816004015560a0820151816005015560c0820151816006015560e082015181600701556101008201518160080155610120820151816009015561014082015181600a01559050507f4aaf47da2b830ec7cb39ceac30735c6b5f91912852a2fcbedca8fb36ea7509398b8b8b6040518080602001848152602001838152602001828103825285818151815260200191508051906020019080838360005b83811015611a53578082015181840152602081019050611a38565b50505050905090810190601f168015611a805780820380516001836020036101000a031916815260200191505b5094505050505060405180910390a1505b505050505050505050505050565b878660006010826040518082805190602001908083835b60208310611ad95780518252602082019150602081019050602083039250611ab6565b6001836020036101000a038019825116818451168082178552505050505050905001915050908152602001604051809103902060000160009054906101000a900473ffffffffffffffffffffffffffffffffffffffff1690508073ffffffffffffffffffffffffffffffffffffffff16600f60008573ffffffffffffffffffffffffffffffffffffffff1673ffffffffffffffffffffffffffffffffffffffff16815260200190815260200160002060009054906101000a900473ffffffffffffffffffffffffffffffffffffffff1673ffffffffffffffffffffffffffffffffffffffff1614611c32576040517f08c379a000000000000000000000000000000000000000000000000000000000815260040180806020018281038252601f8152602001807f5573657220616e6420636c69656e7420617265206e6f742072656c617465640081525060200191505060405180910390fd5b8a8a6000816040516020018082805190602001908083835b60208310611c6d5780518252602082019150602081019050602083039250611c4a565b6001836020036101000a03801982511681845116808217855250505050505090500191505060405160208183030381529060405280519060200120905080601160008573ffffffffffffffffffffffffffffffffffffffff1673ffffffffffffffffffffffffffffffffffffffff1681526020019081526020016000206001015414611d61576040517f08c379a00000000000000000000000000000000000000000000000000000000081526004018080602001828103825260168152602001807f496e76616c69642070617373776f726420676976656e0000000000000000000081525060200191505060405180910390fd5b8b8b6000611d6f83836122fb565b9050600015158115151415611e23577fe21e12aba131cb57764fb4f32dfbde415652970f3ba0bd02edfa7c79608a7b0383836040518080602001838152602001828103825284818151815260200191508051906020019080838360005b83811015611de7578082015181840152602081019050611dcc565b50505050905090810190601f168015611e145780820380516001836020036101000a031916815260200191505b50935050505060405180910390a15b80611e96576040517f08c379a00000000000000000000000000000000000000000000000000000000081526004018080602001828103825260118152602001807f4475706c696361746520696e766f69636500000000000000000000000000000081525060200191505060405180910390fd5b8d6001600001819055508c60018001819055508b6001600201819055508a60016003019080519060200190611ecc929190614545565b5089600081518110611eda57fe5b602002602001015160016004018190555089600181518110611ef857fe5b602002602001015160016005018190555089600281518110611f1657fe5b602002602001015160016006018190555089600381518110611f3457fe5b602002602001015160016007018190555089600481518110611f5257fe5b602002602001015160016008018190555089600581518110611f7057fe5b6020026020010151600160090181905550600c8f6040518082805190602001908083835b60208310611fb75780518252602082019150602081019050602083039250611f94565b6001836020036101000a0380198251168184511680821785525050505050509050019150509081526020016040518091039020600190806001815401808255809150506001900390600052602060002090600b02016000909190919091506000820154816000015560018201548160010155600282015481600201556003820181600301908054600181600116156101000203166002900461205a9291906145c5565b50600482015481600401556005820154816005015560068201548160060155600782015481600701556008820154816008015560098201548160090155600a82015481600a01555050600d8f6040518082805190602001908083835b602083106120d957805182526020820191506020810190506020830392506120b6565b6001836020036101000a03801982511681845116808217855250505050505090500191505090815260200160405180910390208e908060018154018082558091505060019003906000526020600020016000909190919091505561213c8f614463565b507f64b1990245accd502365916f65e5fcd03e71f750f7fcb75f88e699b5c067b8d98f600160000154600180015460016002015460016003016001600401546001600501546001600601546001600701546001600801546001600901546001600a015460405180806020018d81526020018c81526020018b8152602001806020018a815260200189815260200188815260200187815260200186815260200185815260200184815260200183810383528f818151815260200191508051906020019080838360005b8381101561221f578082015181840152602081019050612204565b50505050905090810190601f16801561224c5780820380516001836020036101000a031916815260200191505b5083810382528b8181546001816001161561010002031660029004815260200191508054600181600116156101000203166002900480156122ce5780601f106122a3576101008083540402835291602001916122ce565b820191906000526020600020905b8154815290600101906020018083116122b157829003601f168201915b50509e50505050505050505050505050505060405180910390a15050505050505050505050505050505050565b600080600090505b600e846040518082805190602001908083835b602083106123395780518252602082019150602081019050602083039250612316565b6001836020036101000a03801982511681845116808217855250505050505090500191505090815260200160405180910390205481101561241857600c846040518082805190602001908083835b602083106123aa5780518252602082019150602081019050602083039250612387565b6001836020036101000a038019825116818451168082178552505050505050905001915050908152602001604051809103902081815481106123e857fe5b90600052602060002090600b02016000015483141561240b57600091505061241e565b8080600101915050612303565b50600190505b92915050565b6060838260006010826040518082805190602001908083835b60208310612460578051825260208201915060208101905060208303925061243d565b6001836020036101000a038019825116818451168082178552505050505050905001915050908152602001604051809103902060000160009054906101000a900473ffffffffffffffffffffffffffffffffffffffff1690508073ffffffffffffffffffffffffffffffffffffffff16600f60008573ffffffffffffffffffffffffffffffffffffffff1673ffffffffffffffffffffffffffffffffffffffff16815260200190815260200160002060009054906101000a900473ffffffffffffffffffffffffffffffffffffffff1673ffffffffffffffffffffffffffffffffffffffff16146125b9576040517f08c379a000000000000000000000000000000000000000000000000000000000815260040180806020018281038252601f8152602001807f5573657220616e6420636c69656e7420617265206e6f742072656c617465640081525060200191505060405180910390fd5b86866000816040516020018082805190602001908083835b602083106125f457805182526020820191506020810190506020830392506125d1565b6001836020036101000a03801982511681845116808217855250505050505090500191505060405160208183030381529060405280519060200120905080601160008573ffffffffffffffffffffffffffffffffffffffff1673ffffffffffffffffffffffffffffffffffffffff16815260200190815260200160002060010154146126e8576040517f08c379a00000000000000000000000000000000000000000000000000000000081526004018080602001828103825260168152602001807f496e76616c69642070617373776f726420676976656e0000000000000000000081525060200191505060405180910390fd5b600d886040518082805190602001908083835b6020831061271e57805182526020820191506020810190506020830392506126fb565b6001836020036101000a038019825116818451168082178552505050505050905001915050908152602001604051809103902080548060200260200160405190810160405280929190818152602001828054801561279b57602002820191906000526020600020905b815481526020019060010190808311612787575b505050505096505050505050509392505050565b6127b76144e3565b73ffffffffffffffffffffffffffffffffffffffff166000809054906101000a900473ffffffffffffffffffffffffffffffffffffffff1673ffffffffffffffffffffffffffffffffffffffff1614612878576040517f08c379a00000000000000000000000000000000000000000000000000000000081526004018080602001828103825260208152602001807f4f776e61626c653a2063616c6c6572206973206e6f7420746865206f776e657281525060200191505060405180910390fd5b600073ffffffffffffffffffffffffffffffffffffffff166000809054906101000a900473ffffffffffffffffffffffffffffffffffffffff1673ffffffffffffffffffffffffffffffffffffffff167f8be0079c531659141344cd1fd0a4f28419497f9722a3daafe3b4186f6b6457e060405160405180910390a360008060006101000a81548173ffffffffffffffffffffffffffffffffffffffff021916908373ffffffffffffffffffffffffffffffffffffffff160217905550565b6010818051602081018201805184825260208301602085012081835280955050505050506000915090508060000160009054906101000a900473ffffffffffffffffffffffffffffffffffffffff1690806001018054600181600116156101000203166002900480601f016020809104026020016040519081016040528092919081815260200182805460018160011615610100020316600290048015612a1f5780601f106129f457610100808354040283529160200191612a1f565b820191906000526020600020905b815481529060010190602001808311612a0257829003601f168201915b5050505050908060020160009054906101000a900460ff16905083565b60008060009054906101000a900473ffffffffffffffffffffffffffffffffffffffff16905090565b6000806000806000888760006010826040518082805190602001908083835b60208310612aa75780518252602082019150602081019050602083039250612a84565b6001836020036101000a038019825116818451168082178552505050505050905001915050908152602001604051809103902060000160009054906101000a900473ffffffffffffffffffffffffffffffffffffffff1690508073ffffffffffffffffffffffffffffffffffffffff16600f60008573ffffffffffffffffffffffffffffffffffffffff1673ffffffffffffffffffffffffffffffffffffffff16815260200190815260200160002060009054906101000a900473ffffffffffffffffffffffffffffffffffffffff1673ffffffffffffffffffffffffffffffffffffffff1614612c00576040517f08c379a000000000000000000000000000000000000000000000000000000000815260040180806020018281038252601f8152602001807f5573657220616e6420636c69656e7420617265206e6f742072656c617465640081525060200191505060405180910390fd5b8b8b6000816040516020018082805190602001908083835b60208310612c3b5780518252602082019150602081019050602083039250612c18565b6001836020036101000a03801982511681845116808217855250505050505090500191505060405160208183030381529060405280519060200120905080601160008573ffffffffffffffffffffffffffffffffffffffff1673ffffffffffffffffffffffffffffffffffffffff1681526020019081526020016000206001015414612d2f576040517f08c379a00000000000000000000000000000000000000000000000000000000081526004018080602001828103825260168152602001807f496e76616c69642070617373776f726420676976656e0000000000000000000081525060200191505060405180910390fd5b6000612d3b8e8e6142c1565b90507fffffffffffffffffffffffffffffffffffffffffffffffffffffffffffffffff8114612f2e57612d6c6144eb565b600c8f6040518082805190602001908083835b60208310612da25780518252602082019150602081019050602083039250612d7f565b6001836020036101000a03801982511681845116808217855250505050505090500191505090815260200160405180910390208281548110612de057fe5b90600052602060002090600b020160405180610160016040529081600082015481526020016001820154815260200160028201548152602001600382018054600181600116156101000203166002900480601f016020809104026020016040519081016040528092919081815260200182805460018160011615610100020316600290048015612eb15780601f10612e8657610100808354040283529160200191612eb1565b820191906000526020600020905b815481529060010190602001808311612e9457829003601f168201915b50505050508152602001600482015481526020016005820154815260200160068201548152602001600782015481526020016008820154815260200160098201548152602001600a82015481525050905080600001518160c001518260e001518361010001518461012001519c509c509c509c509c505050612f30565b505b505050505050945094509450945094565b600080600080878660006010826040518082805190602001908083835b60208310612f815780518252602082019150602081019050602083039250612f5e565b6001836020036101000a038019825116818451168082178552505050505050905001915050908152602001604051809103902060000160009054906101000a900473ffffffffffffffffffffffffffffffffffffffff1690508073ffffffffffffffffffffffffffffffffffffffff16600f60008573ffffffffffffffffffffffffffffffffffffffff1673ffffffffffffffffffffffffffffffffffffffff16815260200190815260200160002060009054906101000a900473ffffffffffffffffffffffffffffffffffffffff1673ffffffffffffffffffffffffffffffffffffffff16146130da576040517f08c379a000000000000000000000000000000000000000000000000000000000815260040180806020018281038252601f8152602001807f5573657220616e6420636c69656e7420617265206e6f742072656c617465640081525060200191505060405180910390fd5b8a8a6000816040516020018082805190602001908083835b6020831061311557805182526020820191506020810190506020830392506130f2565b6001836020036101000a03801982511681845116808217855250505050505090500191505060405160208183030381529060405280519060200120905080601160008573ffffffffffffffffffffffffffffffffffffffff1673ffffffffffffffffffffffffffffffffffffffff1681526020019081526020016000206001015414613209576040517f08c379a00000000000000000000000000000000000000000000000000000000081526004018080602001828103825260168152602001807f496e76616c69642070617373776f726420676976656e0000000000000000000081525060200191505060405180910390fd5b60006132158d8d6142c1565b90507fffffffffffffffffffffffffffffffffffffffffffffffffffffffffffffffff8114613400576132466144eb565b600c8e6040518082805190602001908083835b6020831061327c5780518252602082019150602081019050602083039250613259565b6001836020036101000a038019825116818451168082178552505050505050905001915050908152602001604051809103902082815481106132ba57fe5b90600052602060002090600b020160405180610160016040529081600082015481526020016001820154815260200160028201548152602001600382018054600181600116156101000203166002900480601f01602080910402602001604051908101604052809291908181526020018280546001816001161561010002031660029004801561338b5780601f106133605761010080835404028352916020019161338b565b820191906000526020600020905b81548152906001019060200180831161336e57829003601f168201915b50505050508152602001600482015481526020016005820154815260200160068201548152602001600782015481526020016008820154815260200160098201548152602001600a820154815250509050806000015181608001518260a001518361014001519b509b509b509b505050613402565b505b505050505050945094509450949050565b6000838260006010826040518082805190602001908083835b6020831061344f578051825260208201915060208101905060208303925061342c565b6001836020036101000a038019825116818451168082178552505050505050905001915050908152602001604051809103902060000160009054906101000a900473ffffffffffffffffffffffffffffffffffffffff1690508073ffffffffffffffffffffffffffffffffffffffff16600f60008573ffffffffffffffffffffffffffffffffffffffff1673ffffffffffffffffffffffffffffffffffffffff16815260200190815260200160002060009054906101000a900473ffffffffffffffffffffffffffffffffffffffff1673ffffffffffffffffffffffffffffffffffffffff16146135a8576040517f08c379a000000000000000000000000000000000000000000000000000000000815260040180806020018281038252601f8152602001807f5573657220616e6420636c69656e7420617265206e6f742072656c617465640081525060200191505060405180910390fd5b86866000816040516020018082805190602001908083835b602083106135e357805182526020820191506020810190506020830392506135c0565b6001836020036101000a03801982511681845116808217855250505050505090500191505060405160208183030381529060405280519060200120905080601160008573ffffffffffffffffffffffffffffffffffffffff1673ffffffffffffffffffffffffffffffffffffffff16815260200190815260200160002060010154146136d7576040517f08c379a00000000000000000000000000000000000000000000000000000000081526004018080602001828103825260168152602001807f496e76616c69642070617373776f726420676976656e0000000000000000000081525060200191505060405180910390fd5b600e886040518082805190602001908083835b6020831061370d57805182526020820191506020810190506020830392506136ea565b6001836020036101000a03801982511681845116808217855250505050505090500191505090815260200160405180910390205496505050505050509392505050565b600f6020528060005260406000206000915054906101000a900473ffffffffffffffffffffffffffffffffffffffff1681565b60008060006060878660006010826040518082805190602001908083835b602083106137c457805182526020820191506020810190506020830392506137a1565b6001836020036101000a038019825116818451168082178552505050505050905001915050908152602001604051809103902060000160009054906101000a900473ffffffffffffffffffffffffffffffffffffffff1690508073ffffffffffffffffffffffffffffffffffffffff16600f60008573ffffffffffffffffffffffffffffffffffffffff1673ffffffffffffffffffffffffffffffffffffffff16815260200190815260200160002060009054906101000a900473ffffffffffffffffffffffffffffffffffffffff1673ffffffffffffffffffffffffffffffffffffffff161461391d576040517f08c379a000000000000000000000000000000000000000000000000000000000815260040180806020018281038252601f8152602001807f5573657220616e6420636c69656e7420617265206e6f742072656c617465640081525060200191505060405180910390fd5b8a8a6000816040516020018082805190602001908083835b602083106139585780518252602082019150602081019050602083039250613935565b6001836020036101000a03801982511681845116808217855250505050505090500191505060405160208183030381529060405280519060200120905080601160008573ffffffffffffffffffffffffffffffffffffffff1673ffffffffffffffffffffffffffffffffffffffff1681526020019081526020016000206001015414613a4c576040517f08c379a00000000000000000000000000000000000000000000000000000000081526004018080602001828103825260168152602001807f496e76616c69642070617373776f726420676976656e0000000000000000000081525060200191505060405180910390fd5b6000613a588d8d6142c1565b90507fffffffffffffffffffffffffffffffffffffffffffffffffffffffffffffffff8114613c4257613a896144eb565b600c8e6040518082805190602001908083835b60208310613abf5780518252602082019150602081019050602083039250613a9c565b6001836020036101000a03801982511681845116808217855250505050505090500191505090815260200160405180910390208281548110613afd57fe5b90600052602060002090600b020160405180610160016040529081600082015481526020016001820154815260200160028201548152602001600382018054600181600116156101000203166002900480601f016020809104026020016040519081016040528092919081815260200182805460018160011615610100020316600290048015613bce5780601f10613ba357610100808354040283529160200191613bce565b820191906000526020600020905b815481529060010190602001808311613bb157829003601f168201915b50505050508152602001600482015481526020016005820154815260200160068201548152602001600782015481526020016008820154815260200160098201548152602001600a82015481525050905080600001518160200151826040015183606001519b509b509b509b505050613c44565b505b505050505050945094509450949050565b8260001515601160008373ffffffffffffffffffffffffffffffffffffffff1673ffffffffffffffffffffffffffffffffffffffff16815260200190815260200160002060020160009054906101000a900460ff16151514613d1f576040517f08c379a00000000000000000000000000000000000000000000000000000000081526004018080602001828103825260138152602001807f5573657220616c7265616479206578697374730000000000000000000000000081525060200191505060405180910390fd5b6000826040516020018082805190602001908083835b60208310613d585780518252602082019150602081019050602083039250613d35565b6001836020036101000a038019825116818451168082178552505050505050905001915050604051602081830303815290604052805190602001209050604051806060016040528085815260200182815260200160011515815250601160008773ffffffffffffffffffffffffffffffffffffffff1673ffffffffffffffffffffffffffffffffffffffff1681526020019081526020016000206000820151816000019080519060200190613e0e929190614545565b506020820151816001015560408201518160020160006101000a81548160ff0219169083151502179055509050508460136000601254815260200190815260200160002060006101000a81548173ffffffffffffffffffffffffffffffffffffffff021916908373ffffffffffffffffffffffffffffffffffffffff16021790555060016012600082825401925050819055507f5ae6671f20b51a868ae522f9841ff46bb92cc988a8f2f502deba9d90b8cd8693858585604051808473ffffffffffffffffffffffffffffffffffffffff1673ffffffffffffffffffffffffffffffffffffffff1681526020018060200180602001838103835285818151815260200191508051906020019080838360005b83811015613f3b578082015181840152602081019050613f20565b50505050905090810190601f168015613f685780820380516001836020036101000a031916815260200191505b50838103825284818151815260200191508051906020019080838360005b83811015613fa1578082015181840152602081019050613f86565b50505050905090810190601f168015613fce5780820380516001836020036101000a031916815260200191505b509550505050505060405180910390a15050505050565b6011602052806000526040600020600091509050806000018054600181600116156101000203166002900480601f0160208091040260200160405190810160405280929190818152602001828054600181600116156101000203166002900480156140915780601f1061406657610100808354040283529160200191614091565b820191906000526020600020905b81548152906001019060200180831161407457829003601f168201915b5050505050908060010154908060020160009054906101000a900460ff16905083565b6140bc6144e3565b73ffffffffffffffffffffffffffffffffffffffff166000809054906101000a900473ffffffffffffffffffffffffffffffffffffffff1673ffffffffffffffffffffffffffffffffffffffff161461417d576040517f08c379a00000000000000000000000000000000000000000000000000000000081526004018080602001828103825260208152602001807f4f776e61626c653a2063616c6c6572206973206e6f7420746865206f776e657281525060200191505060405180910390fd5b600073ffffffffffffffffffffffffffffffffffffffff168173ffffffffffffffffffffffffffffffffffffffff161415614203576040517f08c379a00000000000000000000000000000000000000000000000000000000081526004018080602001828103825260268152602001806146976026913960400191505060405180910390fd5b8073ffffffffffffffffffffffffffffffffffffffff166000809054906101000a900473ffffffffffffffffffffffffffffffffffffffff1673ffffffffffffffffffffffffffffffffffffffff167f8be0079c531659141344cd1fd0a4f28419497f9722a3daafe3b4186f6b6457e060405160405180910390a3806000806101000a81548173ffffffffffffffffffffffffffffffffffffffff021916908373ffffffffffffffffffffffffffffffffffffffff16021790555050565b6000816000811161431d576040517f08c379a00000000000000000000000000000000000000000000000000000000081526004018080602001828103825260258152602001806146726025913960400191505060405180910390fd5b60008090505b600e856040518082805190602001908083835b602083106143595780518252602082019150602081019050602083039250614336565b6001836020036101000a03801982511681845116808217855250505050505090500191505090815260200160405180910390205481121561443757600c856040518082805190602001908083835b602083106143ca57805182526020820191506020810190506020830392506143a7565b6001836020036101000a0380198251168184511680821785525050505050509050019150509081526020016040518091039020818154811061440857fe5b90600052602060002090600b02016000015484141561442a578092505061445c565b8080600101915050614323565b507fffffffffffffffffffffffffffffffffffffffffffffffffffffffffffffffff91505b5092915050565b60006001600e836040518082805190602001908083835b6020831061449d578051825260208201915060208101905060208303925061447a565b6001836020036101000a03801982511681845116808217855250505050505090500191505090815260200160405180910390206000828254019250508190559050919050565b600033905090565b60405180610160016040528060008152602001600081526020016000815260200160608152602001600081526020016000815260200160008152602001600081526020016000815260200160008152602001600081525090565b828054600181600116156101000203166002900490600052602060002090601f016020900481019282601f1061458657805160ff19168380011785556145b4565b828001600101855582156145b4579182015b828111156145b3578251825591602001919060010190614598565b5b5090506145c1919061464c565b5090565b828054600181600116156101000203166002900490600052602060002090601f016020900481019282601f106145fe578054855561463b565b8280016001018555821561463b57600052602060002091601f016020900482015b8281111561463a57825482559160010191906001019061461f565b5b509050614648919061464c565b5090565b61466e91905b8082111561466a576000816000905550600101614652565b5090565b9056fe496e766f696365206e756d626572206d7573742062652067726561746572207468616e20304f776e61626c653a206e6577206f776e657220697320746865207a65726f2061646472657373a26469706673582212201f50b52fdd1c56b7259ab2256d74307c6b745fd59360e58222e304abc0ceb67464736f6c63430006060033",
  "immutableReferences": {},
  "source": "// SPDX-License-Identifier: GPL-3.0\npragma solidity ^0.6.6;\n\nimport \"@openzeppelin/contracts/access/Ownable.sol\";\n\n/// @title Invoices contract\n/// @author Denis M. Putnam\n/// @notice This contract handles invoices for payment\n/// @dev Use at your own risk.\ncontract Invoices is Ownable {\n    /// @dev User struct\n    struct User {\n        string name;\n        bytes32 ePwd;\n        bool flag;\n    }\n\n    /// @dev Client struct\n    struct Client {\n        address clientID;\n        string name;\n        bool flag;\n    }\n\n    /// @dev Invoice struct\n    struct Invoice {\n        uint256 invoiceNumber;\n        uint256 netTerms; // 30, 60 90, 120 days net\n        uint256 numberHours;\n        string amount;\n        uint256 timesheetEndDate;\n        uint256 invoiceSentDate;\n        uint256 due30DaysDate;\n        uint256 due60DaysDate;\n        uint256 due90DaysDate;\n        uint256 due120DaysDate;\n        uint256 datePmtReceived;\n    }\n    Invoice newInvoice;\n\n    /// @dev map the name of the client to invoices. this isa one to many mapping.\n    mapping(string => Invoice[]) private clientNameInvoicesMap;\n    /// @dev map the client name to the invoice numbers.\n    mapping(string => uint256[]) private clientNameInvoiceNumMap;\n    /// @dev map the name of the client to an invoice count\n    mapping(string => uint256) private clientNameInvoiceCountMap;\n    /// @dev map the user address to the client ID\n    mapping(address => address) public userClientIDMap;\n    /// @dev map the name of the client to the Client struct\n    mapping(string => Client) public clientMap;\n    /// @dev map the user address to the User struct\n    mapping(address => User) public usersMap;\n    /// @dev user count\n    uint256 userCount = 0;\n    /// @dev map the user index to the user address\n    mapping(uint256 => address) userIndexMap;\n\n    // Users users;\n    // Clients clients;\n\n    event duplicateInvoiceEvent(string _clientName, uint256 _invoiceNumber);\n\n    /// @author Denis M. Putnam\n    /// @notice Check for no duplicate invoice.\n    /// @param _clientName name of the client.\n    /// @param _invoiceNumber invoice number.\n    /// @dev no other details.\n    function isNoDuplicateInvoice(\n        string memory _clientName,\n        uint256 _invoiceNumber\n    ) public payable returns (bool) {\n        for (uint256 i = 0; i < clientNameInvoiceCountMap[_clientName]; i++) {\n            // if (_invoiceNumber == clientInvoiceMap[_clientName][i]) {\n            //     return false;\n            // }\n            if (\n                _invoiceNumber ==\n                clientNameInvoicesMap[_clientName][i].invoiceNumber\n            ) {\n                return false;\n            }\n        }\n        return true;\n    }\n\n    modifier noDupUser(address _address) {\n        require(usersMap[_address].flag == false, \"User already exists\");\n        _;\n    }\n\n    modifier noDupInvoice(string memory _clientName, uint256 _invoiceNumber) {\n        bool flag = isNoDuplicateInvoice(_clientName, _invoiceNumber);\n        if (flag == false) {\n            emit duplicateInvoiceEvent(_clientName, _invoiceNumber);\n        }\n        require(flag, \"Duplicate invoice\");\n        _;\n    }\n\n    modifier userOnly(address _userAddress, string memory _clientName) {\n        address _clientID = clientMap[_clientName].clientID;\n        require(\n            userClientIDMap[_userAddress] == _clientID,\n            \"User and client are not related\"\n        );\n        _;\n    }\n\n    modifier isValidPassword(address _userAddress, string memory _pwd) {\n        bytes32 epwd = keccak256(abi.encodePacked(_pwd));\n        require(usersMap[_userAddress].ePwd == epwd, \"Invalid password given\");\n        _;\n    }\n\n    modifier isInvoiceNumber(uint256 _invoiceNumber) {\n        require(_invoiceNumber > 0, \"Invoice number must be greater than 0\");\n        _;\n    }\n\n    event addInvoiceEvent(\n        string _clientName,\n        uint256 _invoiceNumber,\n        uint256 _netTerms,\n        uint256 _numberHours,\n        string _amount,\n        uint256 _timesheetEndDate,\n        uint256 _invoiceSentDate,\n        uint256 _due30DaysDate,\n        uint256 _due60DaysDate,\n        uint256 _due90DaysDate,\n        uint256 _due120DaysDate,\n        uint256 _datePmtReceived\n    );\n\n    event updateInvoiceEvent(\n        string _clientName,\n        uint256 _invoiceNumber,\n        uint256 _datePmtReceived\n    );\n\n    event addUserEvent(address payable _address, string _name, string _pwd);\n\n    /// @author Denis M. Putnam\n    /// @notice Add a user\n    /// @param _address wallet account address for the user\n    /// @param _name user name\n    /// @param _pwd unencrypted password\n    /// @dev no other details.\n    function addUser(\n        address payable _address,\n        string memory _name,\n        string memory _pwd\n    ) public noDupUser(_address) {\n        bytes32 epwd = keccak256(abi.encodePacked(_pwd));\n        usersMap[_address] = User(_name, epwd, true);\n        userIndexMap[userCount] = _address;\n        userCount += 1;\n        emit addUserEvent(_address, _name, _pwd);\n    }\n\n    /// @author Denis M. Putnam\n    /// @notice Add an invoice to track\n    /// @param _userAddress user address\n    /// @param _pwd user password in plaintext\n    /// @param _clientName name of the client\n    /// @param _invoiceNumber invoice number\n    /// @param _netTerms net terms for 30, 60, 90, or 120 days.\n    /// @param _numberHours number of hours for the timesheet.\n    /// @param _amount amount in dollars.\n    /// @param _dates array of dates for timesheetEndDate, invoiceSentDate, due30DaysDate, due60DaysDate, due90DaysDate, due120DaysDate\n    /// @dev Add's an invoice to be tracked.\n    function addInvoice(\n        address _userAddress,\n        string memory _pwd,\n        string memory _clientName,\n        uint256 _invoiceNumber,\n        uint256 _netTerms,\n        uint256 _numberHours,\n        string memory _amount,\n        uint256[] memory _dates\n    )\n        public\n        userOnly(_userAddress, _clientName)\n        isValidPassword(_userAddress, _pwd)\n        noDupInvoice(_clientName, _invoiceNumber)\n    {\n        newInvoice.invoiceNumber = _invoiceNumber;\n        newInvoice.netTerms = _netTerms;\n        newInvoice.numberHours = _numberHours;\n        newInvoice.amount = _amount;\n        newInvoice.timesheetEndDate = _dates[0]; // timesheetEndDate\n        newInvoice.invoiceSentDate = _dates[1]; // invoiceSentDate\n        newInvoice.due30DaysDate = _dates[2]; // due30DaysDate\n        newInvoice.due60DaysDate = _dates[3]; // due60DaysDate\n        newInvoice.due90DaysDate = _dates[4]; // due90DaysDate\n        newInvoice.due120DaysDate = _dates[5]; // due120DaysDate\n\n        clientNameInvoicesMap[_clientName].push(newInvoice);\n        clientNameInvoiceNumMap[_clientName].push(_invoiceNumber);\n\n        incremmentInvoiceCount(_clientName);\n\n        emit addInvoiceEvent(\n            _clientName,\n            newInvoice.invoiceNumber,\n            newInvoice.netTerms,\n            newInvoice.numberHours,\n            newInvoice.amount,\n            newInvoice.timesheetEndDate,\n            newInvoice.invoiceSentDate,\n            newInvoice.due30DaysDate,\n            newInvoice.due60DaysDate,\n            newInvoice.due90DaysDate,\n            newInvoice.due120DaysDate,\n            newInvoice.datePmtReceived\n        );\n    }\n\n    function incremmentInvoiceCount(string memory _clientName)\n        private\n        returns (uint256)\n    {\n        return clientNameInvoiceCountMap[_clientName] += 1;\n    }\n\n    /// @author Denis M. Putnam\n    /// @notice Get the count of invoices associated with the given client name\n    /// @param _userAddress user address\n    /// @param _pwd plaintext user password\n    /// @param _clientName name of the client\n    /// @dev no other details.\n    /// @return count of invoices associated with the given client\n    function getInvoiceCount(\n        address _userAddress,\n        string memory _pwd,\n        string memory _clientName\n    )\n        public\n        view\n        userOnly(_userAddress, _clientName)\n        isValidPassword(_userAddress, _pwd)\n        returns (\n            uint256 count\n        )\n    {\n        count = clientNameInvoiceCountMap[_clientName];\n        // count = getInvoiceCount(_clientName);\n    }\n\n    /// @author Denis M. Putnam\n    /// @notice Get the list of invoice numbers as a string for the given client name.\n    /// @param _userAddress user address\n    /// @param _pwd plain text user password\n    /// @param _clientName name of the client\n    /// @dev returned string is a comma separated string of invoice numbers.  The comma is also the end of the string if no other values appear.\n    /// @return a comma seperated list of invoice numbers associated with the client.\n    function getInvoiceNumbers(\n        address _userAddress,\n        string memory _pwd,\n        string memory _clientName\n    )\n        public\n        view\n        userOnly(_userAddress, _clientName)\n        isValidPassword(_userAddress, _pwd)\n        returns (\n            uint256[] memory\n        )\n    {\n        return clientNameInvoiceNumMap[_clientName];\n    }\n\n    function findInvoiceIndex(string memory _clientName, uint256 _invoiceNumber)\n        private\n        view\n        isInvoiceNumber(_invoiceNumber)\n        returns (int256 index)\n    {\n        for (\n            int256 i = 0;\n            i < int256(clientNameInvoiceCountMap[_clientName]);\n            i++\n        ) {\n            //clientNameInvoicesMap\n            if (\n                _invoiceNumber ==\n                clientNameInvoicesMap[_clientName][uint256(i)].invoiceNumber\n            ) {\n                return i;\n            }\n        }\n        return -1;\n    }\n\n    /// @author Denis M. Putnam\n    /// @notice Update an invoice with the payment date\n    /// @param _userAddress user address\n    /// @param _pwd plain text password\n    /// @param _clientName name of the client\n    /// @param _invoiceNumber invoice number being requested.\n    /// @param _invoicePmtDate payment date\n    /// @dev no other details\n    function updateInvoice(\n        address _userAddress,\n        string memory _pwd,\n        string memory _clientName,\n        uint256 _invoiceNumber,\n        uint256 _invoicePmtDate\n    )\n        public\n        userOnly(_userAddress, _clientName)\n        isValidPassword(_userAddress, _pwd)\n    {\n        int256 _index = findInvoiceIndex(_clientName, _invoiceNumber);\n        if (_index != -1) {\n          Invoice memory lInvoice = clientNameInvoicesMap[_clientName][uint256(_index)];\n          lInvoice.datePmtReceived = _invoicePmtDate;\n          clientNameInvoicesMap[_clientName][uint256(_index)] = lInvoice;\n          emit updateInvoiceEvent(\n              _clientName,\n              _invoiceNumber,\n              _invoicePmtDate\n          );\n        }\n    }\n\n    /// @author Denis M. Putnam\n    /// @notice Get an invoice\n    /// @param _userAddress user address\n    /// @param _pwd plain text password\n    /// @param _clientName name of the client\n    /// @param _invoiceNumber invoice number being requested.\n    /// @dev no other details\n    /// @return invoiceNumber\n    /// @return netTerms\n    /// @return numberHours\n    /// @return amount\n    function getInvoice(\n        address _userAddress,\n        string memory _pwd,\n        string memory _clientName,\n        uint256 _invoiceNumber\n    )\n        public\n        view\n        userOnly(_userAddress, _clientName)\n        isValidPassword(_userAddress, _pwd)\n        returns (\n            uint256 invoiceNumber,\n            uint256 netTerms,\n            uint256 numberHours,\n            string memory amount\n        )\n    {\n        int256 _index = findInvoiceIndex(_clientName, _invoiceNumber);\n        if (_index != -1) {\n            Invoice memory lInvoice = clientNameInvoicesMap[_clientName][uint256(_index)];\n            return (\n                lInvoice.invoiceNumber,\n                lInvoice.netTerms,\n                lInvoice.numberHours,\n                lInvoice.amount\n            );\n        }\n    }\n\n    /// @author Denis M. Putnam\n    /// @notice Get an invoice\n    /// @param _userAddress user address\n    /// @param _pwd plain text password\n    /// @param _clientName name of the client\n    /// @param _invoiceNumber invoice number being requested.\n    /// @dev no other details\n    /// @return invoiceNumber\n    /// @return timesheetEndDate\n    /// @return invoiceSentDate\n    /// @return datePmtReceived\n    function getInvoiceDates(\n        address _userAddress,\n        string memory _pwd,\n        string memory _clientName,\n        uint256 _invoiceNumber\n    )\n        public\n        view\n        userOnly(_userAddress, _clientName)\n        isValidPassword(_userAddress, _pwd)\n        returns (\n            uint256 invoiceNumber,\n            uint256 timesheetEndDate,\n            uint256 invoiceSentDate,\n            uint256 datePmtReceived\n        )\n    {\n        int256 _index = findInvoiceIndex(_clientName, _invoiceNumber);\n        if (_index != -1) {\n          Invoice memory lInvoice = clientNameInvoicesMap[_clientName][uint256(_index)];\n          return (\n                lInvoice.invoiceNumber,\n                lInvoice.timesheetEndDate,\n                lInvoice.invoiceSentDate,\n                lInvoice.datePmtReceived\n          );\n        }\n    }\n\n    /// @author Denis M. Putnam\n    /// @notice Get an invoice\n    /// @param _userAddress user address\n    /// @param _pwd plain text password\n    /// @param _clientName name of the client\n    /// @param _invoiceNumber invoice number being requested.\n    /// @dev no other details\n    /// @return invoiceNumber\n    /// @return due30DaysDate\n    /// @return due60DaysDate\n    /// @return due90DaysDate\n    /// @return due120DaysDate\n    function getInvoiceDueDates(\n        address _userAddress,\n        string memory _pwd,\n        string memory _clientName,\n        uint256 _invoiceNumber\n    )\n        public\n        view\n        userOnly(_userAddress, _clientName)\n        isValidPassword(_userAddress, _pwd)\n        returns (\n            uint256 invoiceNumber,\n            uint256 due30DaysDate,\n            uint256 due60DaysDate,\n            uint256 due90DaysDate,\n            uint256 due120DaysDate\n        )\n    {\n        int256 _index = findInvoiceIndex(_clientName, _invoiceNumber);\n        if (_index != -1) {\n          Invoice memory lInvoice = clientNameInvoicesMap[_clientName][uint256(_index)];\n          return (\n              lInvoice.invoiceNumber,\n              lInvoice.due30DaysDate,\n              lInvoice.due60DaysDate,\n              lInvoice.due90DaysDate,\n              lInvoice.due120DaysDate\n          );\n        }\n    }\n}\n",
  "sourcePath": "/Users/denisputnam/git/invoice-tracker-dapp/contracts/Invoices.sol",
  "compiler": {
    "name": "solc",
    "version": "0.6.6+commit.6c089d02.Emscripten.clang"
  },
  "schemaVersion": "3.2.3",
  "updatedAt": "2020-08-06T16:12:37.643Z",
  "networkType": "ethereum",
  "devdoc": {
    "author": "Denis M. Putnam",
    "details": "Use at your own risk.",
    "methods": {
      "addInvoice(address,string,string,uint256,uint256,uint256,string,uint256[])": {
        "author": "Denis M. Putnam",
        "details": "Add's an invoice to be tracked.",
        "params": {
          "_amount": "amount in dollars.",
          "_clientName": "name of the client",
          "_dates": "array of dates for timesheetEndDate, invoiceSentDate, due30DaysDate, due60DaysDate, due90DaysDate, due120DaysDate",
          "_invoiceNumber": "invoice number",
          "_netTerms": "net terms for 30, 60, 90, or 120 days.",
          "_numberHours": "number of hours for the timesheet.",
          "_pwd": "user password in plaintext",
          "_userAddress": "user address"
        }
      },
      "addUser(address,string,string)": {
        "author": "Denis M. Putnam",
        "details": "no other details.",
        "params": {
          "_address": "wallet account address for the user",
          "_name": "user name",
          "_pwd": "unencrypted password"
        }
      },
      "getInvoice(address,string,string,uint256)": {
        "author": "Denis M. Putnam",
        "details": "no other details",
        "params": {
          "_clientName": "name of the client",
          "_invoiceNumber": "invoice number being requested.",
          "_pwd": "plain text password",
          "_userAddress": "user address"
        },
        "returns": {
          "amount": "amount",
          "invoiceNumber": "invoiceNumber",
          "netTerms": "netTerms",
          "numberHours": "numberHours"
        }
      },
      "getInvoiceCount(address,string,string)": {
        "author": "Denis M. Putnam",
        "details": "no other details.",
        "params": {
          "_clientName": "name of the client",
          "_pwd": "plaintext user password",
          "_userAddress": "user address"
        },
        "returns": {
          "count": "of invoices associated with the given client"
        }
      },
      "getInvoiceDates(address,string,string,uint256)": {
        "author": "Denis M. Putnam",
        "details": "no other details",
        "params": {
          "_clientName": "name of the client",
          "_invoiceNumber": "invoice number being requested.",
          "_pwd": "plain text password",
          "_userAddress": "user address"
        },
        "returns": {
          "datePmtReceived": "datePmtReceived",
          "invoiceNumber": "invoiceNumber",
          "invoiceSentDate": "invoiceSentDate",
          "timesheetEndDate": "timesheetEndDate"
        }
      },
      "getInvoiceDueDates(address,string,string,uint256)": {
        "author": "Denis M. Putnam",
        "details": "no other details",
        "params": {
          "_clientName": "name of the client",
          "_invoiceNumber": "invoice number being requested.",
          "_pwd": "plain text password",
          "_userAddress": "user address"
        },
        "returns": {
          "due120DaysDate": "due120DaysDate",
          "due30DaysDate": "due30DaysDate",
          "due60DaysDate": "due60DaysDate",
          "due90DaysDate": "due90DaysDate",
          "invoiceNumber": "invoiceNumber"
        }
      },
      "getInvoiceNumbers(address,string,string)": {
        "author": "Denis M. Putnam",
        "details": "returned string is a comma separated string of invoice numbers.  The comma is also the end of the string if no other values appear.",
        "params": {
          "_clientName": "name of the client",
          "_pwd": "plain text user password",
          "_userAddress": "user address"
        },
        "returns": {
          "_0": "a comma seperated list of invoice numbers associated with the client."
        }
      },
      "isNoDuplicateInvoice(string,uint256)": {
        "author": "Denis M. Putnam",
        "details": "no other details.",
        "params": {
          "_clientName": "name of the client.",
          "_invoiceNumber": "invoice number."
        }
      },
      "owner()": {
        "details": "Returns the address of the current owner."
      },
      "renounceOwnership()": {
        "details": "Leaves the contract without owner. It will not be possible to call `onlyOwner` functions anymore. Can only be called by the current owner.     * NOTE: Renouncing ownership will leave the contract without an owner, thereby removing any functionality that is only available to the owner."
      },
      "transferOwnership(address)": {
        "details": "Transfers ownership of the contract to a new account (`newOwner`). Can only be called by the current owner."
      },
      "updateInvoice(address,string,string,uint256,uint256)": {
        "author": "Denis M. Putnam",
        "details": "no other details",
        "params": {
          "_clientName": "name of the client",
          "_invoiceNumber": "invoice number being requested.",
          "_invoicePmtDate": "payment date",
          "_pwd": "plain text password",
          "_userAddress": "user address"
        }
      }
    },
    "title": "Invoices contract"
  },
  "userdoc": {
    "methods": {
      "addInvoice(address,string,string,uint256,uint256,uint256,string,uint256[])": {
        "notice": "Add an invoice to track"
      },
      "addUser(address,string,string)": {
        "notice": "Add a user"
      },
      "getInvoice(address,string,string,uint256)": {
        "notice": "Get an invoice"
      },
      "getInvoiceCount(address,string,string)": {
        "notice": "Get the count of invoices associated with the given client name"
      },
      "getInvoiceDates(address,string,string,uint256)": {
        "notice": "Get an invoice"
      },
      "getInvoiceDueDates(address,string,string,uint256)": {
        "notice": "Get an invoice"
      },
      "getInvoiceNumbers(address,string,string)": {
        "notice": "Get the list of invoice numbers as a string for the given client name."
      },
      "isNoDuplicateInvoice(string,uint256)": {
        "notice": "Check for no duplicate invoice."
      },
      "updateInvoice(address,string,string,uint256,uint256)": {
        "notice": "Update an invoice with the payment date"
      }
    },
    "notice": "This contract handles invoices for payment"
  }
}