{
  "contractName": "InvoiceTracker",
  "abi": [
    {
      "inputs": [],
      "stateMutability": "payable",
      "type": "constructor"
    },
    {
      "anonymous": false,
      "inputs": [
        {
          "indexed": false,
          "internalType": "address",
          "name": "_userAddress",
          "type": "address"
        },
        {
          "indexed": false,
          "internalType": "address",
          "name": "_clientID",
          "type": "address"
        },
        {
          "indexed": false,
          "internalType": "string",
          "name": "_name",
          "type": "string"
        }
      ],
      "name": "addClientEvent",
      "type": "event"
    },
    {
      "anonymous": false,
      "inputs": [
        {
          "indexed": false,
          "internalType": "string",
          "name": "_clientName",
          "type": "string"
        },
        {
          "indexed": false,
          "internalType": "uint256",
          "name": "_invoiceNumber",
          "type": "uint256"
        },
        {
          "indexed": false,
          "internalType": "uint256",
          "name": "_netTerms",
          "type": "uint256"
        },
        {
          "indexed": false,
          "internalType": "uint256",
          "name": "_numberHours",
          "type": "uint256"
        },
        {
          "indexed": false,
          "internalType": "string",
          "name": "_amount",
          "type": "string"
        },
        {
          "indexed": false,
          "internalType": "uint256",
          "name": "_timesheetEndDate",
          "type": "uint256"
        },
        {
          "indexed": false,
          "internalType": "uint256",
          "name": "_invoiceSentDate",
          "type": "uint256"
        },
        {
          "indexed": false,
          "internalType": "uint256",
          "name": "_due30DaysDate",
          "type": "uint256"
        },
        {
          "indexed": false,
          "internalType": "uint256",
          "name": "_due60DaysDate",
          "type": "uint256"
        },
        {
          "indexed": false,
          "internalType": "uint256",
          "name": "_due90DaysDate",
          "type": "uint256"
        },
        {
          "indexed": false,
          "internalType": "uint256",
          "name": "_due120DaysDate",
          "type": "uint256"
        },
        {
          "indexed": false,
          "internalType": "uint256",
          "name": "_datePmtReceived",
          "type": "uint256"
        }
      ],
      "name": "addInvoiceEvent",
      "type": "event"
    },
    {
      "anonymous": false,
      "inputs": [
        {
          "indexed": false,
          "internalType": "address payable",
          "name": "_address",
          "type": "address"
        },
        {
          "indexed": false,
          "internalType": "bytes32",
          "name": "_name",
          "type": "bytes32"
        },
        {
          "indexed": false,
          "internalType": "bytes32",
          "name": "_pwd",
          "type": "bytes32"
        }
      ],
      "name": "addUserEvent",
      "type": "event"
    },
    {
      "anonymous": false,
      "inputs": [
        {
          "indexed": false,
          "internalType": "address",
          "name": "_userAddress",
          "type": "address"
        },
        {
          "indexed": false,
          "internalType": "string",
          "name": "_clientID",
          "type": "string"
        }
      ],
      "name": "duplicateClientEvent",
      "type": "event"
    },
    {
      "anonymous": false,
      "inputs": [
        {
          "indexed": false,
          "internalType": "string",
          "name": "_clientName",
          "type": "string"
        },
        {
          "indexed": false,
          "internalType": "uint256",
          "name": "_invoiceNumber",
          "type": "uint256"
        }
      ],
      "name": "duplicateInvoiceEvent",
      "type": "event"
    },
    {
      "anonymous": false,
      "inputs": [
        {
          "indexed": false,
          "internalType": "string",
          "name": "_clientName",
          "type": "string"
        },
        {
          "indexed": false,
          "internalType": "uint256",
          "name": "_invoiceNumber",
          "type": "uint256"
        },
        {
          "indexed": false,
          "internalType": "uint256",
          "name": "_datePmtReceived",
          "type": "uint256"
        }
      ],
      "name": "updateInvoiceEvent",
      "type": "event"
    },
    {
      "inputs": [
        {
          "internalType": "address payable",
          "name": "newOwner",
          "type": "address"
        }
      ],
      "name": "changeOwner",
      "outputs": [],
      "stateMutability": "nonpayable",
      "type": "function"
    },
    {
      "inputs": [],
      "name": "getCurrentOwner",
      "outputs": [
        {
          "internalType": "address",
          "name": "",
          "type": "address"
        }
      ],
      "stateMutability": "view",
      "type": "function"
    },
    {
      "inputs": [
        {
          "internalType": "address",
          "name": "_userAddress",
          "type": "address"
        },
        {
          "internalType": "string",
          "name": "_clientName",
          "type": "string"
        },
        {
          "internalType": "address",
          "name": "_clientID",
          "type": "address"
        }
      ],
      "name": "isNoClient",
      "outputs": [
        {
          "internalType": "bool",
          "name": "",
          "type": "bool"
        }
      ],
      "stateMutability": "payable",
      "type": "function"
    },
    {
      "inputs": [
        {
          "internalType": "address payable",
          "name": "_address",
          "type": "address"
        },
        {
          "internalType": "bytes32",
          "name": "_name",
          "type": "bytes32"
        },
        {
          "internalType": "bytes32",
          "name": "_pwd",
          "type": "bytes32"
        }
      ],
      "name": "addUser",
      "outputs": [],
      "stateMutability": "nonpayable",
      "type": "function"
    },
    {
      "inputs": [
        {
          "internalType": "address",
          "name": "_userAddress",
          "type": "address"
        },
        {
          "internalType": "address",
          "name": "_clientID",
          "type": "address"
        },
        {
          "internalType": "string",
          "name": "_name",
          "type": "string"
        }
      ],
      "name": "addClient",
      "outputs": [],
      "stateMutability": "nonpayable",
      "type": "function"
    },
    {
      "inputs": [
        {
          "internalType": "address",
          "name": "_userAddress",
          "type": "address"
        },
        {
          "internalType": "string",
          "name": "_name",
          "type": "string"
        }
      ],
      "name": "getClientByName",
      "outputs": [
        {
          "internalType": "string",
          "name": "name",
          "type": "string"
        },
        {
          "internalType": "address",
          "name": "clientID",
          "type": "address"
        }
      ],
      "stateMutability": "view",
      "type": "function"
    },
    {
      "inputs": [
        {
          "internalType": "address",
          "name": "_userAddress",
          "type": "address"
        }
      ],
      "name": "getUserName",
      "outputs": [
        {
          "internalType": "bytes32",
          "name": "name",
          "type": "bytes32"
        }
      ],
      "stateMutability": "view",
      "type": "function"
    },
    {
      "inputs": [
        {
          "internalType": "address",
          "name": "_userAddress",
          "type": "address"
        }
      ],
      "name": "getClientCount",
      "outputs": [
        {
          "internalType": "int256",
          "name": "count",
          "type": "int256"
        }
      ],
      "stateMutability": "view",
      "type": "function"
    },
    {
      "inputs": [
        {
          "internalType": "string",
          "name": "_clientName",
          "type": "string"
        },
        {
          "internalType": "uint256",
          "name": "_invoiceNumber",
          "type": "uint256"
        }
      ],
      "name": "isNoDuplicateInvoice",
      "outputs": [
        {
          "internalType": "bool",
          "name": "",
          "type": "bool"
        }
      ],
      "stateMutability": "payable",
      "type": "function"
    },
    {
      "inputs": [
        {
          "internalType": "address",
          "name": "_userAddress",
          "type": "address"
        },
        {
          "internalType": "string",
          "name": "_clientName",
          "type": "string"
        },
        {
          "internalType": "uint256",
          "name": "_invoiceNumber",
          "type": "uint256"
        },
        {
          "internalType": "uint256",
          "name": "_netTerms",
          "type": "uint256"
        },
        {
          "internalType": "uint256",
          "name": "_numberHours",
          "type": "uint256"
        },
        {
          "internalType": "string",
          "name": "_amount",
          "type": "string"
        },
        {
          "internalType": "uint256[]",
          "name": "_dates",
          "type": "uint256[]"
        }
      ],
      "name": "addInvoice",
      "outputs": [],
      "stateMutability": "nonpayable",
      "type": "function"
    },
    {
      "inputs": [
        {
          "internalType": "address",
          "name": "_userAddress",
          "type": "address"
        },
        {
          "internalType": "string",
          "name": "_clientName",
          "type": "string"
        }
      ],
      "name": "getInvoiceCount",
      "outputs": [
        {
          "internalType": "uint256",
          "name": "count",
          "type": "uint256"
        }
      ],
      "stateMutability": "view",
      "type": "function"
    },
    {
      "inputs": [
        {
          "internalType": "address",
          "name": "_userAddress",
          "type": "address"
        },
        {
          "internalType": "string",
          "name": "_clientName",
          "type": "string"
        }
      ],
      "name": "getInvoiceNumbers",
      "outputs": [
        {
          "internalType": "uint256[]",
          "name": "",
          "type": "uint256[]"
        }
      ],
      "stateMutability": "view",
      "type": "function"
    },
    {
      "inputs": [
        {
          "internalType": "address",
          "name": "_userAddress",
          "type": "address"
        },
        {
          "internalType": "string",
          "name": "_clientName",
          "type": "string"
        },
        {
          "internalType": "uint256",
          "name": "_invoiceNumber",
          "type": "uint256"
        },
        {
          "internalType": "uint256",
          "name": "_invoicePmtDate",
          "type": "uint256"
        }
      ],
      "name": "updateInvoice",
      "outputs": [],
      "stateMutability": "nonpayable",
      "type": "function"
    },
    {
      "inputs": [
        {
          "internalType": "address",
          "name": "_userAddress",
          "type": "address"
        },
        {
          "internalType": "string",
          "name": "_clientName",
          "type": "string"
        },
        {
          "internalType": "uint256",
          "name": "_invoiceNumber",
          "type": "uint256"
        }
      ],
      "name": "getInvoice",
      "outputs": [
        {
          "internalType": "uint256",
          "name": "invoiceNumber",
          "type": "uint256"
        },
        {
          "internalType": "uint256",
          "name": "netTerms",
          "type": "uint256"
        },
        {
          "internalType": "uint256",
          "name": "numberHours",
          "type": "uint256"
        },
        {
          "internalType": "string",
          "name": "amount",
          "type": "string"
        },
        {
          "internalType": "uint256[]",
          "name": "dates",
          "type": "uint256[]"
        }
      ],
      "stateMutability": "view",
      "type": "function"
    }
  ],
  "bytecode": "0x6080604052336000806101000a81548173ffffffffffffffffffffffffffffffffffffffff021916908373ffffffffffffffffffffffffffffffffffffffff1602179055506139ab806100536000396000f3fe6080604052600436106100dd5760003560e01c8063a41b75b81161007f578063b568def411610059578063b568def4146108d8578063bd9702c714610b09578063d7603ca214610c46578063d84f55ee14610e0e576100dd565b8063a41b75b814610726578063a426e2d914610822578063a6f9dae114610887576100dd565b8063910112bb116100bb578063910112bb146103ce578063999fec33146104335780639cee1ffe146105c7578063a18a186b146106cf576100dd565b806313f0df4d146100e257806328b5516c146101f5578063626446d3146102d2575b600080fd5b6101db600480360360608110156100f857600080fd5b81019080803573ffffffffffffffffffffffffffffffffffffffff1690602001909291908035906020019064010000000081111561013557600080fd5b82018360208201111561014757600080fd5b8035906020019184600183028401116401000000008311171561016957600080fd5b91908080601f016020809104026020016040519081016040528093929190818152602001838380828437600081840152601f19601f820116905080830192505050505050509192919290803573ffffffffffffffffffffffffffffffffffffffff169060200190929190505050610e73565b604051808215151515815260200191505060405180910390f35b6102b86004803603604081101561020b57600080fd5b810190808035906020019064010000000081111561022857600080fd5b82018360208201111561023a57600080fd5b8035906020019184600183028401116401000000008311171561025c57600080fd5b91908080601f016020809104026020016040519081016040528093929190818152602001838380828437600081840152601f19601f820116905080830192505050505050509192919290803590602001909291905050506110ad565b604051808215151515815260200191505060405180910390f35b3480156102de57600080fd5b506103cc600480360360808110156102f557600080fd5b81019080803573ffffffffffffffffffffffffffffffffffffffff1690602001909291908035906020019064010000000081111561033257600080fd5b82018360208201111561034457600080fd5b8035906020019184600183028401116401000000008311171561036657600080fd5b91908080601f016020809104026020016040519081016040528093929190818152602001838380828437600081840152601f19601f82011690508083019250505050505050919291929080359060200190929190803590602001909291905050506111d6565b005b3480156103da57600080fd5b50610431600480360360608110156103f157600080fd5b81019080803573ffffffffffffffffffffffffffffffffffffffff1690602001909291908035906020019092919080359060200190929190505050611711565b005b34801561043f57600080fd5b506105196004803603604081101561045657600080fd5b81019080803573ffffffffffffffffffffffffffffffffffffffff1690602001909291908035906020019064010000000081111561049357600080fd5b8201836020820111156104a557600080fd5b803590602001918460018302840111640100000000831117156104c757600080fd5b91908080601f016020809104026020016040519081016040528093929190818152602001838380828437600081840152601f19601f820116905080830192505050505050509192919290505050611914565b60405180806020018373ffffffffffffffffffffffffffffffffffffffff1673ffffffffffffffffffffffffffffffffffffffff168152602001828103825284818151815260200191508051906020019080838360005b8381101561058b578082015181840152602081019050610570565b50505050905090810190601f1680156105b85780820380516001836020036101000a031916815260200191505b50935050505060405180910390f35b3480156105d357600080fd5b506106cd600480360360608110156105ea57600080fd5b81019080803573ffffffffffffffffffffffffffffffffffffffff169060200190929190803573ffffffffffffffffffffffffffffffffffffffff1690602001909291908035906020019064010000000081111561064757600080fd5b82018360208201111561065957600080fd5b8035906020019184600183028401116401000000008311171561067b57600080fd5b91908080601f016020809104026020016040519081016040528093929190818152602001838380828437600081840152601f19601f820116905080830192505050505050509192919290505050611c5e565b005b3480156106db57600080fd5b506106e4612282565b604051808273ffffffffffffffffffffffffffffffffffffffff1673ffffffffffffffffffffffffffffffffffffffff16815260200191505060405180910390f35b34801561073257600080fd5b5061080c6004803603604081101561074957600080fd5b81019080803573ffffffffffffffffffffffffffffffffffffffff1690602001909291908035906020019064010000000081111561078657600080fd5b82018360208201111561079857600080fd5b803590602001918460018302840111640100000000831117156107ba57600080fd5b91908080601f016020809104026020016040519081016040528093929190818152602001838380828437600081840152601f19601f8201169050808301925050505050505091929192905050506122ab565b6040518082815260200191505060405180910390f35b34801561082e57600080fd5b506108716004803603602081101561084557600080fd5b81019080803573ffffffffffffffffffffffffffffffffffffffff1690602001909291905050506124bc565b6040518082815260200191505060405180910390f35b34801561089357600080fd5b506108d6600480360360208110156108aa57600080fd5b81019080803573ffffffffffffffffffffffffffffffffffffffff169060200190929190505050612505565b005b3480156108e457600080fd5b50610b07600480360360e08110156108fb57600080fd5b81019080803573ffffffffffffffffffffffffffffffffffffffff1690602001909291908035906020019064010000000081111561093857600080fd5b82018360208201111561094a57600080fd5b8035906020019184600183028401116401000000008311171561096c57600080fd5b91908080601f016020809104026020016040519081016040528093929190818152602001838380828437600081840152601f19601f820116905080830192505050505050509192919290803590602001909291908035906020019092919080359060200190929190803590602001906401000000008111156109ed57600080fd5b8201836020820111156109ff57600080fd5b80359060200191846001830284011164010000000083111715610a2157600080fd5b91908080601f016020809104026020016040519081016040528093929190818152602001838380828437600081840152601f19601f82011690508083019250505050505050919291929080359060200190640100000000811115610a8457600080fd5b820183602082011115610a9657600080fd5b80359060200191846020830284011164010000000083111715610ab857600080fd5b919080806020026020016040519081016040528093929190818152602001838360200280828437600081840152601f19601f8201169050808301925050505050505091929192905050506125ed565b005b348015610b1557600080fd5b50610bef60048036036040811015610b2c57600080fd5b81019080803573ffffffffffffffffffffffffffffffffffffffff16906020019092919080359060200190640100000000811115610b6957600080fd5b820183602082011115610b7b57600080fd5b80359060200191846001830284011164010000000083111715610b9d57600080fd5b91908080601f016020809104026020016040519081016040528093929190818152602001838380828437600081840152601f19601f820116905080830192505050505050509192919290505050612cec565b6040518080602001828103825283818151815260200191508051906020019060200280838360005b83811015610c32578082015181840152602081019050610c17565b505050509050019250505060405180910390f35b348015610c5257600080fd5b50610d3660048036036060811015610c6957600080fd5b81019080803573ffffffffffffffffffffffffffffffffffffffff16906020019092919080359060200190640100000000811115610ca657600080fd5b820183602082011115610cb857600080fd5b80359060200191846001830284011164010000000083111715610cda57600080fd5b91908080601f016020809104026020016040519081016040528093929190818152602001838380828437600081840152601f19601f82011690508083019250505050505050919291929080359060200190929190505050612f4b565b604051808681526020018581526020018481526020018060200180602001838103835285818151815260200191508051906020019080838360005b83811015610d8c578082015181840152602081019050610d71565b50505050905090810190601f168015610db95780820380516001836020036101000a031916815260200191505b50838103825284818151815260200191508051906020019060200280838360005b83811015610df5578082015181840152602081019050610dda565b5050505090500197505050505050505060405180910390f35b348015610e1a57600080fd5b50610e5d60048036036020811015610e3157600080fd5b81019080803573ffffffffffffffffffffffffffffffffffffffff1690602001909291905050506133e4565b6040518082815260200191505060405180910390f35b60008173ffffffffffffffffffffffffffffffffffffffff166006846040518082805190602001908083835b60208310610ec25780518252602082019150602081019050602083039250610e9f565b6001836020036101000a038019825116818451168082178552505050505050905001915050908152602001604051809103902060009054906101000a900473ffffffffffffffffffffffffffffffffffffffff1673ffffffffffffffffffffffffffffffffffffffff16148015610fc357508173ffffffffffffffffffffffffffffffffffffffff16600360008673ffffffffffffffffffffffffffffffffffffffff1673ffffffffffffffffffffffffffffffffffffffff16815260200190815260200160002060009054906101000a900473ffffffffffffffffffffffffffffffffffffffff1673ffffffffffffffffffffffffffffffffffffffff16145b156110a1577f3266e9973cd88d0b427a9f781262c2810cb85378bdc9e4965a3c7aa22977708e8484604051808373ffffffffffffffffffffffffffffffffffffffff1673ffffffffffffffffffffffffffffffffffffffff16815260200180602001828103825283818151815260200191508051906020019080838360005b8381101561105d578082015181840152602081019050611042565b50505050905090810190601f16801561108a5780820380516001836020036101000a031916815260200191505b50935050505060405180910390a1600090506110a6565b600190505b9392505050565b600080600090505b6009846040518082805190602001908083835b602083106110eb57805182526020820191506020810190506020830392506110c8565b6001836020036101000a0380198251168184511680821785525050505050509050019150509081526020016040518091039020548110156111ca576007846040518082805190602001908083835b6020831061115c5780518252602082019150602081019050602083039250611139565b6001836020036101000a0380198251168184511680821785525050505050509050019150509081526020016040518091039020818154811061119a57fe5b90600052602060002090600b0201600001548314156111bd5760009150506111d0565b80806001019150506110b5565b50600190505b92915050565b838360006001826040518082805190602001908083835b6020831061121057805182526020820191506020810190506020830392506111ed565b6001836020036101000a038019825116818451168082178552505050505050905001915050908152602001604051809103902060000160009054906101000a900473ffffffffffffffffffffffffffffffffffffffff169050600015158173ffffffffffffffffffffffffffffffffffffffff16600360008673ffffffffffffffffffffffffffffffffffffffff1673ffffffffffffffffffffffffffffffffffffffff16815260200190815260200160002060009054906101000a900473ffffffffffffffffffffffffffffffffffffffff1673ffffffffffffffffffffffffffffffffffffffff1614151514611370576040517f08c379a000000000000000000000000000000000000000000000000000000000815260040180806020018281038252601f8152602001807f5573657220616e6420636c69656e7420617265206e6f742072656c617465640081525060200191505060405180910390fd5b600061137d888888613430565b90507fffffffffffffffffffffffffffffffffffffffffffffffffffffffffffffffff8114611707576113ae6137f0565b6007886040518082805190602001908083835b602083106113e457805182526020820191506020810190506020830392506113c1565b6001836020036101000a0380198251168184511680821785525050505050509050019150509081526020016040518091039020828154811061142257fe5b90600052602060002090600b020160405180610160016040529081600082015481526020016001820154815260200160028201548152602001600382018054600181600116156101000203166002900480601f0160208091040260200160405190810160405280929190818152602001828054600181600116156101000203166002900480156114f35780601f106114c8576101008083540402835291602001916114f3565b820191906000526020600020905b8154815290600101906020018083116114d657829003601f168201915b50505050508152602001600482015481526020016005820154815260200160068201548152602001600782015481526020016008820154815260200160098201548152602001600a8201548152505090508581610140018181525050806007896040518082805190602001908083835b602083106115865780518252602082019150602081019050602083039250611563565b6001836020036101000a038019825116818451168082178552505050505050905001915050908152602001604051809103902083815481106115c457fe5b90600052602060002090600b0201600082015181600001556020820151816001015560408201518160020155606082015181600301908051906020019061160c92919061384a565b506080820151816004015560a0820151816005015560c0820151816006015560e082015181600701556101008201518160080155610120820151816009015561014082015181600a01559050507f4aaf47da2b830ec7cb39ceac30735c6b5f91912852a2fcbedca8fb36ea7509398888886040518080602001848152602001838152602001828103825285818151815260200191508051906020019080838360005b838110156116c95780820151818401526020810190506116ae565b50505050905090810190601f1680156116f65780820380516001836020036101000a031916815260200191505b5094505050505060405180910390a1505b5050505050505050565b8260001515600260008373ffffffffffffffffffffffffffffffffffffffff1673ffffffffffffffffffffffffffffffffffffffff16815260200190815260200160002060020160009054906101000a900460ff161515146117db576040517f08c379a00000000000000000000000000000000000000000000000000000000081526004018080602001828103825260138152602001807f5573657220616c7265616479206578697374730000000000000000000000000081525060200191505060405180910390fd5b60008260405160200180828152602001915050604051602081830303815290604052805190602001209050604051806060016040528085815260200182815260200160011515815250600260008773ffffffffffffffffffffffffffffffffffffffff1673ffffffffffffffffffffffffffffffffffffffff168152602001908152602001600020600082015181600001556020820151816001015560408201518160020160006101000a81548160ff0219169083151502179055509050507f14984dd3ee2bc0e29649b0a0c74ee789e6c3d986fa13c4311bdec1ada076f0de858585604051808473ffffffffffffffffffffffffffffffffffffffff1673ffffffffffffffffffffffffffffffffffffffff168152602001838152602001828152602001935050505060405180910390a15050505050565b60606000838360006001826040518082805190602001908083835b60208310611952578051825260208201915060208101905060208303925061192f565b6001836020036101000a038019825116818451168082178552505050505050905001915050908152602001604051809103902060000160009054906101000a900473ffffffffffffffffffffffffffffffffffffffff169050600015158173ffffffffffffffffffffffffffffffffffffffff16600360008673ffffffffffffffffffffffffffffffffffffffff1673ffffffffffffffffffffffffffffffffffffffff16815260200190815260200160002060009054906101000a900473ffffffffffffffffffffffffffffffffffffffff1673ffffffffffffffffffffffffffffffffffffffff1614151514611ab2576040517f08c379a000000000000000000000000000000000000000000000000000000000815260040180806020018281038252601f8152602001807f5573657220616e6420636c69656e7420617265206e6f742072656c617465640081525060200191505060405180910390fd5b60606001876040518082805190602001908083835b60208310611aea5780518252602082019150602081019050602083039250611ac7565b6001836020036101000a03801982511681845116808217855250505050505090500191505090815260200160405180910390206001018054600181600116156101000203166002900480601f016020809104026020016040519081016040528092919081815260200182805460018160011615610100020316600290048015611bb45780601f10611b8957610100808354040283529160200191611bb4565b820191906000526020600020905b815481529060010190602001808311611b9757829003601f168201915b5050505050905060006001886040518082805190602001908083835b60208310611bf35780518252602082019150602081019050602083039250611bd0565b6001836020036101000a038019825116818451168082178552505050505050905001915050908152602001604051809103902060000160009054906101000a900473ffffffffffffffffffffffffffffffffffffffff16905081819650965050505050509250929050565b828282611c6c838284610e73565b611cc1576040517f08c379a000000000000000000000000000000000000000000000000000000000815260040180806020018281038252602881526020018061394e6028913960400191505060405180910390fd5b846001856040518082805190602001908083835b60208310611cf85780518252602082019150602081019050602083039250611cd5565b6001836020036101000a038019825116818451168082178552505050505050905001915050908152602001604051809103902060000160006101000a81548173ffffffffffffffffffffffffffffffffffffffff021916908373ffffffffffffffffffffffffffffffffffffffff160217905550836001856040518082805190602001908083835b60208310611da35780518252602082019150602081019050602083039250611d80565b6001836020036101000a03801982511681845116808217855250505050505090500191505090815260200160405180910390206001019080519060200190611dec92919061384a565b50600180856040518082805190602001908083835b60208310611e245780518252602082019150602081019050602083039250611e01565b6001836020036101000a038019825116818451168082178552505050505050905001915050908152602001604051809103902060020160006101000a81548160ff021916908315150217905550846006856040518082805190602001908083835b60208310611ea85780518252602082019150602081019050602083039250611e85565b6001836020036101000a038019825116818451168082178552505050505050905001915050908152602001604051809103902060006101000a81548173ffffffffffffffffffffffffffffffffffffffff021916908373ffffffffffffffffffffffffffffffffffffffff16021790555060006009856040518082805190602001908083835b60208310611f515780518252602082019150602081019050602083039250611f2e565b6001836020036101000a03801982511681845116808217855250505050505090500191505090815260200160405180910390208190555084600360008873ffffffffffffffffffffffffffffffffffffffff1673ffffffffffffffffffffffffffffffffffffffff16815260200190815260200160002060006101000a81548173ffffffffffffffffffffffffffffffffffffffff021916908373ffffffffffffffffffffffffffffffffffffffff160217905550600460008773ffffffffffffffffffffffffffffffffffffffff1673ffffffffffffffffffffffffffffffffffffffff16815260200190815260200160002060405180606001604052808773ffffffffffffffffffffffffffffffffffffffff16815260200186815260200160011515815250908060018154018082558091505060019003906000526020600020906003020160009091909190915060008201518160000160006101000a81548173ffffffffffffffffffffffffffffffffffffffff021916908373ffffffffffffffffffffffffffffffffffffffff160217905550602082015181600101908051906020019061210592919061384a565b5060408201518160020160006101000a81548160ff02191690831515021790555050506001600560008873ffffffffffffffffffffffffffffffffffffffff1673ffffffffffffffffffffffffffffffffffffffff168152602001908152602001600020600082825401925050819055507f94b9610dbc7bb1121768f2201c6a4b486d3979ecc0c3e84d475a3ace0381903c868686604051808473ffffffffffffffffffffffffffffffffffffffff1673ffffffffffffffffffffffffffffffffffffffff1681526020018373ffffffffffffffffffffffffffffffffffffffff1673ffffffffffffffffffffffffffffffffffffffff16815260200180602001828103825283818151815260200191508051906020019080838360005b8381101561223e578082015181840152602081019050612223565b50505050905090810190601f16801561226b5780820380516001836020036101000a031916815260200191505b5094505050505060405180910390a1505050505050565b60008060009054906101000a900473ffffffffffffffffffffffffffffffffffffffff16905090565b6000828260006001826040518082805190602001908083835b602083106122e757805182526020820191506020810190506020830392506122c4565b6001836020036101000a038019825116818451168082178552505050505050905001915050908152602001604051809103902060000160009054906101000a900473ffffffffffffffffffffffffffffffffffffffff169050600015158173ffffffffffffffffffffffffffffffffffffffff16600360008673ffffffffffffffffffffffffffffffffffffffff1673ffffffffffffffffffffffffffffffffffffffff16815260200190815260200160002060009054906101000a900473ffffffffffffffffffffffffffffffffffffffff1673ffffffffffffffffffffffffffffffffffffffff1614151514612447576040517f08c379a000000000000000000000000000000000000000000000000000000000815260040180806020018281038252601f8152602001807f5573657220616e6420636c69656e7420617265206e6f742072656c617465640081525060200191505060405180910390fd5b6009856040518082805190602001908083835b6020831061247d578051825260208201915060208101905060208303925061245a565b6001836020036101000a038019825116818451168082178552505050505050905001915050908152602001604051809103902054935050505092915050565b6000600560008373ffffffffffffffffffffffffffffffffffffffff1673ffffffffffffffffffffffffffffffffffffffff168152602001908152602001600020549050919050565b6000809054906101000a900473ffffffffffffffffffffffffffffffffffffffff1673ffffffffffffffffffffffffffffffffffffffff163373ffffffffffffffffffffffffffffffffffffffff16146125aa576040517f08c379a00000000000000000000000000000000000000000000000000000000081526004018080602001828103825260398152602001806139156039913960400191505060405180910390fd5b806000806101000a81548173ffffffffffffffffffffffffffffffffffffffff021916908373ffffffffffffffffffffffffffffffffffffffff16021790555050565b868660006001826040518082805190602001908083835b602083106126275780518252602082019150602081019050602083039250612604565b6001836020036101000a038019825116818451168082178552505050505050905001915050908152602001604051809103902060000160009054906101000a900473ffffffffffffffffffffffffffffffffffffffff169050600015158173ffffffffffffffffffffffffffffffffffffffff16600360008673ffffffffffffffffffffffffffffffffffffffff1673ffffffffffffffffffffffffffffffffffffffff16815260200190815260200160002060009054906101000a900473ffffffffffffffffffffffffffffffffffffffff1673ffffffffffffffffffffffffffffffffffffffff1614151514612787576040517f08c379a000000000000000000000000000000000000000000000000000000000815260040180806020018281038252601f8152602001807f5573657220616e6420636c69656e7420617265206e6f742072656c617465640081525060200191505060405180910390fd5b8888600061279583836110ad565b9050600015158115151415612849577fe21e12aba131cb57764fb4f32dfbde415652970f3ba0bd02edfa7c79608a7b0383836040518080602001838152602001828103825284818151815260200191508051906020019080838360005b8381101561280d5780820151818401526020810190506127f2565b50505050905090810190601f16801561283a5780820380516001836020036101000a031916815260200191505b50935050505060405180910390a15b806128bc576040517f08c379a00000000000000000000000000000000000000000000000000000000081526004018080602001828103825260118152602001807f4475706c696361746520696e766f69636500000000000000000000000000000081525060200191505060405180910390fd5b6128c46137f0565b8b8160000181815250508a81602001818152505089816040018181525050888160600181905250876000815181106128f857fe5b60200260200101518160800181815250508760018151811061291657fe5b60200260200101518160a00181815250508760028151811061293457fe5b60200260200101518160c00181815250508760038151811061295257fe5b60200260200101518160e00181815250508760048151811061297057fe5b6020026020010151816101000181815250508760058151811061298f57fe5b60200260200101518161012001818152505060078d6040518082805190602001908083835b602083106129d757805182526020820191506020810190506020830392506129b4565b6001836020036101000a03801982511681845116808217855250505050505090500191505090815260200160405180910390208190806001815401808255809150506001900390600052602060002090600b02016000909190919091506000820151816000015560208201518160010155604082015181600201556060820151816003019080519060200190612a6e92919061384a565b506080820151816004015560a0820151816005015560c0820151816006015560e082015181600701556101008201518160080155610120820151816009015561014082015181600a0155505060088d6040518082805190602001908083835b60208310612af05780518252602082019150602081019050602083039250612acd565b6001836020036101000a03801982511681845116808217855250505050505090500191505090815260200160405180910390208c9080600181540180825580915050600190039060005260206000200160009091909190915055612b538d613770565b507f64b1990245accd502365916f65e5fcd03e71f750f7fcb75f88e699b5c067b8d98d826000015183602001518460400151856060015186608001518760a001518860c001518960e001518a61010001518b61012001518c610140015160405180806020018d81526020018c81526020018b8152602001806020018a815260200189815260200188815260200187815260200186815260200185815260200184815260200183810383528f818151815260200191508051906020019080838360005b83811015612c30578082015181840152602081019050612c15565b50505050905090810190601f168015612c5d5780820380516001836020036101000a031916815260200191505b5083810382528b818151815260200191508051906020019080838360005b83811015612c96578082015181840152602081019050612c7b565b50505050905090810190601f168015612cc35780820380516001836020036101000a031916815260200191505b509e50505050505050505050505050505060405180910390a15050505050505050505050505050565b6060828260006001826040518082805190602001908083835b60208310612d285780518252602082019150602081019050602083039250612d05565b6001836020036101000a038019825116818451168082178552505050505050905001915050908152602001604051809103902060000160009054906101000a900473ffffffffffffffffffffffffffffffffffffffff169050600015158173ffffffffffffffffffffffffffffffffffffffff16600360008673ffffffffffffffffffffffffffffffffffffffff1673ffffffffffffffffffffffffffffffffffffffff16815260200190815260200160002060009054906101000a900473ffffffffffffffffffffffffffffffffffffffff1673ffffffffffffffffffffffffffffffffffffffff1614151514612e88576040517f08c379a000000000000000000000000000000000000000000000000000000000815260040180806020018281038252601f8152602001807f5573657220616e6420636c69656e7420617265206e6f742072656c617465640081525060200191505060405180910390fd5b6008856040518082805190602001908083835b60208310612ebe5780518252602082019150602081019050602083039250612e9b565b6001836020036101000a0380198251168184511680821785525050505050509050019150509081526020016040518091039020805480602002602001604051908101604052809291908181526020018280548015612f3b57602002820191906000526020600020905b815481526020019060010190808311612f27575b5050505050935050505092915050565b6000806000606080878760006001826040518082805190602001908083835b60208310612f8d5780518252602082019150602081019050602083039250612f6a565b6001836020036101000a038019825116818451168082178552505050505050905001915050908152602001604051809103902060000160009054906101000a900473ffffffffffffffffffffffffffffffffffffffff169050600015158173ffffffffffffffffffffffffffffffffffffffff16600360008673ffffffffffffffffffffffffffffffffffffffff1673ffffffffffffffffffffffffffffffffffffffff16815260200190815260200160002060009054906101000a900473ffffffffffffffffffffffffffffffffffffffff1673ffffffffffffffffffffffffffffffffffffffff16141515146130ed576040517f08c379a000000000000000000000000000000000000000000000000000000000815260040180806020018281038252601f8152602001807f5573657220616e6420636c69656e7420617265206e6f742072656c617465640081525060200191505060405180910390fd5b60006130fa8c8c8c613430565b90507fffffffffffffffffffffffffffffffffffffffffffffffffffffffffffffffff81146133d45761312b6137f0565b60078c6040518082805190602001908083835b60208310613161578051825260208201915060208101905060208303925061313e565b6001836020036101000a0380198251168184511680821785525050505050509050019150509081526020016040518091039020828154811061319f57fe5b90600052602060002090600b020160405180610160016040529081600082015481526020016001820154815260200160028201548152602001600382018054600181600116156101000203166002900480601f0160208091040260200160405190810160405280929190818152602001828054600181600116156101000203166002900480156132705780601f1061324557610100808354040283529160200191613270565b820191906000526020600020905b81548152906001019060200180831161325357829003601f168201915b50505050508152602001600482015481526020016005820154815260200160068201548152602001600782015481526020016008820154815260200160098201548152602001600a820154815250509050806000015199508060200151985080604001519750806060015196508060800151866000815181106132ef57fe5b6020026020010181815250508060a001518660018151811061330d57fe5b6020026020010181815250508060c001518660028151811061332b57fe5b6020026020010181815250508060e001518660038151811061334957fe5b6020026020010181815250508061010001518660048151811061336857fe5b6020026020010181815250508061012001518660058151811061338757fe5b602002602001018181525050806101400151866006815181106133a657fe5b60200260200101818152505089816020015182604001518360600151899950995099509950995050506133d6565b505b505050939792965093509350565b6000600260008373ffffffffffffffffffffffffffffffffffffffff1673ffffffffffffffffffffffffffffffffffffffff168152602001908152602001600020600001549050919050565b6000838360006001826040518082805190602001908083835b6020831061346c5780518252602082019150602081019050602083039250613449565b6001836020036101000a038019825116818451168082178552505050505050905001915050908152602001604051809103902060000160009054906101000a900473ffffffffffffffffffffffffffffffffffffffff169050600015158173ffffffffffffffffffffffffffffffffffffffff16600360008673ffffffffffffffffffffffffffffffffffffffff1673ffffffffffffffffffffffffffffffffffffffff16815260200190815260200160002060009054906101000a900473ffffffffffffffffffffffffffffffffffffffff1673ffffffffffffffffffffffffffffffffffffffff16141515146135cc576040517f08c379a000000000000000000000000000000000000000000000000000000000815260040180806020018281038252601f8152602001807f5573657220616e6420636c69656e7420617265206e6f742072656c617465640081525060200191505060405180910390fd5b8460008111613626576040517f08c379a00000000000000000000000000000000000000000000000000000000081526004018080602001828103825260258152602001806138f06025913960400191505060405180910390fd5b60008090505b6009886040518082805190602001908083835b60208310613662578051825260208201915060208101905060208303925061363f565b6001836020036101000a038019825116818451168082178552505050505050905001915050908152602001604051809103902054811215613740576007886040518082805190602001908083835b602083106136d357805182526020820191506020810190506020830392506136b0565b6001836020036101000a0380198251168184511680821785525050505050509050019150509081526020016040518091039020818154811061371157fe5b90600052602060002090600b0201600001548714156137335780955050613765565b808060010191505061362c565b507fffffffffffffffffffffffffffffffffffffffffffffffffffffffffffffffff94505b505050509392505050565b600060016009836040518082805190602001908083835b602083106137aa5780518252602082019150602081019050602083039250613787565b6001836020036101000a03801982511681845116808217855250505050505090500191505090815260200160405180910390206000828254019250508190559050919050565b60405180610160016040528060008152602001600081526020016000815260200160608152602001600081526020016000815260200160008152602001600081526020016000815260200160008152602001600081525090565b828054600181600116156101000203166002900490600052602060002090601f016020900481019282601f1061388b57805160ff19168380011785556138b9565b828001600101855582156138b9579182015b828111156138b857825182559160200191906001019061389d565b5b5090506138c691906138ca565b5090565b6138ec91905b808211156138e85760008160009055506001016138d0565b5090565b9056fe496e766f696365206e756d626572206d7573742062652067726561746572207468616e20304f6e6c7920746865206f776e6572206f662074686520636f6e74726163742063616e206578656375746520746869732066756e6374696f6e2e436c69656e7420616c72656164792065786973747320666f722074686520676976656e2075736572a2646970667358221220fba90ec675ccb60a09ca0b58bd16e46501fad11fe0c1e70bc9338ad20498516e64736f6c63430006060033",
  "source": "// SPDX-License-Identifier: GPL-3.0\npragma solidity ^0.6.6;\n\nimport \"./Owned.sol\";\n\n/// @title Invoice Tracking contract\n/// @author Denis M. Putnam\n/// @notice This contract tracks invoices for payment\n/// @dev Use at your own risk.\ncontract InvoiceTracker is Owned {\n    /// @dev Invoice struct\n    struct Invoice {\n        uint256 invoiceNumber;\n        uint256 netTerms; // 30, 60 90, 120 days net\n        uint256 numberHours;\n        string amount;\n        uint256 timesheetEndDate;\n        uint256 invoiceSentDate;\n        uint256 due30DaysDate;\n        uint256 due60DaysDate;\n        uint256 due90DaysDate;\n        uint256 due120DaysDate;\n        uint256 datePmtReceived;\n    }\n\n    /// @dev Client struct\n    struct Client {\n        address clientID;\n        string name;\n        bool flag;\n    }\n\n    /// @dev User struct\n    struct User {\n      bytes32 name;\n      bytes32 ePwd;\n      bool flag;\n    }\n\n    /// @dev map the name of the client to the Client struct\n    mapping(string => Client) private clientMap;\n    /// @dev map the user address to the User struct\n    mapping(address => User) private usersMap;\n    /// @dev map the user address to the client ID\n    mapping(address => address) private userClientIDMap;\n    /// @dev map the user name to his Clients.\n    mapping(address => Client[]) private usersToClientsMap;\n    /// @dev map the user address to the number of his Clients.\n    mapping(address => int256) private userToNumClientsMap;\n\n    /// @dev array of client names.\n    // string[] private clientNameArray;\n\n    /// @dev map the name of the client to the client address\n    mapping(string => address) private clientNameAddressMap;\n    /// @dev map the name of the client to invoices. this isa one to many mapping.\n    mapping(string => Invoice[]) private clientNameInvoiceMap;\n    /// @dev map the client name to the invoice numbers.\n    mapping(string => uint256[]) private clientNameInvoiceNumMap;\n    /// @dev map the name of the client to an invoice count\n    mapping(string => uint256) private clientNameInvoiceCountMap;\n\n    /// @author Denis M. Putnam\n    /// @notice The constructor for this contract\n    /// @dev no other details\n    constructor() public payable Owned() {}\n\n    event addClientEvent(address _userAddress, address _clientID, string _name);\n    event duplicateInvoiceEvent(string _clientName, uint256 _invoiceNumber);\n    event duplicateClientEvent(address _userAddress, string _clientID);\n    event addUserEvent(address payable _address, bytes32 _name, bytes32 _pwd);\n\n    /// @author Denis M. Putnam\n    /// @notice Check for no client.\n    /// @param _clientName name of the client.\n    /// @param _clientID clients wallet address.\n    /// @dev no other details.\n    function isNoClient(address _userAddress, string memory _clientName, address _clientID)\n        public\n        payable\n        returns (bool)\n    {\n        if (clientNameAddressMap[_clientName] == _clientID && userClientIDMap[_userAddress] == _clientID) {\n            emit duplicateClientEvent(_userAddress, _clientName);\n            return false;\n        }\n        return true;\n    }\n\n    modifier noDupClient(address _userAddress, address _clientID, string memory _clientName) {\n        require(isNoClient(_userAddress, _clientName, _clientID), \"Client already exists for the given user\");\n        _;\n    }\n\n    modifier noDupUser(address _address) {\n      require(usersMap[_address].flag == false, \"User already exists\");\n      _;\n    }\n\n    /// @author Denis M. Putnam\n    /// @notice Add a user\n    /// @param _address wallet account address for the user\n    /// @param _name user name\n    /// @param _pwd unencrypted password\n    /// @dev no other details.\n    function addUser(address payable _address, bytes32 _name, bytes32 _pwd) public noDupUser(_address) {\n      bytes32 epwd = keccak256(abi.encodePacked(_pwd));\n      usersMap[_address] = User(_name,epwd,true);\n      emit addUserEvent(_address, _name, _pwd);\n    }\n\n    /// @author Denis M. Putnam\n    /// @notice Add a client to this contract.\n    /// @param _userAddress user address\n    /// @param _clientID address of the wallet of the client.\n    /// @param _name string with the client's name.  This needs to be unique\n    /// @dev Add's a client to the clientMap and the clientNameAddressMap\n    function addClient(address _userAddress,address _clientID, string memory _name)\n        public\n        noDupClient(_userAddress, _clientID, _name)\n    {\n        clientMap[_name].clientID = _clientID;\n        clientMap[_name].name = _name;\n        clientMap[_name].flag = true;\n\n        // clientNameArray.push(_name);\n\n        clientNameAddressMap[_name] = _clientID;\n        clientNameInvoiceCountMap[_name] = 0;\n        userClientIDMap[_userAddress] = _clientID;\n        usersToClientsMap[_userAddress].push(Client(_clientID, _name, true));\n        userToNumClientsMap[_userAddress] += 1;\n        emit addClientEvent(_userAddress, _clientID, _name);\n    }\n\n    /// @author Denis M. Putnam\n    /// @notice Get the requested client\n    /// @param _userAddress user address\n    /// @param _name client's name\n    /// @dev Get the client for the given name.\n    /// @return name\n    /// @return clientID\n    function getClientByName(address _userAddress, string memory _name)\n        public\n        view\n        userOnly(_userAddress, _name)\n        returns (string memory name, address clientID)\n    {\n        string memory lname = clientMap[_name].name;\n        address lclientID = clientMap[_name].clientID;\n        return (lname, lclientID);\n    }\n\n    /// @author Denis M. Putnam\n    /// @notice Get the user name\n    /// @param _userAddress user address\n    /// @dev Get the client for the given name.\n    /// @return name\n    function getUserName(address _userAddress) public view returns (bytes32 name) {\n      return usersMap[_userAddress].name;\n    }\n\n    // /// @author Denis M. Putnam\n    // /// @notice get the client by index number.\n    // /// @param _index index of client name\n    // /// @dev no further info\n    // /// @return name\n    // /// @return clientID\n    // function getClientByIndex(uint256 _index)\n    //     public\n    //     view\n    //     returns (string memory name, address clientID)\n    // {\n    //     string memory lclientName = clientNameArray[_index];\n    //     string memory lname = clientMap[lclientName].name;\n    //     address lclientID = clientMap[lclientName].clientID;\n    //     return (lname, lclientID);\n    // }\n\n    function getClientCount(address _userAddress) public view returns (int256 count) {\n        //return clientNameArray.length;\n        return userToNumClientsMap[_userAddress];\n    }\n\n    /// @author Denis M. Putnam\n    /// @notice Check for no duplicate invoice.\n    /// @param _clientName name of the client.\n    /// @param _invoiceNumber invoice number.\n    /// @dev no other details.\n    function isNoDuplicateInvoice(\n        string memory _clientName,\n        uint256 _invoiceNumber\n    ) public payable returns (bool) {\n        for (uint256 i = 0; i < clientNameInvoiceCountMap[_clientName]; i++) {\n            // if (_invoiceNumber == clientInvoiceMap[_clientName][i]) {\n            //     return false;\n            // }\n            if (\n                _invoiceNumber ==\n                clientNameInvoiceMap[_clientName][i].invoiceNumber\n            ) {\n                return false;\n            }\n        }\n        return true;\n    }\n\n    modifier noDupInvoice(string memory _clientName, uint256 _invoiceNumber) {\n        bool flag = isNoDuplicateInvoice(_clientName, _invoiceNumber);\n        if(flag == false) {\n            emit duplicateInvoiceEvent(_clientName, _invoiceNumber);\n        }\n        require(\n            flag,\n            \"Duplicate invoice\"\n        );\n        _;\n    }\n\n    event addInvoiceEvent(\n        string _clientName,\n        uint256 _invoiceNumber,\n        uint256 _netTerms,\n        uint256 _numberHours,\n        string _amount,\n        uint256 _timesheetEndDate,\n        uint256 _invoiceSentDate,\n        uint256 _due30DaysDate,\n        uint256 _due60DaysDate,\n        uint256 _due90DaysDate,\n        uint256 _due120DaysDate,\n        uint256 _datePmtReceived\n    );\n\n    event updateInvoiceEvent(\n        string _clientName,\n        uint256 _invoiceNumber,\n        uint256 _datePmtReceived\n    );\n\n    modifier userOnly(address _userAddress, string  memory _clientName) {\n      address _clientID = clientMap[_clientName].clientID;\n      require(\n        (userClientIDMap[_userAddress] == _clientID) == false,\n       \"User and client are not related\");\n      _;\n    }\n\n\n    // /// @author Denis M. Putnam\n    // /// @notice Add an invoice to track\n    // /// @param _userAddress user address\n    // /// @param _clientName name of the client\n    // /// @param _invoiceNumber invoice number\n    // /// @param _netTerms net terms for 30, 60, 90, or 120 days.\n    // /// @param _numberHours number of hours for the timesheet.\n    // /// @param _amount amount in dollars.\n    // /// @param _timesheetEndDate timesheet end date\n    // /// @param _invoiceSentDate date that invoice was sent to the client.\n    // /// @param _due30DaysDate 30 day invoice due date\n    // /// @param _due60DaysDate 60 day invoice due date\n    // /// @param _due90DaysDate 90 day invoice due date\n    // /// @param _due120DaysDate 120 day invoice due date\n    // /// @dev Add's an invoice to be tracked.\n    // function addInvoice(\n    //     address _userAddress,\n    //     string memory _clientName,\n    //     uint256 _invoiceNumber,\n    //     uint256 _netTerms,\n    //     uint256 _numberHours,\n    //     string memory _amount,\n    //     uint256 _timesheetEndDate,\n    //     uint256 _invoiceSentDate,\n    //     uint256 _due30DaysDate,\n    //     uint256 _due60DaysDate,\n    //     uint256 _due90DaysDate,\n    //     uint256 _due120DaysDate\n    // ) public userOnly(_userAddress, _clientName) noDupInvoice(_clientName, _invoiceNumber) {\n    //     Invoice memory newInvoice;\n    //     newInvoice.invoiceNumber = _invoiceNumber;\n    //     newInvoice.netTerms = _netTerms;\n    //     newInvoice.numberHours = _numberHours;\n    //     newInvoice.amount = _amount;\n    //     newInvoice.timesheetEndDate = _timesheetEndDate;\n    //     newInvoice.invoiceSentDate = _invoiceSentDate;\n    //     newInvoice.due30DaysDate = _due30DaysDate;\n    //     newInvoice.due60DaysDate = _due60DaysDate;\n    //     newInvoice.due90DaysDate = _due90DaysDate;\n    //     newInvoice.due120DaysDate = _due120DaysDate;\n    //     // Invoice memory newInvoice = Invoice(\n    //     //                                     _invoiceNumber,\n    //     //                                     _netTerms,\n    //     //                                     _numberHours,\n    //     //                                     _amount,\n    //     //                                     _timesheetEndDate,\n    //     //                                     _invoiceSentDate,\n    //     //                                     _due30DaysDate,\n    //     //                                     _due60DaysDate,\n    //     //                                     _due90DaysDate,\n    //     //                                     _due120DaysDate,\n    //     //                                     0);\n    //     clientNameInvoiceMap[_clientName].push(newInvoice);\n    //     clientNameInvoiceNumMap[_clientName].push(_invoiceNumber);\n\n    //     incremmentInvoiceCount(_clientName);\n\n    //     emit addInvoiceEvent(\n    //         _clientName,\n    //         newInvoice.invoiceNumber,\n    //         newInvoice.netTerms,\n    //         newInvoice.numberHours,\n    //         newInvoice.amount,\n    //         newInvoice.timesheetEndDate,\n    //         newInvoice.invoiceSentDate,\n    //         newInvoice.due30DaysDate,\n    //         newInvoice.due60DaysDate,\n    //         newInvoice.due90DaysDate,\n    //         newInvoice.due120DaysDate,\n    //         newInvoice.datePmtReceived\n    //     );\n\n    //     // emit addInvoiceEvent(\n    //     //     _clientName,\n    //     //     clientNameInvoiceMap[_clientName][0].invoiceNumber,\n    //     //     clientNameInvoiceMap[_clientName][0].netTerms,\n    //     //     clientNameInvoiceMap[_clientName][0].numberHours,\n    //     //     clientNameInvoiceMap[_clientName][0].amount,\n    //     //     clientNameInvoiceMap[_clientName][0].timesheetEndDate,\n    //     //     clientNameInvoiceMap[_clientName][0].invoiceSentDate,\n    //     //     clientNameInvoiceMap[_clientName][0].due30DaysDate,\n    //     //     clientNameInvoiceMap[_clientName][0].due60DaysDate,\n    //     //     clientNameInvoiceMap[_clientName][0].due90DaysDate,\n    //     //     clientNameInvoiceMap[_clientName][0].due120DaysDate,\n    //     //     clientNameInvoiceMap[_clientName][0].datePmtReceived\n    //     // );\n    // }\n\n    /// @author Denis M. Putnam\n    /// @notice Add an invoice to track\n    /// @param _userAddress user address\n    /// @param _clientName name of the client\n    /// @param _invoiceNumber invoice number\n    /// @param _netTerms net terms for 30, 60, 90, or 120 days.\n    /// @param _numberHours number of hours for the timesheet.\n    /// @param _amount amount in dollars.\n    /// @param _dates array of dates for timesheetEndDate, invoiceSentDate, due30DaysDate, due60DaysDate, due90DaysDate, due120DaysDate\n    /// @dev Add's an invoice to be tracked.\n    function addInvoice(\n        address _userAddress,\n        string memory _clientName,\n        uint256 _invoiceNumber,\n        uint256 _netTerms,\n        uint256 _numberHours,\n        string memory _amount,\n        uint256[] memory _dates\n    ) public userOnly(_userAddress, _clientName) noDupInvoice(_clientName, _invoiceNumber) {\n        Invoice memory newInvoice;\n        newInvoice.invoiceNumber = _invoiceNumber;\n        newInvoice.netTerms = _netTerms;\n        newInvoice.numberHours = _numberHours;\n        newInvoice.amount = _amount;\n        newInvoice.timesheetEndDate = _dates[0]; // timesheetEndDate\n        newInvoice.invoiceSentDate = _dates[1]; // invoiceSentDate\n        newInvoice.due30DaysDate = _dates[2]; // due30DaysDate\n        newInvoice.due60DaysDate = _dates[3]; // due60DaysDate\n        newInvoice.due90DaysDate = _dates[4]; // due90DaysDate\n        newInvoice.due120DaysDate = _dates[5]; // due120DaysDate\n        clientNameInvoiceMap[_clientName].push(newInvoice);\n        clientNameInvoiceNumMap[_clientName].push(_invoiceNumber);\n\n        incremmentInvoiceCount(_clientName);\n\n        emit addInvoiceEvent(\n            _clientName,\n            newInvoice.invoiceNumber,\n            newInvoice.netTerms,\n            newInvoice.numberHours,\n            newInvoice.amount,\n            newInvoice.timesheetEndDate,\n            newInvoice.invoiceSentDate,\n            newInvoice.due30DaysDate,\n            newInvoice.due60DaysDate,\n            newInvoice.due90DaysDate,\n            newInvoice.due120DaysDate,\n            newInvoice.datePmtReceived\n        );\n    }\n\n    function incremmentInvoiceCount(string memory _clientName)\n        private\n        returns (uint256)\n    {\n        return clientNameInvoiceCountMap[_clientName] += 1;\n    }\n\n    /// @author Denis M. Putnam\n    /// @notice Get the count of invoices associated with the given client name\n    /// @param _userAddress user address\n    /// @param _clientName name of the client\n    /// @dev no other details.\n    /// @return count of invoices associated with the given client\n    function getInvoiceCount(address _userAddress, string memory _clientName)\n        public\n        view\n        userOnly(_userAddress, _clientName)\n        returns (uint256 count)\n    {\n        count = clientNameInvoiceCountMap[_clientName];\n    }\n\n    /// @author Denis M. Putnam\n    /// @notice Get the list of invoice numbers as a string for the given client name.\n    /// @param _userAddress user address\n    /// @param _clientName name of the client\n    /// @dev returned string is a comma separated string of invoice numbers.  The comma is also the end of the string if no other values appear.\n    /// @return a comma seperated list of invoice numbers associated with the client.\n    function getInvoiceNumbers(address _userAddress, string memory _clientName)\n        public\n        view\n        userOnly(_userAddress, _clientName)\n        returns (uint256[] memory)\n    {\n        // string memory rVal = \"\";\n        // for (uint256 i = 0; i < clientNameInvoiceCountMap[_clientName]; i++) {\n        //     string memory tstring = uint2str(\n        //         clientNameInvoiceMap[_clientName][i].invoiceNumber\n        //     );\n        //     // string tstring = string(lbytes32);\n        //     //rVal = string(abi.encodePacked(rVal, tstring, \",\"));\n        //     rVal = string(abi.encodePacked(rVal, tstring, \",\"));\n        // }\n        return clientNameInvoiceNumMap[_clientName];\n    }\n\n    modifier isInvoiceNumber(uint256 _invoiceNumber) {\n        require(_invoiceNumber > 0, \"Invoice number must be greater than 0\");\n        _;\n    }\n\n    function findInvoiceIndex(address _userAddress, string memory _clientName, uint256 _invoiceNumber)\n        private\n        view\n        userOnly(_userAddress, _clientName)\n        isInvoiceNumber(_invoiceNumber)\n        returns (int256 index)\n    {\n        for (\n            int256 i = 0;\n            i < int256(clientNameInvoiceCountMap[_clientName]);\n            i++\n        ) {\n            //clientNameInvoiceMap\n            if (\n                _invoiceNumber ==\n                clientNameInvoiceMap[_clientName][uint256(i)].invoiceNumber\n            ) {\n                return i;\n            }\n        }\n        return -1;\n    }\n\n    /// @author Denis M. Putnam\n    /// @notice Update an invoice with the payment date\n    /// @param _userAddress user address\n    /// @param _clientName name of the client\n    /// @param _invoiceNumber invoice number being requested.\n    /// @param _invoicePmtDate payment date\n    /// @dev no other details\n    function updateInvoice(\n        address _userAddress,\n        string memory _clientName,\n        uint256 _invoiceNumber,\n        uint256 _invoicePmtDate\n    ) public userOnly(_userAddress, _clientName){\n        int256 _index = findInvoiceIndex(_userAddress, _clientName, _invoiceNumber);\n        if (_index != -1) {\n            Invoice memory lInvoice = clientNameInvoiceMap[_clientName][uint256(\n                _index\n            )];\n            lInvoice.datePmtReceived = _invoicePmtDate;\n            clientNameInvoiceMap[_clientName][uint256(_index)] = lInvoice;\n            emit updateInvoiceEvent(\n                _clientName,\n                _invoiceNumber,\n                _invoicePmtDate\n            );\n        }\n    }\n\n    // /// @author Denis M. Putnam\n    // /// @notice Get an invoice\n    // /// @param _userAddress user address\n    // /// @param _clientName name of the client\n    // /// @param _invoiceNumber invoice number being requested.\n    // /// @dev no other details\n    // /// @return invoiceNumber\n    // /// @return netTerms\n    // /// @return numberHours\n    // /// @return amount\n    // /// @return timesheetEndDate\n    // /// @return invoiceSentDate\n    // /// @return due30DaysDate\n    // /// @return due60DaysDate\n    // /// @return due90DaysDate\n    // /// @return due120DaysDate\n    // /// @return datePmtReceived\n    // function getInvoice(address _userAddress, string memory _clientName, uint256 _invoiceNumber)\n    //     public\n    //     view\n    //     userOnly(_userAddress, _clientName)\n    //     returns (\n    //         uint256 invoiceNumber,\n    //         uint256 netTerms,\n    //         uint256 numberHours,\n    //         string memory amount,\n    //         uint256 timesheetEndDate,\n    //         uint256 invoiceSentDate,\n    //         uint256 due30DaysDate,\n    //         uint256 due60DaysDate,\n    //         uint256 due90DaysDate,\n    //         uint256 due120DaysDate,\n    //         uint256 datePmtReceived\n    //     )\n    // {\n    //     int256 _index = findInvoiceIndex(_userAddress, _clientName, _invoiceNumber);\n    //     if (_index != -1) {\n    //         Invoice memory lInvoice = clientNameInvoiceMap[_clientName][uint256(\n    //             _index\n    //         )];\n    //         return (\n    //             lInvoice.invoiceNumber,\n    //             lInvoice.netTerms,\n    //             lInvoice.numberHours,\n    //             lInvoice.amount,\n    //             lInvoice.timesheetEndDate,\n    //             lInvoice.invoiceSentDate,\n    //             lInvoice.due30DaysDate,\n    //             lInvoice.due60DaysDate,\n    //             lInvoice.due90DaysDate,\n    //             lInvoice.due120DaysDate,\n    //             lInvoice.datePmtReceived\n    //         );\n    //         // return (\n    //         //     invoiceNumber,\n    //         //     netTerms,\n    //         //     numberHours,\n    //         //     amount,\n    //         //     timesheetEndDate,\n    //         //     invoiceSentDate,\n    //         //     due30DaysDate,\n    //         //     due60DaysDate,\n    //         //     due90DaysDate,\n    //         //     due120DaysDate,\n    //         //     datePmtReceived\n    //         // );\n    //     }\n    // }\n\n    /// @author Denis M. Putnam\n    /// @notice Get an invoice\n    /// @param _userAddress user address\n    /// @param _clientName name of the client\n    /// @param _invoiceNumber invoice number being requested.\n    /// @dev no other details\n    /// @return invoiceNumber\n    /// @return netTerms\n    /// @return numberHours\n    /// @return amount\n    /// @return dates\n    function getInvoice(address _userAddress, string memory _clientName, uint256 _invoiceNumber)\n        public\n        view\n        userOnly(_userAddress, _clientName)\n        returns (\n            uint256 invoiceNumber,\n            uint256 netTerms,\n            uint256 numberHours,\n            string memory amount,\n            uint256[] memory dates\n            // uint256 timesheetEndDate,\n            // uint256 invoiceSentDate,\n            // uint256 due30DaysDate,\n            // uint256 due60DaysDate,\n            // uint256 due90DaysDate,\n            // uint256 due120DaysDate,\n            // uint256 datePmtReceived\n        )\n    {\n        int256 _index = findInvoiceIndex(_userAddress, _clientName, _invoiceNumber);\n        if (_index != -1) {\n            Invoice memory lInvoice = clientNameInvoiceMap[_clientName][uint256(\n                _index\n            )];\n            invoiceNumber = lInvoice.invoiceNumber;\n            netTerms = lInvoice.netTerms;\n            numberHours = lInvoice.numberHours;\n            amount = lInvoice.amount;\n            dates[0] = lInvoice.timesheetEndDate;\n            dates[1] = lInvoice.invoiceSentDate;\n            dates[2] = lInvoice.due30DaysDate;\n            dates[3] = lInvoice.due60DaysDate;\n            dates[4] = lInvoice.due90DaysDate;\n            dates[5] = lInvoice.due120DaysDate;\n            dates[6] = lInvoice.datePmtReceived;\n            return (\n                invoiceNumber,\n                lInvoice.netTerms,\n                lInvoice.numberHours,\n                lInvoice.amount,\n                dates\n            );\n        }\n    }\n}\n",
  "sourcePath": "/Users/denisputnam/git/invoice-tracker-dapp/contracts/InvoiceTracker.sol",
  "compiler": {
    "name": "solc",
    "version": "0.6.6+commit.6c089d02.Emscripten.clang"
  },
  "schemaVersion": "3.0.23",
  "updatedAt": "2020-07-30T11:35:22.414Z",
  "devdoc": {
    "author": "Denis M. Putnam",
    "details": "Use at your own risk.",
    "methods": {
      "addClient(address,address,string)": {
        "author": "Denis M. Putnam",
        "details": "Add's a client to the clientMap and the clientNameAddressMap",
        "params": {
          "_clientID": "address of the wallet of the client.",
          "_name": "string with the client's name.  This needs to be unique",
          "_userAddress": "user address"
        }
      },
      "addInvoice(address,string,uint256,uint256,uint256,string,uint256[])": {
        "author": "Denis M. Putnam",
        "details": "Add's an invoice to be tracked.",
        "params": {
          "_amount": "amount in dollars.",
          "_clientName": "name of the client",
          "_dates": "array of dates for timesheetEndDate, invoiceSentDate, due30DaysDate, due60DaysDate, due90DaysDate, due120DaysDate",
          "_invoiceNumber": "invoice number",
          "_netTerms": "net terms for 30, 60, 90, or 120 days.",
          "_numberHours": "number of hours for the timesheet.",
          "_userAddress": "user address"
        }
      },
      "addUser(address,bytes32,bytes32)": {
        "author": "Denis M. Putnam",
        "details": "no other details.",
        "params": {
          "_address": "wallet account address for the user",
          "_name": "user name",
          "_pwd": "unencrypted password"
        }
      },
      "changeOwner(address)": {
        "author": "Denis M. Putnam",
        "details": "No other details.",
        "params": {
          "newOwner": "new address payable owner."
        }
      },
      "constructor": {
        "author": "Denis M. Putnam",
        "details": "no other details"
      },
      "getClientByName(address,string)": {
        "author": "Denis M. Putnam",
        "details": "Get the client for the given name.",
        "params": {
          "_name": "client's name",
          "_userAddress": "user address"
        },
        "returns": {
          "clientID": "clientID",
          "name": "name"
        }
      },
      "getCurrentOwner()": {
        "author": "Denis M. Putnam",
        "details": "No other details.",
        "returns": {
          "_0": "address current owner."
        }
      },
      "getInvoice(address,string,uint256)": {
        "author": "Denis M. Putnam",
        "details": "no other details",
        "params": {
          "_clientName": "name of the client",
          "_invoiceNumber": "invoice number being requested.",
          "_userAddress": "user address"
        },
        "returns": {
          "amount": "amount",
          "dates": "dates",
          "invoiceNumber": "invoiceNumber",
          "netTerms": "netTerms",
          "numberHours": "numberHours"
        }
      },
      "getInvoiceCount(address,string)": {
        "author": "Denis M. Putnam",
        "details": "no other details.",
        "params": {
          "_clientName": "name of the client",
          "_userAddress": "user address"
        },
        "returns": {
          "count": "of invoices associated with the given client"
        }
      },
      "getInvoiceNumbers(address,string)": {
        "author": "Denis M. Putnam",
        "details": "returned string is a comma separated string of invoice numbers.  The comma is also the end of the string if no other values appear.",
        "params": {
          "_clientName": "name of the client",
          "_userAddress": "user address"
        },
        "returns": {
          "_0": "a comma seperated list of invoice numbers associated with the client."
        }
      },
      "getUserName(address)": {
        "author": "Denis M. Putnam",
        "details": "Get the client for the given name.",
        "params": {
          "_userAddress": "user address"
        },
        "returns": {
          "name": "name"
        }
      },
      "isNoClient(address,string,address)": {
        "author": "Denis M. Putnam",
        "details": "no other details.",
        "params": {
          "_clientID": "clients wallet address.",
          "_clientName": "name of the client."
        }
      },
      "isNoDuplicateInvoice(string,uint256)": {
        "author": "Denis M. Putnam",
        "details": "no other details.",
        "params": {
          "_clientName": "name of the client.",
          "_invoiceNumber": "invoice number."
        }
      },
      "updateInvoice(address,string,uint256,uint256)": {
        "author": "Denis M. Putnam",
        "details": "no other details",
        "params": {
          "_clientName": "name of the client",
          "_invoiceNumber": "invoice number being requested.",
          "_invoicePmtDate": "payment date",
          "_userAddress": "user address"
        }
      }
    },
    "title": "Invoice Tracking contract"
  },
  "userdoc": {
    "methods": {
      "addClient(address,address,string)": {
        "notice": "Add a client to this contract."
      },
      "addInvoice(address,string,uint256,uint256,uint256,string,uint256[])": {
        "notice": "Add an invoice to track"
      },
      "addUser(address,bytes32,bytes32)": {
        "notice": "Add a user"
      },
      "changeOwner(address)": {
        "notice": "Change the current owner to the new owner."
      },
      "constructor": "The constructor for this contract",
      "getClientByName(address,string)": {
        "notice": "Get the requested client"
      },
      "getCurrentOwner()": {
        "notice": "Get the current owner."
      },
      "getInvoice(address,string,uint256)": {
        "notice": "Get an invoice"
      },
      "getInvoiceCount(address,string)": {
        "notice": "Get the count of invoices associated with the given client name"
      },
      "getInvoiceNumbers(address,string)": {
        "notice": "Get the list of invoice numbers as a string for the given client name."
      },
      "getUserName(address)": {
        "notice": "Get the user name"
      },
      "isNoClient(address,string,address)": {
        "notice": "Check for no client."
      },
      "isNoDuplicateInvoice(string,uint256)": {
        "notice": "Check for no duplicate invoice."
      },
      "updateInvoice(address,string,uint256,uint256)": {
        "notice": "Update an invoice with the payment date"
      }
    },
    "notice": "This contract tracks invoices for payment"
  }
}