{
  "contractName": "InvoiceTracker",
  "abi": [
    {
      "inputs": [],
      "stateMutability": "payable",
      "type": "constructor"
    },
    {
      "anonymous": false,
      "inputs": [
        {
          "indexed": false,
          "internalType": "address",
          "name": "_clientID",
          "type": "address"
        },
        {
          "indexed": false,
          "internalType": "string",
          "name": "_name",
          "type": "string"
        }
      ],
      "name": "addClientEvent",
      "type": "event"
    },
    {
      "anonymous": false,
      "inputs": [
        {
          "indexed": false,
          "internalType": "string",
          "name": "_clientName",
          "type": "string"
        },
        {
          "indexed": false,
          "internalType": "uint256",
          "name": "_invoiceNumber",
          "type": "uint256"
        },
        {
          "indexed": false,
          "internalType": "uint256",
          "name": "_netTerms",
          "type": "uint256"
        },
        {
          "indexed": false,
          "internalType": "uint256",
          "name": "_numberHours",
          "type": "uint256"
        },
        {
          "indexed": false,
          "internalType": "string",
          "name": "_amount",
          "type": "string"
        },
        {
          "indexed": false,
          "internalType": "uint256",
          "name": "_timesheetEndDate",
          "type": "uint256"
        },
        {
          "indexed": false,
          "internalType": "uint256",
          "name": "_invoiceSentDate",
          "type": "uint256"
        },
        {
          "indexed": false,
          "internalType": "uint256",
          "name": "_due30DaysDate",
          "type": "uint256"
        },
        {
          "indexed": false,
          "internalType": "uint256",
          "name": "_due60DaysDate",
          "type": "uint256"
        },
        {
          "indexed": false,
          "internalType": "uint256",
          "name": "_due90DaysDate",
          "type": "uint256"
        },
        {
          "indexed": false,
          "internalType": "uint256",
          "name": "_due120DaysDate",
          "type": "uint256"
        },
        {
          "indexed": false,
          "internalType": "uint256",
          "name": "_datePmtReceived",
          "type": "uint256"
        }
      ],
      "name": "addInvoiceEvent",
      "type": "event"
    },
    {
      "anonymous": false,
      "inputs": [
        {
          "indexed": false,
          "internalType": "string",
          "name": "_clientID",
          "type": "string"
        }
      ],
      "name": "duplicateClientEvent",
      "type": "event"
    },
    {
      "anonymous": false,
      "inputs": [
        {
          "indexed": false,
          "internalType": "string",
          "name": "_clientName",
          "type": "string"
        },
        {
          "indexed": false,
          "internalType": "uint256",
          "name": "_invoiceNumber",
          "type": "uint256"
        }
      ],
      "name": "duplicateInvoiceEvent",
      "type": "event"
    },
    {
      "anonymous": false,
      "inputs": [
        {
          "indexed": false,
          "internalType": "string",
          "name": "_clientName",
          "type": "string"
        },
        {
          "indexed": false,
          "internalType": "uint256",
          "name": "_invoiceNumber",
          "type": "uint256"
        },
        {
          "indexed": false,
          "internalType": "uint256",
          "name": "_datePmtReceived",
          "type": "uint256"
        }
      ],
      "name": "updateInvoiceEvent",
      "type": "event"
    },
    {
      "inputs": [
        {
          "internalType": "address payable",
          "name": "newOwner",
          "type": "address"
        }
      ],
      "name": "changeOwner",
      "outputs": [],
      "stateMutability": "nonpayable",
      "type": "function"
    },
    {
      "inputs": [],
      "name": "getCurrentOwner",
      "outputs": [
        {
          "internalType": "address",
          "name": "",
          "type": "address"
        }
      ],
      "stateMutability": "view",
      "type": "function"
    },
    {
      "inputs": [
        {
          "internalType": "string",
          "name": "_clientName",
          "type": "string"
        },
        {
          "internalType": "address",
          "name": "_clientID",
          "type": "address"
        }
      ],
      "name": "isNoClient",
      "outputs": [
        {
          "internalType": "bool",
          "name": "",
          "type": "bool"
        }
      ],
      "stateMutability": "payable",
      "type": "function"
    },
    {
      "inputs": [
        {
          "internalType": "address",
          "name": "_clientID",
          "type": "address"
        },
        {
          "internalType": "string",
          "name": "_name",
          "type": "string"
        }
      ],
      "name": "addClient",
      "outputs": [],
      "stateMutability": "nonpayable",
      "type": "function"
    },
    {
      "inputs": [
        {
          "internalType": "string",
          "name": "_name",
          "type": "string"
        }
      ],
      "name": "getClientByName",
      "outputs": [
        {
          "internalType": "string",
          "name": "name",
          "type": "string"
        },
        {
          "internalType": "address",
          "name": "clientID",
          "type": "address"
        }
      ],
      "stateMutability": "view",
      "type": "function"
    },
    {
      "inputs": [
        {
          "internalType": "uint256",
          "name": "_index",
          "type": "uint256"
        }
      ],
      "name": "getClientByIndex",
      "outputs": [
        {
          "internalType": "string",
          "name": "name",
          "type": "string"
        },
        {
          "internalType": "address",
          "name": "clientID",
          "type": "address"
        }
      ],
      "stateMutability": "view",
      "type": "function"
    },
    {
      "inputs": [],
      "name": "getClientCount",
      "outputs": [
        {
          "internalType": "uint256",
          "name": "count",
          "type": "uint256"
        }
      ],
      "stateMutability": "view",
      "type": "function"
    },
    {
      "inputs": [
        {
          "internalType": "string",
          "name": "_clientName",
          "type": "string"
        },
        {
          "internalType": "uint256",
          "name": "_invoiceNumber",
          "type": "uint256"
        }
      ],
      "name": "isNoDuplicateInvoice",
      "outputs": [
        {
          "internalType": "bool",
          "name": "",
          "type": "bool"
        }
      ],
      "stateMutability": "payable",
      "type": "function"
    },
    {
      "inputs": [
        {
          "internalType": "string",
          "name": "_clientName",
          "type": "string"
        },
        {
          "internalType": "uint256",
          "name": "_invoiceNumber",
          "type": "uint256"
        },
        {
          "internalType": "uint256",
          "name": "_netTerms",
          "type": "uint256"
        },
        {
          "internalType": "uint256",
          "name": "_numberHours",
          "type": "uint256"
        },
        {
          "internalType": "string",
          "name": "_amount",
          "type": "string"
        },
        {
          "internalType": "uint256",
          "name": "_timesheetEndDate",
          "type": "uint256"
        },
        {
          "internalType": "uint256",
          "name": "_invoiceSentDate",
          "type": "uint256"
        },
        {
          "internalType": "uint256",
          "name": "_due30DaysDate",
          "type": "uint256"
        },
        {
          "internalType": "uint256",
          "name": "_due60DaysDate",
          "type": "uint256"
        },
        {
          "internalType": "uint256",
          "name": "_due90DaysDate",
          "type": "uint256"
        },
        {
          "internalType": "uint256",
          "name": "_due120DaysDate",
          "type": "uint256"
        }
      ],
      "name": "addInvoice",
      "outputs": [],
      "stateMutability": "nonpayable",
      "type": "function"
    },
    {
      "inputs": [
        {
          "internalType": "string",
          "name": "_clientName",
          "type": "string"
        }
      ],
      "name": "getInvoiceCount",
      "outputs": [
        {
          "internalType": "uint256",
          "name": "count",
          "type": "uint256"
        }
      ],
      "stateMutability": "view",
      "type": "function"
    },
    {
      "inputs": [
        {
          "internalType": "string",
          "name": "_clientName",
          "type": "string"
        }
      ],
      "name": "getInvoiceNumbers",
      "outputs": [
        {
          "internalType": "uint256[]",
          "name": "",
          "type": "uint256[]"
        }
      ],
      "stateMutability": "view",
      "type": "function"
    },
    {
      "inputs": [
        {
          "internalType": "string",
          "name": "_clientName",
          "type": "string"
        },
        {
          "internalType": "uint256",
          "name": "_invoiceNumber",
          "type": "uint256"
        },
        {
          "internalType": "uint256",
          "name": "_invoicePmtDate",
          "type": "uint256"
        }
      ],
      "name": "updateInvoice",
      "outputs": [],
      "stateMutability": "nonpayable",
      "type": "function"
    },
    {
      "inputs": [
        {
          "internalType": "string",
          "name": "_clientName",
          "type": "string"
        },
        {
          "internalType": "uint256",
          "name": "_invoiceNumber",
          "type": "uint256"
        }
      ],
      "name": "getInvoice",
      "outputs": [
        {
          "internalType": "uint256",
          "name": "invoiceNumber",
          "type": "uint256"
        },
        {
          "internalType": "uint256",
          "name": "netTerms",
          "type": "uint256"
        },
        {
          "internalType": "uint256",
          "name": "numberHours",
          "type": "uint256"
        },
        {
          "internalType": "string",
          "name": "amount",
          "type": "string"
        },
        {
          "internalType": "uint256",
          "name": "timesheetEndDate",
          "type": "uint256"
        },
        {
          "internalType": "uint256",
          "name": "invoiceSentDate",
          "type": "uint256"
        },
        {
          "internalType": "uint256",
          "name": "due30DaysDate",
          "type": "uint256"
        },
        {
          "internalType": "uint256",
          "name": "due60DaysDate",
          "type": "uint256"
        },
        {
          "internalType": "uint256",
          "name": "due90DaysDate",
          "type": "uint256"
        },
        {
          "internalType": "uint256",
          "name": "due120DaysDate",
          "type": "uint256"
        },
        {
          "internalType": "uint256",
          "name": "datePmtReceived",
          "type": "uint256"
        }
      ],
      "stateMutability": "view",
      "type": "function"
    }
  ],
  "bytecode": "0x6080604052336000806101000a81548173ffffffffffffffffffffffffffffffffffffffff021916908373ffffffffffffffffffffffffffffffffffffffff160217905550612d29806100536000396000f3fe6080604052600436106100c25760003560e01c806388e65fd71161007f578063b944ef3411610059578063b944ef3414610832578063ba76f1311461094f578063db9641b114610a2b578063e292ec0814610be5576100c2565b806388e65fd7146106ae578063a18a186b1461078a578063a6f9dae1146107e1576100c2565b806328b5516c146100c75780634f655bdc146101a457806355cdf7a5146102975780635a81018a1461040b578063823d850014610436578063870e042e146105c7575b600080fd5b61018a600480360360408110156100dd57600080fd5b81019080803590602001906401000000008111156100fa57600080fd5b82018360208201111561010c57600080fd5b8035906020019184600183028401116401000000008311171561012e57600080fd5b91908080601f016020809104026020016040519081016040528093929190818152602001838380828437600081840152601f19601f82011690508083019250505050505050919291929080359060200190929190505050610ccd565b604051808215151515815260200191505060405180910390f35b61027d600480360360408110156101ba57600080fd5b81019080803590602001906401000000008111156101d757600080fd5b8201836020820111156101e957600080fd5b8035906020019184600183028401116401000000008311171561020b57600080fd5b91908080601f016020809104026020016040519081016040528093929190818152602001838380828437600081840152601f19601f820116905080830192505050505050509192919290803573ffffffffffffffffffffffffffffffffffffffff169060200190929190505050610df6565b604051808215151515815260200191505060405180910390f35b3480156102a357600080fd5b5061035d600480360360208110156102ba57600080fd5b81019080803590602001906401000000008111156102d757600080fd5b8201836020820111156102e957600080fd5b8035906020019184600183028401116401000000008311171561030b57600080fd5b91908080601f016020809104026020016040519081016040528093929190818152602001838380828437600081840152601f19601f820116905080830192505050505050509192919290505050610f65565b60405180806020018373ffffffffffffffffffffffffffffffffffffffff1673ffffffffffffffffffffffffffffffffffffffff168152602001828103825284818151815260200191508051906020019080838360005b838110156103cf5780820151818401526020810190506103b4565b50505050905090810190601f1680156103fc5780820380516001836020036101000a031916815260200191505b50935050505060405180910390f35b34801561041757600080fd5b50610420611110565b6040518082815260200191505060405180910390f35b34801561044257600080fd5b506105066004803603604081101561045957600080fd5b810190808035906020019064010000000081111561047657600080fd5b82018360208201111561048857600080fd5b803590602001918460018302840111640100000000831117156104aa57600080fd5b91908080601f016020809104026020016040519081016040528093929190818152602001838380828437600081840152601f19601f8201169050808301925050505050505091929192908035906020019092919050505061111d565b604051808c81526020018b81526020018a81526020018060200189815260200188815260200187815260200186815260200185815260200184815260200183815260200182810382528a818151815260200191508051906020019080838360005b83811015610582578082015181840152602081019050610567565b50505050905090810190601f1680156105af5780820380516001836020036101000a031916815260200191505b509c5050505050505050505050505060405180910390f35b3480156105d357600080fd5b50610600600480360360208110156105ea57600080fd5b8101908080359060200190929190505050611410565b60405180806020018373ffffffffffffffffffffffffffffffffffffffff1673ffffffffffffffffffffffffffffffffffffffff168152602001828103825284818151815260200191508051906020019080838360005b83811015610672578082015181840152602081019050610657565b50505050905090810190601f16801561069f5780820380516001836020036101000a031916815260200191505b50935050505060405180910390f35b3480156106ba57600080fd5b50610788600480360360608110156106d157600080fd5b81019080803590602001906401000000008111156106ee57600080fd5b82018360208201111561070057600080fd5b8035906020019184600183028401116401000000008311171561072257600080fd5b91908080601f016020809104026020016040519081016040528093929190818152602001838380828437600081840152601f19601f8201169050808301925050505050505091929192908035906020019092919080359060200190929190505050611670565b005b34801561079657600080fd5b5061079f611ab1565b604051808273ffffffffffffffffffffffffffffffffffffffff1673ffffffffffffffffffffffffffffffffffffffff16815260200191505060405180910390f35b3480156107ed57600080fd5b506108306004803603602081101561080457600080fd5b81019080803573ffffffffffffffffffffffffffffffffffffffff169060200190929190505050611ada565b005b34801561083e57600080fd5b506108f86004803603602081101561085557600080fd5b810190808035906020019064010000000081111561087257600080fd5b82018360208201111561088457600080fd5b803590602001918460018302840111640100000000831117156108a657600080fd5b91908080601f016020809104026020016040519081016040528093929190818152602001838380828437600081840152601f19601f820116905080830192505050505050509192919290505050611bc2565b6040518080602001828103825283818151815260200191508051906020019060200280838360005b8381101561093b578082015181840152602081019050610920565b505050509050019250505060405180910390f35b34801561095b57600080fd5b50610a156004803603602081101561097257600080fd5b810190808035906020019064010000000081111561098f57600080fd5b8201836020820111156109a157600080fd5b803590602001918460018302840111640100000000831117156109c357600080fd5b91908080601f016020809104026020016040519081016040528093929190818152602001838380828437600081840152601f19601f820116905080830192505050505050509192919290505050611d28565b6040518082815260200191505060405180910390f35b348015610a3757600080fd5b50610be36004803603610160811015610a4f57600080fd5b8101908080359060200190640100000000811115610a6c57600080fd5b820183602082011115610a7e57600080fd5b80359060200191846001830284011164010000000083111715610aa057600080fd5b91908080601f016020809104026020016040519081016040528093929190818152602001838380828437600081840152601f19601f82011690508083019250505050505050919291929080359060200190929190803590602001909291908035906020019092919080359060200190640100000000811115610b2157600080fd5b820183602082011115610b3357600080fd5b80359060200191846001830284011164010000000083111715610b5557600080fd5b91908080601f016020809104026020016040519081016040528093929190818152602001838380828437600081840152601f19601f820116905080830192505050505050509192919290803590602001909291908035906020019092919080359060200190929190803590602001909291908035906020019092919080359060200190929190505050611e40565b005b348015610bf157600080fd5b50610ccb60048036036040811015610c0857600080fd5b81019080803573ffffffffffffffffffffffffffffffffffffffff16906020019092919080359060200190640100000000811115610c4557600080fd5b820183602082011115610c5757600080fd5b80359060200191846001830284011164010000000083111715610c7957600080fd5b91908080601f016020809104026020016040519081016040528093929190818152602001838380828437600081840152601f19601f8201169050808301925050505050505091929192905050506123d3565b005b600080600090505b6006846040518082805190602001908083835b60208310610d0b5780518252602082019150602081019050602083039250610ce8565b6001836020036101000a038019825116818451168082178552505050505050905001915050908152602001604051809103902054811015610dea576004846040518082805190602001908083835b60208310610d7c5780518252602082019150602081019050602083039250610d59565b6001836020036101000a03801982511681845116808217855250505050505090500191505090815260200160405180910390208181548110610dba57fe5b90600052602060002090600b020160000154831415610ddd576000915050610df0565b8080600101915050610cd5565b50600190505b92915050565b60008173ffffffffffffffffffffffffffffffffffffffff166003846040518082805190602001908083835b60208310610e455780518252602082019150602081019050602083039250610e22565b6001836020036101000a038019825116818451168082178552505050505050905001915050908152602001604051809103902060009054906101000a900473ffffffffffffffffffffffffffffffffffffffff1673ffffffffffffffffffffffffffffffffffffffff161415610f5a577f6b8d68c6d82cc400897554201a5af0d335980576449ef4be2df782e4c37a824e836040518080602001828103825283818151815260200191508051906020019080838360005b83811015610f17578082015181840152602081019050610efc565b50505050905090810190601f168015610f445780820380516001836020036101000a031916815260200191505b509250505060405180910390a160009050610f5f565b600190505b92915050565b6060600060606001846040518082805190602001908083835b60208310610fa15780518252602082019150602081019050602083039250610f7e565b6001836020036101000a03801982511681845116808217855250505050505090500191505090815260200160405180910390206001018054600181600116156101000203166002900480601f01602080910402602001604051908101604052809291908181526020018280546001816001161561010002031660029004801561106b5780601f106110405761010080835404028352916020019161106b565b820191906000526020600020905b81548152906001019060200180831161104e57829003601f168201915b5050505050905060006001856040518082805190602001908083835b602083106110aa5780518252602082019150602081019050602083039250611087565b6001836020036101000a038019825116818451168082178552505050505050905001915050908152602001604051809103902060000160009054906101000a900473ffffffffffffffffffffffffffffffffffffffff1690508181935093505050915091565b6000600280549050905090565b6000806000606060008060008060008060008060009054906101000a900473ffffffffffffffffffffffffffffffffffffffff1673ffffffffffffffffffffffffffffffffffffffff163373ffffffffffffffffffffffffffffffffffffffff16146111d4576040517f08c379a0000000000000000000000000000000000000000000000000000000008152600401808060200182810382526039815260200180612cbb6039913960400191505060405180910390fd5b60006111e08e8e6128cf565b90507fffffffffffffffffffffffffffffffffffffffffffffffffffffffffffffffff81146113fe57611211612b96565b60048f6040518082805190602001908083835b602083106112475780518252602082019150602081019050602083039250611224565b6001836020036101000a0380198251168184511680821785525050505050509050019150509081526020016040518091039020828154811061128557fe5b90600052602060002090600b020160405180610160016040529081600082015481526020016001820154815260200160028201548152602001600382018054600181600116156101000203166002900480601f0160208091040260200160405190810160405280929190818152602001828054600181600116156101000203166002900480156113565780601f1061132b57610100808354040283529160200191611356565b820191906000526020600020905b81548152906001019060200180831161133957829003601f168201915b50505050508152602001600482015481526020016005820154815260200160068201548152602001600782015481526020016008820154815260200160098201548152602001600a820154815250509050806000015181602001518260400151836060015184608001518560a001518660c001518760e001518861010001518961012001518a61014001519c509c509c509c509c509c509c509c509c509c509c505050611400565b505b9295989b509295989b9093969950565b6060600060606002848154811061142357fe5b906000526020600020018054600181600116156101000203166002900480601f0160208091040260200160405190810160405280929190818152602001828054600181600116156101000203166002900480156114c15780601f10611496576101008083540402835291602001916114c1565b820191906000526020600020905b8154815290600101906020018083116114a457829003601f168201915b5050505050905060606001826040518082805190602001908083835b6020831061150057805182526020820191506020810190506020830392506114dd565b6001836020036101000a03801982511681845116808217855250505050505090500191505090815260200160405180910390206001018054600181600116156101000203166002900480601f0160208091040260200160405190810160405280929190818152602001828054600181600116156101000203166002900480156115ca5780601f1061159f576101008083540402835291602001916115ca565b820191906000526020600020905b8154815290600101906020018083116115ad57829003601f168201915b5050505050905060006001836040518082805190602001908083835b6020831061160957805182526020820191506020810190506020830392506115e6565b6001836020036101000a038019825116818451168082178552505050505050905001915050908152602001604051809103902060000160009054906101000a900473ffffffffffffffffffffffffffffffffffffffff169050818194509450505050915091565b6000809054906101000a900473ffffffffffffffffffffffffffffffffffffffff1673ffffffffffffffffffffffffffffffffffffffff163373ffffffffffffffffffffffffffffffffffffffff1614611715576040517f08c379a0000000000000000000000000000000000000000000000000000000008152600401808060200182810382526039815260200180612cbb6039913960400191505060405180910390fd5b600061172184846128cf565b90507fffffffffffffffffffffffffffffffffffffffffffffffffffffffffffffffff8114611aab57611752612b96565b6004856040518082805190602001908083835b602083106117885780518252602082019150602081019050602083039250611765565b6001836020036101000a038019825116818451168082178552505050505050905001915050908152602001604051809103902082815481106117c657fe5b90600052602060002090600b020160405180610160016040529081600082015481526020016001820154815260200160028201548152602001600382018054600181600116156101000203166002900480601f0160208091040260200160405190810160405280929190818152602001828054600181600116156101000203166002900480156118975780601f1061186c57610100808354040283529160200191611897565b820191906000526020600020905b81548152906001019060200180831161187a57829003601f168201915b50505050508152602001600482015481526020016005820154815260200160068201548152602001600782015481526020016008820154815260200160098201548152602001600a8201548152505090508281610140018181525050806004866040518082805190602001908083835b6020831061192a5780518252602082019150602081019050602083039250611907565b6001836020036101000a0380198251168184511680821785525050505050509050019150509081526020016040518091039020838154811061196857fe5b90600052602060002090600b020160008201518160000155602082015181600101556040820151816002015560608201518160030190805190602001906119b0929190612bf0565b506080820151816004015560a0820151816005015560c0820151816006015560e082015181600701556101008201518160080155610120820151816009015561014082015181600a01559050507f4aaf47da2b830ec7cb39ceac30735c6b5f91912852a2fcbedca8fb36ea7509398585856040518080602001848152602001838152602001828103825285818151815260200191508051906020019080838360005b83811015611a6d578082015181840152602081019050611a52565b50505050905090810190601f168015611a9a5780820380516001836020036101000a031916815260200191505b5094505050505060405180910390a1505b50505050565b60008060009054906101000a900473ffffffffffffffffffffffffffffffffffffffff16905090565b6000809054906101000a900473ffffffffffffffffffffffffffffffffffffffff1673ffffffffffffffffffffffffffffffffffffffff163373ffffffffffffffffffffffffffffffffffffffff1614611b7f576040517f08c379a0000000000000000000000000000000000000000000000000000000008152600401808060200182810382526039815260200180612cbb6039913960400191505060405180910390fd5b806000806101000a81548173ffffffffffffffffffffffffffffffffffffffff021916908373ffffffffffffffffffffffffffffffffffffffff16021790555050565b60606000809054906101000a900473ffffffffffffffffffffffffffffffffffffffff1673ffffffffffffffffffffffffffffffffffffffff163373ffffffffffffffffffffffffffffffffffffffff1614611c69576040517f08c379a0000000000000000000000000000000000000000000000000000000008152600401808060200182810382526039815260200180612cbb6039913960400191505060405180910390fd5b6005826040518082805190602001908083835b60208310611c9f5780518252602082019150602081019050602083039250611c7c565b6001836020036101000a0380198251168184511680821785525050505050509050019150509081526020016040518091039020805480602002602001604051908101604052809291908181526020018280548015611d1c57602002820191906000526020600020905b815481526020019060010190808311611d08575b50505050509050919050565b60008060009054906101000a900473ffffffffffffffffffffffffffffffffffffffff1673ffffffffffffffffffffffffffffffffffffffff163373ffffffffffffffffffffffffffffffffffffffff1614611dcf576040517f08c379a0000000000000000000000000000000000000000000000000000000008152600401808060200182810382526039815260200180612cbb6039913960400191505060405180910390fd5b6006826040518082805190602001908083835b60208310611e055780518252602082019150602081019050602083039250611de2565b6001836020036101000a0380198251168184511680821785525050505050509050019150509081526020016040518091039020549050919050565b6000809054906101000a900473ffffffffffffffffffffffffffffffffffffffff1673ffffffffffffffffffffffffffffffffffffffff163373ffffffffffffffffffffffffffffffffffffffff1614611ee5576040517f08c379a0000000000000000000000000000000000000000000000000000000008152600401808060200182810382526039815260200180612cbb6039913960400191505060405180910390fd5b8a8a6000611ef38383610ccd565b9050600015158115151415611fa7577fe21e12aba131cb57764fb4f32dfbde415652970f3ba0bd02edfa7c79608a7b0383836040518080602001838152602001828103825284818151815260200191508051906020019080838360005b83811015611f6b578082015181840152602081019050611f50565b50505050905090810190601f168015611f985780820380516001836020036101000a031916815260200191505b50935050505060405180910390a15b8061201a576040517f08c379a00000000000000000000000000000000000000000000000000000000081526004018080602001828103825260118152602001807f4475706c696361746520696e766f69636500000000000000000000000000000081525060200191505060405180910390fd5b612022612b96565b8d8160000181815250508c8160200181815250508b8160400181815250508a816060018190525089816080018181525050888160a0018181525050878160c0018181525050868160e00181815250508581610100018181525050848161012001818152505060048f6040518082805190602001908083835b602083106120bd578051825260208201915060208101905060208303925061209a565b6001836020036101000a03801982511681845116808217855250505050505090500191505090815260200160405180910390208190806001815401808255809150506001900390600052602060002090600b02016000909190919091506000820151816000015560208201518160010155604082015181600201556060820151816003019080519060200190612154929190612bf0565b506080820151816004015560a0820151816005015560c0820151816006015560e082015181600701556101008201518160080155610120820151816009015561014082015181600a0155505060058f6040518082805190602001908083835b602083106121d657805182526020820191506020810190506020830392506121b3565b6001836020036101000a03801982511681845116808217855250505050505090500191505090815260200160405180910390208e90806001815401808255809150506001900390600052602060002001600090919091909150556122398f612b16565b507f64b1990245accd502365916f65e5fcd03e71f750f7fcb75f88e699b5c067b8d98f826000015183602001518460400151856060015186608001518760a001518860c001518960e001518a61010001518b61012001518c610140015160405180806020018d81526020018c81526020018b8152602001806020018a815260200189815260200188815260200187815260200186815260200185815260200184815260200183810383528f818151815260200191508051906020019080838360005b838110156123165780820151818401526020810190506122fb565b50505050905090810190601f1680156123435780820380516001836020036101000a031916815260200191505b5083810382528b818151815260200191508051906020019080838360005b8381101561237c578082015181840152602081019050612361565b50505050905090810190601f1680156123a95780820380516001836020036101000a031916815260200191505b509e50505050505050505050505050505060405180910390a1505050505050505050505050505050565b6000809054906101000a900473ffffffffffffffffffffffffffffffffffffffff1673ffffffffffffffffffffffffffffffffffffffff163373ffffffffffffffffffffffffffffffffffffffff1614612478576040517f08c379a0000000000000000000000000000000000000000000000000000000008152600401808060200182810382526039815260200180612cbb6039913960400191505060405180910390fd5b81816124848183610df6565b6124f6576040517f08c379a00000000000000000000000000000000000000000000000000000000081526004018080602001828103825260158152602001807f436c69656e7420616c726561647920657869737473000000000000000000000081525060200191505060405180910390fd5b836001846040518082805190602001908083835b6020831061252d578051825260208201915060208101905060208303925061250a565b6001836020036101000a038019825116818451168082178552505050505050905001915050908152602001604051809103902060000160006101000a81548173ffffffffffffffffffffffffffffffffffffffff021916908373ffffffffffffffffffffffffffffffffffffffff160217905550826001846040518082805190602001908083835b602083106125d857805182526020820191506020810190506020830392506125b5565b6001836020036101000a03801982511681845116808217855250505050505090500191505090815260200160405180910390206001019080519060200190612621929190612bf0565b50600180846040518082805190602001908083835b602083106126595780518252602082019150602081019050602083039250612636565b6001836020036101000a038019825116818451168082178552505050505050905001915050908152602001604051809103902060020160006101000a81548160ff0219169083151502179055506002839080600181540180825580915050600190039060005260206000200160009091909190915090805190602001906126e1929190612bf0565b50836003846040518082805190602001908083835b6020831061271957805182526020820191506020810190506020830392506126f6565b6001836020036101000a038019825116818451168082178552505050505050905001915050908152602001604051809103902060006101000a81548173ffffffffffffffffffffffffffffffffffffffff021916908373ffffffffffffffffffffffffffffffffffffffff16021790555060006006846040518082805190602001908083835b602083106127c2578051825260208201915060208101905060208303925061279f565b6001836020036101000a0380198251168184511680821785525050505050509050019150509081526020016040518091039020819055507f11ada27156286ec17e2b313f3687beba84ab19beba84f020e2938ed46737d7ae8484604051808373ffffffffffffffffffffffffffffffffffffffff1673ffffffffffffffffffffffffffffffffffffffff16815260200180602001828103825283818151815260200191508051906020019080838360005b8381101561288e578082015181840152602081019050612873565b50505050905090810190601f1680156128bb5780820380516001836020036101000a031916815260200191505b50935050505060405180910390a150505050565b60008060009054906101000a900473ffffffffffffffffffffffffffffffffffffffff1673ffffffffffffffffffffffffffffffffffffffff163373ffffffffffffffffffffffffffffffffffffffff1614612976576040517f08c379a0000000000000000000000000000000000000000000000000000000008152600401808060200182810382526039815260200180612cbb6039913960400191505060405180910390fd5b81600081116129d0576040517f08c379a0000000000000000000000000000000000000000000000000000000008152600401808060200182810382526025815260200180612c966025913960400191505060405180910390fd5b60008090505b6006856040518082805190602001908083835b60208310612a0c57805182526020820191506020810190506020830392506129e9565b6001836020036101000a038019825116818451168082178552505050505050905001915050908152602001604051809103902054811215612aea576004856040518082805190602001908083835b60208310612a7d5780518252602082019150602081019050602083039250612a5a565b6001836020036101000a03801982511681845116808217855250505050505090500191505090815260200160405180910390208181548110612abb57fe5b90600052602060002090600b020160000154841415612add5780925050612b0f565b80806001019150506129d6565b507fffffffffffffffffffffffffffffffffffffffffffffffffffffffffffffffff91505b5092915050565b600060016006836040518082805190602001908083835b60208310612b505780518252602082019150602081019050602083039250612b2d565b6001836020036101000a03801982511681845116808217855250505050505090500191505090815260200160405180910390206000828254019250508190559050919050565b60405180610160016040528060008152602001600081526020016000815260200160608152602001600081526020016000815260200160008152602001600081526020016000815260200160008152602001600081525090565b828054600181600116156101000203166002900490600052602060002090601f016020900481019282601f10612c3157805160ff1916838001178555612c5f565b82800160010185558215612c5f579182015b82811115612c5e578251825591602001919060010190612c43565b5b509050612c6c9190612c70565b5090565b612c9291905b80821115612c8e576000816000905550600101612c76565b5090565b9056fe496e766f696365206e756d626572206d7573742062652067726561746572207468616e20304f6e6c7920746865206f776e6572206f662074686520636f6e74726163742063616e206578656375746520746869732066756e6374696f6e2ea2646970667358221220e8d1136891956d97ff810fdeec365b99d2ab03e54661574869196055329214ee64736f6c63430006060033",
  "source": "// SPDX-License-Identifier: GPL-3.0\npragma solidity ^0.6.6;\n\nimport \"./Owned.sol\";\n\n/// @title Invoice Tracking contract\n/// @author Denis M. Putnam\n/// @notice This contract tracks invoices for payment\n/// @dev Use at your own risk.\ncontract InvoiceTracker is Owned {\n    /// @dev Invoice struct\n    struct Invoice {\n        uint256 invoiceNumber;\n        uint256 netTerms; // 30, 60 90, 120 days net\n        uint256 numberHours;\n        string amount;\n        uint256 timesheetEndDate;\n        uint256 invoiceSentDate;\n        uint256 due30DaysDate;\n        uint256 due60DaysDate;\n        uint256 due90DaysDate;\n        uint256 due120DaysDate;\n        uint256 datePmtReceived;\n    }\n\n    /// @dev Client struct\n    struct Client {\n        address clientID;\n        string name;\n        bool flag;\n    }\n\n    /// @dev map the name of the client to the Client struct\n    mapping(string => Client) private clientMap;\n\n    /// @dev array of client names.\n    string[] private clientNameArray;\n\n    /// @dev map the name of the client to the client address\n    mapping(string => address) private clientNameAddressMap;\n    /// @dev map the name of the client to invoices. this isa one to many mapping.\n    mapping(string => Invoice[]) private clientNameInvoiceMap;\n    /// @dev map the client name to the invoice numbers.\n    mapping(string => uint256[]) private clientNameInvoiceNumMap;\n    /// @dev map the name of the client to an invoice count\n    mapping(string => uint256) private clientNameInvoiceCountMap;\n\n    /// @author Denis M. Putnam\n    /// @notice The constructor for this contract\n    /// @dev no other details\n    constructor() public payable Owned() {}\n\n    event addClientEvent(address _clientID, string _name);\n    event duplicateInvoiceEvent(string _clientName, uint256 _invoiceNumber);\n    event duplicateClientEvent(string _clientID);\n\n    /// @author Denis M. Putnam\n    /// @notice Check for no client.\n    /// @param _clientName name of the client.\n    /// @param _clientID clients wallet address.\n    /// @dev no other details.\n    function isNoClient(string memory _clientName, address _clientID)\n        public\n        payable\n        returns (bool)\n    {\n        if (clientNameAddressMap[_clientName] == _clientID) {\n            emit duplicateClientEvent(_clientName);\n            return false;\n        }\n        return true;\n    }\n\n    modifier noDupClient(address _clientID, string memory _clientName) {\n        require(isNoClient(_clientName, _clientID), \"Client already exists\");\n        _;\n    }\n\n    /// @author Denis M. Putnam\n    /// @notice Add a client to this contract.\n    /// @param _clientID address of the wallet of the client.\n    /// @param _name string with the client's name.  This needs to be unique\n    /// @dev Add's a client to the clientMap and the clientNameAddressMap\n    function addClient(address _clientID, string memory _name)\n        public\n        ownerOnly()\n        noDupClient(_clientID, _name)\n    {\n        clientMap[_name].clientID = _clientID;\n        clientMap[_name].name = _name;\n        clientMap[_name].flag = true;\n\n        clientNameArray.push(_name);\n\n        clientNameAddressMap[_name] = _clientID;\n        clientNameInvoiceCountMap[_name] = 0;\n        emit addClientEvent(_clientID, _name);\n    }\n\n    /// @author Denis M. Putnam\n    /// @notice Get the requested client\n    /// @param _name client's name\n    /// @dev Get the client for the given name.\n    /// @return name\n    /// @return clientID\n    function getClientByName(string memory _name)\n        public\n        view\n        returns (string memory name, address clientID)\n    {\n        string memory lname = clientMap[_name].name;\n        address lclientID = clientMap[_name].clientID;\n        return (lname, lclientID);\n    }\n\n    /// @author Denis M. Putnam\n    /// @notice get the client by index number.\n    /// @param _index index of client name\n    /// @dev no further info\n    /// @return name\n    /// @return clientID\n    function getClientByIndex(uint256 _index)\n        public\n        view\n        returns (string memory name, address clientID)\n    {\n        string memory lclientName = clientNameArray[_index];\n        string memory lname = clientMap[lclientName].name;\n        address lclientID = clientMap[lclientName].clientID;\n        return (lname, lclientID);\n    }\n\n    function getClientCount() public view returns (uint256 count) {\n        return clientNameArray.length;\n    }\n\n    /// @author Denis M. Putnam\n    /// @notice Check for no duplicate invoice.\n    /// @param _clientName name of the client.\n    /// @param _invoiceNumber invoice number.\n    /// @dev no other details.\n    function isNoDuplicateInvoice(\n        string memory _clientName,\n        uint256 _invoiceNumber\n    ) public payable returns (bool) {\n        for (uint256 i = 0; i < clientNameInvoiceCountMap[_clientName]; i++) {\n            // if (_invoiceNumber == clientInvoiceMap[_clientName][i]) {\n            //     return false;\n            // }\n            if (\n                _invoiceNumber ==\n                clientNameInvoiceMap[_clientName][i].invoiceNumber\n            ) {\n                return false;\n            }\n        }\n        return true;\n    }\n\n    modifier noDupInvoice(string memory _clientName, uint256 _invoiceNumber) {\n        bool flag = isNoDuplicateInvoice(_clientName, _invoiceNumber);\n        if(flag == false) {\n            emit duplicateInvoiceEvent(_clientName, _invoiceNumber);\n        }\n        require(\n            flag,\n            \"Duplicate invoice\"\n        );\n        _;\n    }\n\n    event addInvoiceEvent(\n        string _clientName,\n        uint256 _invoiceNumber,\n        uint256 _netTerms,\n        uint256 _numberHours,\n        string _amount,\n        uint256 _timesheetEndDate,\n        uint256 _invoiceSentDate,\n        uint256 _due30DaysDate,\n        uint256 _due60DaysDate,\n        uint256 _due90DaysDate,\n        uint256 _due120DaysDate,\n        uint256 _datePmtReceived\n    );\n\n    event updateInvoiceEvent(\n        string _clientName,\n        uint256 _invoiceNumber,\n        uint256 _datePmtReceived\n    );\n\n    /// @author Denis M. Putnam\n    /// @notice Add an invoice to track\n    /// @param _clientName name of the client\n    /// @param _invoiceNumber invoice number\n    /// @param _netTerms net terms for 30, 60, 90, or 120 days.\n    /// @param _numberHours number of hours for the timesheet.\n    /// @param _amount amount in dollars.\n    /// @param _timesheetEndDate timesheet end date\n    /// @param _invoiceSentDate date that invoice was sent to the client.\n    /// @param _due30DaysDate 30 day invoice due date\n    /// @param _due60DaysDate 60 day invoice due date\n    /// @param _due90DaysDate 90 day invoice due date\n    /// @param _due120DaysDate 120 day invoice due date\n    /// @dev Add's an invoice to be tracked.\n    function addInvoice(\n        string memory _clientName,\n        uint256 _invoiceNumber,\n        uint256 _netTerms,\n        uint256 _numberHours,\n        string memory _amount,\n        uint256 _timesheetEndDate,\n        uint256 _invoiceSentDate,\n        uint256 _due30DaysDate,\n        uint256 _due60DaysDate,\n        uint256 _due90DaysDate,\n        uint256 _due120DaysDate\n    ) public ownerOnly() noDupInvoice(_clientName, _invoiceNumber) {\n        Invoice memory newInvoice;\n        newInvoice.invoiceNumber = _invoiceNumber;\n        newInvoice.netTerms = _netTerms;\n        newInvoice.numberHours = _numberHours;\n        newInvoice.amount = _amount;\n        newInvoice.timesheetEndDate = _timesheetEndDate;\n        newInvoice.invoiceSentDate = _invoiceSentDate;\n        newInvoice.due30DaysDate = _due30DaysDate;\n        newInvoice.due60DaysDate = _due60DaysDate;\n        newInvoice.due90DaysDate = _due90DaysDate;\n        newInvoice.due120DaysDate = _due120DaysDate;\n        clientNameInvoiceMap[_clientName].push(newInvoice);\n        clientNameInvoiceNumMap[_clientName].push(_invoiceNumber);\n\n        incremmentInvoiceCount(_clientName);\n\n        emit addInvoiceEvent(\n            _clientName,\n            newInvoice.invoiceNumber,\n            newInvoice.netTerms,\n            newInvoice.numberHours,\n            newInvoice.amount,\n            newInvoice.timesheetEndDate,\n            newInvoice.invoiceSentDate,\n            newInvoice.due30DaysDate,\n            newInvoice.due60DaysDate,\n            newInvoice.due90DaysDate,\n            newInvoice.due120DaysDate,\n            newInvoice.datePmtReceived\n        );\n\n        // emit addInvoiceEvent(\n        //     _clientName,\n        //     clientNameInvoiceMap[_clientName][0].invoiceNumber,\n        //     clientNameInvoiceMap[_clientName][0].netTerms,\n        //     clientNameInvoiceMap[_clientName][0].numberHours,\n        //     clientNameInvoiceMap[_clientName][0].amount,\n        //     clientNameInvoiceMap[_clientName][0].timesheetEndDate,\n        //     clientNameInvoiceMap[_clientName][0].invoiceSentDate,\n        //     clientNameInvoiceMap[_clientName][0].due30DaysDate,\n        //     clientNameInvoiceMap[_clientName][0].due60DaysDate,\n        //     clientNameInvoiceMap[_clientName][0].due90DaysDate,\n        //     clientNameInvoiceMap[_clientName][0].due120DaysDate,\n        //     clientNameInvoiceMap[_clientName][0].datePmtReceived\n        // );\n    }\n\n    function incremmentInvoiceCount(string memory _clientName)\n        private\n        returns (uint256)\n    {\n        return clientNameInvoiceCountMap[_clientName] += 1;\n    }\n\n    /// @author Denis M. Putnam\n    /// @notice Get the count of invoices associated with the given client name\n    /// @param _clientName name of the client\n    /// @dev no other details.\n    /// @return count of invoices associated with the given client\n    function getInvoiceCount(string memory _clientName)\n        public\n        view\n        ownerOnly()\n        returns (uint256 count)\n    {\n        count = clientNameInvoiceCountMap[_clientName];\n    }\n\n    /// @author Denis M. Putnam\n    /// @notice Get the list of invoice numbers as a string for the given client name.\n    /// @param _clientName name of the client\n    /// @dev returned string is a comma separated string of invoice numbers.  The comma is also the end of the string if no other values appear.\n    /// @return a comma seperated list of invoice numbers associated with the client.\n    function getInvoiceNumbers(string memory _clientName)\n        public\n        view\n        ownerOnly()\n        returns (uint256[] memory)\n    {\n        // string memory rVal = \"\";\n        // for (uint256 i = 0; i < clientNameInvoiceCountMap[_clientName]; i++) {\n        //     string memory tstring = uint2str(\n        //         clientNameInvoiceMap[_clientName][i].invoiceNumber\n        //     );\n        //     // string tstring = string(lbytes32);\n        //     //rVal = string(abi.encodePacked(rVal, tstring, \",\"));\n        //     rVal = string(abi.encodePacked(rVal, tstring, \",\"));\n        // }\n        return clientNameInvoiceNumMap[_clientName];\n    }\n\n    modifier isInvoiceNumber(uint256 _invoiceNumber) {\n        require(_invoiceNumber > 0, \"Invoice number must be greater than 0\");\n        _;\n    }\n\n    function findInvoiceIndex(string memory _clientName, uint256 _invoiceNumber)\n        private\n        view\n        ownerOnly()\n        isInvoiceNumber(_invoiceNumber)\n        returns (int256 index)\n    {\n        for (\n            int256 i = 0;\n            i < int256(clientNameInvoiceCountMap[_clientName]);\n            i++\n        ) {\n            //clientNameInvoiceMap\n            if (\n                _invoiceNumber ==\n                clientNameInvoiceMap[_clientName][uint256(i)].invoiceNumber\n            ) {\n                return i;\n            }\n        }\n        return -1;\n    }\n\n    /// @author Denis M. Putnam\n    /// @notice Update an invoice with the payment date\n    /// @param _clientName name of the client\n    /// @param _invoiceNumber invoice number being requested.\n    /// @param _invoicePmtDate payment date\n    /// @dev no other details\n    function updateInvoice(\n        string memory _clientName,\n        uint256 _invoiceNumber,\n        uint256 _invoicePmtDate\n    ) public ownerOnly() {\n        int256 _index = findInvoiceIndex(_clientName, _invoiceNumber);\n        if (_index != -1) {\n            Invoice memory lInvoice = clientNameInvoiceMap[_clientName][uint256(\n                _index\n            )];\n            lInvoice.datePmtReceived = _invoicePmtDate;\n            clientNameInvoiceMap[_clientName][uint256(_index)] = lInvoice;\n            emit updateInvoiceEvent(\n                _clientName,\n                _invoiceNumber,\n                _invoicePmtDate\n            );\n        }\n    }\n\n    /// @author Denis M. Putnam\n    /// @notice Get an invoice\n    /// @param _clientName name of the client\n    /// @param _invoiceNumber invoice number being requested.\n    /// @dev no other details\n    /// @return invoiceNumber\n    /// @return netTerms\n    /// @return numberHours\n    /// @return amount\n    /// @return timesheetEndDate\n    /// @return invoiceSentDate\n    /// @return due30DaysDate\n    /// @return due60DaysDate\n    /// @return due90DaysDate\n    /// @return due120DaysDate\n    /// @return datePmtReceived\n    function getInvoice(string memory _clientName, uint256 _invoiceNumber)\n        public\n        view\n        ownerOnly()\n        returns (\n            uint256 invoiceNumber,\n            uint256 netTerms,\n            uint256 numberHours,\n            string memory amount,\n            uint256 timesheetEndDate,\n            uint256 invoiceSentDate,\n            uint256 due30DaysDate,\n            uint256 due60DaysDate,\n            uint256 due90DaysDate,\n            uint256 due120DaysDate,\n            uint256 datePmtReceived\n        )\n    {\n        int256 _index = findInvoiceIndex(_clientName, _invoiceNumber);\n        if (_index != -1) {\n            Invoice memory lInvoice = clientNameInvoiceMap[_clientName][uint256(\n                _index\n            )];\n            return (\n                lInvoice.invoiceNumber,\n                lInvoice.netTerms,\n                lInvoice.numberHours,\n                lInvoice.amount,\n                lInvoice.timesheetEndDate,\n                lInvoice.invoiceSentDate,\n                lInvoice.due30DaysDate,\n                lInvoice.due60DaysDate,\n                lInvoice.due90DaysDate,\n                lInvoice.due120DaysDate,\n                lInvoice.datePmtReceived\n            );\n            // return (\n            //     invoiceNumber,\n            //     netTerms,\n            //     numberHours,\n            //     amount,\n            //     timesheetEndDate,\n            //     invoiceSentDate,\n            //     due30DaysDate,\n            //     due60DaysDate,\n            //     due90DaysDate,\n            //     due120DaysDate,\n            //     datePmtReceived\n            // );\n        }\n    }\n\n    // /// @author Denis M. Putnam\n    // /// @notice Convert a uint256 to a string.\n    // /// @param _i contains the uint256 value to be converted to a string.\n    // /// @dev This code was taken from https://github.com/provable-things/ethereum-api/blob/master/oraclizeAPI_0.5.sol\n    // /// @return _uintAsString\n    // function uint2str(uint256 _i)\n    //     internal\n    //     pure\n    //     returns (string memory _uintAsString)\n    // {\n    //     if (_i == 0) {\n    //         return \"0\";\n    //     }\n    //     uint256 j = _i;\n    //     uint256 len;\n    //     while (j != 0) {\n    //         len++;\n    //         j /= 10;\n    //     }\n    //     bytes memory bstr = new bytes(len);\n    //     uint256 k = len - 1;\n    //     while (_i != 0) {\n    //         bstr[k--] = bytes1(uint8(48 + (_i % 10)));\n    //         _i /= 10;\n    //     }\n    //     return string(bstr);\n    // }\n}\n",
  "sourcePath": "/Users/denisputnam/git/invoice-dapp/contracts/InvoiceTracker.sol",
  "compiler": {
    "name": "solc",
    "version": "0.6.6+commit.6c089d02.Emscripten.clang"
  },
  "schemaVersion": "3.0.23",
  "updatedAt": "2020-07-17T17:08:39.480Z",
  "devdoc": {
    "author": "Denis M. Putnam",
    "details": "Use at your own risk.",
    "methods": {
      "addClient(address,string)": {
        "author": "Denis M. Putnam",
        "details": "Add's a client to the clientMap and the clientNameAddressMap",
        "params": {
          "_clientID": "address of the wallet of the client.",
          "_name": "string with the client's name.  This needs to be unique"
        }
      },
      "addInvoice(string,uint256,uint256,uint256,string,uint256,uint256,uint256,uint256,uint256,uint256)": {
        "author": "Denis M. Putnam",
        "details": "Add's an invoice to be tracked.",
        "params": {
          "_amount": "amount in dollars.",
          "_clientName": "name of the client",
          "_due120DaysDate": "120 day invoice due date",
          "_due30DaysDate": "30 day invoice due date",
          "_due60DaysDate": "60 day invoice due date",
          "_due90DaysDate": "90 day invoice due date",
          "_invoiceNumber": "invoice number",
          "_invoiceSentDate": "date that invoice was sent to the client.",
          "_netTerms": "net terms for 30, 60, 90, or 120 days.",
          "_numberHours": "number of hours for the timesheet.",
          "_timesheetEndDate": "timesheet end date"
        }
      },
      "changeOwner(address)": {
        "author": "Denis M. Putnam",
        "details": "No other details.",
        "params": {
          "newOwner": "new address payable owner."
        }
      },
      "constructor": {
        "author": "Denis M. Putnam",
        "details": "no other details"
      },
      "getClientByIndex(uint256)": {
        "author": "Denis M. Putnam",
        "details": "no further info",
        "params": {
          "_index": "index of client name"
        },
        "returns": {
          "clientID": "clientID",
          "name": "name"
        }
      },
      "getClientByName(string)": {
        "author": "Denis M. Putnam",
        "details": "Get the client for the given name.",
        "params": {
          "_name": "client's name"
        },
        "returns": {
          "clientID": "clientID",
          "name": "name"
        }
      },
      "getCurrentOwner()": {
        "author": "Denis M. Putnam",
        "details": "No other details.",
        "returns": {
          "_0": "address current owner."
        }
      },
      "getInvoice(string,uint256)": {
        "author": "Denis M. Putnam",
        "details": "no other details",
        "params": {
          "_clientName": "name of the client",
          "_invoiceNumber": "invoice number being requested."
        },
        "returns": {
          "amount": "amount",
          "datePmtReceived": "datePmtReceived",
          "due120DaysDate": "due120DaysDate",
          "due30DaysDate": "due30DaysDate",
          "due60DaysDate": "due60DaysDate",
          "due90DaysDate": "due90DaysDate",
          "invoiceNumber": "invoiceNumber",
          "invoiceSentDate": "invoiceSentDate",
          "netTerms": "netTerms",
          "numberHours": "numberHours",
          "timesheetEndDate": "timesheetEndDate"
        }
      },
      "getInvoiceCount(string)": {
        "author": "Denis M. Putnam",
        "details": "no other details.",
        "params": {
          "_clientName": "name of the client"
        },
        "returns": {
          "count": "of invoices associated with the given client"
        }
      },
      "getInvoiceNumbers(string)": {
        "author": "Denis M. Putnam",
        "details": "returned string is a comma separated string of invoice numbers.  The comma is also the end of the string if no other values appear.",
        "params": {
          "_clientName": "name of the client"
        },
        "returns": {
          "_0": "a comma seperated list of invoice numbers associated with the client."
        }
      },
      "isNoClient(string,address)": {
        "author": "Denis M. Putnam",
        "details": "no other details.",
        "params": {
          "_clientID": "clients wallet address.",
          "_clientName": "name of the client."
        }
      },
      "isNoDuplicateInvoice(string,uint256)": {
        "author": "Denis M. Putnam",
        "details": "no other details.",
        "params": {
          "_clientName": "name of the client.",
          "_invoiceNumber": "invoice number."
        }
      },
      "updateInvoice(string,uint256,uint256)": {
        "author": "Denis M. Putnam",
        "details": "no other details",
        "params": {
          "_clientName": "name of the client",
          "_invoiceNumber": "invoice number being requested.",
          "_invoicePmtDate": "payment date"
        }
      }
    },
    "title": "Invoice Tracking contract"
  },
  "userdoc": {
    "methods": {
      "addClient(address,string)": {
        "notice": "Add a client to this contract."
      },
      "addInvoice(string,uint256,uint256,uint256,string,uint256,uint256,uint256,uint256,uint256,uint256)": {
        "notice": "Add an invoice to track"
      },
      "changeOwner(address)": {
        "notice": "Change the current owner to the new owner."
      },
      "constructor": "The constructor for this contract",
      "getClientByIndex(uint256)": {
        "notice": "get the client by index number."
      },
      "getClientByName(string)": {
        "notice": "Get the requested client"
      },
      "getCurrentOwner()": {
        "notice": "Get the current owner."
      },
      "getInvoice(string,uint256)": {
        "notice": "Get an invoice"
      },
      "getInvoiceCount(string)": {
        "notice": "Get the count of invoices associated with the given client name"
      },
      "getInvoiceNumbers(string)": {
        "notice": "Get the list of invoice numbers as a string for the given client name."
      },
      "isNoClient(string,address)": {
        "notice": "Check for no client."
      },
      "isNoDuplicateInvoice(string,uint256)": {
        "notice": "Check for no duplicate invoice."
      },
      "updateInvoice(string,uint256,uint256)": {
        "notice": "Update an invoice with the payment date"
      }
    },
    "notice": "This contract tracks invoices for payment"
  }
}