{
  "contractName": "Invoices",
  "abi": [
    {
      "anonymous": false,
      "inputs": [
        {
          "indexed": true,
          "internalType": "address",
          "name": "previousOwner",
          "type": "address"
        },
        {
          "indexed": true,
          "internalType": "address",
          "name": "newOwner",
          "type": "address"
        }
      ],
      "name": "OwnershipTransferred",
      "type": "event"
    },
    {
      "anonymous": false,
      "inputs": [
        {
          "indexed": false,
          "internalType": "string",
          "name": "_clientName",
          "type": "string"
        },
        {
          "indexed": false,
          "internalType": "uint256",
          "name": "_invoiceNumber",
          "type": "uint256"
        },
        {
          "indexed": false,
          "internalType": "uint256",
          "name": "_netTerms",
          "type": "uint256"
        },
        {
          "indexed": false,
          "internalType": "uint256",
          "name": "_numberHours",
          "type": "uint256"
        },
        {
          "indexed": false,
          "internalType": "string",
          "name": "_amount",
          "type": "string"
        },
        {
          "indexed": false,
          "internalType": "uint256",
          "name": "_timesheetEndDate",
          "type": "uint256"
        },
        {
          "indexed": false,
          "internalType": "uint256",
          "name": "_invoiceSentDate",
          "type": "uint256"
        },
        {
          "indexed": false,
          "internalType": "uint256",
          "name": "_due30DaysDate",
          "type": "uint256"
        },
        {
          "indexed": false,
          "internalType": "uint256",
          "name": "_due60DaysDate",
          "type": "uint256"
        },
        {
          "indexed": false,
          "internalType": "uint256",
          "name": "_due90DaysDate",
          "type": "uint256"
        },
        {
          "indexed": false,
          "internalType": "uint256",
          "name": "_due120DaysDate",
          "type": "uint256"
        },
        {
          "indexed": false,
          "internalType": "uint256",
          "name": "_datePmtReceived",
          "type": "uint256"
        }
      ],
      "name": "addInvoiceEvent",
      "type": "event"
    },
    {
      "anonymous": false,
      "inputs": [
        {
          "indexed": false,
          "internalType": "address payable",
          "name": "_address",
          "type": "address"
        },
        {
          "indexed": false,
          "internalType": "string",
          "name": "_name",
          "type": "string"
        },
        {
          "indexed": false,
          "internalType": "string",
          "name": "_pwd",
          "type": "string"
        }
      ],
      "name": "addUserEvent",
      "type": "event"
    },
    {
      "anonymous": false,
      "inputs": [
        {
          "indexed": false,
          "internalType": "address",
          "name": "_userAddress",
          "type": "address"
        },
        {
          "indexed": false,
          "internalType": "string",
          "name": "_clientID",
          "type": "string"
        }
      ],
      "name": "duplicateClientEvent",
      "type": "event"
    },
    {
      "anonymous": false,
      "inputs": [
        {
          "indexed": false,
          "internalType": "string",
          "name": "_clientName",
          "type": "string"
        },
        {
          "indexed": false,
          "internalType": "uint256",
          "name": "_invoiceNumber",
          "type": "uint256"
        }
      ],
      "name": "duplicateInvoiceEvent",
      "type": "event"
    },
    {
      "anonymous": false,
      "inputs": [
        {
          "indexed": false,
          "internalType": "string",
          "name": "_clientName",
          "type": "string"
        },
        {
          "indexed": false,
          "internalType": "uint256",
          "name": "_invoiceNumber",
          "type": "uint256"
        },
        {
          "indexed": false,
          "internalType": "uint256",
          "name": "_datePmtReceived",
          "type": "uint256"
        }
      ],
      "name": "updateInvoiceEvent",
      "type": "event"
    },
    {
      "inputs": [
        {
          "internalType": "string",
          "name": "_pwd",
          "type": "string"
        }
      ],
      "name": "calcPassword",
      "outputs": [
        {
          "internalType": "bytes32",
          "name": "ePwd",
          "type": "bytes32"
        }
      ],
      "stateMutability": "pure",
      "type": "function"
    },
    {
      "inputs": [
        {
          "internalType": "string",
          "name": "",
          "type": "string"
        }
      ],
      "name": "clientMap",
      "outputs": [
        {
          "internalType": "address",
          "name": "clientID",
          "type": "address"
        },
        {
          "internalType": "string",
          "name": "name",
          "type": "string"
        },
        {
          "internalType": "bool",
          "name": "flag",
          "type": "bool"
        }
      ],
      "stateMutability": "view",
      "type": "function"
    },
    {
      "inputs": [
        {
          "internalType": "string",
          "name": "",
          "type": "string"
        }
      ],
      "name": "clientNameAddressMap",
      "outputs": [
        {
          "internalType": "address",
          "name": "",
          "type": "address"
        }
      ],
      "stateMutability": "view",
      "type": "function"
    },
    {
      "inputs": [
        {
          "internalType": "string",
          "name": "",
          "type": "string"
        },
        {
          "internalType": "uint256",
          "name": "",
          "type": "uint256"
        }
      ],
      "name": "clientNameInvoiceNumMap",
      "outputs": [
        {
          "internalType": "uint256",
          "name": "",
          "type": "uint256"
        }
      ],
      "stateMutability": "view",
      "type": "function"
    },
    {
      "inputs": [
        {
          "internalType": "string",
          "name": "",
          "type": "string"
        }
      ],
      "name": "clientNameInvoicesCountMap",
      "outputs": [
        {
          "internalType": "uint256",
          "name": "",
          "type": "uint256"
        }
      ],
      "stateMutability": "view",
      "type": "function"
    },
    {
      "inputs": [
        {
          "internalType": "string",
          "name": "",
          "type": "string"
        },
        {
          "internalType": "uint256",
          "name": "",
          "type": "uint256"
        }
      ],
      "name": "clientNameInvoicesMap",
      "outputs": [
        {
          "internalType": "uint256",
          "name": "invoiceNumber",
          "type": "uint256"
        },
        {
          "internalType": "uint256",
          "name": "netTerms",
          "type": "uint256"
        },
        {
          "internalType": "uint256",
          "name": "numberHours",
          "type": "uint256"
        },
        {
          "internalType": "string",
          "name": "amount",
          "type": "string"
        },
        {
          "internalType": "uint256",
          "name": "timesheetEndDate",
          "type": "uint256"
        },
        {
          "internalType": "uint256",
          "name": "invoiceSentDate",
          "type": "uint256"
        },
        {
          "internalType": "uint256",
          "name": "due30DaysDate",
          "type": "uint256"
        },
        {
          "internalType": "uint256",
          "name": "due60DaysDate",
          "type": "uint256"
        },
        {
          "internalType": "uint256",
          "name": "due90DaysDate",
          "type": "uint256"
        },
        {
          "internalType": "uint256",
          "name": "due120DaysDate",
          "type": "uint256"
        },
        {
          "internalType": "uint256",
          "name": "datePmtReceived",
          "type": "uint256"
        }
      ],
      "stateMutability": "view",
      "type": "function"
    },
    {
      "inputs": [
        {
          "internalType": "address",
          "name": "_userAddress",
          "type": "address"
        },
        {
          "internalType": "string",
          "name": "_clientName",
          "type": "string"
        },
        {
          "internalType": "address",
          "name": "_clientID",
          "type": "address"
        }
      ],
      "name": "isNoClient",
      "outputs": [
        {
          "internalType": "bool",
          "name": "",
          "type": "bool"
        }
      ],
      "stateMutability": "payable",
      "type": "function"
    },
    {
      "inputs": [
        {
          "internalType": "address",
          "name": "_userAddress",
          "type": "address"
        },
        {
          "internalType": "string",
          "name": "_pwd",
          "type": "string"
        }
      ],
      "name": "isPasswordValid",
      "outputs": [
        {
          "internalType": "bool",
          "name": "",
          "type": "bool"
        }
      ],
      "stateMutability": "view",
      "type": "function"
    },
    {
      "inputs": [],
      "name": "owner",
      "outputs": [
        {
          "internalType": "address",
          "name": "",
          "type": "address"
        }
      ],
      "stateMutability": "view",
      "type": "function"
    },
    {
      "inputs": [],
      "name": "renounceOwnership",
      "outputs": [],
      "stateMutability": "nonpayable",
      "type": "function"
    },
    {
      "inputs": [
        {
          "internalType": "address",
          "name": "newOwner",
          "type": "address"
        }
      ],
      "name": "transferOwnership",
      "outputs": [],
      "stateMutability": "nonpayable",
      "type": "function"
    },
    {
      "inputs": [
        {
          "internalType": "address",
          "name": "",
          "type": "address"
        }
      ],
      "name": "userClientIDMap",
      "outputs": [
        {
          "internalType": "address",
          "name": "",
          "type": "address"
        }
      ],
      "stateMutability": "view",
      "type": "function"
    },
    {
      "inputs": [
        {
          "internalType": "address",
          "name": "",
          "type": "address"
        }
      ],
      "name": "userToNumClientsMap",
      "outputs": [
        {
          "internalType": "int256",
          "name": "",
          "type": "int256"
        }
      ],
      "stateMutability": "view",
      "type": "function"
    },
    {
      "inputs": [
        {
          "internalType": "address",
          "name": "",
          "type": "address"
        }
      ],
      "name": "usersMap",
      "outputs": [
        {
          "internalType": "string",
          "name": "name",
          "type": "string"
        },
        {
          "internalType": "bytes32",
          "name": "ePwd",
          "type": "bytes32"
        },
        {
          "internalType": "bool",
          "name": "flag",
          "type": "bool"
        }
      ],
      "stateMutability": "view",
      "type": "function"
    },
    {
      "inputs": [
        {
          "internalType": "address",
          "name": "",
          "type": "address"
        },
        {
          "internalType": "uint256",
          "name": "",
          "type": "uint256"
        }
      ],
      "name": "usersToClientsMap",
      "outputs": [
        {
          "internalType": "address",
          "name": "clientID",
          "type": "address"
        },
        {
          "internalType": "string",
          "name": "name",
          "type": "string"
        },
        {
          "internalType": "bool",
          "name": "flag",
          "type": "bool"
        }
      ],
      "stateMutability": "view",
      "type": "function"
    },
    {
      "inputs": [
        {
          "internalType": "string",
          "name": "_clientName",
          "type": "string"
        },
        {
          "internalType": "uint256",
          "name": "_invoiceNumber",
          "type": "uint256"
        }
      ],
      "name": "isNoDuplicateInvoice",
      "outputs": [
        {
          "internalType": "bool",
          "name": "",
          "type": "bool"
        }
      ],
      "stateMutability": "payable",
      "type": "function"
    },
    {
      "inputs": [
        {
          "internalType": "address payable",
          "name": "_address",
          "type": "address"
        },
        {
          "internalType": "string",
          "name": "_name",
          "type": "string"
        },
        {
          "internalType": "string",
          "name": "_pwd",
          "type": "string"
        }
      ],
      "name": "addUser",
      "outputs": [],
      "stateMutability": "nonpayable",
      "type": "function"
    },
    {
      "inputs": [
        {
          "internalType": "address",
          "name": "_userAddress",
          "type": "address"
        },
        {
          "internalType": "string",
          "name": "_pwd",
          "type": "string"
        },
        {
          "internalType": "string",
          "name": "_clientName",
          "type": "string"
        },
        {
          "internalType": "uint256",
          "name": "_invoiceNumber",
          "type": "uint256"
        },
        {
          "internalType": "uint256",
          "name": "_netTerms",
          "type": "uint256"
        },
        {
          "internalType": "uint256",
          "name": "_numberHours",
          "type": "uint256"
        },
        {
          "internalType": "string",
          "name": "_amount",
          "type": "string"
        },
        {
          "internalType": "uint256[]",
          "name": "_dates",
          "type": "uint256[]"
        }
      ],
      "name": "addInvoice",
      "outputs": [],
      "stateMutability": "nonpayable",
      "type": "function"
    },
    {
      "inputs": [
        {
          "internalType": "address",
          "name": "_userAddress",
          "type": "address"
        },
        {
          "internalType": "string",
          "name": "_pwd",
          "type": "string"
        },
        {
          "internalType": "string",
          "name": "_clientName",
          "type": "string"
        }
      ],
      "name": "getInvoiceCount",
      "outputs": [
        {
          "internalType": "uint256",
          "name": "count",
          "type": "uint256"
        }
      ],
      "stateMutability": "view",
      "type": "function"
    },
    {
      "inputs": [
        {
          "internalType": "address",
          "name": "_userAddress",
          "type": "address"
        },
        {
          "internalType": "string",
          "name": "_pwd",
          "type": "string"
        },
        {
          "internalType": "string",
          "name": "_clientName",
          "type": "string"
        }
      ],
      "name": "getInvoiceNumbers",
      "outputs": [
        {
          "internalType": "uint256[]",
          "name": "",
          "type": "uint256[]"
        }
      ],
      "stateMutability": "view",
      "type": "function"
    },
    {
      "inputs": [
        {
          "internalType": "address",
          "name": "_userAddress",
          "type": "address"
        },
        {
          "internalType": "string",
          "name": "_pwd",
          "type": "string"
        },
        {
          "internalType": "string",
          "name": "_clientName",
          "type": "string"
        },
        {
          "internalType": "uint256",
          "name": "_invoiceNumber",
          "type": "uint256"
        },
        {
          "internalType": "uint256",
          "name": "_invoicePmtDate",
          "type": "uint256"
        }
      ],
      "name": "updateInvoice",
      "outputs": [],
      "stateMutability": "nonpayable",
      "type": "function"
    },
    {
      "inputs": [
        {
          "internalType": "address",
          "name": "_userAddress",
          "type": "address"
        },
        {
          "internalType": "string",
          "name": "_pwd",
          "type": "string"
        },
        {
          "internalType": "string",
          "name": "_clientName",
          "type": "string"
        },
        {
          "internalType": "uint256",
          "name": "_invoiceNumber",
          "type": "uint256"
        }
      ],
      "name": "getInvoice",
      "outputs": [
        {
          "internalType": "uint256",
          "name": "invoiceNumber",
          "type": "uint256"
        },
        {
          "internalType": "uint256",
          "name": "netTerms",
          "type": "uint256"
        },
        {
          "internalType": "uint256",
          "name": "numberHours",
          "type": "uint256"
        },
        {
          "internalType": "string",
          "name": "amount",
          "type": "string"
        }
      ],
      "stateMutability": "view",
      "type": "function"
    },
    {
      "inputs": [
        {
          "internalType": "address",
          "name": "_userAddress",
          "type": "address"
        },
        {
          "internalType": "string",
          "name": "_pwd",
          "type": "string"
        },
        {
          "internalType": "string",
          "name": "_clientName",
          "type": "string"
        },
        {
          "internalType": "uint256",
          "name": "_invoiceNumber",
          "type": "uint256"
        }
      ],
      "name": "getInvoiceDates",
      "outputs": [
        {
          "internalType": "uint256",
          "name": "invoiceNumber",
          "type": "uint256"
        },
        {
          "internalType": "uint256",
          "name": "timesheetEndDate",
          "type": "uint256"
        },
        {
          "internalType": "uint256",
          "name": "invoiceSentDate",
          "type": "uint256"
        },
        {
          "internalType": "uint256",
          "name": "datePmtReceived",
          "type": "uint256"
        }
      ],
      "stateMutability": "view",
      "type": "function"
    },
    {
      "inputs": [
        {
          "internalType": "address",
          "name": "_userAddress",
          "type": "address"
        },
        {
          "internalType": "string",
          "name": "_pwd",
          "type": "string"
        },
        {
          "internalType": "string",
          "name": "_clientName",
          "type": "string"
        },
        {
          "internalType": "uint256",
          "name": "_invoiceNumber",
          "type": "uint256"
        }
      ],
      "name": "getInvoiceDueDates",
      "outputs": [
        {
          "internalType": "uint256",
          "name": "invoiceNumber",
          "type": "uint256"
        },
        {
          "internalType": "uint256",
          "name": "due30DaysDate",
          "type": "uint256"
        },
        {
          "internalType": "uint256",
          "name": "due60DaysDate",
          "type": "uint256"
        },
        {
          "internalType": "uint256",
          "name": "due90DaysDate",
          "type": "uint256"
        },
        {
          "internalType": "uint256",
          "name": "due120DaysDate",
          "type": "uint256"
        }
      ],
      "stateMutability": "view",
      "type": "function"
    }
  ],
  "bytecode": "0x6080604052600060025560006200001b620000bf60201b60201c565b9050806000806101000a81548173ffffffffffffffffffffffffffffffffffffffff021916908373ffffffffffffffffffffffffffffffffffffffff1602179055508073ffffffffffffffffffffffffffffffffffffffff16600073ffffffffffffffffffffffffffffffffffffffff167f8be0079c531659141344cd1fd0a4f28419497f9722a3daafe3b4186f6b6457e060405160405180910390a350620000c7565b600033905090565b6155d080620000d76000396000f3fe60806040526004361061014b5760003560e01c806391a6322c116100b6578063c93b84061161006f578063c93b8406146116a2578063d7202b3014611788578063d7554a681461199f578063e281447c14611b1e578063f2fde38b14611bfa578063f53642de14611c4b5761014b565b806391a6322c14610f2f57806394ab73fd146110e85780639ed1466f1461129a578063a69fd7271461142d578063c29ca72614611509578063c77e7a8b146116115761014b565b806336b513241161010857806336b5132414610a2d578063491c739714610b095780634be7a69714610cdd578063715018a614610d425780638353a4ba14610d595780638da5cb5b14610ed85761014b565b806305e261341461015057806313f0df4d146102e3578063162203e7146103f65780631b3b36b5146106bf57806328b5516c146107bf5780632e7f45141461089c575b600080fd5b34801561015c57600080fd5b506102e1600480360360a081101561017357600080fd5b81019080803573ffffffffffffffffffffffffffffffffffffffff169060200190929190803590602001906401000000008111156101b057600080fd5b8201836020820111156101c257600080fd5b803590602001918460018302840111640100000000831117156101e457600080fd5b91908080601f016020809104026020016040519081016040528093929190818152602001838380828437600081840152601f19601f8201169050808301925050505050505091929192908035906020019064010000000081111561024757600080fd5b82018360208201111561025957600080fd5b8035906020019184600183028401116401000000008311171561027b57600080fd5b91908080601f016020809104026020016040519081016040528093929190818152602001838380828437600081840152601f19601f8201169050808301925050505050505091929192908035906020019092919080359060200190929190505050611d5d565b005b6103dc600480360360608110156102f957600080fd5b81019080803573ffffffffffffffffffffffffffffffffffffffff1690602001909291908035906020019064010000000081111561033657600080fd5b82018360208201111561034857600080fd5b8035906020019184600183028401116401000000008311171561036a57600080fd5b91908080601f016020809104026020016040519081016040528093929190818152602001838380828437600081840152601f19601f820116905080830192505050505050509192919290803573ffffffffffffffffffffffffffffffffffffffff1690602001909291905050506123c3565b604051808215151515815260200191505060405180910390f35b34801561040257600080fd5b506106bd600480360361010081101561041a57600080fd5b81019080803573ffffffffffffffffffffffffffffffffffffffff1690602001909291908035906020019064010000000081111561045757600080fd5b82018360208201111561046957600080fd5b8035906020019184600183028401116401000000008311171561048b57600080fd5b91908080601f016020809104026020016040519081016040528093929190818152602001838380828437600081840152601f19601f820116905080830192505050505050509192919290803590602001906401000000008111156104ee57600080fd5b82018360208201111561050057600080fd5b8035906020019184600183028401116401000000008311171561052257600080fd5b91908080601f016020809104026020016040519081016040528093929190818152602001838380828437600081840152601f19601f820116905080830192505050505050509192919290803590602001909291908035906020019092919080359060200190929190803590602001906401000000008111156105a357600080fd5b8201836020820111156105b557600080fd5b803590602001918460018302840111640100000000831117156105d757600080fd5b91908080601f016020809104026020016040519081016040528093929190818152602001838380828437600081840152601f19601f8201169050808301925050505050505091929192908035906020019064010000000081111561063a57600080fd5b82018360208201111561064c57600080fd5b8035906020019184602083028401116401000000008311171561066e57600080fd5b919080806020026020016040519081016040528093929190818152602001838360200280828437600081840152601f19601f82011690508083019250505050505050919291929050505061253d565b005b3480156106cb57600080fd5b506107a5600480360360408110156106e257600080fd5b81019080803573ffffffffffffffffffffffffffffffffffffffff1690602001909291908035906020019064010000000081111561071f57600080fd5b82018360208201111561073157600080fd5b8035906020019184600183028401116401000000008311171561075357600080fd5b91908080601f016020809104026020016040519081016040528093929190818152602001838380828437600081840152601f19601f820116905080830192505050505050509192919290505050612d9b565b604051808215151515815260200191505060405180910390f35b610882600480360360408110156107d557600080fd5b81019080803590602001906401000000008111156107f257600080fd5b82018360208201111561080457600080fd5b8035906020019184600183028401116401000000008311171561082657600080fd5b91908080601f016020809104026020016040519081016040528093929190818152602001838380828437600081840152601f19601f82011690508083019250505050505050919291929080359060200190929190505050612e60565b604051808215151515815260200191505060405180910390f35b3480156108a857600080fd5b5061096c600480360360408110156108bf57600080fd5b81019080803590602001906401000000008111156108dc57600080fd5b8201836020820111156108ee57600080fd5b8035906020019184600183028401116401000000008311171561091057600080fd5b91908080601f016020809104026020016040519081016040528093929190818152602001838380828437600081840152601f19601f82011690508083019250505050505050919291929080359060200190929190505050612f89565b604051808c81526020018b81526020018a81526020018060200189815260200188815260200187815260200186815260200185815260200184815260200183815260200182810382528a818151815260200191508051906020019080838360005b838110156109e85780820151818401526020810190506109cd565b50505050905090810190601f168015610a155780820380516001836020036101000a031916815260200191505b509c5050505050505050505050505060405180910390f35b348015610a3957600080fd5b50610af360048036036020811015610a5057600080fd5b8101908080359060200190640100000000811115610a6d57600080fd5b820183602082011115610a7f57600080fd5b80359060200191846001830284011164010000000083111715610aa157600080fd5b91908080601f016020809104026020016040519081016040528093929190818152602001838380828437600081840152601f19601f8201169050808301925050505050505091929192905050506130ab565b6040518082815260200191505060405180910390f35b348015610b1557600080fd5b50610c8660048036036060811015610b2c57600080fd5b81019080803573ffffffffffffffffffffffffffffffffffffffff16906020019092919080359060200190640100000000811115610b6957600080fd5b820183602082011115610b7b57600080fd5b80359060200191846001830284011164010000000083111715610b9d57600080fd5b91908080601f016020809104026020016040519081016040528093929190818152602001838380828437600081840152601f19601f82011690508083019250505050505050919291929080359060200190640100000000811115610c0057600080fd5b820183602082011115610c1257600080fd5b80359060200191846001830284011164010000000083111715610c3457600080fd5b91908080601f016020809104026020016040519081016040528093929190818152602001838380828437600081840152601f19601f8201169050808301925050505050505091929192905050506130d9565b6040518080602001828103825283818151815260200191508051906020019060200280838360005b83811015610cc9578082015181840152602081019050610cae565b505050509050019250505060405180910390f35b348015610ce957600080fd5b50610d2c60048036036020811015610d0057600080fd5b81019080803573ffffffffffffffffffffffffffffffffffffffff169060200190929190505050613464565b6040518082815260200191505060405180910390f35b348015610d4e57600080fd5b50610d5761347c565b005b348015610d6557600080fd5b50610e1f60048036036020811015610d7c57600080fd5b8101908080359060200190640100000000811115610d9957600080fd5b820183602082011115610dab57600080fd5b80359060200191846001830284011164010000000083111715610dcd57600080fd5b91908080601f016020809104026020016040519081016040528093929190818152602001838380828437600081840152601f19601f820116905080830192505050505050509192919290505050613604565b604051808473ffffffffffffffffffffffffffffffffffffffff1673ffffffffffffffffffffffffffffffffffffffff1681526020018060200183151515158152602001828103825284818151815260200191508051906020019080838360005b83811015610e9b578082015181840152602081019050610e80565b50505050905090810190601f168015610ec85780820380516001836020036101000a031916815260200191505b5094505050505060405180910390f35b348015610ee457600080fd5b50610eed613709565b604051808273ffffffffffffffffffffffffffffffffffffffff1673ffffffffffffffffffffffffffffffffffffffff16815260200191505060405180910390f35b348015610f3b57600080fd5b506110b660048036036080811015610f5257600080fd5b81019080803573ffffffffffffffffffffffffffffffffffffffff16906020019092919080359060200190640100000000811115610f8f57600080fd5b820183602082011115610fa157600080fd5b80359060200191846001830284011164010000000083111715610fc357600080fd5b91908080601f016020809104026020016040519081016040528093929190818152602001838380828437600081840152601f19601f8201169050808301925050505050505091929192908035906020019064010000000081111561102657600080fd5b82018360208201111561103857600080fd5b8035906020019184600183028401116401000000008311171561105a57600080fd5b91908080601f016020809104026020016040519081016040528093929190818152602001838380828437600081840152601f19601f82011690508083019250505050505050919291929080359060200190929190505050613732565b604051808681526020018581526020018481526020018381526020018281526020019550505050505060405180910390f35b3480156110f457600080fd5b5061126f6004803603608081101561110b57600080fd5b81019080803573ffffffffffffffffffffffffffffffffffffffff1690602001909291908035906020019064010000000081111561114857600080fd5b82018360208201111561115a57600080fd5b8035906020019184600183028401116401000000008311171561117c57600080fd5b91908080601f016020809104026020016040519081016040528093929190818152602001838380828437600081840152601f19601f820116905080830192505050505050509192919290803590602001906401000000008111156111df57600080fd5b8201836020820111156111f157600080fd5b8035906020019184600183028401116401000000008311171561121357600080fd5b91908080601f016020809104026020016040519081016040528093929190818152602001838380828437600081840152601f19601f82011690508083019250505050505050919291929080359060200190929190505050613c0e565b6040518085815260200184815260200183815260200182815260200194505050505060405180910390f35b3480156112a657600080fd5b50611417600480360360608110156112bd57600080fd5b81019080803573ffffffffffffffffffffffffffffffffffffffff169060200190929190803590602001906401000000008111156112fa57600080fd5b82018360208201111561130c57600080fd5b8035906020019184600183028401116401000000008311171561132e57600080fd5b91908080601f016020809104026020016040519081016040528093929190818152602001838380828437600081840152601f19601f8201169050808301925050505050505091929192908035906020019064010000000081111561139157600080fd5b8201836020820111156113a357600080fd5b803590602001918460018302840111640100000000831117156113c557600080fd5b91908080601f016020809104026020016040519081016040528093929190818152602001838380828437600081840152601f19601f8201169050808301925050505050505091929192905050506140e0565b6040518082815260200191505060405180910390f35b34801561143957600080fd5b506114f36004803603602081101561145057600080fd5b810190808035906020019064010000000081111561146d57600080fd5b82018360208201111561147f57600080fd5b803590602001918460018302840111640100000000831117156114a157600080fd5b91908080601f016020809104026020016040519081016040528093929190818152602001838380828437600081840152601f19601f82011690508083019250505050505050919291929050505061441d565b6040518082815260200191505060405180910390f35b34801561151557600080fd5b506115cf6004803603602081101561152c57600080fd5b810190808035906020019064010000000081111561154957600080fd5b82018360208201111561155b57600080fd5b8035906020019184600183028401116401000000008311171561157d57600080fd5b91908080601f016020809104026020016040519081016040528093929190818152602001838380828437600081840152601f19601f820116905080830192505050505050509192919290505050614498565b604051808273ffffffffffffffffffffffffffffffffffffffff1673ffffffffffffffffffffffffffffffffffffffff16815260200191505060405180910390f35b34801561161d57600080fd5b506116606004803603602081101561163457600080fd5b81019080803573ffffffffffffffffffffffffffffffffffffffff1690602001909291905050506144e1565b604051808273ffffffffffffffffffffffffffffffffffffffff1673ffffffffffffffffffffffffffffffffffffffff16815260200191505060405180910390f35b3480156116ae57600080fd5b50611772600480360360408110156116c557600080fd5b81019080803590602001906401000000008111156116e257600080fd5b8201836020820111156116f457600080fd5b8035906020019184600183028401116401000000008311171561171657600080fd5b91908080601f016020809104026020016040519081016040528093929190818152602001838380828437600081840152601f19601f82011690508083019250505050505050919291929080359060200190929190505050614514565b6040518082815260200191505060405180910390f35b34801561179457600080fd5b5061190f600480360360808110156117ab57600080fd5b81019080803573ffffffffffffffffffffffffffffffffffffffff169060200190929190803590602001906401000000008111156117e857600080fd5b8201836020820111156117fa57600080fd5b8035906020019184600183028401116401000000008311171561181c57600080fd5b91908080601f016020809104026020016040519081016040528093929190818152602001838380828437600081840152601f19601f8201169050808301925050505050505091929192908035906020019064010000000081111561187f57600080fd5b82018360208201111561189157600080fd5b803590602001918460018302840111640100000000831117156118b357600080fd5b91908080601f016020809104026020016040519081016040528093929190818152602001838380828437600081840152601f19601f82011690508083019250505050505050919291929080359060200190929190505050614558565b6040518085815260200184815260200183815260200180602001828103825283818151815260200191508051906020019080838360005b83811015611961578082015181840152602081019050611946565b50505050905090810190601f16801561198e5780820380516001836020036101000a031916815260200191505b509550505050505060405180910390f35b3480156119ab57600080fd5b50611b1c600480360360608110156119c257600080fd5b81019080803573ffffffffffffffffffffffffffffffffffffffff169060200190929190803590602001906401000000008111156119ff57600080fd5b820183602082011115611a1157600080fd5b80359060200191846001830284011164010000000083111715611a3357600080fd5b91908080601f016020809104026020016040519081016040528093929190818152602001838380828437600081840152601f19601f82011690508083019250505050505050919291929080359060200190640100000000811115611a9657600080fd5b820183602082011115611aa857600080fd5b80359060200191846001830284011164010000000083111715611aca57600080fd5b91908080601f016020809104026020016040519081016040528093929190818152602001838380828437600081840152601f19601f820116905080830192505050505050509192919290505050614a2a565b005b348015611b2a57600080fd5b50611b6d60048036036020811015611b4157600080fd5b81019080803573ffffffffffffffffffffffffffffffffffffffff169060200190929190505050614dba565b604051808060200184815260200183151515158152602001828103825285818151815260200191508051906020019080838360005b83811015611bbd578082015181840152602081019050611ba2565b50505050905090810190601f168015611bea5780820380516001836020036101000a031916815260200191505b5094505050505060405180910390f35b348015611c0657600080fd5b50611c4960048036036020811015611c1d57600080fd5b81019080803573ffffffffffffffffffffffffffffffffffffffff169060200190929190505050614e89565b005b348015611c5757600080fd5b50611ca460048036036040811015611c6e57600080fd5b81019080803573ffffffffffffffffffffffffffffffffffffffff16906020019092919080359060200190929190505050615096565b604051808473ffffffffffffffffffffffffffffffffffffffff1673ffffffffffffffffffffffffffffffffffffffff1681526020018060200183151515158152602001828103825284818151815260200191508051906020019080838360005b83811015611d20578082015181840152602081019050611d05565b50505050905090810190601f168015611d4d5780820380516001836020036101000a031916815260200191505b5094505050505060405180910390f35b848360006008826040518082805190602001908083835b60208310611d975780518252602082019150602081019050602083039250611d74565b6001836020036101000a038019825116818451168082178552505050505050905001915050908152602001604051809103902060000160009054906101000a900473ffffffffffffffffffffffffffffffffffffffff1690508073ffffffffffffffffffffffffffffffffffffffff16600760008573ffffffffffffffffffffffffffffffffffffffff1673ffffffffffffffffffffffffffffffffffffffff16815260200190815260200160002060009054906101000a900473ffffffffffffffffffffffffffffffffffffffff1673ffffffffffffffffffffffffffffffffffffffff1614611ef0576040517f08c379a000000000000000000000000000000000000000000000000000000000815260040180806020018281038252601f8152602001807f5573657220616e6420636c69656e7420617265206e6f742072656c617465640081525060200191505060405180910390fd5b87876000816040516020018082805190602001908083835b60208310611f2b5780518252602082019150602081019050602083039250611f08565b6001836020036101000a03801982511681845116808217855250505050505090500191505060405160208183030381529060405280519060200120905080600160008573ffffffffffffffffffffffffffffffffffffffff1673ffffffffffffffffffffffffffffffffffffffff168152602001908152602001600020600101541461201f576040517f08c379a00000000000000000000000000000000000000000000000000000000081526004018080602001828103825260168152602001807f496e76616c69642070617373776f726420676976656e0000000000000000000081525060200191505060405180910390fd5b600061202b8a8a61519f565b90507fffffffffffffffffffffffffffffffffffffffffffffffffffffffffffffffff81146123b55761205c6153c9565b60048b6040518082805190602001908083835b60208310612092578051825260208201915060208101905060208303925061206f565b6001836020036101000a038019825116818451168082178552505050505050905001915050908152602001604051809103902082815481106120d057fe5b90600052602060002090600b020160405180610160016040529081600082015481526020016001820154815260200160028201548152602001600382018054600181600116156101000203166002900480601f0160208091040260200160405190810160405280929190818152602001828054600181600116156101000203166002900480156121a15780601f10612176576101008083540402835291602001916121a1565b820191906000526020600020905b81548152906001019060200180831161218457829003601f168201915b50505050508152602001600482015481526020016005820154815260200160068201548152602001600782015481526020016008820154815260200160098201548152602001600a82015481525050905088816101400181815250508060048c6040518082805190602001908083835b602083106122345780518252602082019150602081019050602083039250612211565b6001836020036101000a0380198251168184511680821785525050505050509050019150509081526020016040518091039020838154811061227257fe5b90600052602060002090600b020160008201518160000155602082015181600101556040820151816002015560608201518160030190805190602001906122ba929190615423565b506080820151816004015560a0820151816005015560c0820151816006015560e082015181600701556101008201518160080155610120820151816009015561014082015181600a01559050507f4aaf47da2b830ec7cb39ceac30735c6b5f91912852a2fcbedca8fb36ea7509398b8b8b6040518080602001848152602001838152602001828103825285818151815260200191508051906020019080838360005b8381101561237757808201518184015260208101905061235c565b50505050905090810190601f1680156123a45780820380516001836020036101000a031916815260200191505b5094505050505060405180910390a1505b505050505050505050505050565b60008173ffffffffffffffffffffffffffffffffffffffff16600760008673ffffffffffffffffffffffffffffffffffffffff1673ffffffffffffffffffffffffffffffffffffffff16815260200190815260200160002060009054906101000a900473ffffffffffffffffffffffffffffffffffffffff1673ffffffffffffffffffffffffffffffffffffffff161415612531577f3266e9973cd88d0b427a9f781262c2810cb85378bdc9e4965a3c7aa22977708e8484604051808373ffffffffffffffffffffffffffffffffffffffff1673ffffffffffffffffffffffffffffffffffffffff16815260200180602001828103825283818151815260200191508051906020019080838360005b838110156124ed5780820151818401526020810190506124d2565b50505050905090810190601f16801561251a5780820380516001836020036101000a031916815260200191505b50935050505060405180910390a160009050612536565b600190505b9392505050565b878660006008826040518082805190602001908083835b602083106125775780518252602082019150602081019050602083039250612554565b6001836020036101000a038019825116818451168082178552505050505050905001915050908152602001604051809103902060000160009054906101000a900473ffffffffffffffffffffffffffffffffffffffff1690508073ffffffffffffffffffffffffffffffffffffffff16600760008573ffffffffffffffffffffffffffffffffffffffff1673ffffffffffffffffffffffffffffffffffffffff16815260200190815260200160002060009054906101000a900473ffffffffffffffffffffffffffffffffffffffff1673ffffffffffffffffffffffffffffffffffffffff16146126d0576040517f08c379a000000000000000000000000000000000000000000000000000000000815260040180806020018281038252601f8152602001807f5573657220616e6420636c69656e7420617265206e6f742072656c617465640081525060200191505060405180910390fd5b8a8a6000816040516020018082805190602001908083835b6020831061270b57805182526020820191506020810190506020830392506126e8565b6001836020036101000a03801982511681845116808217855250505050505090500191505060405160208183030381529060405280519060200120905080600160008573ffffffffffffffffffffffffffffffffffffffff1673ffffffffffffffffffffffffffffffffffffffff16815260200190815260200160002060010154146127ff576040517f08c379a00000000000000000000000000000000000000000000000000000000081526004018080602001828103825260168152602001807f496e76616c69642070617373776f726420676976656e0000000000000000000081525060200191505060405180910390fd5b8b8b600061280d8383612e60565b90506000151581151514156128c1577fe21e12aba131cb57764fb4f32dfbde415652970f3ba0bd02edfa7c79608a7b0383836040518080602001838152602001828103825284818151815260200191508051906020019080838360005b8381101561288557808201518184015260208101905061286a565b50505050905090810190601f1680156128b25780820380516001836020036101000a031916815260200191505b50935050505060405180910390a15b80612934576040517f08c379a00000000000000000000000000000000000000000000000000000000081526004018080602001828103825260118152602001807f4475706c696361746520696e766f69636500000000000000000000000000000081525060200191505060405180910390fd5b8d600c600001819055508c600c600101819055508b600c600201819055508a600c600301908051906020019061296b929190615423565b508960008151811061297957fe5b6020026020010151600c600401819055508960018151811061299757fe5b6020026020010151600c60050181905550896002815181106129b557fe5b6020026020010151600c60060181905550896003815181106129d357fe5b6020026020010151600c60070181905550896004815181106129f157fe5b6020026020010151600c6008018190555089600581518110612a0f57fe5b6020026020010151600c6009018190555060048f6040518082805190602001908083835b60208310612a565780518252602082019150602081019050602083039250612a33565b6001836020036101000a0380198251168184511680821785525050505050509050019150509081526020016040518091039020600c90806001815401808255809150506001900390600052602060002090600b020160009091909190915060008201548160000155600182015481600101556002820154816002015560038201816003019080546001816001161561010002031660029004612af99291906154a3565b50600482015481600401556005820154816005015560068201548160060155600782015481600701556008820154816008015560098201548160090155600a82015481600a0155505060058f6040518082805190602001908083835b60208310612b785780518252602082019150602081019050602083039250612b55565b6001836020036101000a03801982511681845116808217855250505050505090500191505090815260200160405180910390208e9080600181540180825580915050600190039060005260206000200160009091909190915055612bdb8f615341565b507f64b1990245accd502365916f65e5fcd03e71f750f7fcb75f88e699b5c067b8d98f600c60000154600c60010154600c60020154600c600301600c60040154600c60050154600c60060154600c60070154600c60080154600c60090154600c600a015460405180806020018d81526020018c81526020018b8152602001806020018a815260200189815260200188815260200187815260200186815260200185815260200184815260200183810383528f818151815260200191508051906020019080838360005b83811015612cbf578082015181840152602081019050612ca4565b50505050905090810190601f168015612cec5780820380516001836020036101000a031916815260200191505b5083810382528b818154600181600116156101000203166002900481526020019150805460018160011615610100020316600290048015612d6e5780601f10612d4357610100808354040283529160200191612d6e565b820191906000526020600020905b815481529060010190602001808311612d5157829003601f168201915b50509e50505050505050505050505050505060405180910390a15050505050505050505050505050505050565b600080826040516020018082805190602001908083835b60208310612dd55780518252602082019150602081019050602083039250612db2565b6001836020036101000a03801982511681845116808217855250505050505090500191505060405160208183030381529060405280519060200120905080600160008673ffffffffffffffffffffffffffffffffffffffff1673ffffffffffffffffffffffffffffffffffffffff168152602001908152602001600020600101541491505092915050565b600080600090505b6006846040518082805190602001908083835b60208310612e9e5780518252602082019150602081019050602083039250612e7b565b6001836020036101000a038019825116818451168082178552505050505050905001915050908152602001604051809103902054811015612f7d576004846040518082805190602001908083835b60208310612f0f5780518252602082019150602081019050602083039250612eec565b6001836020036101000a03801982511681845116808217855250505050505090500191505090815260200160405180910390208181548110612f4d57fe5b90600052602060002090600b020160000154831415612f70576000915050612f83565b8080600101915050612e68565b50600190505b92915050565b6004828051602081018201805184825260208301602085012081835280955050505050508181548110612fb857fe5b90600052602060002090600b020160009150915050806000015490806001015490806002015490806003018054600181600116156101000203166002900480601f0160208091040260200160405190810160405280929190818152602001828054600181600116156101000203166002900480156130775780601f1061304c57610100808354040283529160200191613077565b820191906000526020600020905b81548152906001019060200180831161305a57829003601f168201915b50505050509080600401549080600501549080600601549080600701549080600801549080600901549080600a015490508b565b6006818051602081018201805184825260208301602085012081835280955050505050506000915090505481565b6060838260006008826040518082805190602001908083835b6020831061311557805182526020820191506020810190506020830392506130f2565b6001836020036101000a038019825116818451168082178552505050505050905001915050908152602001604051809103902060000160009054906101000a900473ffffffffffffffffffffffffffffffffffffffff1690508073ffffffffffffffffffffffffffffffffffffffff16600760008573ffffffffffffffffffffffffffffffffffffffff1673ffffffffffffffffffffffffffffffffffffffff16815260200190815260200160002060009054906101000a900473ffffffffffffffffffffffffffffffffffffffff1673ffffffffffffffffffffffffffffffffffffffff161461326e576040517f08c379a000000000000000000000000000000000000000000000000000000000815260040180806020018281038252601f8152602001807f5573657220616e6420636c69656e7420617265206e6f742072656c617465640081525060200191505060405180910390fd5b86866000816040516020018082805190602001908083835b602083106132a95780518252602082019150602081019050602083039250613286565b6001836020036101000a03801982511681845116808217855250505050505090500191505060405160208183030381529060405280519060200120905080600160008573ffffffffffffffffffffffffffffffffffffffff1673ffffffffffffffffffffffffffffffffffffffff168152602001908152602001600020600101541461339d576040517f08c379a00000000000000000000000000000000000000000000000000000000081526004018080602001828103825260168152602001807f496e76616c69642070617373776f726420676976656e0000000000000000000081525060200191505060405180910390fd5b6005886040518082805190602001908083835b602083106133d357805182526020820191506020810190506020830392506133b0565b6001836020036101000a038019825116818451168082178552505050505050905001915050908152602001604051809103902080548060200260200160405190810160405280929190818152602001828054801561345057602002820191906000526020600020905b81548152602001906001019080831161343c575b505050505096505050505050509392505050565b600b6020528060005260406000206000915090505481565b6134846153c1565b73ffffffffffffffffffffffffffffffffffffffff166000809054906101000a900473ffffffffffffffffffffffffffffffffffffffff1673ffffffffffffffffffffffffffffffffffffffff1614613545576040517f08c379a00000000000000000000000000000000000000000000000000000000081526004018080602001828103825260208152602001807f4f776e61626c653a2063616c6c6572206973206e6f7420746865206f776e657281525060200191505060405180910390fd5b600073ffffffffffffffffffffffffffffffffffffffff166000809054906101000a900473ffffffffffffffffffffffffffffffffffffffff1673ffffffffffffffffffffffffffffffffffffffff167f8be0079c531659141344cd1fd0a4f28419497f9722a3daafe3b4186f6b6457e060405160405180910390a360008060006101000a81548173ffffffffffffffffffffffffffffffffffffffff021916908373ffffffffffffffffffffffffffffffffffffffff160217905550565b6008818051602081018201805184825260208301602085012081835280955050505050506000915090508060000160009054906101000a900473ffffffffffffffffffffffffffffffffffffffff1690806001018054600181600116156101000203166002900480601f0160208091040260200160405190810160405280929190818152602001828054600181600116156101000203166002900480156136ec5780601f106136c1576101008083540402835291602001916136ec565b820191906000526020600020905b8154815290600101906020018083116136cf57829003601f168201915b5050505050908060020160009054906101000a900460ff16905083565b60008060009054906101000a900473ffffffffffffffffffffffffffffffffffffffff16905090565b6000806000806000888760006008826040518082805190602001908083835b602083106137745780518252602082019150602081019050602083039250613751565b6001836020036101000a038019825116818451168082178552505050505050905001915050908152602001604051809103902060000160009054906101000a900473ffffffffffffffffffffffffffffffffffffffff1690508073ffffffffffffffffffffffffffffffffffffffff16600760008573ffffffffffffffffffffffffffffffffffffffff1673ffffffffffffffffffffffffffffffffffffffff16815260200190815260200160002060009054906101000a900473ffffffffffffffffffffffffffffffffffffffff1673ffffffffffffffffffffffffffffffffffffffff16146138cd576040517f08c379a000000000000000000000000000000000000000000000000000000000815260040180806020018281038252601f8152602001807f5573657220616e6420636c69656e7420617265206e6f742072656c617465640081525060200191505060405180910390fd5b8b8b6000816040516020018082805190602001908083835b6020831061390857805182526020820191506020810190506020830392506138e5565b6001836020036101000a03801982511681845116808217855250505050505090500191505060405160208183030381529060405280519060200120905080600160008573ffffffffffffffffffffffffffffffffffffffff1673ffffffffffffffffffffffffffffffffffffffff16815260200190815260200160002060010154146139fc576040517f08c379a00000000000000000000000000000000000000000000000000000000081526004018080602001828103825260168152602001807f496e76616c69642070617373776f726420676976656e0000000000000000000081525060200191505060405180910390fd5b6000613a088e8e61519f565b90507fffffffffffffffffffffffffffffffffffffffffffffffffffffffffffffffff8114613bfb57613a396153c9565b60048f6040518082805190602001908083835b60208310613a6f5780518252602082019150602081019050602083039250613a4c565b6001836020036101000a03801982511681845116808217855250505050505090500191505090815260200160405180910390208281548110613aad57fe5b90600052602060002090600b020160405180610160016040529081600082015481526020016001820154815260200160028201548152602001600382018054600181600116156101000203166002900480601f016020809104026020016040519081016040528092919081815260200182805460018160011615610100020316600290048015613b7e5780601f10613b5357610100808354040283529160200191613b7e565b820191906000526020600020905b815481529060010190602001808311613b6157829003601f168201915b50505050508152602001600482015481526020016005820154815260200160068201548152602001600782015481526020016008820154815260200160098201548152602001600a82015481525050905080600001518160c001518260e001518361010001518461012001519c509c509c509c509c505050613bfd565b505b505050505050945094509450945094565b600080600080878660006008826040518082805190602001908083835b60208310613c4e5780518252602082019150602081019050602083039250613c2b565b6001836020036101000a038019825116818451168082178552505050505050905001915050908152602001604051809103902060000160009054906101000a900473ffffffffffffffffffffffffffffffffffffffff1690508073ffffffffffffffffffffffffffffffffffffffff16600760008573ffffffffffffffffffffffffffffffffffffffff1673ffffffffffffffffffffffffffffffffffffffff16815260200190815260200160002060009054906101000a900473ffffffffffffffffffffffffffffffffffffffff1673ffffffffffffffffffffffffffffffffffffffff1614613da7576040517f08c379a000000000000000000000000000000000000000000000000000000000815260040180806020018281038252601f8152602001807f5573657220616e6420636c69656e7420617265206e6f742072656c617465640081525060200191505060405180910390fd5b8a8a6000816040516020018082805190602001908083835b60208310613de25780518252602082019150602081019050602083039250613dbf565b6001836020036101000a03801982511681845116808217855250505050505090500191505060405160208183030381529060405280519060200120905080600160008573ffffffffffffffffffffffffffffffffffffffff1673ffffffffffffffffffffffffffffffffffffffff1681526020019081526020016000206001015414613ed6576040517f08c379a00000000000000000000000000000000000000000000000000000000081526004018080602001828103825260168152602001807f496e76616c69642070617373776f726420676976656e0000000000000000000081525060200191505060405180910390fd5b6000613ee28d8d61519f565b90507fffffffffffffffffffffffffffffffffffffffffffffffffffffffffffffffff81146140cd57613f136153c9565b60048e6040518082805190602001908083835b60208310613f495780518252602082019150602081019050602083039250613f26565b6001836020036101000a03801982511681845116808217855250505050505090500191505090815260200160405180910390208281548110613f8757fe5b90600052602060002090600b020160405180610160016040529081600082015481526020016001820154815260200160028201548152602001600382018054600181600116156101000203166002900480601f0160208091040260200160405190810160405280929190818152602001828054600181600116156101000203166002900480156140585780601f1061402d57610100808354040283529160200191614058565b820191906000526020600020905b81548152906001019060200180831161403b57829003601f168201915b50505050508152602001600482015481526020016005820154815260200160068201548152602001600782015481526020016008820154815260200160098201548152602001600a820154815250509050806000015181608001518260a001518361014001519b509b509b509b5050506140cf565b505b505050505050945094509450949050565b6000838260006008826040518082805190602001908083835b6020831061411c57805182526020820191506020810190506020830392506140f9565b6001836020036101000a038019825116818451168082178552505050505050905001915050908152602001604051809103902060000160009054906101000a900473ffffffffffffffffffffffffffffffffffffffff1690508073ffffffffffffffffffffffffffffffffffffffff16600760008573ffffffffffffffffffffffffffffffffffffffff1673ffffffffffffffffffffffffffffffffffffffff16815260200190815260200160002060009054906101000a900473ffffffffffffffffffffffffffffffffffffffff1673ffffffffffffffffffffffffffffffffffffffff1614614275576040517f08c379a000000000000000000000000000000000000000000000000000000000815260040180806020018281038252601f8152602001807f5573657220616e6420636c69656e7420617265206e6f742072656c617465640081525060200191505060405180910390fd5b86866000816040516020018082805190602001908083835b602083106142b0578051825260208201915060208101905060208303925061428d565b6001836020036101000a03801982511681845116808217855250505050505090500191505060405160208183030381529060405280519060200120905080600160008573ffffffffffffffffffffffffffffffffffffffff1673ffffffffffffffffffffffffffffffffffffffff16815260200190815260200160002060010154146143a4576040517f08c379a00000000000000000000000000000000000000000000000000000000081526004018080602001828103825260168152602001807f496e76616c69642070617373776f726420676976656e0000000000000000000081525060200191505060405180910390fd5b6006886040518082805190602001908083835b602083106143da57805182526020820191506020810190506020830392506143b7565b6001836020036101000a03801982511681845116808217855250505050505090500191505090815260200160405180910390205496505050505050509392505050565b6000816040516020018082805190602001908083835b602083106144565780518252602082019150602081019050602083039250614433565b6001836020036101000a038019825116818451168082178552505050505050905001915050604051602081830303815290604052805190602001209050919050565b6009818051602081018201805184825260208301602085012081835280955050505050506000915054906101000a900473ffffffffffffffffffffffffffffffffffffffff1681565b60076020528060005260406000206000915054906101000a900473ffffffffffffffffffffffffffffffffffffffff1681565b600582805160208101820180518482526020830160208501208183528095505050505050818154811061454357fe5b90600052602060002001600091509150505481565b60008060006060878660006008826040518082805190602001908083835b602083106145995780518252602082019150602081019050602083039250614576565b6001836020036101000a038019825116818451168082178552505050505050905001915050908152602001604051809103902060000160009054906101000a900473ffffffffffffffffffffffffffffffffffffffff1690508073ffffffffffffffffffffffffffffffffffffffff16600760008573ffffffffffffffffffffffffffffffffffffffff1673ffffffffffffffffffffffffffffffffffffffff16815260200190815260200160002060009054906101000a900473ffffffffffffffffffffffffffffffffffffffff1673ffffffffffffffffffffffffffffffffffffffff16146146f2576040517f08c379a000000000000000000000000000000000000000000000000000000000815260040180806020018281038252601f8152602001807f5573657220616e6420636c69656e7420617265206e6f742072656c617465640081525060200191505060405180910390fd5b8a8a6000816040516020018082805190602001908083835b6020831061472d578051825260208201915060208101905060208303925061470a565b6001836020036101000a03801982511681845116808217855250505050505090500191505060405160208183030381529060405280519060200120905080600160008573ffffffffffffffffffffffffffffffffffffffff1673ffffffffffffffffffffffffffffffffffffffff1681526020019081526020016000206001015414614821576040517f08c379a00000000000000000000000000000000000000000000000000000000081526004018080602001828103825260168152602001807f496e76616c69642070617373776f726420676976656e0000000000000000000081525060200191505060405180910390fd5b600061482d8d8d61519f565b90507fffffffffffffffffffffffffffffffffffffffffffffffffffffffffffffffff8114614a175761485e6153c9565b60048e6040518082805190602001908083835b602083106148945780518252602082019150602081019050602083039250614871565b6001836020036101000a038019825116818451168082178552505050505050905001915050908152602001604051809103902082815481106148d257fe5b90600052602060002090600b020160405180610160016040529081600082015481526020016001820154815260200160028201548152602001600382018054600181600116156101000203166002900480601f0160208091040260200160405190810160405280929190818152602001828054600181600116156101000203166002900480156149a35780601f10614978576101008083540402835291602001916149a3565b820191906000526020600020905b81548152906001019060200180831161498657829003601f168201915b50505050508152602001600482015481526020016005820154815260200160068201548152602001600782015481526020016008820154815260200160098201548152602001600a82015481525050905080600001518160200151826040015183606001519b509b509b509b505050614a19565b505b505050505050945094509450949050565b8260001515600160008373ffffffffffffffffffffffffffffffffffffffff1673ffffffffffffffffffffffffffffffffffffffff16815260200190815260200160002060020160009054906101000a900460ff16151514614af4576040517f08c379a00000000000000000000000000000000000000000000000000000000081526004018080602001828103825260138152602001807f5573657220616c7265616479206578697374730000000000000000000000000081525060200191505060405180910390fd5b6000826040516020018082805190602001908083835b60208310614b2d5780518252602082019150602081019050602083039250614b0a565b6001836020036101000a038019825116818451168082178552505050505050905001915050604051602081830303815290604052805190602001209050604051806060016040528085815260200182815260200160011515815250600160008773ffffffffffffffffffffffffffffffffffffffff1673ffffffffffffffffffffffffffffffffffffffff1681526020019081526020016000206000820151816000019080519060200190614be3929190615423565b506020820151816001015560408201518160020160006101000a81548160ff0219169083151502179055509050508460036000600254815260200190815260200160002060006101000a81548173ffffffffffffffffffffffffffffffffffffffff021916908373ffffffffffffffffffffffffffffffffffffffff16021790555060016002600082825401925050819055507f5ae6671f20b51a868ae522f9841ff46bb92cc988a8f2f502deba9d90b8cd8693858585604051808473ffffffffffffffffffffffffffffffffffffffff1673ffffffffffffffffffffffffffffffffffffffff1681526020018060200180602001838103835285818151815260200191508051906020019080838360005b83811015614d10578082015181840152602081019050614cf5565b50505050905090810190601f168015614d3d5780820380516001836020036101000a031916815260200191505b50838103825284818151815260200191508051906020019080838360005b83811015614d76578082015181840152602081019050614d5b565b50505050905090810190601f168015614da35780820380516001836020036101000a031916815260200191505b509550505050505060405180910390a15050505050565b6001602052806000526040600020600091509050806000018054600181600116156101000203166002900480601f016020809104026020016040519081016040528092919081815260200182805460018160011615610100020316600290048015614e665780601f10614e3b57610100808354040283529160200191614e66565b820191906000526020600020905b815481529060010190602001808311614e4957829003601f168201915b5050505050908060010154908060020160009054906101000a900460ff16905083565b614e916153c1565b73ffffffffffffffffffffffffffffffffffffffff166000809054906101000a900473ffffffffffffffffffffffffffffffffffffffff1673ffffffffffffffffffffffffffffffffffffffff1614614f52576040517f08c379a00000000000000000000000000000000000000000000000000000000081526004018080602001828103825260208152602001807f4f776e61626c653a2063616c6c6572206973206e6f7420746865206f776e657281525060200191505060405180910390fd5b600073ffffffffffffffffffffffffffffffffffffffff168173ffffffffffffffffffffffffffffffffffffffff161415614fd8576040517f08c379a00000000000000000000000000000000000000000000000000000000081526004018080602001828103825260268152602001806155756026913960400191505060405180910390fd5b8073ffffffffffffffffffffffffffffffffffffffff166000809054906101000a900473ffffffffffffffffffffffffffffffffffffffff1673ffffffffffffffffffffffffffffffffffffffff167f8be0079c531659141344cd1fd0a4f28419497f9722a3daafe3b4186f6b6457e060405160405180910390a3806000806101000a81548173ffffffffffffffffffffffffffffffffffffffff021916908373ffffffffffffffffffffffffffffffffffffffff16021790555050565b600a60205281600052604060002081815481106150af57fe5b9060005260206000209060030201600091509150508060000160009054906101000a900473ffffffffffffffffffffffffffffffffffffffff1690806001018054600181600116156101000203166002900480601f0160208091040260200160405190810160405280929190818152602001828054600181600116156101000203166002900480156151825780601f1061515757610100808354040283529160200191615182565b820191906000526020600020905b81548152906001019060200180831161516557829003601f168201915b5050505050908060020160009054906101000a900460ff16905083565b600081600081116151fb576040517f08c379a00000000000000000000000000000000000000000000000000000000081526004018080602001828103825260258152602001806155506025913960400191505060405180910390fd5b60008090505b6006856040518082805190602001908083835b602083106152375780518252602082019150602081019050602083039250615214565b6001836020036101000a038019825116818451168082178552505050505050905001915050908152602001604051809103902054811215615315576004856040518082805190602001908083835b602083106152a85780518252602082019150602081019050602083039250615285565b6001836020036101000a038019825116818451168082178552505050505050905001915050908152602001604051809103902081815481106152e657fe5b90600052602060002090600b020160000154841415615308578092505061533a565b8080600101915050615201565b507fffffffffffffffffffffffffffffffffffffffffffffffffffffffffffffffff91505b5092915050565b600060016006836040518082805190602001908083835b6020831061537b5780518252602082019150602081019050602083039250615358565b6001836020036101000a03801982511681845116808217855250505050505090500191505090815260200160405180910390206000828254019250508190559050919050565b600033905090565b60405180610160016040528060008152602001600081526020016000815260200160608152602001600081526020016000815260200160008152602001600081526020016000815260200160008152602001600081525090565b828054600181600116156101000203166002900490600052602060002090601f016020900481019282601f1061546457805160ff1916838001178555615492565b82800160010185558215615492579182015b82811115615491578251825591602001919060010190615476565b5b50905061549f919061552a565b5090565b828054600181600116156101000203166002900490600052602060002090601f016020900481019282601f106154dc5780548555615519565b8280016001018555821561551957600052602060002091601f016020900482015b828111156155185782548255916001019190600101906154fd565b5b509050615526919061552a565b5090565b61554c91905b80821115615548576000816000905550600101615530565b5090565b9056fe496e766f696365206e756d626572206d7573742062652067726561746572207468616e20304f776e61626c653a206e6577206f776e657220697320746865207a65726f2061646472657373a2646970667358221220a73a2faa9438acdb4fc51b7ca348b5a5d682e53a175e7a27091a946b8a7e35c964736f6c63430006060033",
  "immutableReferences": {},
  "source": "// SPDX-License-Identifier: GPL-3.0\npragma solidity ^0.6.6;\n\n//import \"@openzeppelin/contracts/access/Ownable.sol\";\nimport \"./Password.sol\";\n\n/// @title Invoices contract\n/// @author Denis M. Putnam\n/// @notice This contract handles invoices for payment\n/// @dev Use at your own risk.\ncontract Invoices is Password {\n    Invoice newInvoice;\n\n    event duplicateInvoiceEvent(string _clientName, uint256 _invoiceNumber);\n\n    /// @author Denis M. Putnam\n    /// @notice Check for no duplicate invoice.\n    /// @param _clientName name of the client.\n    /// @param _invoiceNumber invoice number.\n    /// @dev no other details.\n    function isNoDuplicateInvoice(\n        string memory _clientName,\n        uint256 _invoiceNumber\n    ) public payable returns (bool) {\n        for (uint256 i = 0; i < clientNameInvoicesCountMap[_clientName]; i++) {\n            // if (_invoiceNumber == clientInvoiceMap[_clientName][i]) {\n            //     return false;\n            // }\n            if (\n                _invoiceNumber ==\n                clientNameInvoicesMap[_clientName][i].invoiceNumber\n            ) {\n                return false;\n            }\n        }\n        return true;\n    }\n\n    // modifier noDupUser(address _address) {\n    //     require(usersMap[_address].flag == false, \"User already exists\");\n    //     _;\n    // }\n\n    modifier noDupInvoice(string memory _clientName, uint256 _invoiceNumber) {\n        bool flag = isNoDuplicateInvoice(_clientName, _invoiceNumber);\n        if (flag == false) {\n            emit duplicateInvoiceEvent(_clientName, _invoiceNumber);\n        }\n        require(flag, \"Duplicate invoice\");\n        _;\n    }\n\n    modifier isInvoiceNumber(uint256 _invoiceNumber) {\n        require(_invoiceNumber > 0, \"Invoice number must be greater than 0\");\n        _;\n    }\n\n    event addInvoiceEvent(\n        string _clientName,\n        uint256 _invoiceNumber,\n        uint256 _netTerms,\n        uint256 _numberHours,\n        string _amount,\n        uint256 _timesheetEndDate,\n        uint256 _invoiceSentDate,\n        uint256 _due30DaysDate,\n        uint256 _due60DaysDate,\n        uint256 _due90DaysDate,\n        uint256 _due120DaysDate,\n        uint256 _datePmtReceived\n    );\n\n    event updateInvoiceEvent(\n        string _clientName,\n        uint256 _invoiceNumber,\n        uint256 _datePmtReceived\n    );\n\n    event addUserEvent(address payable _address, string _name, string _pwd);\n\n    /// @author Denis M. Putnam\n    /// @notice Add a user\n    /// @param _address wallet account address for the user\n    /// @param _name user name\n    /// @param _pwd unencrypted password\n    /// @dev no other details.\n    function addUser(\n        address payable _address,\n        string memory _name,\n        string memory _pwd\n    ) public noDupUser(_address) {\n        bytes32 epwd = keccak256(abi.encodePacked(_pwd));\n        usersMap[_address] = User(_name, epwd, true);\n        userIndexMap[userCount] = _address;\n        userCount += 1;\n        emit addUserEvent(_address, _name, _pwd);\n    }\n\n    /// @author Denis M. Putnam\n    /// @notice Add an invoice to track\n    /// @param _userAddress user address\n    /// @param _pwd user password in plaintext\n    /// @param _clientName name of the client\n    /// @param _invoiceNumber invoice number\n    /// @param _netTerms net terms for 30, 60, 90, or 120 days.\n    /// @param _numberHours number of hours for the timesheet.\n    /// @param _amount amount in dollars.\n    /// @param _dates array of dates for timesheetEndDate, invoiceSentDate, due30DaysDate, due60DaysDate, due90DaysDate, due120DaysDate\n    /// @dev Add's an invoice to be tracked.\n    function addInvoice(\n        address _userAddress,\n        string memory _pwd,\n        string memory _clientName,\n        uint256 _invoiceNumber,\n        uint256 _netTerms,\n        uint256 _numberHours,\n        string memory _amount,\n        uint256[] memory _dates\n    )\n        public\n        userOnly(_userAddress, _clientName)\n        isValidPassword(_userAddress, _pwd)\n        noDupInvoice(_clientName, _invoiceNumber)\n    {\n        newInvoice.invoiceNumber = _invoiceNumber;\n        newInvoice.netTerms = _netTerms;\n        newInvoice.numberHours = _numberHours;\n        newInvoice.amount = _amount;\n        newInvoice.timesheetEndDate = _dates[0]; // timesheetEndDate\n        newInvoice.invoiceSentDate = _dates[1]; // invoiceSentDate\n        newInvoice.due30DaysDate = _dates[2]; // due30DaysDate\n        newInvoice.due60DaysDate = _dates[3]; // due60DaysDate\n        newInvoice.due90DaysDate = _dates[4]; // due90DaysDate\n        newInvoice.due120DaysDate = _dates[5]; // due120DaysDate\n\n        clientNameInvoicesMap[_clientName].push(newInvoice);\n        clientNameInvoiceNumMap[_clientName].push(_invoiceNumber);\n\n        incremmentInvoiceCount(_clientName);\n\n        emit addInvoiceEvent(\n            _clientName,\n            newInvoice.invoiceNumber,\n            newInvoice.netTerms,\n            newInvoice.numberHours,\n            newInvoice.amount,\n            newInvoice.timesheetEndDate,\n            newInvoice.invoiceSentDate,\n            newInvoice.due30DaysDate,\n            newInvoice.due60DaysDate,\n            newInvoice.due90DaysDate,\n            newInvoice.due120DaysDate,\n            newInvoice.datePmtReceived\n        );\n    }\n\n    function incremmentInvoiceCount(string memory _clientName)\n        private\n        returns (uint256)\n    {\n        return clientNameInvoicesCountMap[_clientName] += 1;\n    }\n\n    /// @author Denis M. Putnam\n    /// @notice Get the count of invoices associated with the given client name\n    /// @param _userAddress user address\n    /// @param _pwd plaintext user password\n    /// @param _clientName name of the client\n    /// @dev no other details.\n    /// @return count of invoices associated with the given client\n    function getInvoiceCount(\n        address _userAddress,\n        string memory _pwd,\n        string memory _clientName\n    )\n        public\n        view\n        userOnly(_userAddress, _clientName)\n        isValidPassword(_userAddress, _pwd)\n        returns (\n            uint256 count\n        )\n    {\n        count = clientNameInvoicesCountMap[_clientName];\n        // count = getInvoiceCount(_clientName);\n    }\n\n    /// @author Denis M. Putnam\n    /// @notice Get the list of invoice numbers as a string for the given client name.\n    /// @param _userAddress user address\n    /// @param _pwd plain text user password\n    /// @param _clientName name of the client\n    /// @dev returned string is a comma separated string of invoice numbers.  The comma is also the end of the string if no other values appear.\n    /// @return a comma seperated list of invoice numbers associated with the client.\n    function getInvoiceNumbers(\n        address _userAddress,\n        string memory _pwd,\n        string memory _clientName\n    )\n        public\n        view\n        userOnly(_userAddress, _clientName)\n        isValidPassword(_userAddress, _pwd)\n        returns (\n            uint256[] memory\n        )\n    {\n        return clientNameInvoiceNumMap[_clientName];\n    }\n\n    function findInvoiceIndex(string memory _clientName, uint256 _invoiceNumber)\n        private\n        view\n        isInvoiceNumber(_invoiceNumber)\n        returns (int256 index)\n    {\n        for (\n            int256 i = 0;\n            i < int256(clientNameInvoicesCountMap[_clientName]);\n            i++\n        ) {\n            //clientNameInvoicesMap\n            if (\n                _invoiceNumber ==\n                clientNameInvoicesMap[_clientName][uint256(i)].invoiceNumber\n            ) {\n                return i;\n            }\n        }\n        return -1;\n    }\n\n    /// @author Denis M. Putnam\n    /// @notice Update an invoice with the payment date\n    /// @param _userAddress user address\n    /// @param _pwd plain text password\n    /// @param _clientName name of the client\n    /// @param _invoiceNumber invoice number being requested.\n    /// @param _invoicePmtDate payment date\n    /// @dev no other details\n    function updateInvoice(\n        address _userAddress,\n        string memory _pwd,\n        string memory _clientName,\n        uint256 _invoiceNumber,\n        uint256 _invoicePmtDate\n    )\n        public\n        userOnly(_userAddress, _clientName)\n        isValidPassword(_userAddress, _pwd)\n    {\n        int256 _index = findInvoiceIndex(_clientName, _invoiceNumber);\n        if (_index != -1) {\n          Invoice memory lInvoice = clientNameInvoicesMap[_clientName][uint256(_index)];\n          lInvoice.datePmtReceived = _invoicePmtDate;\n          clientNameInvoicesMap[_clientName][uint256(_index)] = lInvoice;\n          emit updateInvoiceEvent(\n              _clientName,\n              _invoiceNumber,\n              _invoicePmtDate\n          );\n        }\n    }\n\n    /// @author Denis M. Putnam\n    /// @notice Get an invoice\n    /// @param _userAddress user address\n    /// @param _pwd plain text password\n    /// @param _clientName name of the client\n    /// @param _invoiceNumber invoice number being requested.\n    /// @dev no other details\n    /// @return invoiceNumber\n    /// @return netTerms\n    /// @return numberHours\n    /// @return amount\n    function getInvoice(\n        address _userAddress,\n        string memory _pwd,\n        string memory _clientName,\n        uint256 _invoiceNumber\n    )\n        public\n        view\n        userOnly(_userAddress, _clientName)\n        isValidPassword(_userAddress, _pwd)\n        returns (\n            uint256 invoiceNumber,\n            uint256 netTerms,\n            uint256 numberHours,\n            string memory amount\n        )\n    {\n        int256 _index = findInvoiceIndex(_clientName, _invoiceNumber);\n        if (_index != -1) {\n            Invoice memory lInvoice = clientNameInvoicesMap[_clientName][uint256(_index)];\n            return (\n                lInvoice.invoiceNumber,\n                lInvoice.netTerms,\n                lInvoice.numberHours,\n                lInvoice.amount\n            );\n        }\n    }\n\n    /// @author Denis M. Putnam\n    /// @notice Get an invoice\n    /// @param _userAddress user address\n    /// @param _pwd plain text password\n    /// @param _clientName name of the client\n    /// @param _invoiceNumber invoice number being requested.\n    /// @dev no other details\n    /// @return invoiceNumber\n    /// @return timesheetEndDate\n    /// @return invoiceSentDate\n    /// @return datePmtReceived\n    function getInvoiceDates(\n        address _userAddress,\n        string memory _pwd,\n        string memory _clientName,\n        uint256 _invoiceNumber\n    )\n        public\n        view\n        userOnly(_userAddress, _clientName)\n        isValidPassword(_userAddress, _pwd)\n        returns (\n            uint256 invoiceNumber,\n            uint256 timesheetEndDate,\n            uint256 invoiceSentDate,\n            uint256 datePmtReceived\n        )\n    {\n        int256 _index = findInvoiceIndex(_clientName, _invoiceNumber);\n        if (_index != -1) {\n          Invoice memory lInvoice = clientNameInvoicesMap[_clientName][uint256(_index)];\n          return (\n                lInvoice.invoiceNumber,\n                lInvoice.timesheetEndDate,\n                lInvoice.invoiceSentDate,\n                lInvoice.datePmtReceived\n          );\n        }\n    }\n\n    /// @author Denis M. Putnam\n    /// @notice Get an invoice\n    /// @param _userAddress user address\n    /// @param _pwd plain text password\n    /// @param _clientName name of the client\n    /// @param _invoiceNumber invoice number being requested.\n    /// @dev no other details\n    /// @return invoiceNumber\n    /// @return due30DaysDate\n    /// @return due60DaysDate\n    /// @return due90DaysDate\n    /// @return due120DaysDate\n    function getInvoiceDueDates(\n        address _userAddress,\n        string memory _pwd,\n        string memory _clientName,\n        uint256 _invoiceNumber\n    )\n        public\n        view\n        userOnly(_userAddress, _clientName)\n        isValidPassword(_userAddress, _pwd)\n        returns (\n            uint256 invoiceNumber,\n            uint256 due30DaysDate,\n            uint256 due60DaysDate,\n            uint256 due90DaysDate,\n            uint256 due120DaysDate\n        )\n    {\n        int256 _index = findInvoiceIndex(_clientName, _invoiceNumber);\n        if (_index != -1) {\n          Invoice memory lInvoice = clientNameInvoicesMap[_clientName][uint256(_index)];\n          return (\n              lInvoice.invoiceNumber,\n              lInvoice.due30DaysDate,\n              lInvoice.due60DaysDate,\n              lInvoice.due90DaysDate,\n              lInvoice.due120DaysDate\n          );\n        }\n    }\n}\n",
  "sourcePath": "/Users/denisputnam/git/invoice-tracker-dapp/contracts/Invoices.sol",
  "compiler": {
    "name": "solc",
    "version": "0.6.6+commit.6c089d02.Emscripten.clang"
  },
  "schemaVersion": "3.2.3",
  "updatedAt": "2020-08-06T20:52:56.044Z",
  "devdoc": {
    "author": "Denis M. Putnam",
    "details": "Use at your own risk.",
    "methods": {
      "addInvoice(address,string,string,uint256,uint256,uint256,string,uint256[])": {
        "author": "Denis M. Putnam",
        "details": "Add's an invoice to be tracked.",
        "params": {
          "_amount": "amount in dollars.",
          "_clientName": "name of the client",
          "_dates": "array of dates for timesheetEndDate, invoiceSentDate, due30DaysDate, due60DaysDate, due90DaysDate, due120DaysDate",
          "_invoiceNumber": "invoice number",
          "_netTerms": "net terms for 30, 60, 90, or 120 days.",
          "_numberHours": "number of hours for the timesheet.",
          "_pwd": "user password in plaintext",
          "_userAddress": "user address"
        }
      },
      "addUser(address,string,string)": {
        "author": "Denis M. Putnam",
        "details": "no other details.",
        "params": {
          "_address": "wallet account address for the user",
          "_name": "user name",
          "_pwd": "unencrypted password"
        }
      },
      "calcPassword(string)": {
        "author": "Denis M. Putnam",
        "details": "no other details.",
        "params": {
          "_pwd": "plain text password"
        },
        "returns": {
          "ePwd": "ePwd"
        }
      },
      "getInvoice(address,string,string,uint256)": {
        "author": "Denis M. Putnam",
        "details": "no other details",
        "params": {
          "_clientName": "name of the client",
          "_invoiceNumber": "invoice number being requested.",
          "_pwd": "plain text password",
          "_userAddress": "user address"
        },
        "returns": {
          "amount": "amount",
          "invoiceNumber": "invoiceNumber",
          "netTerms": "netTerms",
          "numberHours": "numberHours"
        }
      },
      "getInvoiceCount(address,string,string)": {
        "author": "Denis M. Putnam",
        "details": "no other details.",
        "params": {
          "_clientName": "name of the client",
          "_pwd": "plaintext user password",
          "_userAddress": "user address"
        },
        "returns": {
          "count": "of invoices associated with the given client"
        }
      },
      "getInvoiceDates(address,string,string,uint256)": {
        "author": "Denis M. Putnam",
        "details": "no other details",
        "params": {
          "_clientName": "name of the client",
          "_invoiceNumber": "invoice number being requested.",
          "_pwd": "plain text password",
          "_userAddress": "user address"
        },
        "returns": {
          "datePmtReceived": "datePmtReceived",
          "invoiceNumber": "invoiceNumber",
          "invoiceSentDate": "invoiceSentDate",
          "timesheetEndDate": "timesheetEndDate"
        }
      },
      "getInvoiceDueDates(address,string,string,uint256)": {
        "author": "Denis M. Putnam",
        "details": "no other details",
        "params": {
          "_clientName": "name of the client",
          "_invoiceNumber": "invoice number being requested.",
          "_pwd": "plain text password",
          "_userAddress": "user address"
        },
        "returns": {
          "due120DaysDate": "due120DaysDate",
          "due30DaysDate": "due30DaysDate",
          "due60DaysDate": "due60DaysDate",
          "due90DaysDate": "due90DaysDate",
          "invoiceNumber": "invoiceNumber"
        }
      },
      "getInvoiceNumbers(address,string,string)": {
        "author": "Denis M. Putnam",
        "details": "returned string is a comma separated string of invoice numbers.  The comma is also the end of the string if no other values appear.",
        "params": {
          "_clientName": "name of the client",
          "_pwd": "plain text user password",
          "_userAddress": "user address"
        },
        "returns": {
          "_0": "a comma seperated list of invoice numbers associated with the client."
        }
      },
      "isNoClient(address,string,address)": {
        "author": "Denis M. Putnam",
        "details": "no other details.",
        "params": {
          "_clientID": "clients wallet address.",
          "_clientName": "name of the client."
        }
      },
      "isNoDuplicateInvoice(string,uint256)": {
        "author": "Denis M. Putnam",
        "details": "no other details.",
        "params": {
          "_clientName": "name of the client.",
          "_invoiceNumber": "invoice number."
        }
      },
      "owner()": {
        "details": "Returns the address of the current owner."
      },
      "renounceOwnership()": {
        "details": "Leaves the contract without owner. It will not be possible to call `onlyOwner` functions anymore. Can only be called by the current owner.     * NOTE: Renouncing ownership will leave the contract without an owner, thereby removing any functionality that is only available to the owner."
      },
      "transferOwnership(address)": {
        "details": "Transfers ownership of the contract to a new account (`newOwner`). Can only be called by the current owner."
      },
      "updateInvoice(address,string,string,uint256,uint256)": {
        "author": "Denis M. Putnam",
        "details": "no other details",
        "params": {
          "_clientName": "name of the client",
          "_invoiceNumber": "invoice number being requested.",
          "_invoicePmtDate": "payment date",
          "_pwd": "plain text password",
          "_userAddress": "user address"
        }
      }
    },
    "title": "Invoices contract"
  },
  "userdoc": {
    "methods": {
      "addInvoice(address,string,string,uint256,uint256,uint256,string,uint256[])": {
        "notice": "Add an invoice to track"
      },
      "addUser(address,string,string)": {
        "notice": "Add a user"
      },
      "calcPassword(string)": {
        "notice": "calculate the encrypted password from the given one"
      },
      "getInvoice(address,string,string,uint256)": {
        "notice": "Get an invoice"
      },
      "getInvoiceCount(address,string,string)": {
        "notice": "Get the count of invoices associated with the given client name"
      },
      "getInvoiceDates(address,string,string,uint256)": {
        "notice": "Get an invoice"
      },
      "getInvoiceDueDates(address,string,string,uint256)": {
        "notice": "Get an invoice"
      },
      "getInvoiceNumbers(address,string,string)": {
        "notice": "Get the list of invoice numbers as a string for the given client name."
      },
      "isNoClient(address,string,address)": {
        "notice": "Check for no client."
      },
      "isNoDuplicateInvoice(string,uint256)": {
        "notice": "Check for no duplicate invoice."
      },
      "updateInvoice(address,string,string,uint256,uint256)": {
        "notice": "Update an invoice with the payment date"
      }
    },
    "notice": "This contract handles invoices for payment"
  }
}