{
  "contractName": "InvoiceTracker",
  "abi": [
    {
      "inputs": [],
      "stateMutability": "payable",
      "type": "constructor"
    },
    {
      "anonymous": false,
      "inputs": [
        {
          "indexed": true,
          "internalType": "address",
          "name": "previousOwner",
          "type": "address"
        },
        {
          "indexed": true,
          "internalType": "address",
          "name": "newOwner",
          "type": "address"
        }
      ],
      "name": "OwnershipTransferred",
      "type": "event"
    },
    {
      "anonymous": false,
      "inputs": [
        {
          "indexed": false,
          "internalType": "address",
          "name": "_userAddress",
          "type": "address"
        },
        {
          "indexed": false,
          "internalType": "address",
          "name": "_clientID",
          "type": "address"
        },
        {
          "indexed": false,
          "internalType": "string",
          "name": "_name",
          "type": "string"
        }
      ],
      "name": "addClientEvent",
      "type": "event"
    },
    {
      "anonymous": false,
      "inputs": [
        {
          "indexed": false,
          "internalType": "string",
          "name": "_clientName",
          "type": "string"
        },
        {
          "indexed": false,
          "internalType": "uint256",
          "name": "_invoiceNumber",
          "type": "uint256"
        },
        {
          "indexed": false,
          "internalType": "uint256",
          "name": "_netTerms",
          "type": "uint256"
        },
        {
          "indexed": false,
          "internalType": "uint256",
          "name": "_numberHours",
          "type": "uint256"
        },
        {
          "indexed": false,
          "internalType": "string",
          "name": "_amount",
          "type": "string"
        },
        {
          "indexed": false,
          "internalType": "uint256",
          "name": "_timesheetEndDate",
          "type": "uint256"
        },
        {
          "indexed": false,
          "internalType": "uint256",
          "name": "_invoiceSentDate",
          "type": "uint256"
        },
        {
          "indexed": false,
          "internalType": "uint256",
          "name": "_due30DaysDate",
          "type": "uint256"
        },
        {
          "indexed": false,
          "internalType": "uint256",
          "name": "_due60DaysDate",
          "type": "uint256"
        },
        {
          "indexed": false,
          "internalType": "uint256",
          "name": "_due90DaysDate",
          "type": "uint256"
        },
        {
          "indexed": false,
          "internalType": "uint256",
          "name": "_due120DaysDate",
          "type": "uint256"
        },
        {
          "indexed": false,
          "internalType": "uint256",
          "name": "_datePmtReceived",
          "type": "uint256"
        }
      ],
      "name": "addInvoiceEvent",
      "type": "event"
    },
    {
      "anonymous": false,
      "inputs": [
        {
          "indexed": false,
          "internalType": "address payable",
          "name": "_address",
          "type": "address"
        },
        {
          "indexed": false,
          "internalType": "string",
          "name": "_name",
          "type": "string"
        },
        {
          "indexed": false,
          "internalType": "string",
          "name": "_pwd",
          "type": "string"
        }
      ],
      "name": "addUserEvent",
      "type": "event"
    },
    {
      "anonymous": false,
      "inputs": [
        {
          "indexed": false,
          "internalType": "address",
          "name": "_userAddress",
          "type": "address"
        },
        {
          "indexed": false,
          "internalType": "string",
          "name": "_clientID",
          "type": "string"
        }
      ],
      "name": "duplicateClientEvent",
      "type": "event"
    },
    {
      "anonymous": false,
      "inputs": [
        {
          "indexed": false,
          "internalType": "string",
          "name": "_clientName",
          "type": "string"
        },
        {
          "indexed": false,
          "internalType": "uint256",
          "name": "_invoiceNumber",
          "type": "uint256"
        }
      ],
      "name": "duplicateInvoiceEvent",
      "type": "event"
    },
    {
      "anonymous": false,
      "inputs": [
        {
          "indexed": false,
          "internalType": "string",
          "name": "_clientName",
          "type": "string"
        },
        {
          "indexed": false,
          "internalType": "uint256",
          "name": "_invoiceNumber",
          "type": "uint256"
        },
        {
          "indexed": false,
          "internalType": "uint256",
          "name": "_datePmtReceived",
          "type": "uint256"
        }
      ],
      "name": "updateInvoiceEvent",
      "type": "event"
    },
    {
      "inputs": [],
      "name": "owner",
      "outputs": [
        {
          "internalType": "address",
          "name": "",
          "type": "address"
        }
      ],
      "stateMutability": "view",
      "type": "function"
    },
    {
      "inputs": [],
      "name": "renounceOwnership",
      "outputs": [],
      "stateMutability": "nonpayable",
      "type": "function"
    },
    {
      "inputs": [
        {
          "internalType": "address",
          "name": "newOwner",
          "type": "address"
        }
      ],
      "name": "transferOwnership",
      "outputs": [],
      "stateMutability": "nonpayable",
      "type": "function"
    },
    {
      "inputs": [
        {
          "internalType": "address",
          "name": "_userAddress",
          "type": "address"
        },
        {
          "internalType": "string",
          "name": "_clientName",
          "type": "string"
        },
        {
          "internalType": "address",
          "name": "_clientID",
          "type": "address"
        }
      ],
      "name": "isNoClient",
      "outputs": [
        {
          "internalType": "bool",
          "name": "",
          "type": "bool"
        }
      ],
      "stateMutability": "payable",
      "type": "function"
    },
    {
      "inputs": [
        {
          "internalType": "address payable",
          "name": "_address",
          "type": "address"
        },
        {
          "internalType": "string",
          "name": "_name",
          "type": "string"
        },
        {
          "internalType": "string",
          "name": "_pwd",
          "type": "string"
        }
      ],
      "name": "addUser",
      "outputs": [],
      "stateMutability": "nonpayable",
      "type": "function"
    },
    {
      "inputs": [
        {
          "internalType": "address",
          "name": "_userAddress",
          "type": "address"
        },
        {
          "internalType": "address",
          "name": "_clientID",
          "type": "address"
        },
        {
          "internalType": "string",
          "name": "_name",
          "type": "string"
        }
      ],
      "name": "addClient",
      "outputs": [],
      "stateMutability": "nonpayable",
      "type": "function"
    },
    {
      "inputs": [
        {
          "internalType": "address",
          "name": "_userAddress",
          "type": "address"
        },
        {
          "internalType": "string",
          "name": "_name",
          "type": "string"
        }
      ],
      "name": "getClientByName",
      "outputs": [
        {
          "internalType": "string",
          "name": "name",
          "type": "string"
        },
        {
          "internalType": "address",
          "name": "clientID",
          "type": "address"
        }
      ],
      "stateMutability": "view",
      "type": "function"
    },
    {
      "inputs": [
        {
          "internalType": "address",
          "name": "_userAddress",
          "type": "address"
        },
        {
          "internalType": "uint256",
          "name": "_index",
          "type": "uint256"
        }
      ],
      "name": "getClientByIndex",
      "outputs": [
        {
          "internalType": "string",
          "name": "name",
          "type": "string"
        },
        {
          "internalType": "address",
          "name": "clientID",
          "type": "address"
        }
      ],
      "stateMutability": "view",
      "type": "function"
    },
    {
      "inputs": [
        {
          "internalType": "address",
          "name": "_userAddress",
          "type": "address"
        }
      ],
      "name": "getUserName",
      "outputs": [
        {
          "internalType": "string",
          "name": "name",
          "type": "string"
        }
      ],
      "stateMutability": "view",
      "type": "function"
    },
    {
      "inputs": [
        {
          "internalType": "address",
          "name": "_userAddress",
          "type": "address"
        }
      ],
      "name": "getUser",
      "outputs": [
        {
          "internalType": "string",
          "name": "name",
          "type": "string"
        },
        {
          "internalType": "bytes32",
          "name": "ePwd",
          "type": "bytes32"
        }
      ],
      "stateMutability": "view",
      "type": "function"
    },
    {
      "inputs": [],
      "name": "getUserCount",
      "outputs": [
        {
          "internalType": "uint256",
          "name": "usercount",
          "type": "uint256"
        }
      ],
      "stateMutability": "view",
      "type": "function"
    },
    {
      "inputs": [
        {
          "internalType": "uint256",
          "name": "_index",
          "type": "uint256"
        }
      ],
      "name": "getUserAddressByIndex",
      "outputs": [
        {
          "internalType": "address",
          "name": "_userAddress",
          "type": "address"
        }
      ],
      "stateMutability": "view",
      "type": "function"
    },
    {
      "inputs": [
        {
          "internalType": "address",
          "name": "_userAddress",
          "type": "address"
        }
      ],
      "name": "getClientCount",
      "outputs": [
        {
          "internalType": "int256",
          "name": "count",
          "type": "int256"
        }
      ],
      "stateMutability": "view",
      "type": "function"
    },
    {
      "inputs": [
        {
          "internalType": "string",
          "name": "_clientName",
          "type": "string"
        },
        {
          "internalType": "uint256",
          "name": "_invoiceNumber",
          "type": "uint256"
        }
      ],
      "name": "isNoDuplicateInvoice",
      "outputs": [
        {
          "internalType": "bool",
          "name": "",
          "type": "bool"
        }
      ],
      "stateMutability": "payable",
      "type": "function"
    },
    {
      "inputs": [
        {
          "internalType": "address",
          "name": "_userAddress",
          "type": "address"
        },
        {
          "internalType": "string",
          "name": "_clientName",
          "type": "string"
        },
        {
          "internalType": "uint256",
          "name": "_invoiceNumber",
          "type": "uint256"
        },
        {
          "internalType": "uint256",
          "name": "_netTerms",
          "type": "uint256"
        },
        {
          "internalType": "uint256",
          "name": "_numberHours",
          "type": "uint256"
        },
        {
          "internalType": "string",
          "name": "_amount",
          "type": "string"
        },
        {
          "internalType": "uint256[]",
          "name": "_dates",
          "type": "uint256[]"
        }
      ],
      "name": "addInvoice",
      "outputs": [],
      "stateMutability": "nonpayable",
      "type": "function"
    },
    {
      "inputs": [
        {
          "internalType": "address",
          "name": "_userAddress",
          "type": "address"
        },
        {
          "internalType": "string",
          "name": "_clientName",
          "type": "string"
        }
      ],
      "name": "getInvoiceCount",
      "outputs": [
        {
          "internalType": "uint256",
          "name": "count",
          "type": "uint256"
        }
      ],
      "stateMutability": "view",
      "type": "function"
    },
    {
      "inputs": [
        {
          "internalType": "address",
          "name": "_userAddress",
          "type": "address"
        },
        {
          "internalType": "string",
          "name": "_clientName",
          "type": "string"
        }
      ],
      "name": "getInvoiceNumbers",
      "outputs": [
        {
          "internalType": "uint256[]",
          "name": "",
          "type": "uint256[]"
        }
      ],
      "stateMutability": "view",
      "type": "function"
    },
    {
      "inputs": [
        {
          "internalType": "address",
          "name": "_userAddress",
          "type": "address"
        },
        {
          "internalType": "string",
          "name": "_clientName",
          "type": "string"
        },
        {
          "internalType": "uint256",
          "name": "_invoiceNumber",
          "type": "uint256"
        },
        {
          "internalType": "uint256",
          "name": "_invoicePmtDate",
          "type": "uint256"
        }
      ],
      "name": "updateInvoice",
      "outputs": [],
      "stateMutability": "nonpayable",
      "type": "function"
    },
    {
      "inputs": [
        {
          "internalType": "address",
          "name": "_userAddress",
          "type": "address"
        },
        {
          "internalType": "string",
          "name": "_clientName",
          "type": "string"
        },
        {
          "internalType": "uint256",
          "name": "_invoiceNumber",
          "type": "uint256"
        }
      ],
      "name": "getInvoice",
      "outputs": [
        {
          "internalType": "uint256",
          "name": "invoiceNumber",
          "type": "uint256"
        },
        {
          "internalType": "uint256",
          "name": "netTerms",
          "type": "uint256"
        },
        {
          "internalType": "uint256",
          "name": "numberHours",
          "type": "uint256"
        },
        {
          "internalType": "string",
          "name": "amount",
          "type": "string"
        }
      ],
      "stateMutability": "view",
      "type": "function"
    },
    {
      "inputs": [
        {
          "internalType": "address",
          "name": "_userAddress",
          "type": "address"
        },
        {
          "internalType": "string",
          "name": "_clientName",
          "type": "string"
        },
        {
          "internalType": "uint256",
          "name": "_invoiceNumber",
          "type": "uint256"
        }
      ],
      "name": "getInvoiceDates",
      "outputs": [
        {
          "internalType": "uint256",
          "name": "invoiceNumber",
          "type": "uint256"
        },
        {
          "internalType": "uint256",
          "name": "timesheetEndDate",
          "type": "uint256"
        },
        {
          "internalType": "uint256",
          "name": "invoiceSentDate",
          "type": "uint256"
        },
        {
          "internalType": "uint256",
          "name": "due30DaysDate",
          "type": "uint256"
        },
        {
          "internalType": "uint256",
          "name": "due60DaysDate",
          "type": "uint256"
        },
        {
          "internalType": "uint256",
          "name": "due90DaysDate",
          "type": "uint256"
        },
        {
          "internalType": "uint256",
          "name": "due120DaysDate",
          "type": "uint256"
        },
        {
          "internalType": "uint256",
          "name": "datePmtReceived",
          "type": "uint256"
        }
      ],
      "stateMutability": "view",
      "type": "function"
    }
  ],
  "bytecode": "0x6080604052600060045560006200001b620000bf60201b60201c565b9050806000806101000a81548173ffffffffffffffffffffffffffffffffffffffff021916908373ffffffffffffffffffffffffffffffffffffffff1602179055508073ffffffffffffffffffffffffffffffffffffffff16600073ffffffffffffffffffffffffffffffffffffffff167f8be0079c531659141344cd1fd0a4f28419497f9722a3daafe3b4186f6b6457e060405160405180910390a350620000c7565b600033905090565b6149ae80620000d76000396000f3fe60806040526004361061011f5760003560e01c8063a41b75b8116100a0578063cca76c5d11610064578063cca76c5d14610f23578063d7554a6814610f9e578063d7603ca21461111d578063d84f55ee1461129d578063f2fde38b146113675761011f565b8063a41b75b814610a29578063a426e2d914610b25578063b568def414610b8a578063b5cb15f714610dbb578063bd9702c714610de65761011f565b8063715018a6116100e7578063715018a6146105e85780638da5cb5b146105ff5780638de7a72f14610656578063999fec331461078d5780639cee1ffe146109215761011f565b806313f0df4d146101245780631e099b4c1461023757806328b5516c1461033e578063626446d31461041b5780636f77926b14610517575b600080fd5b61021d6004803603606081101561013a57600080fd5b81019080803573ffffffffffffffffffffffffffffffffffffffff1690602001909291908035906020019064010000000081111561017757600080fd5b82018360208201111561018957600080fd5b803590602001918460018302840111640100000000831117156101ab57600080fd5b91908080601f016020809104026020016040519081016040528093929190818152602001838380828437600081840152601f19601f820116905080830192505050505050509192919290803573ffffffffffffffffffffffffffffffffffffffff1690602001909291905050506113b8565b604051808215151515815260200191505060405180910390f35b34801561024357600080fd5b506102906004803603604081101561025a57600080fd5b81019080803573ffffffffffffffffffffffffffffffffffffffff169060200190929190803590602001909291905050506115f2565b60405180806020018373ffffffffffffffffffffffffffffffffffffffff1673ffffffffffffffffffffffffffffffffffffffff168152602001828103825284818151815260200191508051906020019080838360005b838110156103025780820151818401526020810190506102e7565b50505050905090810190601f16801561032f5780820380516001836020036101000a031916815260200191505b50935050505060405180910390f35b6104016004803603604081101561035457600080fd5b810190808035906020019064010000000081111561037157600080fd5b82018360208201111561038357600080fd5b803590602001918460018302840111640100000000831117156103a557600080fd5b91908080601f016020809104026020016040519081016040528093929190818152602001838380828437600081840152601f19601f82011690508083019250505050505050919291929080359060200190929190505050611798565b604051808215151515815260200191505060405180910390f35b34801561042757600080fd5b506105156004803603608081101561043e57600080fd5b81019080803573ffffffffffffffffffffffffffffffffffffffff1690602001909291908035906020019064010000000081111561047b57600080fd5b82018360208201111561048d57600080fd5b803590602001918460018302840111640100000000831117156104af57600080fd5b91908080601f016020809104026020016040519081016040528093929190818152602001838380828437600081840152601f19601f82011690508083019250505050505050919291929080359060200190929190803590602001909291905050506118c1565b005b34801561052357600080fd5b506105666004803603602081101561053a57600080fd5b81019080803573ffffffffffffffffffffffffffffffffffffffff169060200190929190505050611df5565b6040518080602001838152602001828103825284818151815260200191508051906020019080838360005b838110156105ac578082015181840152602081019050610591565b50505050905090810190601f1680156105d95780820380516001836020036101000a031916815260200191505b50935050505060405180910390f35b3480156105f457600080fd5b506105fd611f23565b005b34801561060b57600080fd5b506106146120ab565b604051808273ffffffffffffffffffffffffffffffffffffffff1673ffffffffffffffffffffffffffffffffffffffff16815260200191505060405180910390f35b34801561066257600080fd5b506107466004803603606081101561067957600080fd5b81019080803573ffffffffffffffffffffffffffffffffffffffff169060200190929190803590602001906401000000008111156106b657600080fd5b8201836020820111156106c857600080fd5b803590602001918460018302840111640100000000831117156106ea57600080fd5b91908080601f016020809104026020016040519081016040528093929190818152602001838380828437600081840152601f19601f820116905080830192505050505050509192919290803590602001909291905050506120d4565b604051808981526020018881526020018781526020018681526020018581526020018481526020018381526020018281526020019850505050505050505060405180910390f35b34801561079957600080fd5b50610873600480360360408110156107b057600080fd5b81019080803573ffffffffffffffffffffffffffffffffffffffff169060200190929190803590602001906401000000008111156107ed57600080fd5b8201836020820111156107ff57600080fd5b8035906020019184600183028401116401000000008311171561082157600080fd5b91908080601f016020809104026020016040519081016040528093929190818152602001838380828437600081840152601f19601f82011690508083019250505050505050919291929050505061249b565b60405180806020018373ffffffffffffffffffffffffffffffffffffffff1673ffffffffffffffffffffffffffffffffffffffff168152602001828103825284818151815260200191508051906020019080838360005b838110156108e55780820151818401526020810190506108ca565b50505050905090810190601f1680156109125780820380516001836020036101000a031916815260200191505b50935050505060405180910390f35b34801561092d57600080fd5b50610a276004803603606081101561094457600080fd5b81019080803573ffffffffffffffffffffffffffffffffffffffff169060200190929190803573ffffffffffffffffffffffffffffffffffffffff169060200190929190803590602001906401000000008111156109a157600080fd5b8201836020820111156109b357600080fd5b803590602001918460018302840111640100000000831117156109d557600080fd5b91908080601f016020809104026020016040519081016040528093929190818152602001838380828437600081840152601f19601f8201169050808301925050505050505091929192905050506127de565b005b348015610a3557600080fd5b50610b0f60048036036040811015610a4c57600080fd5b81019080803573ffffffffffffffffffffffffffffffffffffffff16906020019092919080359060200190640100000000811115610a8957600080fd5b820183602082011115610a9b57600080fd5b80359060200191846001830284011164010000000083111715610abd57600080fd5b91908080601f016020809104026020016040519081016040528093929190818152602001838380828437600081840152601f19601f820116905080830192505050505050509192919290505050612e02565b6040518082815260200191505060405180910390f35b348015610b3157600080fd5b50610b7460048036036020811015610b4857600080fd5b81019080803573ffffffffffffffffffffffffffffffffffffffff16906020019092919050505061300c565b6040518082815260200191505060405180910390f35b348015610b9657600080fd5b50610db9600480360360e0811015610bad57600080fd5b81019080803573ffffffffffffffffffffffffffffffffffffffff16906020019092919080359060200190640100000000811115610bea57600080fd5b820183602082011115610bfc57600080fd5b80359060200191846001830284011164010000000083111715610c1e57600080fd5b91908080601f016020809104026020016040519081016040528093929190818152602001838380828437600081840152601f19601f82011690508083019250505050505050919291929080359060200190929190803590602001909291908035906020019092919080359060200190640100000000811115610c9f57600080fd5b820183602082011115610cb157600080fd5b80359060200191846001830284011164010000000083111715610cd357600080fd5b91908080601f016020809104026020016040519081016040528093929190818152602001838380828437600081840152601f19601f82011690508083019250505050505050919291929080359060200190640100000000811115610d3657600080fd5b820183602082011115610d4857600080fd5b80359060200191846020830284011164010000000083111715610d6a57600080fd5b919080806020026020016040519081016040528093929190818152602001838360200280828437600081840152601f19601f820116905080830192505050505050509192919290505050613055565b005b348015610dc757600080fd5b50610dd061374d565b6040518082815260200191505060405180910390f35b348015610df257600080fd5b50610ecc60048036036040811015610e0957600080fd5b81019080803573ffffffffffffffffffffffffffffffffffffffff16906020019092919080359060200190640100000000811115610e4657600080fd5b820183602082011115610e5857600080fd5b80359060200191846001830284011164010000000083111715610e7a57600080fd5b91908080601f016020809104026020016040519081016040528093929190818152602001838380828437600081840152601f19601f820116905080830192505050505050509192919290505050613757565b6040518080602001828103825283818151815260200191508051906020019060200280838360005b83811015610f0f578082015181840152602081019050610ef4565b505050509050019250505060405180910390f35b348015610f2f57600080fd5b50610f5c60048036036020811015610f4657600080fd5b81019080803590602001909291905050506139af565b604051808273ffffffffffffffffffffffffffffffffffffffff1673ffffffffffffffffffffffffffffffffffffffff16815260200191505060405180910390f35b348015610faa57600080fd5b5061111b60048036036060811015610fc157600080fd5b81019080803573ffffffffffffffffffffffffffffffffffffffff16906020019092919080359060200190640100000000811115610ffe57600080fd5b82018360208201111561101057600080fd5b8035906020019184600183028401116401000000008311171561103257600080fd5b91908080601f016020809104026020016040519081016040528093929190818152602001838380828437600081840152601f19601f8201169050808301925050505050505091929192908035906020019064010000000081111561109557600080fd5b8201836020820111156110a757600080fd5b803590602001918460018302840111640100000000831117156110c957600080fd5b91908080601f016020809104026020016040519081016040528093929190818152602001838380828437600081840152601f19601f8201169050808301925050505050505091929192905050506139ec565b005b34801561112957600080fd5b5061120d6004803603606081101561114057600080fd5b81019080803573ffffffffffffffffffffffffffffffffffffffff1690602001909291908035906020019064010000000081111561117d57600080fd5b82018360208201111561118f57600080fd5b803590602001918460018302840111640100000000831117156111b157600080fd5b91908080601f016020809104026020016040519081016040528093929190818152602001838380828437600081840152601f19601f82011690508083019250505050505050919291929080359060200190929190505050613d7c565b6040518085815260200184815260200183815260200180602001828103825283818151815260200191508051906020019080838360005b8381101561125f578082015181840152602081019050611244565b50505050905090810190601f16801561128c5780820380516001836020036101000a031916815260200191505b509550505050505060405180910390f35b3480156112a957600080fd5b506112ec600480360360208110156112c057600080fd5b81019080803573ffffffffffffffffffffffffffffffffffffffff16906020019092919050505061411b565b6040518080602001828103825283818151815260200191508051906020019080838360005b8381101561132c578082015181840152602081019050611311565b50505050905090810190601f1680156113595780820380516001836020036101000a031916815260200191505b509250505060405180910390f35b34801561137357600080fd5b506113b66004803603602081101561138a57600080fd5b81019080803573ffffffffffffffffffffffffffffffffffffffff1690602001909291905050506141ff565b005b60008173ffffffffffffffffffffffffffffffffffffffff166008846040518082805190602001908083835b6020831061140757805182526020820191506020810190506020830392506113e4565b6001836020036101000a038019825116818451168082178552505050505050905001915050908152602001604051809103902060009054906101000a900473ffffffffffffffffffffffffffffffffffffffff1673ffffffffffffffffffffffffffffffffffffffff1614801561150857508173ffffffffffffffffffffffffffffffffffffffff16600360008673ffffffffffffffffffffffffffffffffffffffff1673ffffffffffffffffffffffffffffffffffffffff16815260200190815260200160002060009054906101000a900473ffffffffffffffffffffffffffffffffffffffff1673ffffffffffffffffffffffffffffffffffffffff16145b156115e6577f3266e9973cd88d0b427a9f781262c2810cb85378bdc9e4965a3c7aa22977708e8484604051808373ffffffffffffffffffffffffffffffffffffffff1673ffffffffffffffffffffffffffffffffffffffff16815260200180602001828103825283818151815260200191508051906020019080838360005b838110156115a2578082015181840152602081019050611587565b50505050905090810190601f1680156115cf5780820380516001836020036101000a031916815260200191505b50935050505060405180910390a1600090506115eb565b600190505b9392505050565b606060006115fe6147cd565b600660008673ffffffffffffffffffffffffffffffffffffffff1673ffffffffffffffffffffffffffffffffffffffff168152602001908152602001600020848154811061164857fe5b90600052602060002090600302016040518060600160405290816000820160009054906101000a900473ffffffffffffffffffffffffffffffffffffffff1673ffffffffffffffffffffffffffffffffffffffff1673ffffffffffffffffffffffffffffffffffffffff168152602001600182018054600181600116156101000203166002900480601f0160208091040260200160405190810160405280929190818152602001828054600181600116156101000203166002900480156117505780601f1061172557610100808354040283529160200191611750565b820191906000526020600020905b81548152906001019060200180831161173357829003601f168201915b505050505081526020016002820160009054906101000a900460ff16151515158152505090506060816020015190506000826000015190508181945094505050509250929050565b600080600090505b600b846040518082805190602001908083835b602083106117d657805182526020820191506020810190506020830392506117b3565b6001836020036101000a0380198251168184511680821785525050505050509050019150509081526020016040518091039020548110156118b5576009846040518082805190602001908083835b602083106118475780518252602082019150602081019050602083039250611824565b6001836020036101000a0380198251168184511680821785525050505050509050019150509081526020016040518091039020818154811061188557fe5b90600052602060002090600b0201600001548314156118a85760009150506118bb565b80806001019150506117a0565b50600190505b92915050565b838360006001826040518082805190602001908083835b602083106118fb57805182526020820191506020810190506020830392506118d8565b6001836020036101000a038019825116818451168082178552505050505050905001915050908152602001604051809103902060000160009054906101000a900473ffffffffffffffffffffffffffffffffffffffff1690508073ffffffffffffffffffffffffffffffffffffffff16600360008573ffffffffffffffffffffffffffffffffffffffff1673ffffffffffffffffffffffffffffffffffffffff16815260200190815260200160002060009054906101000a900473ffffffffffffffffffffffffffffffffffffffff1673ffffffffffffffffffffffffffffffffffffffff1614611a54576040517f08c379a000000000000000000000000000000000000000000000000000000000815260040180806020018281038252601f8152602001807f5573657220616e6420636c69656e7420617265206e6f742072656c617465640081525060200191505060405180910390fd5b6000611a6188888861440c565b90507fffffffffffffffffffffffffffffffffffffffffffffffffffffffffffffffff8114611deb57611a92614806565b6009886040518082805190602001908083835b60208310611ac85780518252602082019150602081019050602083039250611aa5565b6001836020036101000a03801982511681845116808217855250505050505090500191505090815260200160405180910390208281548110611b0657fe5b90600052602060002090600b020160405180610160016040529081600082015481526020016001820154815260200160028201548152602001600382018054600181600116156101000203166002900480601f016020809104026020016040519081016040528092919081815260200182805460018160011615610100020316600290048015611bd75780601f10611bac57610100808354040283529160200191611bd7565b820191906000526020600020905b815481529060010190602001808311611bba57829003601f168201915b50505050508152602001600482015481526020016005820154815260200160068201548152602001600782015481526020016008820154815260200160098201548152602001600a8201548152505090508581610140018181525050806009896040518082805190602001908083835b60208310611c6a5780518252602082019150602081019050602083039250611c47565b6001836020036101000a03801982511681845116808217855250505050505090500191505090815260200160405180910390208381548110611ca857fe5b90600052602060002090600b02016000820151816000015560208201518160010155604082015181600201556060820151816003019080519060200190611cf0929190614860565b506080820151816004015560a0820151816005015560c0820151816006015560e082015181600701556101008201518160080155610120820151816009015561014082015181600a01559050507f4aaf47da2b830ec7cb39ceac30735c6b5f91912852a2fcbedca8fb36ea7509398888886040518080602001848152602001838152602001828103825285818151815260200191508051906020019080838360005b83811015611dad578082015181840152602081019050611d92565b50505050905090810190601f168015611dda5780820380516001836020036101000a031916815260200191505b5094505050505060405180910390a1505b5050505050505050565b60606000600260008473ffffffffffffffffffffffffffffffffffffffff1673ffffffffffffffffffffffffffffffffffffffff168152602001908152602001600020600001600260008573ffffffffffffffffffffffffffffffffffffffff1673ffffffffffffffffffffffffffffffffffffffff16815260200190815260200160002060010154818054600181600116156101000203166002900480601f016020809104026020016040519081016040528092919081815260200182805460018160011615610100020316600290048015611f135780601f10611ee857610100808354040283529160200191611f13565b820191906000526020600020905b815481529060010190602001808311611ef657829003601f168201915b5050505050915091509150915091565b611f2b614745565b73ffffffffffffffffffffffffffffffffffffffff166000809054906101000a900473ffffffffffffffffffffffffffffffffffffffff1673ffffffffffffffffffffffffffffffffffffffff1614611fec576040517f08c379a00000000000000000000000000000000000000000000000000000000081526004018080602001828103825260208152602001807f4f776e61626c653a2063616c6c6572206973206e6f7420746865206f776e657281525060200191505060405180910390fd5b600073ffffffffffffffffffffffffffffffffffffffff166000809054906101000a900473ffffffffffffffffffffffffffffffffffffffff1673ffffffffffffffffffffffffffffffffffffffff167f8be0079c531659141344cd1fd0a4f28419497f9722a3daafe3b4186f6b6457e060405160405180910390a360008060006101000a81548173ffffffffffffffffffffffffffffffffffffffff021916908373ffffffffffffffffffffffffffffffffffffffff160217905550565b60008060009054906101000a900473ffffffffffffffffffffffffffffffffffffffff16905090565b6000806000806000806000808a8a60006001826040518082805190602001908083835b6020831061211a57805182526020820191506020810190506020830392506120f7565b6001836020036101000a038019825116818451168082178552505050505050905001915050908152602001604051809103902060000160009054906101000a900473ffffffffffffffffffffffffffffffffffffffff1690508073ffffffffffffffffffffffffffffffffffffffff16600360008573ffffffffffffffffffffffffffffffffffffffff1673ffffffffffffffffffffffffffffffffffffffff16815260200190815260200160002060009054906101000a900473ffffffffffffffffffffffffffffffffffffffff1673ffffffffffffffffffffffffffffffffffffffff1614612273576040517f08c379a000000000000000000000000000000000000000000000000000000000815260040180806020018281038252601f8152602001807f5573657220616e6420636c69656e7420617265206e6f742072656c617465640081525060200191505060405180910390fd5b60006122808f8f8f61440c565b90507fffffffffffffffffffffffffffffffffffffffffffffffffffffffffffffffff8114612489576122b1614806565b60098f6040518082805190602001908083835b602083106122e757805182526020820191506020810190506020830392506122c4565b6001836020036101000a0380198251168184511680821785525050505050509050019150509081526020016040518091039020828154811061232557fe5b90600052602060002090600b020160405180610160016040529081600082015481526020016001820154815260200160028201548152602001600382018054600181600116156101000203166002900480601f0160208091040260200160405190810160405280929190818152602001828054600181600116156101000203166002900480156123f65780601f106123cb576101008083540402835291602001916123f6565b820191906000526020600020905b8154815290600101906020018083116123d957829003601f168201915b50505050508152602001600482015481526020016005820154815260200160068201548152602001600782015481526020016008820154815260200160098201548152602001600a820154815250509050806000015181608001518260a001518360c001518460e001518561010001518661012001518761014001519c509c509c509c509c509c509c509c50505061248b565b505b5050509397509397509397509397565b60606000838360006001826040518082805190602001908083835b602083106124d957805182526020820191506020810190506020830392506124b6565b6001836020036101000a038019825116818451168082178552505050505050905001915050908152602001604051809103902060000160009054906101000a900473ffffffffffffffffffffffffffffffffffffffff1690508073ffffffffffffffffffffffffffffffffffffffff16600360008573ffffffffffffffffffffffffffffffffffffffff1673ffffffffffffffffffffffffffffffffffffffff16815260200190815260200160002060009054906101000a900473ffffffffffffffffffffffffffffffffffffffff1673ffffffffffffffffffffffffffffffffffffffff1614612632576040517f08c379a000000000000000000000000000000000000000000000000000000000815260040180806020018281038252601f8152602001807f5573657220616e6420636c69656e7420617265206e6f742072656c617465640081525060200191505060405180910390fd5b60606001876040518082805190602001908083835b6020831061266a5780518252602082019150602081019050602083039250612647565b6001836020036101000a03801982511681845116808217855250505050505090500191505090815260200160405180910390206001018054600181600116156101000203166002900480601f0160208091040260200160405190810160405280929190818152602001828054600181600116156101000203166002900480156127345780601f1061270957610100808354040283529160200191612734565b820191906000526020600020905b81548152906001019060200180831161271757829003601f168201915b5050505050905060006001886040518082805190602001908083835b602083106127735780518252602082019150602081019050602083039250612750565b6001836020036101000a038019825116818451168082178552505050505050905001915050908152602001604051809103902060000160009054906101000a900473ffffffffffffffffffffffffffffffffffffffff16905081819650965050505050509250929050565b8282826127ec8382846113b8565b612841576040517f08c379a00000000000000000000000000000000000000000000000000000000081526004018080602001828103825260288152602001806149516028913960400191505060405180910390fd5b846001856040518082805190602001908083835b602083106128785780518252602082019150602081019050602083039250612855565b6001836020036101000a038019825116818451168082178552505050505050905001915050908152602001604051809103902060000160006101000a81548173ffffffffffffffffffffffffffffffffffffffff021916908373ffffffffffffffffffffffffffffffffffffffff160217905550836001856040518082805190602001908083835b602083106129235780518252602082019150602081019050602083039250612900565b6001836020036101000a0380198251168184511680821785525050505050509050019150509081526020016040518091039020600101908051906020019061296c929190614860565b50600180856040518082805190602001908083835b602083106129a45780518252602082019150602081019050602083039250612981565b6001836020036101000a038019825116818451168082178552505050505050905001915050908152602001604051809103902060020160006101000a81548160ff021916908315150217905550846008856040518082805190602001908083835b60208310612a285780518252602082019150602081019050602083039250612a05565b6001836020036101000a038019825116818451168082178552505050505050905001915050908152602001604051809103902060006101000a81548173ffffffffffffffffffffffffffffffffffffffff021916908373ffffffffffffffffffffffffffffffffffffffff1602179055506000600b856040518082805190602001908083835b60208310612ad15780518252602082019150602081019050602083039250612aae565b6001836020036101000a03801982511681845116808217855250505050505090500191505090815260200160405180910390208190555084600360008873ffffffffffffffffffffffffffffffffffffffff1673ffffffffffffffffffffffffffffffffffffffff16815260200190815260200160002060006101000a81548173ffffffffffffffffffffffffffffffffffffffff021916908373ffffffffffffffffffffffffffffffffffffffff160217905550600660008773ffffffffffffffffffffffffffffffffffffffff1673ffffffffffffffffffffffffffffffffffffffff16815260200190815260200160002060405180606001604052808773ffffffffffffffffffffffffffffffffffffffff16815260200186815260200160011515815250908060018154018082558091505060019003906000526020600020906003020160009091909190915060008201518160000160006101000a81548173ffffffffffffffffffffffffffffffffffffffff021916908373ffffffffffffffffffffffffffffffffffffffff1602179055506020820151816001019080519060200190612c85929190614860565b5060408201518160020160006101000a81548160ff02191690831515021790555050506001600760008873ffffffffffffffffffffffffffffffffffffffff1673ffffffffffffffffffffffffffffffffffffffff168152602001908152602001600020600082825401925050819055507f94b9610dbc7bb1121768f2201c6a4b486d3979ecc0c3e84d475a3ace0381903c868686604051808473ffffffffffffffffffffffffffffffffffffffff1673ffffffffffffffffffffffffffffffffffffffff1681526020018373ffffffffffffffffffffffffffffffffffffffff1673ffffffffffffffffffffffffffffffffffffffff16815260200180602001828103825283818151815260200191508051906020019080838360005b83811015612dbe578082015181840152602081019050612da3565b50505050905090810190601f168015612deb5780820380516001836020036101000a031916815260200191505b5094505050505060405180910390a1505050505050565b6000828260006001826040518082805190602001908083835b60208310612e3e5780518252602082019150602081019050602083039250612e1b565b6001836020036101000a038019825116818451168082178552505050505050905001915050908152602001604051809103902060000160009054906101000a900473ffffffffffffffffffffffffffffffffffffffff1690508073ffffffffffffffffffffffffffffffffffffffff16600360008573ffffffffffffffffffffffffffffffffffffffff1673ffffffffffffffffffffffffffffffffffffffff16815260200190815260200160002060009054906101000a900473ffffffffffffffffffffffffffffffffffffffff1673ffffffffffffffffffffffffffffffffffffffff1614612f97576040517f08c379a000000000000000000000000000000000000000000000000000000000815260040180806020018281038252601f8152602001807f5573657220616e6420636c69656e7420617265206e6f742072656c617465640081525060200191505060405180910390fd5b600b856040518082805190602001908083835b60208310612fcd5780518252602082019150602081019050602083039250612faa565b6001836020036101000a038019825116818451168082178552505050505050905001915050908152602001604051809103902054935050505092915050565b6000600760008373ffffffffffffffffffffffffffffffffffffffff1673ffffffffffffffffffffffffffffffffffffffff168152602001908152602001600020549050919050565b868660006001826040518082805190602001908083835b6020831061308f578051825260208201915060208101905060208303925061306c565b6001836020036101000a038019825116818451168082178552505050505050905001915050908152602001604051809103902060000160009054906101000a900473ffffffffffffffffffffffffffffffffffffffff1690508073ffffffffffffffffffffffffffffffffffffffff16600360008573ffffffffffffffffffffffffffffffffffffffff1673ffffffffffffffffffffffffffffffffffffffff16815260200190815260200160002060009054906101000a900473ffffffffffffffffffffffffffffffffffffffff1673ffffffffffffffffffffffffffffffffffffffff16146131e8576040517f08c379a000000000000000000000000000000000000000000000000000000000815260040180806020018281038252601f8152602001807f5573657220616e6420636c69656e7420617265206e6f742072656c617465640081525060200191505060405180910390fd5b888860006131f68383611798565b90506000151581151514156132aa577fe21e12aba131cb57764fb4f32dfbde415652970f3ba0bd02edfa7c79608a7b0383836040518080602001838152602001828103825284818151815260200191508051906020019080838360005b8381101561326e578082015181840152602081019050613253565b50505050905090810190601f16801561329b5780820380516001836020036101000a031916815260200191505b50935050505060405180910390a15b8061331d576040517f08c379a00000000000000000000000000000000000000000000000000000000081526004018080602001828103825260118152602001807f4475706c696361746520696e766f69636500000000000000000000000000000081525060200191505060405180910390fd5b613325614806565b8b8160000181815250508a816020018181525050898160400181815250508881606001819052508760008151811061335957fe5b60200260200101518160800181815250508760018151811061337757fe5b60200260200101518160a00181815250508760028151811061339557fe5b60200260200101518160c0018181525050876003815181106133b357fe5b60200260200101518160e0018181525050876004815181106133d157fe5b602002602001015181610100018181525050876005815181106133f057fe5b60200260200101518161012001818152505060098d6040518082805190602001908083835b602083106134385780518252602082019150602081019050602083039250613415565b6001836020036101000a03801982511681845116808217855250505050505090500191505090815260200160405180910390208190806001815401808255809150506001900390600052602060002090600b020160009091909190915060008201518160000155602082015181600101556040820151816002015560608201518160030190805190602001906134cf929190614860565b506080820151816004015560a0820151816005015560c0820151816006015560e082015181600701556101008201518160080155610120820151816009015561014082015181600a01555050600a8d6040518082805190602001908083835b60208310613551578051825260208201915060208101905060208303925061352e565b6001836020036101000a03801982511681845116808217855250505050505090500191505090815260200160405180910390208c90806001815401808255809150506001900390600052602060002001600090919091909150556135b48d61474d565b507f64b1990245accd502365916f65e5fcd03e71f750f7fcb75f88e699b5c067b8d98d826000015183602001518460400151856060015186608001518760a001518860c001518960e001518a61010001518b61012001518c610140015160405180806020018d81526020018c81526020018b8152602001806020018a815260200189815260200188815260200187815260200186815260200185815260200184815260200183810383528f818151815260200191508051906020019080838360005b83811015613691578082015181840152602081019050613676565b50505050905090810190601f1680156136be5780820380516001836020036101000a031916815260200191505b5083810382528b818151815260200191508051906020019080838360005b838110156136f75780820151818401526020810190506136dc565b50505050905090810190601f1680156137245780820380516001836020036101000a031916815260200191505b509e50505050505050505050505050505060405180910390a15050505050505050505050505050565b6000600454905090565b6060828260006001826040518082805190602001908083835b602083106137935780518252602082019150602081019050602083039250613770565b6001836020036101000a038019825116818451168082178552505050505050905001915050908152602001604051809103902060000160009054906101000a900473ffffffffffffffffffffffffffffffffffffffff1690508073ffffffffffffffffffffffffffffffffffffffff16600360008573ffffffffffffffffffffffffffffffffffffffff1673ffffffffffffffffffffffffffffffffffffffff16815260200190815260200160002060009054906101000a900473ffffffffffffffffffffffffffffffffffffffff1673ffffffffffffffffffffffffffffffffffffffff16146138ec576040517f08c379a000000000000000000000000000000000000000000000000000000000815260040180806020018281038252601f8152602001807f5573657220616e6420636c69656e7420617265206e6f742072656c617465640081525060200191505060405180910390fd5b600a856040518082805190602001908083835b6020831061392257805182526020820191506020810190506020830392506138ff565b6001836020036101000a038019825116818451168082178552505050505050905001915050908152602001604051809103902080548060200260200160405190810160405280929190818152602001828054801561399f57602002820191906000526020600020905b81548152602001906001019080831161398b575b5050505050935050505092915050565b60006005600083815260200190815260200160002060009054906101000a900473ffffffffffffffffffffffffffffffffffffffff169050919050565b8260001515600260008373ffffffffffffffffffffffffffffffffffffffff1673ffffffffffffffffffffffffffffffffffffffff16815260200190815260200160002060020160009054906101000a900460ff16151514613ab6576040517f08c379a00000000000000000000000000000000000000000000000000000000081526004018080602001828103825260138152602001807f5573657220616c7265616479206578697374730000000000000000000000000081525060200191505060405180910390fd5b6000826040516020018082805190602001908083835b60208310613aef5780518252602082019150602081019050602083039250613acc565b6001836020036101000a038019825116818451168082178552505050505050905001915050604051602081830303815290604052805190602001209050604051806060016040528085815260200182815260200160011515815250600260008773ffffffffffffffffffffffffffffffffffffffff1673ffffffffffffffffffffffffffffffffffffffff1681526020019081526020016000206000820151816000019080519060200190613ba5929190614860565b506020820151816001015560408201518160020160006101000a81548160ff0219169083151502179055509050508460056000600454815260200190815260200160002060006101000a81548173ffffffffffffffffffffffffffffffffffffffff021916908373ffffffffffffffffffffffffffffffffffffffff16021790555060016004600082825401925050819055507f5ae6671f20b51a868ae522f9841ff46bb92cc988a8f2f502deba9d90b8cd8693858585604051808473ffffffffffffffffffffffffffffffffffffffff1673ffffffffffffffffffffffffffffffffffffffff1681526020018060200180602001838103835285818151815260200191508051906020019080838360005b83811015613cd2578082015181840152602081019050613cb7565b50505050905090810190601f168015613cff5780820380516001836020036101000a031916815260200191505b50838103825284818151815260200191508051906020019080838360005b83811015613d38578082015181840152602081019050613d1d565b50505050905090810190601f168015613d655780820380516001836020036101000a031916815260200191505b509550505050505060405180910390a15050505050565b60008060006060868660006001826040518082805190602001908083835b60208310613dbd5780518252602082019150602081019050602083039250613d9a565b6001836020036101000a038019825116818451168082178552505050505050905001915050908152602001604051809103902060000160009054906101000a900473ffffffffffffffffffffffffffffffffffffffff1690508073ffffffffffffffffffffffffffffffffffffffff16600360008573ffffffffffffffffffffffffffffffffffffffff1673ffffffffffffffffffffffffffffffffffffffff16815260200190815260200160002060009054906101000a900473ffffffffffffffffffffffffffffffffffffffff1673ffffffffffffffffffffffffffffffffffffffff1614613f16576040517f08c379a000000000000000000000000000000000000000000000000000000000815260040180806020018281038252601f8152602001807f5573657220616e6420636c69656e7420617265206e6f742072656c617465640081525060200191505060405180910390fd5b6000613f238b8b8b61440c565b90507fffffffffffffffffffffffffffffffffffffffffffffffffffffffffffffffff811461410d57613f54614806565b60098b6040518082805190602001908083835b60208310613f8a5780518252602082019150602081019050602083039250613f67565b6001836020036101000a03801982511681845116808217855250505050505090500191505090815260200160405180910390208281548110613fc857fe5b90600052602060002090600b020160405180610160016040529081600082015481526020016001820154815260200160028201548152602001600382018054600181600116156101000203166002900480601f0160208091040260200160405190810160405280929190818152602001828054600181600116156101000203166002900480156140995780601f1061406e57610100808354040283529160200191614099565b820191906000526020600020905b81548152906001019060200180831161407c57829003601f168201915b50505050508152602001600482015481526020016005820154815260200160068201548152602001600782015481526020016008820154815260200160098201548152602001600a82015481525050905080600001518160200151826040015183606001519850985098509850505061410f565b505b50505093509350935093565b6060600260008373ffffffffffffffffffffffffffffffffffffffff1673ffffffffffffffffffffffffffffffffffffffff1681526020019081526020016000206000018054600181600116156101000203166002900480601f0160208091040260200160405190810160405280929190818152602001828054600181600116156101000203166002900480156141f35780601f106141c8576101008083540402835291602001916141f3565b820191906000526020600020905b8154815290600101906020018083116141d657829003601f168201915b50505050509050919050565b614207614745565b73ffffffffffffffffffffffffffffffffffffffff166000809054906101000a900473ffffffffffffffffffffffffffffffffffffffff1673ffffffffffffffffffffffffffffffffffffffff16146142c8576040517f08c379a00000000000000000000000000000000000000000000000000000000081526004018080602001828103825260208152602001807f4f776e61626c653a2063616c6c6572206973206e6f7420746865206f776e657281525060200191505060405180910390fd5b600073ffffffffffffffffffffffffffffffffffffffff168173ffffffffffffffffffffffffffffffffffffffff16141561434e576040517f08c379a000000000000000000000000000000000000000000000000000000000815260040180806020018281038252602681526020018061492b6026913960400191505060405180910390fd5b8073ffffffffffffffffffffffffffffffffffffffff166000809054906101000a900473ffffffffffffffffffffffffffffffffffffffff1673ffffffffffffffffffffffffffffffffffffffff167f8be0079c531659141344cd1fd0a4f28419497f9722a3daafe3b4186f6b6457e060405160405180910390a3806000806101000a81548173ffffffffffffffffffffffffffffffffffffffff021916908373ffffffffffffffffffffffffffffffffffffffff16021790555050565b6000838360006001826040518082805190602001908083835b602083106144485780518252602082019150602081019050602083039250614425565b6001836020036101000a038019825116818451168082178552505050505050905001915050908152602001604051809103902060000160009054906101000a900473ffffffffffffffffffffffffffffffffffffffff1690508073ffffffffffffffffffffffffffffffffffffffff16600360008573ffffffffffffffffffffffffffffffffffffffff1673ffffffffffffffffffffffffffffffffffffffff16815260200190815260200160002060009054906101000a900473ffffffffffffffffffffffffffffffffffffffff1673ffffffffffffffffffffffffffffffffffffffff16146145a1576040517f08c379a000000000000000000000000000000000000000000000000000000000815260040180806020018281038252601f8152602001807f5573657220616e6420636c69656e7420617265206e6f742072656c617465640081525060200191505060405180910390fd5b84600081116145fb576040517f08c379a00000000000000000000000000000000000000000000000000000000081526004018080602001828103825260258152602001806149066025913960400191505060405180910390fd5b60008090505b600b886040518082805190602001908083835b602083106146375780518252602082019150602081019050602083039250614614565b6001836020036101000a038019825116818451168082178552505050505050905001915050908152602001604051809103902054811215614715576009886040518082805190602001908083835b602083106146a85780518252602082019150602081019050602083039250614685565b6001836020036101000a038019825116818451168082178552505050505050905001915050908152602001604051809103902081815481106146e657fe5b90600052602060002090600b020160000154871415614708578095505061473a565b8080600101915050614601565b507fffffffffffffffffffffffffffffffffffffffffffffffffffffffffffffffff94505b505050509392505050565b600033905090565b60006001600b836040518082805190602001908083835b602083106147875780518252602082019150602081019050602083039250614764565b6001836020036101000a03801982511681845116808217855250505050505090500191505090815260200160405180910390206000828254019250508190559050919050565b6040518060600160405280600073ffffffffffffffffffffffffffffffffffffffff168152602001606081526020016000151581525090565b60405180610160016040528060008152602001600081526020016000815260200160608152602001600081526020016000815260200160008152602001600081526020016000815260200160008152602001600081525090565b828054600181600116156101000203166002900490600052602060002090601f016020900481019282601f106148a157805160ff19168380011785556148cf565b828001600101855582156148cf579182015b828111156148ce5782518255916020019190600101906148b3565b5b5090506148dc91906148e0565b5090565b61490291905b808211156148fe5760008160009055506001016148e6565b5090565b9056fe496e766f696365206e756d626572206d7573742062652067726561746572207468616e20304f776e61626c653a206e6577206f776e657220697320746865207a65726f2061646472657373436c69656e7420616c72656164792065786973747320666f722074686520676976656e2075736572a2646970667358221220f46ace8002208d5eea44f041a7bd4d92d4a23e8ccfad1106bc41767dee48ebfb64736f6c63430006060033",
  "immutableReferences": {},
  "source": "// SPDX-License-Identifier: GPL-3.0\npragma solidity ^0.6.6;\n\n//import \"./Owned.sol\";\nimport \"@openzeppelin/contracts/access/Ownable.sol\";\n\n/// @title Invoice Tracking contract\n/// @author Denis M. Putnam\n/// @notice This contract tracks invoices for payment\n/// @dev Use at your own risk.\ncontract InvoiceTracker is Ownable {\n    /// @dev Invoice struct\n    struct Invoice {\n        uint256 invoiceNumber;\n        uint256 netTerms; // 30, 60 90, 120 days net\n        uint256 numberHours;\n        string amount;\n        uint256 timesheetEndDate;\n        uint256 invoiceSentDate;\n        uint256 due30DaysDate;\n        uint256 due60DaysDate;\n        uint256 due90DaysDate;\n        uint256 due120DaysDate;\n        uint256 datePmtReceived;\n    }\n\n    /// @dev Client struct\n    struct Client {\n        address clientID;\n        string name;\n        bool flag;\n    }\n\n    /// @dev User struct\n    struct User {\n      string name;\n      bytes32 ePwd;\n      bool flag;\n    }\n\n    /// @dev map the name of the client to the Client struct\n    mapping(string => Client) private clientMap;\n    /// @dev map the user address to the User struct\n    mapping(address => User) private usersMap;\n    /// @dev map the user address to the client ID\n    mapping(address => address) private userClientIDMap;\n    /// @dev user count\n    uint userCount = 0;\n    /// @dev map the user index to the user address\n    mapping (uint => address) userIndexMap;\n    /// @dev map the user name to his Clients.\n    mapping(address => Client[]) private usersToClientsMap;\n    /// @dev map the user address to the number of his Clients.\n    mapping(address => int256) private userToNumClientsMap;\n\n    /// @dev array of client names.\n    // string[] private clientNameArray;\n\n    /// @dev map the name of the client to the client address\n    mapping(string => address) private clientNameAddressMap;\n    /// @dev map the name of the client to invoices. this isa one to many mapping.\n    mapping(string => Invoice[]) private clientNameInvoiceMap;\n    /// @dev map the client name to the invoice numbers.\n    mapping(string => uint256[]) private clientNameInvoiceNumMap;\n    /// @dev map the name of the client to an invoice count\n    mapping(string => uint256) private clientNameInvoiceCountMap;\n\n    /// @author Denis M. Putnam\n    /// @notice The constructor for this contract\n    /// @dev no other details\n    constructor() public payable Ownable() {}\n\n    event addClientEvent(address _userAddress, address _clientID, string _name);\n    event duplicateInvoiceEvent(string _clientName, uint256 _invoiceNumber);\n    event duplicateClientEvent(address _userAddress, string _clientID);\n    event addUserEvent(address payable _address, string _name, string _pwd);\n\n    /// @author Denis M. Putnam\n    /// @notice Check for no client.\n    /// @param _clientName name of the client.\n    /// @param _clientID clients wallet address.\n    /// @dev no other details.\n    function isNoClient(address _userAddress, string memory _clientName, address _clientID)\n        public\n        payable\n        returns (bool)\n    {\n        if (clientNameAddressMap[_clientName] == _clientID && userClientIDMap[_userAddress] == _clientID) {\n            emit duplicateClientEvent(_userAddress, _clientName);\n            return false;\n        }\n        return true;\n    }\n\n    modifier noDupClient(address _userAddress, address _clientID, string memory _clientName) {\n        require(isNoClient(_userAddress, _clientName, _clientID), \"Client already exists for the given user\");\n        _;\n    }\n\n    modifier noDupUser(address _address) {\n      require(usersMap[_address].flag == false, \"User already exists\");\n      _;\n    }\n\n    /// @author Denis M. Putnam\n    /// @notice Add a user\n    /// @param _address wallet account address for the user\n    /// @param _name user name\n    /// @param _pwd unencrypted password\n    /// @dev no other details.\n    function addUser(address payable _address, string memory _name, string memory _pwd) public noDupUser(_address) {\n      bytes32 epwd = keccak256(abi.encodePacked(_pwd));\n      usersMap[_address] = User(_name,epwd,true);\n      userIndexMap[userCount] = _address;\n      userCount += 1;\n      emit addUserEvent(_address, _name, _pwd);\n    }\n\n    /// @author Denis M. Putnam\n    /// @notice Add a client to this contract.\n    /// @param _userAddress user address\n    /// @param _clientID address of the wallet of the client.\n    /// @param _name string with the client's name.  This needs to be unique\n    /// @dev Add's a client to the clientMap and the clientNameAddressMap\n    function addClient(address _userAddress,address _clientID, string memory _name)\n        public\n        noDupClient(_userAddress, _clientID, _name)\n    {\n        clientMap[_name].clientID = _clientID;\n        clientMap[_name].name = _name;\n        clientMap[_name].flag = true;\n\n        // clientNameArray.push(_name);\n\n        clientNameAddressMap[_name] = _clientID;\n        clientNameInvoiceCountMap[_name] = 0;\n        userClientIDMap[_userAddress] = _clientID;\n        usersToClientsMap[_userAddress].push(Client(_clientID, _name, true));\n        userToNumClientsMap[_userAddress] += 1;\n        emit addClientEvent(_userAddress, _clientID, _name);\n    }\n\n    /// @author Denis M. Putnam\n    /// @notice Get the requested client\n    /// @param _userAddress user address\n    /// @param _name client's name\n    /// @dev Get the client for the given name.\n    /// @return name\n    /// @return clientID\n    function getClientByName(address _userAddress, string memory _name)\n        public\n        view\n        userOnly(_userAddress, _name)\n        returns (string memory name, address clientID)\n    {\n        string memory lname = clientMap[_name].name;\n        address lclientID = clientMap[_name].clientID;\n        return (lname, lclientID);\n    }\n\n    /// @author Denis M. Putnam\n    /// @notice get the client by index number.\n    /// @param _index index of client name\n    /// @dev no further info\n    /// @return name\n    /// @return clientID\n    function getClientByIndex(address _userAddress, uint256 _index)\n        public\n        view\n        returns (string memory name, address clientID)\n    {\n        Client memory _client = usersToClientsMap[_userAddress][_index];\n        string memory lname = _client.name;\n        address lclientID = _client.clientID;\n        return (lname, lclientID);\n    }\n\n\n    /// @author Denis M. Putnam\n    /// @notice Get the user name\n    /// @param _userAddress user address\n    /// @dev Get the client for the given name.\n    /// @return name\n    function getUserName(address _userAddress) public view returns (string memory name) {\n      return usersMap[_userAddress].name;\n    }\n\n    /// @author Denis M. Putnam\n    /// @notice Get the user name and epassword\n    /// @param _userAddress user address\n    /// @dev Get the client for the given name.\n    /// @return name\n    /// @return ePwd\n    function getUser(address _userAddress) public view returns (string memory name, bytes32 ePwd) {\n      return (usersMap[_userAddress].name, usersMap[_userAddress].ePwd);\n    }\n\n    /// @author Denis M. Putnam\n    /// @notice Get the count of users.\n    /// @return usercount\n    /// @dev no other details.\n    function getUserCount() public view returns (uint usercount) {\n      return userCount;\n    }\n\n    /// @author Denis M. Putnam\n    /// @notice Get the user address\n    /// @param _index index of the user\n    /// @return _userAddress\n    /// @dev no other details.\n    function getUserAddressByIndex(uint _index) public view returns (address _userAddress) {\n      return (userIndexMap[_index]);\n    }\n\n\n    function getClientCount(address _userAddress) public view returns (int256 count) {\n        //return clientNameArray.length;\n        return userToNumClientsMap[_userAddress];\n    }\n\n    /// @author Denis M. Putnam\n    /// @notice Check for no duplicate invoice.\n    /// @param _clientName name of the client.\n    /// @param _invoiceNumber invoice number.\n    /// @dev no other details.\n    function isNoDuplicateInvoice(\n        string memory _clientName,\n        uint256 _invoiceNumber\n    ) public payable returns (bool) {\n        for (uint256 i = 0; i < clientNameInvoiceCountMap[_clientName]; i++) {\n            // if (_invoiceNumber == clientInvoiceMap[_clientName][i]) {\n            //     return false;\n            // }\n            if (\n                _invoiceNumber ==\n                clientNameInvoiceMap[_clientName][i].invoiceNumber\n            ) {\n                return false;\n            }\n        }\n        return true;\n    }\n\n    modifier noDupInvoice(string memory _clientName, uint256 _invoiceNumber) {\n        bool flag = isNoDuplicateInvoice(_clientName, _invoiceNumber);\n        if(flag == false) {\n            emit duplicateInvoiceEvent(_clientName, _invoiceNumber);\n        }\n        require(\n            flag,\n            \"Duplicate invoice\"\n        );\n        _;\n    }\n\n    event addInvoiceEvent(\n        string _clientName,\n        uint256 _invoiceNumber,\n        uint256 _netTerms,\n        uint256 _numberHours,\n        string _amount,\n        uint256 _timesheetEndDate,\n        uint256 _invoiceSentDate,\n        uint256 _due30DaysDate,\n        uint256 _due60DaysDate,\n        uint256 _due90DaysDate,\n        uint256 _due120DaysDate,\n        uint256 _datePmtReceived\n    );\n\n    event updateInvoiceEvent(\n        string _clientName,\n        uint256 _invoiceNumber,\n        uint256 _datePmtReceived\n    );\n\n    modifier userOnly(address _userAddress, string  memory _clientName) {\n      address _clientID = clientMap[_clientName].clientID;\n      require(\n        userClientIDMap[_userAddress] == _clientID,\n       \"User and client are not related\");\n      _;\n    }\n\n    /// @author Denis M. Putnam\n    /// @notice Add an invoice to track\n    /// @param _userAddress user address\n    /// @param _clientName name of the client\n    /// @param _invoiceNumber invoice number\n    /// @param _netTerms net terms for 30, 60, 90, or 120 days.\n    /// @param _numberHours number of hours for the timesheet.\n    /// @param _amount amount in dollars.\n    /// @param _dates array of dates for timesheetEndDate, invoiceSentDate, due30DaysDate, due60DaysDate, due90DaysDate, due120DaysDate\n    /// @dev Add's an invoice to be tracked.\n    function addInvoice(\n        address _userAddress,\n        string memory _clientName,\n        uint256 _invoiceNumber,\n        uint256 _netTerms,\n        uint256 _numberHours,\n        string memory _amount,\n        uint256[] memory _dates\n    ) public userOnly(_userAddress, _clientName) noDupInvoice(_clientName, _invoiceNumber) {\n        Invoice memory newInvoice;\n        newInvoice.invoiceNumber = _invoiceNumber;\n        newInvoice.netTerms = _netTerms;\n        newInvoice.numberHours = _numberHours;\n        newInvoice.amount = _amount;\n        newInvoice.timesheetEndDate = _dates[0]; // timesheetEndDate\n        newInvoice.invoiceSentDate = _dates[1]; // invoiceSentDate\n        newInvoice.due30DaysDate = _dates[2]; // due30DaysDate\n        newInvoice.due60DaysDate = _dates[3]; // due60DaysDate\n        newInvoice.due90DaysDate = _dates[4]; // due90DaysDate\n        newInvoice.due120DaysDate = _dates[5]; // due120DaysDate\n        clientNameInvoiceMap[_clientName].push(newInvoice);\n        clientNameInvoiceNumMap[_clientName].push(_invoiceNumber);\n\n        incremmentInvoiceCount(_clientName);\n\n        emit addInvoiceEvent(\n            _clientName,\n            newInvoice.invoiceNumber,\n            newInvoice.netTerms,\n            newInvoice.numberHours,\n            newInvoice.amount,\n            newInvoice.timesheetEndDate,\n            newInvoice.invoiceSentDate,\n            newInvoice.due30DaysDate,\n            newInvoice.due60DaysDate,\n            newInvoice.due90DaysDate,\n            newInvoice.due120DaysDate,\n            newInvoice.datePmtReceived\n        );\n    }\n\n    function incremmentInvoiceCount(string memory _clientName)\n        private\n        returns (uint256)\n    {\n        return clientNameInvoiceCountMap[_clientName] += 1;\n    }\n\n    /// @author Denis M. Putnam\n    /// @notice Get the count of invoices associated with the given client name\n    /// @param _userAddress user address\n    /// @param _clientName name of the client\n    /// @dev no other details.\n    /// @return count of invoices associated with the given client\n    function getInvoiceCount(address _userAddress, string memory _clientName)\n        public\n        view\n        userOnly(_userAddress, _clientName)\n        returns (uint256 count)\n    {\n        count = clientNameInvoiceCountMap[_clientName];\n    }\n\n    /// @author Denis M. Putnam\n    /// @notice Get the list of invoice numbers as a string for the given client name.\n    /// @param _userAddress user address\n    /// @param _clientName name of the client\n    /// @dev returned string is a comma separated string of invoice numbers.  The comma is also the end of the string if no other values appear.\n    /// @return a comma seperated list of invoice numbers associated with the client.\n    function getInvoiceNumbers(address _userAddress, string memory _clientName)\n        public\n        view\n        userOnly(_userAddress, _clientName)\n        returns (uint256[] memory)\n    {\n        return clientNameInvoiceNumMap[_clientName];\n    }\n\n    modifier isInvoiceNumber(uint256 _invoiceNumber) {\n        require(_invoiceNumber > 0, \"Invoice number must be greater than 0\");\n        _;\n    }\n\n    function findInvoiceIndex(address _userAddress, string memory _clientName, uint256 _invoiceNumber)\n        private\n        view\n        userOnly(_userAddress, _clientName)\n        isInvoiceNumber(_invoiceNumber)\n        returns (int256 index)\n    {\n        for (\n            int256 i = 0;\n            i < int256(clientNameInvoiceCountMap[_clientName]);\n            i++\n        ) {\n            //clientNameInvoiceMap\n            if (\n                _invoiceNumber ==\n                clientNameInvoiceMap[_clientName][uint256(i)].invoiceNumber\n            ) {\n                return i;\n            }\n        }\n        return -1;\n    }\n\n    /// @author Denis M. Putnam\n    /// @notice Update an invoice with the payment date\n    /// @param _userAddress user address\n    /// @param _clientName name of the client\n    /// @param _invoiceNumber invoice number being requested.\n    /// @param _invoicePmtDate payment date\n    /// @dev no other details\n    function updateInvoice(\n        address _userAddress,\n        string memory _clientName,\n        uint256 _invoiceNumber,\n        uint256 _invoicePmtDate\n    ) public userOnly(_userAddress, _clientName){\n        int256 _index = findInvoiceIndex(_userAddress, _clientName, _invoiceNumber);\n        if (_index != -1) {\n            Invoice memory lInvoice = clientNameInvoiceMap[_clientName][uint256(\n                _index\n            )];\n            lInvoice.datePmtReceived = _invoicePmtDate;\n            clientNameInvoiceMap[_clientName][uint256(_index)] = lInvoice;\n            emit updateInvoiceEvent(\n                _clientName,\n                _invoiceNumber,\n                _invoicePmtDate\n            );\n        }\n    }\n\n    /// @author Denis M. Putnam\n    /// @notice Get an invoice\n    /// @param _userAddress user address\n    /// @param _clientName name of the client\n    /// @param _invoiceNumber invoice number being requested.\n    /// @dev no other details\n    /// @return invoiceNumber\n    /// @return netTerms\n    /// @return numberHours\n    /// @return amount\n    function getInvoice(address _userAddress, string memory _clientName, uint256 _invoiceNumber)\n        public\n        view\n        userOnly(_userAddress, _clientName)\n        returns (\n            uint256 invoiceNumber,\n            uint256 netTerms,\n            uint256 numberHours,\n            string memory amount\n        )\n    {\n        int256 _index = findInvoiceIndex(_userAddress, _clientName, _invoiceNumber);\n        if (_index != -1) {\n            Invoice memory lInvoice = clientNameInvoiceMap[_clientName][uint256(\n                _index\n            )];\n            return (\n                lInvoice.invoiceNumber,\n                lInvoice.netTerms,\n                lInvoice.numberHours,\n                lInvoice.amount\n            );\n        }\n    }\n\n    /// @author Denis M. Putnam\n    /// @notice Get an invoice\n    /// @param _userAddress user address\n    /// @param _clientName name of the client\n    /// @param _invoiceNumber invoice number being requested.\n    /// @dev no other details\n    /// @return invoiceNumber\n    /// @return timesheetEndDate\n    /// @return invoiceSentDate\n    /// @return due30DaysDate\n    /// @return due60DaysDate\n    /// @return due90DaysDate\n    /// @return due120DaysDate\n    /// @return datePmtReceived\n    function getInvoiceDates(address _userAddress, string memory _clientName, uint256 _invoiceNumber)\n        public\n        view\n        userOnly(_userAddress, _clientName)\n        returns (\n            uint256 invoiceNumber,\n            uint256 timesheetEndDate,\n            uint256 invoiceSentDate,\n            uint256 due30DaysDate,\n            uint256 due60DaysDate,\n            uint256 due90DaysDate,\n            uint256 due120DaysDate,\n            uint256 datePmtReceived\n        )\n    {\n        int256 _index = findInvoiceIndex(_userAddress, _clientName, _invoiceNumber);\n        if (_index != -1) {\n            Invoice memory lInvoice = clientNameInvoiceMap[_clientName][uint256(\n                _index\n            )];\n            return (\n                lInvoice.invoiceNumber,\n                lInvoice.timesheetEndDate,\n                lInvoice.invoiceSentDate,\n                lInvoice.due30DaysDate,\n                lInvoice.due60DaysDate,\n                lInvoice.due90DaysDate,\n                lInvoice.due120DaysDate,\n                lInvoice.datePmtReceived\n            );\n        }\n    }\n}\n",
  "sourcePath": "/Users/denisputnam/git/invoice-tracker-dapp/contracts/InvoiceTracker.sol",
  "compiler": {
    "name": "solc",
    "version": "0.6.6+commit.6c089d02.Emscripten.clang"
  },
  "schemaVersion": "3.2.3",
  "updatedAt": "2020-07-31T23:34:50.952Z",
  "devdoc": {
    "author": "Denis M. Putnam",
    "details": "Use at your own risk.",
    "methods": {
      "addClient(address,address,string)": {
        "author": "Denis M. Putnam",
        "details": "Add's a client to the clientMap and the clientNameAddressMap",
        "params": {
          "_clientID": "address of the wallet of the client.",
          "_name": "string with the client's name.  This needs to be unique",
          "_userAddress": "user address"
        }
      },
      "addInvoice(address,string,uint256,uint256,uint256,string,uint256[])": {
        "author": "Denis M. Putnam",
        "details": "Add's an invoice to be tracked.",
        "params": {
          "_amount": "amount in dollars.",
          "_clientName": "name of the client",
          "_dates": "array of dates for timesheetEndDate, invoiceSentDate, due30DaysDate, due60DaysDate, due90DaysDate, due120DaysDate",
          "_invoiceNumber": "invoice number",
          "_netTerms": "net terms for 30, 60, 90, or 120 days.",
          "_numberHours": "number of hours for the timesheet.",
          "_userAddress": "user address"
        }
      },
      "addUser(address,string,string)": {
        "author": "Denis M. Putnam",
        "details": "no other details.",
        "params": {
          "_address": "wallet account address for the user",
          "_name": "user name",
          "_pwd": "unencrypted password"
        }
      },
      "constructor": {
        "author": "Denis M. Putnam",
        "details": "no other details"
      },
      "getClientByIndex(address,uint256)": {
        "author": "Denis M. Putnam",
        "details": "no further info",
        "params": {
          "_index": "index of client name"
        },
        "returns": {
          "clientID": "clientID",
          "name": "name"
        }
      },
      "getClientByName(address,string)": {
        "author": "Denis M. Putnam",
        "details": "Get the client for the given name.",
        "params": {
          "_name": "client's name",
          "_userAddress": "user address"
        },
        "returns": {
          "clientID": "clientID",
          "name": "name"
        }
      },
      "getInvoice(address,string,uint256)": {
        "author": "Denis M. Putnam",
        "details": "no other details",
        "params": {
          "_clientName": "name of the client",
          "_invoiceNumber": "invoice number being requested.",
          "_userAddress": "user address"
        },
        "returns": {
          "amount": "amount",
          "invoiceNumber": "invoiceNumber",
          "netTerms": "netTerms",
          "numberHours": "numberHours"
        }
      },
      "getInvoiceCount(address,string)": {
        "author": "Denis M. Putnam",
        "details": "no other details.",
        "params": {
          "_clientName": "name of the client",
          "_userAddress": "user address"
        },
        "returns": {
          "count": "of invoices associated with the given client"
        }
      },
      "getInvoiceDates(address,string,uint256)": {
        "author": "Denis M. Putnam",
        "details": "no other details",
        "params": {
          "_clientName": "name of the client",
          "_invoiceNumber": "invoice number being requested.",
          "_userAddress": "user address"
        },
        "returns": {
          "datePmtReceived": "datePmtReceived",
          "due120DaysDate": "due120DaysDate",
          "due30DaysDate": "due30DaysDate",
          "due60DaysDate": "due60DaysDate",
          "due90DaysDate": "due90DaysDate",
          "invoiceNumber": "invoiceNumber",
          "invoiceSentDate": "invoiceSentDate",
          "timesheetEndDate": "timesheetEndDate"
        }
      },
      "getInvoiceNumbers(address,string)": {
        "author": "Denis M. Putnam",
        "details": "returned string is a comma separated string of invoice numbers.  The comma is also the end of the string if no other values appear.",
        "params": {
          "_clientName": "name of the client",
          "_userAddress": "user address"
        },
        "returns": {
          "_0": "a comma seperated list of invoice numbers associated with the client."
        }
      },
      "getUser(address)": {
        "author": "Denis M. Putnam",
        "details": "Get the client for the given name.",
        "params": {
          "_userAddress": "user address"
        },
        "returns": {
          "ePwd": "ePwd",
          "name": "name"
        }
      },
      "getUserAddressByIndex(uint256)": {
        "author": "Denis M. Putnam",
        "details": "no other details.",
        "params": {
          "_index": "index of the user"
        },
        "returns": {
          "_userAddress": "_userAddress"
        }
      },
      "getUserCount()": {
        "author": "Denis M. Putnam",
        "details": "no other details.",
        "returns": {
          "usercount": "usercount"
        }
      },
      "getUserName(address)": {
        "author": "Denis M. Putnam",
        "details": "Get the client for the given name.",
        "params": {
          "_userAddress": "user address"
        },
        "returns": {
          "name": "name"
        }
      },
      "isNoClient(address,string,address)": {
        "author": "Denis M. Putnam",
        "details": "no other details.",
        "params": {
          "_clientID": "clients wallet address.",
          "_clientName": "name of the client."
        }
      },
      "isNoDuplicateInvoice(string,uint256)": {
        "author": "Denis M. Putnam",
        "details": "no other details.",
        "params": {
          "_clientName": "name of the client.",
          "_invoiceNumber": "invoice number."
        }
      },
      "owner()": {
        "details": "Returns the address of the current owner."
      },
      "renounceOwnership()": {
        "details": "Leaves the contract without owner. It will not be possible to call `onlyOwner` functions anymore. Can only be called by the current owner.     * NOTE: Renouncing ownership will leave the contract without an owner, thereby removing any functionality that is only available to the owner."
      },
      "transferOwnership(address)": {
        "details": "Transfers ownership of the contract to a new account (`newOwner`). Can only be called by the current owner."
      },
      "updateInvoice(address,string,uint256,uint256)": {
        "author": "Denis M. Putnam",
        "details": "no other details",
        "params": {
          "_clientName": "name of the client",
          "_invoiceNumber": "invoice number being requested.",
          "_invoicePmtDate": "payment date",
          "_userAddress": "user address"
        }
      }
    },
    "title": "Invoice Tracking contract"
  },
  "userdoc": {
    "methods": {
      "addClient(address,address,string)": {
        "notice": "Add a client to this contract."
      },
      "addInvoice(address,string,uint256,uint256,uint256,string,uint256[])": {
        "notice": "Add an invoice to track"
      },
      "addUser(address,string,string)": {
        "notice": "Add a user"
      },
      "constructor": "The constructor for this contract",
      "getClientByIndex(address,uint256)": {
        "notice": "get the client by index number."
      },
      "getClientByName(address,string)": {
        "notice": "Get the requested client"
      },
      "getInvoice(address,string,uint256)": {
        "notice": "Get an invoice"
      },
      "getInvoiceCount(address,string)": {
        "notice": "Get the count of invoices associated with the given client name"
      },
      "getInvoiceDates(address,string,uint256)": {
        "notice": "Get an invoice"
      },
      "getInvoiceNumbers(address,string)": {
        "notice": "Get the list of invoice numbers as a string for the given client name."
      },
      "getUser(address)": {
        "notice": "Get the user name and epassword"
      },
      "getUserAddressByIndex(uint256)": {
        "notice": "Get the user address"
      },
      "getUserCount()": {
        "notice": "Get the count of users."
      },
      "getUserName(address)": {
        "notice": "Get the user name"
      },
      "isNoClient(address,string,address)": {
        "notice": "Check for no client."
      },
      "isNoDuplicateInvoice(string,uint256)": {
        "notice": "Check for no duplicate invoice."
      },
      "updateInvoice(address,string,uint256,uint256)": {
        "notice": "Update an invoice with the payment date"
      }
    },
    "notice": "This contract tracks invoices for payment"
  }
}