{
  "contractName": "Owned",
  "abi": [
    {
      "inputs": [],
      "stateMutability": "payable",
      "type": "constructor"
    },
    {
      "inputs": [],
      "name": "getCurrentOwner",
      "outputs": [
        {
          "internalType": "address",
          "name": "",
          "type": "address"
        }
      ],
      "stateMutability": "view",
      "type": "function"
    },
    {
      "inputs": [
        {
          "internalType": "address payable",
          "name": "newOwner",
          "type": "address"
        }
      ],
      "name": "changeOwner",
      "outputs": [],
      "stateMutability": "nonpayable",
      "type": "function"
    }
  ],
  "bytecode": "0x6080604052336000806101000a81548173ffffffffffffffffffffffffffffffffffffffff021916908373ffffffffffffffffffffffffffffffffffffffff160217905550610249806100536000396000f3fe608060405234801561001057600080fd5b50600436106100365760003560e01c8063a18a186b1461003b578063a6f9dae114610085575b600080fd5b6100436100c9565b604051808273ffffffffffffffffffffffffffffffffffffffff1673ffffffffffffffffffffffffffffffffffffffff16815260200191505060405180910390f35b6100c76004803603602081101561009b57600080fd5b81019080803573ffffffffffffffffffffffffffffffffffffffff1690602001909291905050506100f2565b005b60008060009054906101000a900473ffffffffffffffffffffffffffffffffffffffff16905090565b6000809054906101000a900473ffffffffffffffffffffffffffffffffffffffff1673ffffffffffffffffffffffffffffffffffffffff163373ffffffffffffffffffffffffffffffffffffffff1614610197576040517f08c379a00000000000000000000000000000000000000000000000000000000081526004018080602001828103825260398152602001806101db6039913960400191505060405180910390fd5b806000806101000a81548173ffffffffffffffffffffffffffffffffffffffff021916908373ffffffffffffffffffffffffffffffffffffffff1602179055505056fe4f6e6c7920746865206f776e6572206f662074686520636f6e74726163742063616e206578656375746520746869732066756e6374696f6e2ea2646970667358221220aea985d5a3c28e4f99b789a5c712a66104b82a6501b6ec23ff117e989cd0d13e64736f6c63430006060033",
  "immutableReferences": {},
  "source": "// SPDX-License-Identifier: GPL-3.0\npragma solidity ^0.6.6;\n\n/// @title Owned contract\n/// @author Denis M. Putnam\n/// @notice This contract establishes the owner and allows for an owner change.\n/// @dev Use at your own risk.\ncontract Owned {\n  address payable owner;\n\n  /// @author Denis M. Putnam\n  /// @notice This modifier ensures that only the owner can call the funtion.\n  /// @dev No other details\n  modifier onlyOwner() {\n      require(msg.sender == owner,\"Only the owner of the contract can execute this function.\");\n      _;\n  }\n\n  /// @author Denis M. Putnam\n  /// @notice Constructor called when the contract is deployed.\n  /// @dev Sets the initial owner of the the contract.\n  constructor() public payable {\n      owner = msg.sender;\n  }\n\n  /// @author Denis M. Putnam\n  /// @notice Get the current owner.\n  /// @dev No other details.\n  /// @return address current owner.\n  function getCurrentOwner() public view returns(address) {\n      return owner;\n  }\n\n  /// @author Denis M. Putnam\n  /// @notice Change the current owner to the new owner.\n  /// @dev No other details.\n  /// @param newOwner new address payable owner.\n  function changeOwner(address payable newOwner) public onlyOwner() {\n      owner = newOwner;\n  }\n}\n",
  "sourcePath": "/Users/denisputnam/git/invoice-tracker-dapp/contracts/Owned.sol",
  "compiler": {
    "name": "solc",
    "version": "0.6.6+commit.6c089d02.Emscripten.clang"
  },
  "schemaVersion": "3.2.3",
  "updatedAt": "2020-08-04T02:55:35.933Z",
  "devdoc": {
    "author": "Denis M. Putnam",
    "details": "Use at your own risk.",
    "methods": {
      "changeOwner(address)": {
        "author": "Denis M. Putnam",
        "details": "No other details.",
        "params": {
          "newOwner": "new address payable owner."
        }
      },
      "constructor": {
        "author": "Denis M. Putnam",
        "details": "Sets the initial owner of the the contract."
      },
      "getCurrentOwner()": {
        "author": "Denis M. Putnam",
        "details": "No other details.",
        "returns": {
          "_0": "address current owner."
        }
      }
    },
    "title": "Owned contract"
  },
  "userdoc": {
    "methods": {
      "changeOwner(address)": {
        "notice": "Change the current owner to the new owner."
      },
      "constructor": "Constructor called when the contract is deployed.",
      "getCurrentOwner()": {
        "notice": "Get the current owner."
      }
    },
    "notice": "This contract establishes the owner and allows for an owner change."
  }
}