{
  "contractName": "Password",
  "abi": [
    {
      "inputs": [
        {
          "internalType": "string",
          "name": "_pwd",
          "type": "string"
        }
      ],
      "name": "calcPassword",
      "outputs": [
        {
          "internalType": "bytes32",
          "name": "ePwd",
          "type": "bytes32"
        }
      ],
      "stateMutability": "pure",
      "type": "function",
      "constant": true
    }
  ],
  "bytecode": "0x608060405234801561001057600080fd5b506101b0806100206000396000f3fe608060405234801561001057600080fd5b506004361061002b5760003560e01c8063a69fd72714610030575b600080fd5b6100e96004803603602081101561004657600080fd5b810190808035906020019064010000000081111561006357600080fd5b82018360208201111561007557600080fd5b8035906020019184600183028401116401000000008311171561009757600080fd5b91908080601f016020809104026020016040519081016040528093929190818152602001838380828437600081840152601f19601f8201169050808301925050505050505091929192905050506100ff565b6040518082815260200191505060405180910390f35b6000816040516020018082805190602001908083835b602083106101385780518252602082019150602081019050602083039250610115565b6001836020036101000a03801982511681845116808217855250505050505090500191505060405160208183030381529060405280519060200120905091905056fea26469706673582212202468e3b514e062720f1a3cd7fd2b68da31c0410a8b9d612213139dbdc1e93bd864736f6c63430006060033",
  "immutableReferences": {},
  "source": "// SPDX-License-Identifier: GPL-3.0\npragma solidity ^0.6.6;\n\n/// @title Passord contract\n/// @author Denis M. Putnam\n/// @notice This contract calculate the encrypted password.\n/// @dev Use at your own risk.\ncontract Password {\n  function calcPassword(string memory _pwd) public pure returns (bytes32 ePwd) {\n    return keccak256(abi.encodePacked(_pwd));\n  }\n}\n",
  "sourcePath": "/Users/denisputnam/git/invoice-tracker-dapp/contracts/Password.sol",
  "compiler": {
    "name": "solc",
    "version": "0.6.6+commit.6c089d02.Emscripten.clang"
  },
  "schemaVersion": "3.2.3",
  "updatedAt": "2020-08-03T20:14:25.839Z",
  "networkType": "ethereum",
  "devdoc": {
    "author": "Denis M. Putnam",
    "details": "Use at your own risk.",
    "methods": {},
    "title": "Passord contract"
  },
  "userdoc": {
    "methods": {},
    "notice": "This contract calculate the encrypted password."
  }
}