{
  "contractName": "Users",
  "abi": [
    {
      "anonymous": false,
      "inputs": [
        {
          "indexed": true,
          "internalType": "address",
          "name": "previousOwner",
          "type": "address"
        },
        {
          "indexed": true,
          "internalType": "address",
          "name": "newOwner",
          "type": "address"
        }
      ],
      "name": "OwnershipTransferred",
      "type": "event"
    },
    {
      "anonymous": false,
      "inputs": [
        {
          "indexed": false,
          "internalType": "address payable",
          "name": "_address",
          "type": "address"
        },
        {
          "indexed": false,
          "internalType": "string",
          "name": "_name",
          "type": "string"
        },
        {
          "indexed": false,
          "internalType": "string",
          "name": "_pwd",
          "type": "string"
        }
      ],
      "name": "addUserEvent",
      "type": "event"
    },
    {
      "anonymous": false,
      "inputs": [
        {
          "indexed": false,
          "internalType": "address",
          "name": "_userAddress",
          "type": "address"
        },
        {
          "indexed": false,
          "internalType": "string",
          "name": "_clientID",
          "type": "string"
        }
      ],
      "name": "duplicateClientEvent",
      "type": "event"
    },
    {
      "inputs": [
        {
          "internalType": "string",
          "name": "_pwd",
          "type": "string"
        }
      ],
      "name": "calcPassword",
      "outputs": [
        {
          "internalType": "bytes32",
          "name": "ePwd",
          "type": "bytes32"
        }
      ],
      "stateMutability": "pure",
      "type": "function",
      "constant": true
    },
    {
      "inputs": [
        {
          "internalType": "string",
          "name": "",
          "type": "string"
        }
      ],
      "name": "clientMap",
      "outputs": [
        {
          "internalType": "address",
          "name": "clientID",
          "type": "address"
        },
        {
          "internalType": "string",
          "name": "name",
          "type": "string"
        },
        {
          "internalType": "bool",
          "name": "flag",
          "type": "bool"
        }
      ],
      "stateMutability": "view",
      "type": "function",
      "constant": true
    },
    {
      "inputs": [
        {
          "internalType": "string",
          "name": "",
          "type": "string"
        }
      ],
      "name": "clientNameAddressMap",
      "outputs": [
        {
          "internalType": "address",
          "name": "",
          "type": "address"
        }
      ],
      "stateMutability": "view",
      "type": "function",
      "constant": true
    },
    {
      "inputs": [
        {
          "internalType": "string",
          "name": "",
          "type": "string"
        }
      ],
      "name": "clientNameInvoiceCountMap",
      "outputs": [
        {
          "internalType": "uint256",
          "name": "",
          "type": "uint256"
        }
      ],
      "stateMutability": "view",
      "type": "function",
      "constant": true
    },
    {
      "inputs": [
        {
          "internalType": "string",
          "name": "",
          "type": "string"
        },
        {
          "internalType": "uint256",
          "name": "",
          "type": "uint256"
        }
      ],
      "name": "clientNameInvoiceNumMap",
      "outputs": [
        {
          "internalType": "uint256",
          "name": "",
          "type": "uint256"
        }
      ],
      "stateMutability": "view",
      "type": "function",
      "constant": true
    },
    {
      "inputs": [
        {
          "internalType": "string",
          "name": "",
          "type": "string"
        }
      ],
      "name": "clientNameInvoicesCountMap",
      "outputs": [
        {
          "internalType": "uint256",
          "name": "",
          "type": "uint256"
        }
      ],
      "stateMutability": "view",
      "type": "function",
      "constant": true
    },
    {
      "inputs": [
        {
          "internalType": "string",
          "name": "",
          "type": "string"
        },
        {
          "internalType": "uint256",
          "name": "",
          "type": "uint256"
        }
      ],
      "name": "clientNameInvoicesMap",
      "outputs": [
        {
          "internalType": "uint256",
          "name": "invoiceNumber",
          "type": "uint256"
        },
        {
          "internalType": "uint256",
          "name": "netTerms",
          "type": "uint256"
        },
        {
          "internalType": "uint256",
          "name": "numberHours",
          "type": "uint256"
        },
        {
          "internalType": "string",
          "name": "amount",
          "type": "string"
        },
        {
          "internalType": "uint256",
          "name": "timesheetEndDate",
          "type": "uint256"
        },
        {
          "internalType": "uint256",
          "name": "invoiceSentDate",
          "type": "uint256"
        },
        {
          "internalType": "uint256",
          "name": "due30DaysDate",
          "type": "uint256"
        },
        {
          "internalType": "uint256",
          "name": "due60DaysDate",
          "type": "uint256"
        },
        {
          "internalType": "uint256",
          "name": "due90DaysDate",
          "type": "uint256"
        },
        {
          "internalType": "uint256",
          "name": "due120DaysDate",
          "type": "uint256"
        },
        {
          "internalType": "uint256",
          "name": "datePmtReceived",
          "type": "uint256"
        }
      ],
      "stateMutability": "view",
      "type": "function",
      "constant": true
    },
    {
      "inputs": [
        {
          "internalType": "address",
          "name": "_userAddress",
          "type": "address"
        },
        {
          "internalType": "string",
          "name": "_clientName",
          "type": "string"
        },
        {
          "internalType": "address",
          "name": "_clientID",
          "type": "address"
        }
      ],
      "name": "isNoClient",
      "outputs": [
        {
          "internalType": "bool",
          "name": "",
          "type": "bool"
        }
      ],
      "stateMutability": "payable",
      "type": "function",
      "payable": true
    },
    {
      "inputs": [
        {
          "internalType": "address",
          "name": "_userAddress",
          "type": "address"
        },
        {
          "internalType": "string",
          "name": "_pwd",
          "type": "string"
        }
      ],
      "name": "isPasswordValid",
      "outputs": [
        {
          "internalType": "bool",
          "name": "",
          "type": "bool"
        }
      ],
      "stateMutability": "view",
      "type": "function",
      "constant": true
    },
    {
      "inputs": [],
      "name": "owner",
      "outputs": [
        {
          "internalType": "address",
          "name": "",
          "type": "address"
        }
      ],
      "stateMutability": "view",
      "type": "function",
      "constant": true
    },
    {
      "inputs": [],
      "name": "renounceOwnership",
      "outputs": [],
      "stateMutability": "nonpayable",
      "type": "function"
    },
    {
      "inputs": [
        {
          "internalType": "address",
          "name": "newOwner",
          "type": "address"
        }
      ],
      "name": "transferOwnership",
      "outputs": [],
      "stateMutability": "nonpayable",
      "type": "function"
    },
    {
      "inputs": [
        {
          "internalType": "address",
          "name": "",
          "type": "address"
        }
      ],
      "name": "userClientIDMap",
      "outputs": [
        {
          "internalType": "address",
          "name": "",
          "type": "address"
        }
      ],
      "stateMutability": "view",
      "type": "function",
      "constant": true
    },
    {
      "inputs": [
        {
          "internalType": "address",
          "name": "",
          "type": "address"
        }
      ],
      "name": "userToNumClientsMap",
      "outputs": [
        {
          "internalType": "int256",
          "name": "",
          "type": "int256"
        }
      ],
      "stateMutability": "view",
      "type": "function",
      "constant": true
    },
    {
      "inputs": [
        {
          "internalType": "address",
          "name": "",
          "type": "address"
        }
      ],
      "name": "usersMap",
      "outputs": [
        {
          "internalType": "string",
          "name": "name",
          "type": "string"
        },
        {
          "internalType": "bytes32",
          "name": "ePwd",
          "type": "bytes32"
        },
        {
          "internalType": "bool",
          "name": "flag",
          "type": "bool"
        }
      ],
      "stateMutability": "view",
      "type": "function",
      "constant": true
    },
    {
      "inputs": [
        {
          "internalType": "address",
          "name": "",
          "type": "address"
        },
        {
          "internalType": "uint256",
          "name": "",
          "type": "uint256"
        }
      ],
      "name": "usersToClientsMap",
      "outputs": [
        {
          "internalType": "address",
          "name": "clientID",
          "type": "address"
        },
        {
          "internalType": "string",
          "name": "name",
          "type": "string"
        },
        {
          "internalType": "bool",
          "name": "flag",
          "type": "bool"
        }
      ],
      "stateMutability": "view",
      "type": "function",
      "constant": true
    },
    {
      "inputs": [
        {
          "internalType": "address payable",
          "name": "_address",
          "type": "address"
        },
        {
          "internalType": "string",
          "name": "_name",
          "type": "string"
        },
        {
          "internalType": "string",
          "name": "_pwd",
          "type": "string"
        }
      ],
      "name": "addUser",
      "outputs": [],
      "stateMutability": "nonpayable",
      "type": "function"
    },
    {
      "inputs": [
        {
          "internalType": "address",
          "name": "_userAddress",
          "type": "address"
        }
      ],
      "name": "getUserName",
      "outputs": [
        {
          "internalType": "string",
          "name": "name",
          "type": "string"
        }
      ],
      "stateMutability": "view",
      "type": "function",
      "constant": true
    },
    {
      "inputs": [
        {
          "internalType": "address",
          "name": "_userAddress",
          "type": "address"
        }
      ],
      "name": "getUser",
      "outputs": [
        {
          "internalType": "string",
          "name": "name",
          "type": "string"
        },
        {
          "internalType": "bytes32",
          "name": "ePwd",
          "type": "bytes32"
        }
      ],
      "stateMutability": "view",
      "type": "function",
      "constant": true
    },
    {
      "inputs": [],
      "name": "getUserCount",
      "outputs": [
        {
          "internalType": "uint256",
          "name": "usercount",
          "type": "uint256"
        }
      ],
      "stateMutability": "view",
      "type": "function",
      "constant": true
    },
    {
      "inputs": [
        {
          "internalType": "uint256",
          "name": "_index",
          "type": "uint256"
        }
      ],
      "name": "getUserAddressByIndex",
      "outputs": [
        {
          "internalType": "address",
          "name": "_userAddress",
          "type": "address"
        }
      ],
      "stateMutability": "view",
      "type": "function",
      "constant": true
    }
  ],
  "bytecode": "0x6080604052600060025560006100196100bc60201b60201c565b9050806000806101000a81548173ffffffffffffffffffffffffffffffffffffffff021916908373ffffffffffffffffffffffffffffffffffffffff1602179055508073ffffffffffffffffffffffffffffffffffffffff16600073ffffffffffffffffffffffffffffffffffffffff167f8be0079c531659141344cd1fd0a4f28419497f9722a3daafe3b4186f6b6457e060405160405180910390a3506100c4565b600033905090565b612666806100d36000396000f3fe60806040526004361061012a5760003560e01c8063a69fd727116100ab578063cca76c5d1161006f578063cca76c5d14610d34578063d7554a6814610daf578063d84f55ee14610f2e578063e281447c14610ff8578063f2fde38b146110d4578063f53642de146111255761012a565b8063a69fd727146109ae578063b5cb15f714610a8a578063c29ca72614610ab5578063c77e7a8b14610bbd578063c93b840614610c4e5761012a565b80634be7a697116100f25780634be7a6971461068b5780636f77926b146106f0578063715018a6146107c15780638353a4ba146107d85780638da5cb5b146109575761012a565b8063098ef9a51461012f57806313f0df4d1461020b5780631b3b36b51461031e5780632e7f45141461041e57806336b51324146105af575b600080fd5b34801561013b57600080fd5b506101f56004803603602081101561015257600080fd5b810190808035906020019064010000000081111561016f57600080fd5b82018360208201111561018157600080fd5b803590602001918460018302840111640100000000831117156101a357600080fd5b91908080601f016020809104026020016040519081016040528093929190818152602001838380828437600081840152601f19601f820116905080830192505050505050509192919290505050611237565b6040518082815260200191505060405180910390f35b6103046004803603606081101561022157600080fd5b81019080803573ffffffffffffffffffffffffffffffffffffffff1690602001909291908035906020019064010000000081111561025e57600080fd5b82018360208201111561027057600080fd5b8035906020019184600183028401116401000000008311171561029257600080fd5b91908080601f016020809104026020016040519081016040528093929190818152602001838380828437600081840152601f19601f820116905080830192505050505050509192919290803573ffffffffffffffffffffffffffffffffffffffff169060200190929190505050611265565b604051808215151515815260200191505060405180910390f35b34801561032a57600080fd5b506104046004803603604081101561034157600080fd5b81019080803573ffffffffffffffffffffffffffffffffffffffff1690602001909291908035906020019064010000000081111561037e57600080fd5b82018360208201111561039057600080fd5b803590602001918460018302840111640100000000831117156103b257600080fd5b91908080601f016020809104026020016040519081016040528093929190818152602001838380828437600081840152601f19601f8201169050808301925050505050505091929192905050506113df565b604051808215151515815260200191505060405180910390f35b34801561042a57600080fd5b506104ee6004803603604081101561044157600080fd5b810190808035906020019064010000000081111561045e57600080fd5b82018360208201111561047057600080fd5b8035906020019184600183028401116401000000008311171561049257600080fd5b91908080601f016020809104026020016040519081016040528093929190818152602001838380828437600081840152601f19601f820116905080830192505050505050509192919290803590602001909291905050506114a4565b604051808c81526020018b81526020018a81526020018060200189815260200188815260200187815260200186815260200185815260200184815260200183815260200182810382528a818151815260200191508051906020019080838360005b8381101561056a57808201518184015260208101905061054f565b50505050905090810190601f1680156105975780820380516001836020036101000a031916815260200191505b509c5050505050505050505050505060405180910390f35b3480156105bb57600080fd5b50610675600480360360208110156105d257600080fd5b81019080803590602001906401000000008111156105ef57600080fd5b82018360208201111561060157600080fd5b8035906020019184600183028401116401000000008311171561062357600080fd5b91908080601f016020809104026020016040519081016040528093929190818152602001838380828437600081840152601f19601f8201169050808301925050505050505091929192905050506115c6565b6040518082815260200191505060405180910390f35b34801561069757600080fd5b506106da600480360360208110156106ae57600080fd5b81019080803573ffffffffffffffffffffffffffffffffffffffff1690602001909291905050506115f4565b6040518082815260200191505060405180910390f35b3480156106fc57600080fd5b5061073f6004803603602081101561071357600080fd5b81019080803573ffffffffffffffffffffffffffffffffffffffff16906020019092919050505061160c565b6040518080602001838152602001828103825284818151815260200191508051906020019080838360005b8381101561078557808201518184015260208101905061076a565b50505050905090810190601f1680156107b25780820380516001836020036101000a031916815260200191505b50935050505060405180910390f35b3480156107cd57600080fd5b506107d661173a565b005b3480156107e457600080fd5b5061089e600480360360208110156107fb57600080fd5b810190808035906020019064010000000081111561081857600080fd5b82018360208201111561082a57600080fd5b8035906020019184600183028401116401000000008311171561084c57600080fd5b91908080601f016020809104026020016040519081016040528093929190818152602001838380828437600081840152601f19601f8201169050808301925050505050505091929192905050506118c2565b604051808473ffffffffffffffffffffffffffffffffffffffff1673ffffffffffffffffffffffffffffffffffffffff1681526020018060200183151515158152602001828103825284818151815260200191508051906020019080838360005b8381101561091a5780820151818401526020810190506108ff565b50505050905090810190601f1680156109475780820380516001836020036101000a031916815260200191505b5094505050505060405180910390f35b34801561096357600080fd5b5061096c6119c7565b604051808273ffffffffffffffffffffffffffffffffffffffff1673ffffffffffffffffffffffffffffffffffffffff16815260200191505060405180910390f35b3480156109ba57600080fd5b50610a74600480360360208110156109d157600080fd5b81019080803590602001906401000000008111156109ee57600080fd5b820183602082011115610a0057600080fd5b80359060200191846001830284011164010000000083111715610a2257600080fd5b91908080601f016020809104026020016040519081016040528093929190818152602001838380828437600081840152601f19601f8201169050808301925050505050505091929192905050506119f0565b6040518082815260200191505060405180910390f35b348015610a9657600080fd5b50610a9f611a6b565b6040518082815260200191505060405180910390f35b348015610ac157600080fd5b50610b7b60048036036020811015610ad857600080fd5b8101908080359060200190640100000000811115610af557600080fd5b820183602082011115610b0757600080fd5b80359060200191846001830284011164010000000083111715610b2957600080fd5b91908080601f016020809104026020016040519081016040528093929190818152602001838380828437600081840152601f19601f820116905080830192505050505050509192919290505050611b3e565b604051808273ffffffffffffffffffffffffffffffffffffffff1673ffffffffffffffffffffffffffffffffffffffff16815260200191505060405180910390f35b348015610bc957600080fd5b50610c0c60048036036020811015610be057600080fd5b81019080803573ffffffffffffffffffffffffffffffffffffffff169060200190929190505050611b87565b604051808273ffffffffffffffffffffffffffffffffffffffff1673ffffffffffffffffffffffffffffffffffffffff16815260200191505060405180910390f35b348015610c5a57600080fd5b50610d1e60048036036040811015610c7157600080fd5b8101908080359060200190640100000000811115610c8e57600080fd5b820183602082011115610ca057600080fd5b80359060200191846001830284011164010000000083111715610cc257600080fd5b91908080601f016020809104026020016040519081016040528093929190818152602001838380828437600081840152601f19601f82011690508083019250505050505050919291929080359060200190929190505050611bba565b6040518082815260200191505060405180910390f35b348015610d4057600080fd5b50610d6d60048036036020811015610d5757600080fd5b8101908080359060200190929190505050611bfe565b604051808273ffffffffffffffffffffffffffffffffffffffff1673ffffffffffffffffffffffffffffffffffffffff16815260200191505060405180910390f35b348015610dbb57600080fd5b50610f2c60048036036060811015610dd257600080fd5b81019080803573ffffffffffffffffffffffffffffffffffffffff16906020019092919080359060200190640100000000811115610e0f57600080fd5b820183602082011115610e2157600080fd5b80359060200191846001830284011164010000000083111715610e4357600080fd5b91908080601f016020809104026020016040519081016040528093929190818152602001838380828437600081840152601f19601f82011690508083019250505050505050919291929080359060200190640100000000811115610ea657600080fd5b820183602082011115610eb857600080fd5b80359060200191846001830284011164010000000083111715610eda57600080fd5b91908080601f016020809104026020016040519081016040528093929190818152602001838380828437600081840152601f19601f820116905080830192505050505050509192919290505050611d04565b005b348015610f3a57600080fd5b50610f7d60048036036020811015610f5157600080fd5b81019080803573ffffffffffffffffffffffffffffffffffffffff169060200190929190505050612094565b6040518080602001828103825283818151815260200191508051906020019080838360005b83811015610fbd578082015181840152602081019050610fa2565b50505050905090810190601f168015610fea5780820380516001836020036101000a031916815260200191505b509250505060405180910390f35b34801561100457600080fd5b506110476004803603602081101561101b57600080fd5b81019080803573ffffffffffffffffffffffffffffffffffffffff169060200190929190505050612178565b604051808060200184815260200183151515158152602001828103825285818151815260200191508051906020019080838360005b8381101561109757808201518184015260208101905061107c565b50505050905090810190601f1680156110c45780820380516001836020036101000a031916815260200191505b5094505050505060405180910390f35b3480156110e057600080fd5b50611123600480360360208110156110f757600080fd5b81019080803573ffffffffffffffffffffffffffffffffffffffff169060200190929190505050612247565b005b34801561113157600080fd5b5061117e6004803603604081101561114857600080fd5b81019080803573ffffffffffffffffffffffffffffffffffffffff16906020019092919080359060200190929190505050612454565b604051808473ffffffffffffffffffffffffffffffffffffffff1673ffffffffffffffffffffffffffffffffffffffff1681526020018060200183151515158152602001828103825284818151815260200191508051906020019080838360005b838110156111fa5780820151818401526020810190506111df565b50505050905090810190601f1680156112275780820380516001836020036101000a031916815260200191505b5094505050505060405180910390f35b600c818051602081018201805184825260208301602085012081835280955050505050506000915090505481565b60008173ffffffffffffffffffffffffffffffffffffffff16600760008673ffffffffffffffffffffffffffffffffffffffff1673ffffffffffffffffffffffffffffffffffffffff16815260200190815260200160002060009054906101000a900473ffffffffffffffffffffffffffffffffffffffff1673ffffffffffffffffffffffffffffffffffffffff1614156113d3577f3266e9973cd88d0b427a9f781262c2810cb85378bdc9e4965a3c7aa22977708e8484604051808373ffffffffffffffffffffffffffffffffffffffff1673ffffffffffffffffffffffffffffffffffffffff16815260200180602001828103825283818151815260200191508051906020019080838360005b8381101561138f578082015181840152602081019050611374565b50505050905090810190601f1680156113bc5780820380516001836020036101000a031916815260200191505b50935050505060405180910390a1600090506113d8565b600190505b9392505050565b600080826040516020018082805190602001908083835b6020831061141957805182526020820191506020810190506020830392506113f6565b6001836020036101000a03801982511681845116808217855250505050505090500191505060405160208183030381529060405280519060200120905080600160008673ffffffffffffffffffffffffffffffffffffffff1673ffffffffffffffffffffffffffffffffffffffff168152602001908152602001600020600101541491505092915050565b60048280516020810182018051848252602083016020850120818352809550505050505081815481106114d357fe5b90600052602060002090600b020160009150915050806000015490806001015490806002015490806003018054600181600116156101000203166002900480601f0160208091040260200160405190810160405280929190818152602001828054600181600116156101000203166002900480156115925780601f1061156757610100808354040283529160200191611592565b820191906000526020600020905b81548152906001019060200180831161157557829003601f168201915b50505050509080600401549080600501549080600601549080600701549080600801549080600901549080600a015490508b565b6006818051602081018201805184825260208301602085012081835280955050505050506000915090505481565b600b6020528060005260406000206000915090505481565b60606000600160008473ffffffffffffffffffffffffffffffffffffffff1673ffffffffffffffffffffffffffffffffffffffff168152602001908152602001600020600001600160008573ffffffffffffffffffffffffffffffffffffffff1673ffffffffffffffffffffffffffffffffffffffff16815260200190815260200160002060010154818054600181600116156101000203166002900480601f01602080910402602001604051908101604052809291908181526020018280546001816001161561010002031660029004801561172a5780601f106116ff5761010080835404028352916020019161172a565b820191906000526020600020905b81548152906001019060200180831161170d57829003601f168201915b5050505050915091509150915091565b61174261255d565b73ffffffffffffffffffffffffffffffffffffffff166000809054906101000a900473ffffffffffffffffffffffffffffffffffffffff1673ffffffffffffffffffffffffffffffffffffffff1614611803576040517f08c379a00000000000000000000000000000000000000000000000000000000081526004018080602001828103825260208152602001807f4f776e61626c653a2063616c6c6572206973206e6f7420746865206f776e657281525060200191505060405180910390fd5b600073ffffffffffffffffffffffffffffffffffffffff166000809054906101000a900473ffffffffffffffffffffffffffffffffffffffff1673ffffffffffffffffffffffffffffffffffffffff167f8be0079c531659141344cd1fd0a4f28419497f9722a3daafe3b4186f6b6457e060405160405180910390a360008060006101000a81548173ffffffffffffffffffffffffffffffffffffffff021916908373ffffffffffffffffffffffffffffffffffffffff160217905550565b6008818051602081018201805184825260208301602085012081835280955050505050506000915090508060000160009054906101000a900473ffffffffffffffffffffffffffffffffffffffff1690806001018054600181600116156101000203166002900480601f0160208091040260200160405190810160405280929190818152602001828054600181600116156101000203166002900480156119aa5780601f1061197f576101008083540402835291602001916119aa565b820191906000526020600020905b81548152906001019060200180831161198d57829003601f168201915b5050505050908060020160009054906101000a900460ff16905083565b60008060009054906101000a900473ffffffffffffffffffffffffffffffffffffffff16905090565b6000816040516020018082805190602001908083835b60208310611a295780518252602082019150602081019050602083039250611a06565b6001836020036101000a038019825116818451168082178552505050505050905001915050604051602081830303815290604052805190602001209050919050565b6000611a7561255d565b73ffffffffffffffffffffffffffffffffffffffff166000809054906101000a900473ffffffffffffffffffffffffffffffffffffffff1673ffffffffffffffffffffffffffffffffffffffff1614611b36576040517f08c379a00000000000000000000000000000000000000000000000000000000081526004018080602001828103825260208152602001807f4f776e61626c653a2063616c6c6572206973206e6f7420746865206f776e657281525060200191505060405180910390fd5b600254905090565b6009818051602081018201805184825260208301602085012081835280955050505050506000915054906101000a900473ffffffffffffffffffffffffffffffffffffffff1681565b60076020528060005260406000206000915054906101000a900473ffffffffffffffffffffffffffffffffffffffff1681565b6005828051602081018201805184825260208301602085012081835280955050505050508181548110611be957fe5b90600052602060002001600091509150505481565b6000611c0861255d565b73ffffffffffffffffffffffffffffffffffffffff166000809054906101000a900473ffffffffffffffffffffffffffffffffffffffff1673ffffffffffffffffffffffffffffffffffffffff1614611cc9576040517f08c379a00000000000000000000000000000000000000000000000000000000081526004018080602001828103825260208152602001807f4f776e61626c653a2063616c6c6572206973206e6f7420746865206f776e657281525060200191505060405180910390fd5b6003600083815260200190815260200160002060009054906101000a900473ffffffffffffffffffffffffffffffffffffffff169050919050565b8260001515600160008373ffffffffffffffffffffffffffffffffffffffff1673ffffffffffffffffffffffffffffffffffffffff16815260200190815260200160002060020160009054906101000a900460ff16151514611dce576040517f08c379a00000000000000000000000000000000000000000000000000000000081526004018080602001828103825260138152602001807f5573657220616c7265616479206578697374730000000000000000000000000081525060200191505060405180910390fd5b6000826040516020018082805190602001908083835b60208310611e075780518252602082019150602081019050602083039250611de4565b6001836020036101000a038019825116818451168082178552505050505050905001915050604051602081830303815290604052805190602001209050604051806060016040528085815260200182815260200160011515815250600160008773ffffffffffffffffffffffffffffffffffffffff1673ffffffffffffffffffffffffffffffffffffffff1681526020019081526020016000206000820151816000019080519060200190611ebd929190612565565b506020820151816001015560408201518160020160006101000a81548160ff0219169083151502179055509050508460036000600254815260200190815260200160002060006101000a81548173ffffffffffffffffffffffffffffffffffffffff021916908373ffffffffffffffffffffffffffffffffffffffff16021790555060016002600082825401925050819055507f5ae6671f20b51a868ae522f9841ff46bb92cc988a8f2f502deba9d90b8cd8693858585604051808473ffffffffffffffffffffffffffffffffffffffff1673ffffffffffffffffffffffffffffffffffffffff1681526020018060200180602001838103835285818151815260200191508051906020019080838360005b83811015611fea578082015181840152602081019050611fcf565b50505050905090810190601f1680156120175780820380516001836020036101000a031916815260200191505b50838103825284818151815260200191508051906020019080838360005b83811015612050578082015181840152602081019050612035565b50505050905090810190601f16801561207d5780820380516001836020036101000a031916815260200191505b509550505050505060405180910390a15050505050565b6060600160008373ffffffffffffffffffffffffffffffffffffffff1673ffffffffffffffffffffffffffffffffffffffff1681526020019081526020016000206000018054600181600116156101000203166002900480601f01602080910402602001604051908101604052809291908181526020018280546001816001161561010002031660029004801561216c5780601f106121415761010080835404028352916020019161216c565b820191906000526020600020905b81548152906001019060200180831161214f57829003601f168201915b50505050509050919050565b6001602052806000526040600020600091509050806000018054600181600116156101000203166002900480601f0160208091040260200160405190810160405280929190818152602001828054600181600116156101000203166002900480156122245780601f106121f957610100808354040283529160200191612224565b820191906000526020600020905b81548152906001019060200180831161220757829003601f168201915b5050505050908060010154908060020160009054906101000a900460ff16905083565b61224f61255d565b73ffffffffffffffffffffffffffffffffffffffff166000809054906101000a900473ffffffffffffffffffffffffffffffffffffffff1673ffffffffffffffffffffffffffffffffffffffff1614612310576040517f08c379a00000000000000000000000000000000000000000000000000000000081526004018080602001828103825260208152602001807f4f776e61626c653a2063616c6c6572206973206e6f7420746865206f776e657281525060200191505060405180910390fd5b600073ffffffffffffffffffffffffffffffffffffffff168173ffffffffffffffffffffffffffffffffffffffff161415612396576040517f08c379a000000000000000000000000000000000000000000000000000000000815260040180806020018281038252602681526020018061260b6026913960400191505060405180910390fd5b8073ffffffffffffffffffffffffffffffffffffffff166000809054906101000a900473ffffffffffffffffffffffffffffffffffffffff1673ffffffffffffffffffffffffffffffffffffffff167f8be0079c531659141344cd1fd0a4f28419497f9722a3daafe3b4186f6b6457e060405160405180910390a3806000806101000a81548173ffffffffffffffffffffffffffffffffffffffff021916908373ffffffffffffffffffffffffffffffffffffffff16021790555050565b600a602052816000526040600020818154811061246d57fe5b9060005260206000209060030201600091509150508060000160009054906101000a900473ffffffffffffffffffffffffffffffffffffffff1690806001018054600181600116156101000203166002900480601f0160208091040260200160405190810160405280929190818152602001828054600181600116156101000203166002900480156125405780601f1061251557610100808354040283529160200191612540565b820191906000526020600020905b81548152906001019060200180831161252357829003601f168201915b5050505050908060020160009054906101000a900460ff16905083565b600033905090565b828054600181600116156101000203166002900490600052602060002090601f016020900481019282601f106125a657805160ff19168380011785556125d4565b828001600101855582156125d4579182015b828111156125d35782518255916020019190600101906125b8565b5b5090506125e191906125e5565b5090565b61260791905b808211156126035760008160009055506001016125eb565b5090565b9056fe4f776e61626c653a206e6577206f776e657220697320746865207a65726f2061646472657373a26469706673582212206310ee4b13868579323c2234ff85e265016dd9d85d1e512a63daad8b6b235b1464736f6c63430006060033",
  "immutableReferences": {},
  "source": "// SPDX-License-Identifier: GPL-3.0\npragma solidity ^0.6.6;\n\n//import \"@openzeppelin/contracts/access/Ownable.sol\";\nimport \"./Password.sol\";\n\ncontract Users is Password {\n    // /// @dev User struct\n    // struct User {\n    //     string name;\n    //     bytes32 ePwd;\n    //     bool flag;\n    // }\n\n    // /// @dev map the user address to the User struct\n    // mapping(address => User) public usersMap;\n    // /// @dev user count\n    // uint256 userCount = 0;\n    // /// @dev map the user index to the user address\n    // mapping(uint256 => address) userIndexMap;\n\n    event addUserEvent(address payable _address, string _name, string _pwd);\n\n    // modifier isValidPassword(address _userAddress, string memory _pwd) {\n    //     bytes32 epwd = keccak256(abi.encodePacked(_pwd));\n    //     require(usersMap[_userAddress].ePwd == epwd, \"Invalid password given\");\n    //     _;\n    // }\n\n    // modifier noDupUser(address _address) {\n    //     require(usersMap[_address].flag == false, \"User already exists\");\n    //     _;\n    // }\n\n    // function isPasswordValid(address _userAddress, string memory _pwd)\n    //     public\n    //     view\n    //     returns (bool)\n    // {\n    //     bytes32 epwd = keccak256(abi.encodePacked(_pwd));\n    //     return (usersMap[_userAddress].ePwd == epwd);\n    // }\n\n    /// @author Denis M. Putnam\n    /// @notice Add a user\n    /// @param _address wallet account address for the user\n    /// @param _name user name\n    /// @param _pwd unencrypted password\n    /// @dev no other details.\n    function addUser(\n        address payable _address,\n        string memory _name,\n        string memory _pwd\n    ) public noDupUser(_address) {\n        bytes32 epwd = keccak256(abi.encodePacked(_pwd));\n        usersMap[_address] = User(_name, epwd, true);\n        userIndexMap[userCount] = _address;\n        userCount += 1;\n        emit addUserEvent(_address, _name, _pwd);\n    }\n\n    /// @author Denis M. Putnam\n    /// @notice Get the user name\n    /// @param _userAddress user address\n    /// @dev Get the client for the given name.\n    /// @return name\n    function getUserName(address _userAddress)\n        public\n        view\n        returns (string memory name)\n    {\n        return usersMap[_userAddress].name;\n    }\n\n    /// @author Denis M. Putnam\n    /// @notice Get the user name and epassword\n    /// @param _userAddress user address\n    /// @dev Get the client for the given name.\n    /// @return name\n    /// @return ePwd\n    function getUser(address _userAddress)\n        public\n        view\n        returns (string memory name, bytes32 ePwd)\n    {\n        return (usersMap[_userAddress].name, usersMap[_userAddress].ePwd);\n    }\n\n    /// @author Denis M. Putnam\n    /// @notice Get the count of users.\n    /// @return usercount\n    /// @dev no other details.\n    function getUserCount()\n        public\n        view\n        onlyOwner()\n        returns (uint256 usercount)\n    {\n        return userCount;\n    }\n\n    /// @author Denis M. Putnam\n    /// @notice Get the user address\n    /// @param _index index of the user\n    /// @return _userAddress\n    /// @dev no other details.\n    function getUserAddressByIndex(uint256 _index)\n        public\n        view\n        onlyOwner()\n        returns (address _userAddress)\n    {\n        return (userIndexMap[_index]);\n    }\n\n    // /// @author Denis M. Putnam\n    // /// @notice calculate the encrypted password from the given one\n    // /// @param _pwd plain text password\n    // /// @return ePwd\n    // /// @dev no other details.\n    // function calcPassword(string memory _pwd)\n    //     public\n    //     pure\n    //     returns (bytes32 ePwd)\n    // {\n    //     return keccak256(abi.encodePacked(_pwd));\n    // }\n}\n",
  "sourcePath": "/Users/denisputnam/git/invoice-tracker-dapp/contracts/Users.sol",
  "compiler": {
    "name": "solc",
    "version": "0.6.6+commit.6c089d02.Emscripten.clang"
  },
  "schemaVersion": "3.2.3",
  "updatedAt": "2020-08-06T18:53:04.194Z",
  "networkType": "ethereum",
  "devdoc": {
    "methods": {
      "addUser(address,string,string)": {
        "author": "Denis M. Putnam",
        "details": "no other details.",
        "params": {
          "_address": "wallet account address for the user",
          "_name": "user name",
          "_pwd": "unencrypted password"
        }
      },
      "calcPassword(string)": {
        "author": "Denis M. Putnam",
        "details": "no other details.",
        "params": {
          "_pwd": "plain text password"
        },
        "returns": {
          "ePwd": "ePwd"
        }
      },
      "getUser(address)": {
        "author": "Denis M. Putnam",
        "details": "Get the client for the given name.",
        "params": {
          "_userAddress": "user address"
        },
        "returns": {
          "ePwd": "ePwd",
          "name": "name"
        }
      },
      "getUserAddressByIndex(uint256)": {
        "author": "Denis M. Putnam",
        "details": "no other details.",
        "params": {
          "_index": "index of the user"
        },
        "returns": {
          "_userAddress": "_userAddress"
        }
      },
      "getUserCount()": {
        "author": "Denis M. Putnam",
        "details": "no other details.",
        "returns": {
          "usercount": "usercount"
        }
      },
      "getUserName(address)": {
        "author": "Denis M. Putnam",
        "details": "Get the client for the given name.",
        "params": {
          "_userAddress": "user address"
        },
        "returns": {
          "name": "name"
        }
      },
      "isNoClient(address,string,address)": {
        "author": "Denis M. Putnam",
        "details": "no other details.",
        "params": {
          "_clientID": "clients wallet address.",
          "_clientName": "name of the client."
        }
      },
      "owner()": {
        "details": "Returns the address of the current owner."
      },
      "renounceOwnership()": {
        "details": "Leaves the contract without owner. It will not be possible to call `onlyOwner` functions anymore. Can only be called by the current owner.     * NOTE: Renouncing ownership will leave the contract without an owner, thereby removing any functionality that is only available to the owner."
      },
      "transferOwnership(address)": {
        "details": "Transfers ownership of the contract to a new account (`newOwner`). Can only be called by the current owner."
      }
    }
  },
  "userdoc": {
    "methods": {
      "addUser(address,string,string)": {
        "notice": "Add a user"
      },
      "calcPassword(string)": {
        "notice": "calculate the encrypted password from the given one"
      },
      "getUser(address)": {
        "notice": "Get the user name and epassword"
      },
      "getUserAddressByIndex(uint256)": {
        "notice": "Get the user address"
      },
      "getUserCount()": {
        "notice": "Get the count of users."
      },
      "getUserName(address)": {
        "notice": "Get the user name"
      },
      "isNoClient(address,string,address)": {
        "notice": "Check for no client."
      }
    }
  }
}